:100000000000011035310000614700000D31000093
:1000100061470000614700006147000000000000E8
:10002000000000000000000000000000114D000072
:100030006147000000000000414D000061470000E2
:100040006147000061470000614700006147000010
:100050006147000061470000614700006147000000
:1000600061470000614700006147000061470000F0
:1000700061470000614700006147000061470000E0
:1000800061470000614700006147000061470000D0
:1000900061470000614700006147000061470000C0
:1000A00061470000614700006147000061470000B0
:1000B00061470000614700006147000061470000A0
:1000C0006147000061470000614700006147000090
:1000D0006147000061470000614700006147000080
:1000E00061470000447E000000000010EC000000AA
:1000F000447E00000000002000000000F00000101E
:10010000440200000000002000000000FFFFFFFF8D
:10011000FFFFFFFFFFFFFFFFFFFFFFFFFFFFFFFFEF
:10012000FFFFFFFFFFFFFFFFFFFFFFFFFFFFFFFFDF
:10013000FFFFFFFFFFFFFFFFFFFFFFFFFFFFFFFFCF
:10014000FFFFFFFFFFFFFFFFFFFFFFFFFFFFFFFFBF
:10015000FFFFFFFFFFFFFFFFFFFFFFFFFFFFFFFFAF
:10016000FFFFFFFFFFFFFFFFFFFFFFFFFFFFFFFF9F
:10017000FFFFFFFFFFFFFFFFFFFFFFFFFFFFFFFF8F
:10018000FFFFFFFFFFFFFFFFFFFFFFFFFFFFFFFF7F
:10019000FFFFFFFFFFFFFFFFFFFFFFFFFFFFFFFF6F
:1001A000FFFFFFFFFFFFFFFFFFFFFFFFFFFFFFFF5F
:1001B000FFFFFFFFFFFFFFFFFFFFFFFFFFFFFFFF4F
:1001C000FFFFFFFFFFFFFFFFFFFFFFFFFFFFFFFF3F
:1001D000FFFFFFFFFFFFFFFFFFFFFFFFFFFFFFFF2F
:1001E000FFFFFFFFFFFFFFFFFFFFFFFFFFFFFFFF1F
:1001F000FFFFFFFFFFFFFFFFFFFFFFFFFFFFFFFF0F
:10020000FFFFFFFFFFFFFFFFFFFFFFFFFFFFFFFFFE
:10021000FFFFFFFFFFFFFFFFFFFFFFFFFFFFFFFFEE
:10022000FFFFFFFFFFFFFFFFFFFFFFFFFFFFFFFFDE
:10023000FFFFFFFFFFFFFFFFFFFFFFFFFFFFFFFFCE
:10024000FFFFFFFFFFFFFFFFFFFFFFFFFFFFFFFFBE
:10025000FFFFFFFFFFFFFFFFFFFFFFFFFFFFFFFFAE
:10026000FFFFFFFFFFFFFFFFFFFFFFFFFFFFFFFF9E
:10027000FFFFFFFFFFFFFFFFFFFFFFFFFFFFFFFF8E
:10028000FFFFFFFFFFFFFFFFFFFFFFFFFFFFFFFF7E
:10029000FFFFFFFFFFFFFFFFFFFFFFFFFFFFFFFF6E
:1002A000FFFFFFFFFFFFFFFFFFFFFFFFFFFFFFFF5E
:1002B000FFFFFFFFFFFFFFFFFFFFFFFFFFFFFFFF4E
:1002C000FFFFFFFFFFFFFFFFFFFFFFFFFFFFFFFF3E
:1002D000FFFFFFFFFFFFFFFFFFFFFFFFFFFFFFFF2E
:1002E000FFFFFFFFFFFFFFFFFFFFFFFFFFFFFFFF1E
:1002F000FFFFFFFFFFFFFFFFFFFFFFFFFFFFFFFF0E
:10030000F8B500BFF8BC08BC9E4670474D0300001E
:10031000652F0000CD310000F94C0000F8B500BF9A
:10032000F8BC08BC9E46704710B5054C237833B91D
:10033000044B13B10448AFF300800123237010BDB8
:10034000F0000010000000008C7D000008B5034B99
:100350001BB103490348AFF3008008BD0000000053
:10036000F40000108C7D000090B400AF4FF0FF331C
:100370006FF0004418462146BD4690BC704780B4DB
:1003800000AF4FF4000307EE903AB0EE670ABD46A7
:100390005DF8047B704780B400AF4FF0505307EE18
:1003A000903AB0EE670ABD465DF8047B7047FFFFE8
:1003B00080B483B000AF78607B6803F01F02074908
:1003C0007B685B09012000FA02F2203341F8232008
:1003D00000BF0C37BD465DF8047B704700E100E0CC
:1003E00080B483B000AF78607B681B7918460C3707
:1003F000BD465DF8047B704780B483B000AF786081
:100400007B685B7918460C37BD465DF8047B704706
:1004100080B582B000AF78600B46FB70084BF9786E
:100420001A785B781B021A43002362F30F031A4603
:10043000786800F059F800BF0837BD4680BD00BF9E
:10044000C067000080B582B000AF78600B46FB70DB
:10045000084BF9781A785B781B021A43002362F381
:100460000F031A46786800F03FF800BF0837BD4612
:1004700080BD00BFC467000080B582B000AF786067
:100480000B46FB70FB7883F00103DBB21946084B87
:100490001A785B781B021A43002362F30F031A4693
:1004A000786800F021F800BF0837BD4680BD00BF66
:1004B000C867000080B582B000AF78600B46FB7063
:1004C000F978084B1A785B781B021A43002362F311
:1004D0000F031A46786800F007F800BF0837BD46DA
:1004E00080BD00BFCC670000F0B587B000AFF860FA
:1004F0000B46BA80FB72FB683B61194B1C683B6979
:100500001846FFF76DFF03461D463B691846FFF787
:1005100073FF03461A466B0113449B0023441B6878
:10052000F97A7A68184602F053F90546FB687B6150
:100530000B4B1C687B691846FFF752FF03461E46AB
:100540007B691846FFF758FF03461A4673011344A8
:100550009B0023441D6000BF1C37BD46F0BD00BF9B
:100560000C01001080B483B000AF87ED010AD7ED15
:10057000017AF5EEC07AF1EE10FA04D5D7ED017AE2
:10058000F1EE677A01E0D7ED017AB0EE670A0C3739
:10059000BD465DF8047B704780B584B000AFC7E905
:1005A0000001D7E9000104F033FF024607F10C0314
:1005B00000EE102A184600F05CF8FB681846103769
:1005C000BD4680BD80B584B000AFC7E90001D7E962
:1005D000000104F01DFF024607F10C0300EE102A93
:1005E000184600F005F8FB6818461037BD4680BD78
:1005F00080B582B000AF786087ED000A7B683A462C
:100600001146184600F005F87B6818460837BD46C5
:1006100080BD80B483B000AF786039603B681A68F1
:100620007B681A607B6818460C37BD465DF8047B12
:10063000704780B586B000AF7860786800F007F842
:10064000F0EE407AB0EE670A1837BD4680BD80B440
:1006500085B000AFF86039723A713B70FB681B6877
:1006600007EE903AB0EE670A1437BD465DF8047B9A
:10067000704780B582B000AF786087ED000A7B6874
:100680003A4611461846FFF7C4FF7B6818460837FC
:10069000BD4680BD80B52DED048B82B000AF786083
:1006A00039607B6893ED008A3B68184600F049F892
:1006B000F0EE407A78EE677AB0EE670AFFF752FF05
:1006C000F0EE408AFFF767FEB0EE409A7B6893ED4C
:1006D000008A3B68184600F034F8F0EE407A78EE75
:1006E000277AB0EE670AFFF73DFFF0EE407A69EE39
:1006F000277AF4EEE78AF1EE10FA19D47B6893EDCD
:10070000008A3B68184600F01CF8F0EE407A78EE5C
:10071000677AB0EE670AFFF725FFB0EE408AFFF771
:100720002EFEF0EE407AB4EEE78AF1EE10FA01D533
:10073000012300E0002318460837BD46BDEC048BBA
:1007400080BD80B586B000AF7860786800F007F8AB
:10075000F0EE407AB0EE670A1837BD4680BD80B42F
:1007600085B000AFF86039723A713B70FB681B6866
:1007700007EE903AB0EE670A1437BD465DF8047B89
:10078000704780B586B000AF786039607B681B68C1
:1007900008331B6839687868984778614FF0000320
:1007A000FB607B69002B0FD07B681B680C331B68D8
:1007B0007868984703463B6107F11003796918464A
:1007C00002F019F80346FB60FB6818461837BD466F
:1007D00080BDFFFF80B485B000AF78600A4BFB603E
:1007E0007B68002B02D0012B03D005E0074BFB6098
:1007F00002E0074BFB6000BFFB6818461437BD469C
:100800005DF8047B704700BFD8670000E067000018
:10081000EC67000080B586B002AF786039603A6856
:1008200007F10C03009300230021786805F07CF9A0
:10083000FB6818461037BD4680BDFFFF80B584B009
:1008400000AF786039603B68FB600F217868FFF784
:10085000E1FF034623F00103BB60FB681968BB6836
:10086000043B1A46064803F053FEFB681B685A1CFB
:10087000FB681A60002318461037BD4680BD00BFD4
:10088000F867000080B584B000AF786039603B68DD
:10089000FB600F217868FFF7BDFF034623F00103DB
:1008A000BB60BB68043B1946064803F031FEFB6899
:1008B0001B685A1CFB681A60002318461037BD4697
:1008C00080BD00BF0868000080B584B000AF03465B
:1008D0003960FB710023FB6007F10C0319461A48CD
:1008E00005F014FD3B68002B05D0FB683A681946FB
:1008F000164803F00DFEFB79002B20D0144803F0BE
:1009000007FE144803F004FE0020FFF763FF0346D0
:100910001946114803F0FCFD07F10C0319460F4876
:1009200005F0F4FC3B68002B03D039680C4803F059
:10093000EFFD0C4803F0ECFD0B4802F0CDFC00BFCE
:100940001037BD4680BD00BF3D08000010680000A4
:100950001C68000054680000606800008508000002
:100960007C680000846800008C68000090B482B04D
:1009700000AF786039603B68D3E900347A68C2E937
:1009800000347B6818460837BD4690BC7047FFFFAF
:1009900080B582B000AF78607B68002203491846BA
:1009A00001F047FF78680837BD4680BD1001001090
:1009B00080B483B000AF7860002318460C37BD4682
:1009C0005DF8047B704780B500AF0020FFF7F0FFB3
:1009D0000346184680BDFFFF90B593B000AFC7E94E
:1009E0000201D7E90234C7E9063487F8242007F169
:1009F0003803184601F073FD07F1380207F11803B8
:100A00001146184601F030FF0346002B04D0D7E909
:100A10000634C7E9043411E0194B1B6807F13002B2
:100A2000104698473B4607F1180207F13001184677
:100A300002F0AAF8D7E90034C7E9043401237B6443
:100A40000F4B1B6807F128021046984707F1100268
:100A500007F128031146184602F0C3F80346002B9D
:100A600009D007F124031846FFF7A2FF0346002B25
:100A7000E6D000237B647B6C18464C37BD4690BDA6
:100A80000000001080B582B000AFC7E90001D7E9CF
:100A90000001FFF7A1FF00BF0837BD4680BD90B43D
:100AA00082B000AF786039603B68D3E900347A687F
:100AB000C2E900347B6818460837BD4690BC7047D1
:100AC00090B482B000AF78607B68D3E900341846F8
:100AD00021460837BD4690BC704780B586B000AF50
:100AE0007860786800F008F8F0EE407AB0EE670AB7
:100AF0001837BD4680BDFFFF80B485B000AFF860F9
:100B000039723A713B70FB68D3ED007A9FED057A3C
:100B100067EE877AB0EE670A1437BD465DF8047B4E
:100B2000704700BF0024744980B584B000AF78607E
:100B300039600021786800F0E3F84FF00C004FF0C6
:100B40000001FFF73FFD0346BB6007F108023B468B
:100B50001146184601F0AFFE0346002B0FD0164B8E
:100B60003A681968786800F0DFFA0121786800F0C7
:100B7000EBF83B461946114801F0BBFE07E00021A7
:100B8000786800F0E1F80E490C4801F0B2FE01214E
:100B9000786800F02DFBFF233B7307F10C03012263
:100BA0001946786800F00EF80021786800F05EFBC6
:100BB00000BF1037BD4680BDC46F000004000010A8
:100BC000C86F000080B584B000AFF860B96013460C
:100BD000FB71FB79042B0DD9B2230B4A0B490C484E
:100BE00003F096FC0B4802F077FB00210120FFF791
:100BF0006BFEFEE7084B1B68FA79C3F8A82100BF1B
:100C00001037BD4680BD00BFE0710000E46F0000FA
:100C1000E0680000806900001801001080B483B013
:100C200000AF78603960054B1B68D3F8A8311846CF
:100C30000C37BD465DF8047B704700BF18010010FB
:100C400080B483B000AF7860034B1B6818460C3744
:100C5000BD465DF8047B70470400001080B485B089
:100C600000AF786039600B4B1B68D3F8C4303A682A
:100C70001278114601228A401340002B14BF012331
:100C80000023FB73FB7B18461437BD465DF8047BDD
:100C9000704700BF1801001090B583B000AF7860B6
:100CA0003960094B1B68D3F8C4203B681B78194690
:100CB000054B1C68104601F02FFE0346C4F8C430F3
:100CC00000BF0C37BD4690BD1801001090B583B031
:100CD00000AF78603960094B1B68D3F8C4203B68CB
:100CE0001B781946054B1C68104601F027FE034689
:100CF000C4F8C43000BF0C37BD4690BD18010010C9
:100D000090B583B000AF78600B467B800C4B1B68BE
:100D1000D3F80C0179880A4B1C680A4B1A785B7867
:100D20001B021A43002362F30F031A4601F019FE57
:100D30000346C4F80C3100BF0C37BD4690BD00BF60
:100D400018010010CC6F000090B583B000AF786040
:100D50000B467B800C4B1B68D3F8040179880A4B47
:100D60001C680A4B1A785B781B021A43002362F353
:100D70000F031A4601F0F5FD0346C4F8043100BF25
:100D80000C37BD4690BD00BF18010010D86F0000A1
:100D900090B583B000AF78600B467B800C4B1B682E
:100DA000D3F8080179880A4B1C680A4B1A785B78DB
:100DB0001B021A43002362F30F031A4601F0D1FD10
:100DC0000346C4F8083100BF0C37BD4690BD00BFD4
:100DD00018010010DC6F000090B583B000AF7860A0
:100DE0000B467B800C4B1B68D3F8B40179880A4B07
:100DF0001C680A4B1A785B781B021A43002362F3C3
:100E00000F031A4601F0ADFD0346C4F8B43100BF2C
:100E10000C37BD4690BD00BF18010010E06F000008
:100E200080B52DED028B82B000AF786039607B68B1
:100E300093ED008A3B681846FFF7FBFBF0EE407A23
:100E4000B4EEE78AF1EE10FA4CBF01230023DBB2C7
:100E500018460837BD46BDEC028B80BD80B582B018
:100E600000AF7860786800F005F803461846083748
:100E7000BD4680BD80B582B000AF78607B68184603
:100E800000F00AF8F0EE407AFCEEE77A17EE903ABE
:100E900018460837BD4680BD80B483B000AF786087
:100EA0007B681B6807EE903AB0EE670A0C37BD46C8
:100EB0005DF8047B704780B52DED028B84B000AFE8
:100EC000786039607B681846FFF7E6FFB0EE408A2D
:100ED0003B681846FFF7E0FFF0EE407AC7ED037A73
:100EE00007F10C031846FFF7A4FBB0EE407AC8EEFA
:100EF000077A07F10803B0EE670A184600F007F812
:100F0000BB6818461037BD46BDEC028B80BD80B56E
:100F100082B000AF786087ED000A7B683A461146E0
:100F20001846FFF776FB7B6818460837BD4680BD3C
:100F300080B584B000AF786039607B681846FFF7F1
:100F4000ABFFB0EE407A3B6807EE903AF8EEE77AF6
:100F500077EE277A07F10C03B0EE670A1846FFF721
:100F6000D6FFFB6818461037BD4680BD80B582B0FD
:100F700000AF78607B681846FFF78EFFF0EE407A8E
:100F8000FCEEE77A17EE903A9BB218460837BD465A
:100F900080BDFFFF90B58DB000AFF860B9607A609A
:100FA0004FF4C0704FF00001FFF70CFB03463B61AC
:100FB00007F110023B1D11461846FFF731FF0346AB
:100FC00083F00103DBB2002B14D14FF00C004FF083
:100FD0000001FFF7F7FA03467B6107F114023B1D9E
:100FE0001146184601F067FC034683F00103DBB2AB
:100FF000002B01D0012300E00023002B0DD0F623AD
:10100000434A4449444803F083FA444802F064F9EF
:1010100000210120FFF758FCFEE7012387F82F305D
:101020003B1D1846FFF71AFF044607F10803184650
:10103000FFF714FF0346B4FBF3F203FB02F3E31ADA
:10104000002B14BF01230023DBB2002B17D007F1C4
:1010500008023B1D11461846FFF72DFF0346FB61B2
:1010600007F11C0301211846FFF762FF0346BB612D
:1010700007F11803184601F086FCB8620EE007F18C
:1010800008023B1D11461846FFF715FF03463B6259
:1010900007F12003184601F076FCB8620123FB84B7
:1010A00097F82F30002B2DD007F108031846FFF7D3
:1010B0005DFF03461A46BB6A9BB212FB03F39BB269
:1010C000FA8C12FB03F39BB25B00BB84BB8C9B2BA3
:1010D00003D9002387F82F30E2E7FB8C5B00FB8409
:1010E000FB8C072BDCD94FF48973094A0C490D4856
:1010F00003F00EFA094802F0EFF800210120FFF793
:10110000E3FBFEE7BB6A18463437BD4690BD00BF1F
:1011100064720000FC6F00009869000080690000A4
:1011200014700000886A000080B586B000AFF860D7
:10113000B9607A600123FB827A68B968F868FFF7C2
:1011400029FF38610021F868FFF7DAFD0021F8680F
:10115000FFF7FAFD0021F868FFF71AFE0021F86892
:10116000FFF73AFE214B1B68D3F8843023F01F01B0
:101170003B695A1E1D4B1B680A43C3F884201B4B56
:101180001B68D3F8843023F06002FB8A5B011946A8
:10119000164B1B680A43C3F88420144B1B68D3F812
:1011A0008020124B1B6842F00102C3F880200F4BD5
:1011B0001B68AA22C3F88C200C4B1B685522C3F86D
:1011C0008C200A4B1B68D3F888300A21184601F09E
:1011D000F5FB034683F00103DBB2002B01D000BF17
:1011E000EFE700BF1837BD4680BD00BF18010010F3
:1011F00090B583B000AF78600B46FB70FB781F2B77
:101200000ED94FF4A973134A1349144803F080F917
:10121000134802F061F800210120FFF755FBFEE7BB
:10122000104B1B68D3F804010E4B1C680E4BF97869
:101230001A785B781B021A43002362F30F031A46E5
:1012400001F0C6FA0346C4F8043100BF0C37BD46AE
:1012500090BD00BFE07200002C700000306B0000F9
:101260008069000018010010D46F000090B583B0B1
:1012700000AF78600B46FB700C4B1B68D3F8000185
:10128000F9780A4B1C680A4B1A785B781B021A43E0
:10129000002362F30F031A4601F063FB0346C4F810
:1012A000003100BF0C37BD4690BD00BF18010010D3
:1012B000D06F000080B400AF024B1846BD465DF809
:1012C000047B704708000010B0B588B002AFF8602A
:1012D000C7E90023FB681B680C331D6807F1170181
:1012E000D7E90034CDE900340122F868A847034665
:1012F000012B0CBF01230023DBB2002B01D0FF2305
:10130000FB75FB7D18461837BD46B0BD80B489B06B
:1013100000AF786087ED000A7B6800221A607B6866
:1013200000225A607B6801229A600023FB77002329
:10133000BB61BB690E2B4FDCFB7F002B4CD1BB6923
:1013400001337B617B690E2B42DCFB7F002B3FD19D
:10135000BB6907EE903AF8EEE77AC7ED047A7B694D
:1013600007EE903AF8EEE77AC7ED037AD7ED046A14
:1013700097ED037AC6EE877AB7EE007A77EE877A32
:10138000C7ED027AD7ED027A9FED177A77EE877A6A
:1013900097ED007AB4EEE77AF1EE10FA14D8D7EDB3
:1013A000027A9FED117A77EEC77A97ED007AB4EE64
:1013B000E77AF1EE10FA07DBBA697B685A607A695E
:1013C0007B689A600123FB777B6901337B61B9E716
:1013D000BB690133BB61ACE700BF78682437BD4609
:1013E0005DF8047B704700BFCDCC4C3D80B487B026
:1013F00000AF87ED030AC7ED020A78607B6807EE4D
:10140000903AF8EE677AC7ED057AD7ED037AB3EE36
:10141000007A27EE877AD7ED027A67EE277A97ED82
:10142000057AC7EE276AF0EE667AB0EE670A1C37D7
:10143000BD465DF8047B704780B487B000AF87ED90
:10144000030AC7ED020A78607B6807EE903AF8EE6F
:10145000677AC7ED057AD7ED037AB3EE007A27EE07
:10146000877AD7ED027A67EE277A97ED057AC7EE8D
:10147000276AF0EE667AB0EE670A1C37BD465DF863
:10148000047B704780B483B000AF87ED010AD7EDCD
:10149000017AB6EE007A77EE877AFDEEE77AF8EE1B
:1014A000E77AB0EE670A0C37BD465DF8047B7047FB
:1014B00080B586B000AF87ED010A0023FB7597ED7C
:1014C000010AFFF7DFFF87ED040A97ED017AD7EDF8
:1014D000047A77EE677AC7ED037AD7ED037A9FED4A
:1014E0000B7AF4EEC77AF1EE10FA0ADBD7ED037A45
:1014F0009FED077AF4EEC77AF1EE10FA01D80123D6
:10150000FB75FB7D18461837BD4680BDCDCC4CBD64
:10151000CDCC4C3D80B582B000AF7860786800F0EB
:1015200005F8034618460837BD4680BD80B582B031
:1015300000AF78607B681846FFF7AEFCF0EE407AAB
:10154000FCEEE77A17EE903A18460837BD4680BDA4
:1015500090B591B000AFF861B9617A6107F11403F9
:101560001846FFF7D7FFB8620023FB63FB69002230
:101570001A60FB6900225A60FB6901229A60BB690C
:1015800007EE903AF8EE677AC7ED097A4FF000035C
:10159000BB634FF07F537B634FF07E533B634FF051
:1015A0008043FB62FB6B042B00F0BE80FB6B032BC4
:1015B00000F2B88001A252F823F000BFCD15000060
:1015C0002716000087160000F7160000B86AF7EE2D
:1015D000000A97ED090AFFF709FF87ED0E0AD7ED1C
:1015E0000E7AB7EE007AF4EEC77AF1EE10FA05D56E
:1015F000FB6900221A600423FB6394E097ED0E0A56
:10160000FFF756FF0346002B0AD0D7ED0E7AFCEE0B
:10161000E77A17EE902AFB691A600423FB6382E0E5
:101620000123FB637FE0B86AD7ED0D0A97ED090A45
:10163000FFF7DCFEF0EE407AB0EE670AFFF722FF1C
:1016400087ED0E0AB86AD7ED0E0A97ED090AFFF783
:10165000F3FE87ED0D0AD7ED0D7A9FED367AF4EEA5
:10166000C77AF1EE10FA0BDBD7ED0D7A9FED327AE7
:10167000F4EEC77AF1EE10FA02D80323FB6352E0CE
:101680000223FB634FE0D7ED0B7AB7EE007A77EEDB
:10169000877AC7ED0B7AD7ED0C7AB2EE0E7AF4EEBC
:1016A000C77AF1EE10FA02DD0423FB633BE0D7EDCD
:1016B0000B7AB2EE0E7AF4EEC77AF1EE10FA0FDD85
:1016C000D7ED0C7AB7EE007A77EE877AC7ED0C7A11
:1016D000D7ED0C7AB7EE007A77EE877AC7ED0B7A02
:1016E000D7ED0C6A97ED0B7AC6EE877AC7ED0D7AC7
:1016F0000123FB6317E0FC693B4697ED0D0A184692
:10170000FFF704FE3B4693E8070084E80700D7EDA7
:101710000E7AFCEEE77A17EE902AFB691A60042332
:10172000FB6300E000BF3DE700BFF8694437BD46FA
:1017300090BD00BFCDCC8C3F3333F33F80B483B03A
:1017400000AF7860044A7B681A607B6818460C37E3
:10175000BD465DF8047B70478471000080B584B09D
:1017600000AFF860B9607A60FB681846FFF7E6FFE3
:10177000064AFB681A60FB68BA685A60FB687A68B8
:101780009A60FB6818461037BD4680BD687100003E
:1017900080B584B000AF786039600723FB737B6845
:1017A00098687B689B681B6814331B687A6852686A
:1017B0000432114698473968786800F049F87B6828
:1017C0005B68D8687B685B68DB681B681B687A6845
:1017D0005268127CC2F3C202D2B2114698477B68AB
:1017E0005B6898687B685B689B681B681B687A68A5
:1017F0005268127CC2F30202D2B2114698477B684B
:101800005B68DA687B685B68DB681B6804331B68AD
:101810000221104698477B685B689A687B685B6822
:101820009B681B6804331B680221104698477B683D
:101830005B681B681B7ADAB27B685B681B6842F0E6
:101840000702D2B21A72002318461037BD4680BD77
:1018500080B586B000AF786039607B689A687B6835
:101860005B68043319461046FEF78BFF024607F10A
:10187000080339681846FFF76BFE8023FB75BB68C9
:101880001B0ABB75BB687B753B69DBB21B01DAB217
:10189000FB68DBB203F00F03DBB213433B757B68DD
:1018A0005B681B6880221A737B685B681B68BA7D63
:1018B0001A717B685B681B687A7D1A707B685B684D
:1018C0001B683A7D83F828207B685B681B680322CD
:1018D0001A73012318461837BD4680BD80B586B0FF
:1018E00000AFF860B9607A6000237B617A697B6839
:1018F0009A4216D2BA687B691A44FB685B681B6817
:1019000012781A70F86800F0B5F8034683F0010306
:10191000DBB2002B01D000BFF4E77B6901337B61B0
:10192000E4E700BF1837BD4680BD90B583B000AF77
:1019300078607B681B68184600F08AF80346002B25
:1019400010D07B681B685B681B681B78DCB27B6807
:101950005B6819687B68DA681368581C10600B4470
:1019600022461A707B68DB681A687B689B689A421B
:1019700001D3012300E0002318460C37BD4690BD7B
:1019800090B59DB000AF78613961FA600023FB63C8
:101990007B693B6407F110037B64FB68BB6407F160
:1019A0003C03FB64D7E92034C7E9083407F12C0471
:1019B00007F140030FCB84E80F0007F160031846DE
:1019C00000F08DFD07F1600207F120031146184673
:1019D00000F04AFF0346002B04D0D7E90834C7E9DA
:1019E000063411E0194B1B6807F15802104698475E
:1019F0003B4607F1200207F15801184601F0C4F8F0
:101A0000D7E90034C7E906340123FB660F4B1B6896
:101A100007F150021046984707F1180207F15003EA
:101A20001146184601F0DDF80346002B09D007F1F6
:101A30002C031846FFF779FF0346002BE6D000235E
:101A4000FB66FB6E18467437BD4690BD0000001063
:101A500080B582B000AF78607B685B681B681B7DD7
:101A6000DBB20021184600F0C0FF034618460837D5
:101A7000BD4680BD80B582B000AF78607B685B6892
:101A80001B681B7DDBB20521184600F0AEFF034644
:101A900018460837BD4680BD80B52DED028B84B059
:101AA00000AF786039607B681846FFF7F5F9B0EE53
:101AB000408A3B681846FFF7EFF9F0EE407AC7ED31
:101AC000037A07F10C031846FEF73BFEB0EE407AAE
:101AD000C8EE077A07F10803B0EE670A1846FFF769
:101AE00016FABB6818461037BD46BDEC028B80BDA8
:101AF00080B582B000AF7860786800F044FF03469C
:101B000018460837BD4680BD80B400AF00BFBD4653
:101B10005DF8047B7047FFFF80B582B002AF094BD0
:101B20001B6800931D23084A0849094802F0F0FC8D
:101B3000044B1B68103B1846FEF73AFC00BFBD463D
:101B400080BD00BF480000100C74000074700000DD
:101B5000CC6B000080B483B000AF7860402318469F
:101B60000C37BD465DF8047B7047FFFF80B584B03D
:101B700000AF78607B6818464FF480731A460021E6
:101B800004F0C9FD0023FB60FB680F2B08D87B68BD
:101B9000FA68114943F82210FB680133FB60F3E750
:101BA0001023BB607868FFF7D5FF0246BB689342FD
:101BB00034BF01230023DBB2002B08D07B68BA6856
:101BC000064943F82210BB680133BB60EAE700BF57
:101BD00078681037BD4680BD091B0000191B000046
:101BE00080B483B000AF7860044A7B681A607B6879
:101BF00018460C37BD465DF8047B704750710000F5
:101C000080B584B000AFF860B9607A60FB681846B0
:101C1000FFF7E6FF064AFB681A60FB68BA685A607D
:101C2000FB687A689A60FB6818461037BD4680BD2D
:101C30003871000090B585B000AF786039607B687E
:101C40005B681B7A03F00703DBB2002B07D07B68CD
:101C50005B681B7A03F00703DBB2072B0DD1BB23B4
:101C60005D4A5E495E4802F053FC5E4801F034FB79
:101C700000210120FEF728FEFEE77B6898687B685C
:101C80009B681B6814331B687A68526812680432B8
:101C9000114698477B685B681B681B680022DA6006
:101CA0007B685B681B681B6800221A617B685B6845
:101CB0001B681B68186F7B685B681B681C684A4B55
:101CC0001A785B781B021A43002362F30F031A464B
:101CD000002100F0B0FE034623677B685B681B6849
:101CE0001B68186F7B685B681B681C683F4B1A7821
:101CF0005B781B021A43002362F30F031A4600218C
:101D000000F099FE034623677B689A687B685B68EE
:101D10001B68043319461046FEF733FD0346BB60CB
:101D20003A4607F1080311461846FFF7B5FE034689
:101D3000FB607B685B681B681C6807F10C03184636
:101D4000FFF7D6FE0346A3617B685B681B681B68D0
:101D500058697B685B681B681C68254B1A785B7840
:101D60001B021A43002362F30F03194600F054FECE
:101D7000034663610121786800F046F97B685B687F
:101D80001B681B68DA6C082319467B685B681B7A42
:101D9000C3F30203DBB20B4419467B685B681B6824
:101DA0001C68104600F0B8FD0346E3647B685B687E
:101DB00058687B685B685B681B681B687A68526858
:101DC000127AC2F3C202D2B21146984700231846D3
:101DD0001437BD4690BD00BFB4730000B070000062
:101DE0004C6C000080690000947000009870000046
:101DF0008470000090B583B000AF786087ED000A72
:101E0000D7ED007AF5EEC07AF1EE10FAACBF0123FF
:101E10000023DBB283F00103DBB2002B10D1D7ED3E
:101E2000007AB7EE007AF4EEC77AF1EE10FA94BFBA
:101E300001230023DBB283F00103DBB2002B0DD0C2
:101E4000E7231C4A1C491D4802F062FB1C4801F0B4
:101E500043FA00210120FEF737FDFEE797ED000A67
:101E6000786800F04AF90446786800F037F90246CD
:101E70007B685B681B7AC3F30203DBB29B001344ED
:101E80001C607B685B681B681B681A6D7B685B68FD
:101E90001B7AC3F30203DBB2194601238B401946B8
:101EA0007B685B681B681B680A431A6500BF0C37B8
:101EB000BD4690BD78730000B8700000206D000032
:101EC0008069000080B52DED028B82B000AF786094
:101ED000786800F003F902467B685B681B7AC3F3FD
:101EE0000203DBB29B0013441B6807EE903AB8EE86
:101EF000678A786800F0F2F803461B6807EE903AAC
:101F0000F8EE677A88EE277AF0EE477AB0EE670A45
:101F10000837BD46BDEC028B80BD80B582B000AFF6
:101F20007860396039687868FEF7B4FB034683F05F
:101F30000103DBB218460837BD4680BD90B587B0B7
:101F400000AF786039604FF000004FF00001FEF7FD
:101F500023FB0346FB6007F10C023B461146184683
:101F6000FFF7DBFF034683F00103DBB2002B0DD04C
:101F7000F423214A2149224802F0CAFA214801F0FB
:101F8000ABF900210120FEF79FFCFEE77868FFF720
:101F900099FF87ED050A0021786800F035F87B6825
:101FA0009A687B685B681B68043319461046FEF725
:101FB000E8FB0346BB603A4607F1080311461846A2
:101FC000FFF76AFD03463B617B685B681B681C6822
:101FD00007F110031846FFF78BFD0346A36197ED49
:101FE000050A7868FFF706FF0121786800F00CF811
:101FF00000BF1C37BD4690BD28730000C0700000B4
:10200000EC6D00008069000080B584B000AF78609E
:102010000B46FB707B685B681B681B680433FB60C6
:10202000FB78002B40D0FB681868294B1A785B7846
:102030001B021A43002362F30F03194600F0ECFC65
:102040000246FB681A60FB681868214B1A785B78B7
:102050001B021A43002362F30F03194600F0FDFC34
:102060000246FB681A60FB6818681A4B1A785B789E
:102070001B021A43002362F30F03194600F0CCFC45
:102080000246FB681A60FB681868134B1A785B7885
:102090001B021A43002362F30F03194600F0BCFC35
:1020A0000246FB681A600FE0FB681868094B1A7853
:1020B0005B781B021A43002362F30F03194600F0FA
:1020C000CCFC0246FB681A6000BF1037BD4680BDDD
:1020D0008C700000907000008870000080B483B0A5
:1020E00000AF78607B685B681B681B681833184614
:1020F0000C37BD465DF8047B704780B584B000AFF7
:10210000786087ED000A7868FFF7E8FF03461B68F0
:1021100007EE903AF8EE677AC7ED037A97ED007A0A
:10212000D7ED037A67EE277AFCEEE77A17EE903A5E
:1021300018461037BD4680BD90B585B000AF7860B9
:102140003960174A7B681A607B683A685A607B6816
:1021500003F108020023FB6007F10C031946104647
:1021600000F0A2F97A684FF47A734FF00004C2E9E4
:1021700004347A684FF4FA634FF00004C2E906347D
:102180007B684FF000021A627B684FF000025A62CF
:102190007B68044A5A627B6818461437BD4690BD76
:1021A000187100000000B44280B582B000AF7860C2
:1021B00039607B685A687B685B681B681B68396894
:1021C000104698477B681B6804331B683968786839
:1021D000984700BF0837BD4680BD80B586B000AFC8
:1021E0007860786800F048FCF0EE407AB0EE670A5C
:1021F0001837BD4680BD80B52DED028B84B000AF91
:10220000786039607B681846FEF746FEB0EE408A7B
:102210003B681846FEF740FEF0EE407AC7ED037AC1
:1022200007F10C031846FFF7D8FFB0EE407AC8EE6E
:10223000077A07F10803B0EE670A1846FEF767FE53
:10224000BB6818461037BD46BDEC028B80BD90B40C
:1022500082B000AF786039603B681B684FF00004C3
:102260007A68C2E900347B6818460837BD4690BCDE
:10227000704790B589B000AF786039607B685A6864
:102280007B685B681B680C331B683968104698478D
:102290004FF001004FF00001FEF794F90346FB6197
:1022A0003A4607F11C0311461846FFF7A4FF034600
:1022B000BB6107F118031846FFF71AFC03467B6160
:1022C00007F1140207F1080311461846FFF7BFFF94
:1022D0007A68D7E90234C2E9023400BF2437BD4628
:1022E00090BD90B484B000AFF860C7E90023FA68ED
:1022F000D7E90034C2E90434FA68D7E90634C2E900
:10230000063400BF1037BD4690BC704780B485B01E
:1023100000AFF860B9607A60FB68BA681A62FB685F
:102320007A685A6200BF1437BD465DF8047B704777
:1023300090B482B000AF78607B68D3E9003418466F
:1023400021460837BD4690BC7047B0B52DED028BD5
:1023500084B000AFF860C7E90023FB685D68FB68E4
:102360005B681B6804331C683B461846FFF7E0FFB8
:1023700002460B461046194603F052F808EE100AC2
:10238000FB6808331846FFF7D3FF02460B4610469A
:10239000194603F045F807EE100AC8EE077AB0EECA
:1023A000670A2846A04700BF1037BD46BDEC028B28
:1023B000B0BD80B582B000AF7860786800F007F8F3
:1023C000F0EE407AB0EE670A0837BD4680BD80B5B2
:1023D00082B000AF78607B681846FEF75DFDF0EED6
:1023E000407AB0EE670A0837BD4680BDB0B52DED26
:1023F000048B86B000AF786039603B461846FFF723
:10240000D8FFB0EE408A7B6820331846FFF7D1FF33
:10241000F0EE408A7B6824331846FFF7CAFFB0EE1F
:10242000409A7B6810331846FFF782FF03460C463C
:102430001846214602F0F4FF05467B68183318461B
:10244000FFF776FF03460C461846214602F0E8FFE8
:10245000034602EE103A01EE905AB0EE491AF0EE41
:10246000680AB0EE480A00F021FB87ED050A7B6898
:102470001B6810331C68D7ED057AFCEEE77A17EE7F
:10248000903A3B6107F1100207F108031146184624
:10249000FFF7DDFED7E902237868A04700BF1837B1
:1024A000BD46BDEC048BB0BD90B482B000AF786087
:1024B00039603B681B684FEAE3747A68C2E900340C
:1024C0007B6818460837BD4690BC704798B500AF8A
:1024D000FDF74AFF03460C461846214698BD90B5C5
:1024E00085B000AF7860FFF7F1FF03460C46C7E9FF
:1024F000023407F1080319467868FEF737FA78685E
:102500001437BD4690BD80B582B000AF78607B685F
:10251000184600F005F878680837BD4680BDFFFF13
:1025200080B582B000AF786003497868FEF7B7FAEB
:1025300078680837BD4680BDD067000080B582B09E
:1025400000AF786039607B683968184600F004F89D
:1025500078680837BD4680BDF0B585B000AF7860BB
:1025600039603868FEF7ACFA05460E462B4634460D
:102570004FF000014FF00002620142EAD3625901BC
:102580000B4614465B1B64EB06044FF000014FF052
:102590000002A20042EA937299000B4614465B19AE
:1025A00044EB06044FF000014FF00002E20042EA63
:1025B0005372D9000B461446C7E9023407F10803E9
:1025C00019467868FEF7D2F978681437BD46F0BD31
:1025D00090B585B000AF7860396007F108033968BD
:1025E0001846FFF7ABFF07F108031846FFF7A0FEF8
:1025F00003460C467A68C2E900347B6818461437F3
:10260000BD4690BD90B5A3B002AFFEF753FE0346A2
:102610001A4607F140035B491846FFF79FF8FEF79B
:1026200049FE03461A4607F1340357491846FFF797
:10263000E7FA07F140034FF416411846FFF7A8F8F0
:102640001C23524A5249534801F062FF0023BB67E2
:102650004FF000037B6707F1340207F108031146CE
:102660001846FFF769FD4C4B07F108021968104640
:10267000FFF79AFD494B07F1080219681046FFF76A
:10268000F8FD474A07F10801464BD3E90034CDE98C
:102690000034D2E900230846FFF723FE24233B4AF7
:1026A0004149424801F034FF002387F8733000238A
:1026B000FB67FB6F032B18D807F150031846FFF791
:1026C0000EFF07F14001D7E914230846FEF7FCFD91
:1026D000034687F87230FB6C1A0297F87230134386
:1026E000FB64FB6F0133FB67E3E7FB6C184602F00A
:1026F0001FFD03460C46CDE900343023234A2C4904
:102700002C4801F005FFFB6C7B67D7ED137A9FED3A
:102710002A2ADFED2A1A9FED2A1ADFED2A0AB0EEE7
:10272000670A00F0C3F9F0EE407AFDEEE77A17EEA3
:10273000903A7B607B6800933623144A22492348F1
:1027400001F0E6FE3A1D07F1580311461846FFF75F
:10275000ABFE07F10801D7E916230846FFF7F5FDA0
:1027600007F168031846FFF7CEFE07F1680207F18C
:10277000600311461846FFF72BFFD7E91801FEF753
:1027800081F994E70C000010A4700000D4710000DF
:10279000E0700000906E0000C8700000CC70000077
:1027A000D0700000D8700000EC700000DC6E0000FB
:1027B000F8700000346F00000000FA4400007A4412
:1027C000333353400000000004710000886F0000A4
:1027D00080B584B000AFF8600B46BA80FB723B79DD
:1027E0001A467B79F97AF86800F0A1F90346184691
:1027F0001037BD4680BD80B584B000AF78603960C9
:102800007B681846FEF748FBF0EE406A3B6807EE2F
:10281000903AF8EE677A86EEA77A07F10C03B0EEED
:10282000470A1846FDF725FFFB6818461037BD46D6
:1028300080BD90B587B000AFF860B9607A60BB68C2
:10284000D3E90034591C44F10002B868C0E9001211
:10285000C7E9043407F110031946F868FEF786F853
:10286000F8681C37BD4690BDF0B587B000AF786002
:1028700039607B68D3E90034C7E9023407F1080303
:102880001846FFF755FD05460E463B68D3E9003470
:10289000C7E9043407F110031846FFF749FD034662
:1028A0000C46A64206BF9D4201230023DBB2184618
:1028B0001C37BD46F0BD80B52DED028B82B000AF58
:1028C000786039607B6893ED008A3B681846FDF7B5
:1028D000B0FEF0EE407AB4EEE78AF1EE10FACCBF2B
:1028E00001230023DBB218460837BD46BDEC028B3E
:1028F00080BD80B582B000AF786039603B68184613
:10290000FEF7EBF8F0EE407A7B68C3ED007A7B6867
:1029100018460837BD4680BD80B483B000AF7860EC
:10292000396001223B6802FA03F31A467B681343BD
:1029300018460C37BD465DF8047B704780B483B001
:1029400000AF7860396001223B6802FA03F3DB4391
:102950001A467B68134018460C37BD465DF8047B69
:10296000704780B584B000AFF860B960BA803B7939
:102970001A467B79B968F86800F05BF90346184697
:102980001037BD4680BD80B584B000AF78607B68ED
:102990001846FEF781FAF0EE407AC7ED037A07F1A8
:1029A0000C03184600F071F9F0EE407AFCEEE77A7D
:1029B00017EE903A18461037BD4680BD80B483B0FC
:1029C00000AF7860396001223B6802FA03F31A46CF
:1029D0007B681340002B14BF01230023DBB2184691
:1029E0000C37BD465DF8047B704780B483B000AF00
:1029F00003463960FB71FA793B6842FA03F303F04E
:102A00000103002B14BF01230023DBB218460C374F
:102A1000BD465DF8047B704780B582B000AF78603A
:102A200039803B7819467868FFF776FF03461846E9
:102A30000837BD4680BD80B584B000AFF860B9608E
:102A4000BA803B791A467B79B968F86800F02BF9AF
:102A5000034618461037BD4680BD80B582B000AF32
:102A6000786039803B7819467868FFF767FF03463E
:102A700018460837BD4680BD80B485B000AFF86009
:102A800039723A713B70FB68D3ED007A9FED067A9C
:102A9000C7EE876AF0EE667AB0EE670A1437BD4675
:102AA0005DF8047B704700BF0024744980B48FB088
:102AB00000AF87ED050AC7ED040A87ED031AC7EDDD
:102AC000021A87ED012A7B697B633B693B63FB68E4
:102AD000FB62BB68BB627B687B6297ED097AD7EDCE
:102AE0000A7A77EE676A97ED0B7AD7ED0C7A37EEB4
:102AF000677AC6EE877AC7ED087A97ED0D7AD7ED3B
:102B00000C7A37EE677AD7ED087A67EE277A97ED79
:102B10000A7A77EE277AC7ED077AFB6907EE903AD3
:102B2000B0EE670A3C37BD465DF8047B704780B461
:102B300089B000AFF8607A603B600B46FB724FF0E3
:102B4000FF33FB612023BB613B68C3F120034FF0DF
:102B5000FF3222FA03F37B617A697B6802FA03F39E
:102B6000DB43FA681340FB60FA7A7B691A407B68A2
:102B700002FA03F3FA681343FB60FB681846243734
:102B8000BD465DF8047B7047F0B58BB000AFF860D0
:102B9000B9607A60BB68D3E90034C7E9063407F14D
:102BA00018031846FFF7C4FB05460E467B68D3E9B9
:102BB0000034C7E9083407F120031846FFF7B8FBD3
:102BC0000A4601464B1942EB0604C7E9043407F1F3
:102BD00010031946F868FDF7C9FEF8682C37BD46A2
:102BE000F0BDF0B587B000AF786039607B68D3E99D
:102BF0000034C7E9023407F108031846FFF798FBD1
:102C000005460E463B68D3E90034C7E9043407F1B2
:102C100010031846FFF78CFB03460C469D4276EBEB
:102C20000403B4BF01230023DBB218461C37BD46A2
:102C3000F0BD80B489B000AFF860B9607A603B60E5
:102C40004FF0FF33FB612023BB613B68C3F12003DE
:102C50004FF0FF3222FA03F37B617A697B6802FA54
:102C600003F3DB43FA681340FB60BA687B691A40E0
:102C70007B6802FA03F3FA681343FB60FB681846AB
:102C80002437BD465DF8047B704780B586B000AF41
:102C90007860786800F033F8F0EE407AB0EE670ABA
:102CA0001837BD4680BD80B489B000AFF860B96008
:102CB0007A603B604FF0FF33FB612023BB613B68D0
:102CC000C3F120034FF0FF3222FA03F37B617A69EC
:102CD0007B6802FA03F3DB43FA681340FB60BA68CF
:102CE0007B691A407B6802FA03F3FA681343FB60BE
:102CF000FB6818462437BD465DF8047B704780B4F6
:102D000085B000AFF86039723A713B70FB681B68A0
:102D100007EE903AB0EE670A1437BD465DF8047BC3
:102D20007047FFFF80B582B000AF786039607B6884
:102D3000012B40F0C4803B684FF6FF72934240F095
:102D4000BE80614B1B6803F00103002B05D15E4B75
:102D500001221A605D4A5E4B1A605E4B1B6803F0ED
:102D60000103002B05D15B4B01221A605A4A5B4BD1
:102D70001A605B4B1B6803F00103002B05D1584B15
:102D800001221A60574A584B1A60584B1B6803F0CF
:102D90000103002B05D1554B01221A60544A554BB3
:102DA0001A60554B1B6803F00103002B05D1524BF1
:102DB00001221A60514A524B1A60524B1B6803F0B1
:102DC0000103002B05D14F4B01221A604E4A4F4B95
:102DD0001A604F4B1B6803F00103002B06D14C4BCC
:102DE00001221A604B4B1846FEF7C0FE4A4B1B6887
:102DF00003F00103002B14D1474B01221A60474A0C
:102E0000474B1A60474A464B5A60474A444B9A60C0
:102E1000464A434BDA60464A414B1A61454A404BA9
:102E20005A61454B1B6803F00103002B22D1424B32
:102E300001221A60414B424A04321A60404A083269
:102E40005A603F4A0C329A603D4A1032DA603C4A7E
:102E500014321A6114333A4A24321A60384A28323A
:102E60005A60374A2C329A60354A3032DA60344A36
:102E700034321A61334B1B6803F00103002B06D177
:102E8000304B01221A602E4B1A462F4B1A602F4BE3
:102E90001B6803F00103002B05D12C4B01221A60A3
:102EA0002B4A2C4B1A602C4B1B6803F00103002BA0
:102EB00005D1294B01221A60284A294B1A6000BF0C
:102EC0000837BD4680BD00BF6402001000C002404C
:102ED0000C0100106802001000C00F401801001023
:102EE0006C020010008009400C00001070020010FD
:102EF00000C00940200000107402001000400A4089
:102F00003400001078020010004003401C01001043
:102F10007C020010200100108002001000800920B7
:102F200020020010208009204080092060800920B4
:102F300080800920A080092084020010380200103F
:102F40008080024088020010600200108C02001095
:102F5000004001404C000010900200100080014031
:102F60005400001080B500AF4FF6FF710120FFF74D
:102F7000D9FE80BD80B487B000AF00237B617A6941
:102F800013465B0013449B001F4A13441F4A93429D
:102F900033D21D497A6913465B0013449B000B44EE
:102FA0001B68FB6018497A6913465B0013449B0059
:102FB0000B445B68BB6014497A6913465B00134499
:102FC0009B000B4408331B687B6000233B613A691C
:102FD0007B689A420DD23B699B00FA681A443B69B0
:102FE0009B00B9680B4412681A603B6901333B616E
:102FF000EDE77B6901337B61C1E700BF1C37BD464C
:103000005DF8047B704700BFE4000000FC00000096
:1030100080B485B000AF0023FB60FB68DB00154A7D
:103020001344154A93421ED2124AFB6852F83330B9
:103030007B60104AFB68DB0013445B683B60002345
:10304000BB60BA683B689A4209D2BB689B007A6849
:10305000134400221A60BB680133BB60F1E7FB68D0
:103060000133FB60D9E700BF1437BD465DF8047B30
:10307000704700BFFC0000000C01000080B500AFED
:10308000FFF778FFFFF7C4FF03F016FB00BF80BD1A
:1030900080B58CB002AF78607B681B687B627B6810
:1030A0005B683B627B689B68FB617B68DB68BB613C
:1030B0007B681B697B617B685B693B617B689B69A3
:1030C000FB607B68DB69BB600D4801F021FA796A1F
:1030D0003A6AF869BB69009303460A4801F018FA96
:1030E00079693A69F868BB6800930346064801F0BD
:1030F0000FFAFB6819460120FDF7E6FBFEE700BF6B
:10310000E4750000107600004476000080B400AF43
:103110001EF0040F0CBFEFF30880EFF30980816904
:10312000004A10479130000000BFBD465DF8047BA7
:103130007047FFFF80B584B000AF104BFB60FB68A9
:103140003B603B6883F30988FB687B607B6883F3A3
:103150000888FFF793FF01F0D3FCFFF753FAB8603C
:10316000BB68002B04DBB968054801F0D1F903E026
:10317000B968044801F0CCF9FEE700BF0000011077
:103180007C760000B076000080B582B000AF786039
:1031900039607B68012B11D13B684FF6FF72934277
:1031A0000CD1084B1B6803F00103002B06D1054B23
:1031B00001221A60044B1846FEF7D8FC00BF0837FE
:1031C000BD4680BD7C0200102001001080B500AF1C
:1031D0004FF6FF710120FFF7D7FF80BD80B584B0A7
:1031E00000AF284B1B68002B03D0274B01221A602D
:1031F00043E0254B00221A6001F078FC0246234B85
:103200001A60224B1A68224B1B689A4209D9214B3B
:103210001B68596D1D4A10681D4A1268821A0A44BB
:103220005A651A4B1B681A4A13601B4B1B687B605C
:103230007B68B3FA83F3FB70FB78C3F11F03FB6079
:10324000FA6813469B0013449B00144A1344BB6066
:10325000BB685B685A68BB685A60BB685A68BB68E1
:1032600008339A4204D1BB685B685A68BB685A60ED
:10327000BB685B68DB68074A136000BF1037BD4658
:1032800080BD00BF04030010000300100C030010F9
:103290000803001094020010FC02001098020010B5
:1032A00080B483B000AF786000BFFDE780B400AFAA
:1032B00001231846BD465DF8047B704780B483B097
:1032C00000AF786039604FF0FF3318460C37BD46C9
:1032D0005DF8047B7047FFFF80B584B000AF786075
:1032E000786803F065FAF8600023BB600B4B1B683D
:1032F000F968786898470246BB681344BB60074B7F
:103300001B680121064898470246BB681344BB600E
:10331000BB6818461037BD4680BD00BF5C0000107A
:10332000E476000080B485B000AFB9607A603B609D
:103330000346FB7300BF1437BD465DF8047B70473E
:1033400080B584B000AFB9607A603B600346FB7320
:10335000FB7B002B03D0FB7B184601F05DFD00BF1B
:103360001037BD4680BD80B485B000AF78607B6803
:10337000FB60FB681B78002B03D0FB680133FB600C
:10338000F7E7FA687B68D31A18461437BD465DF82C
:10339000047B704780B483B000AF0346FB71FB79B8
:1033A0002F2B04D9FB79392B01D8012300E000230E
:1033B00018460C37BD465DF8047B704780B584B075
:1033C00000AF78600023FB607B681B681B781846A1
:1033D000FFF7E0FF0346002B0FD0FA6813469B006F
:1033E00013445B0018467B681B68591C7A6811609F
:1033F0001B780344303BFB60E6E7FB681846103758
:10340000BD4680BD90B589B000AFF860B9607A6004
:103410003B607B687B61BB6C03F00203002B0ED129
:103420007A6B3B6C9A420AD27B6B1F2B07D87B6B63
:103430005A1C7A633A6B134430221A70EBE7BB6C68
:1034400003F00203002B13D1BB6C03F00103002B2C
:103450000ED07A6B7B6C9A420AD27B6B1F2B07D8FB
:103460007B6B5A1C7A633A6B134430221A70E6E77E
:10347000BB6C03F01003002B58D0BB6C03F48063CB
:10348000002B16D17B6B002B13D07A6B3B6C9A42CE
:1034900003D07A6B7B6C9A420BD17B6B013B7B63D5
:1034A0007B6B002B05D0FB6B102B02D17B6B013BA0
:1034B0007B63FB6B102B0FD1BB6C03F02003002B45
:1034C0000AD17B6B1F2B07D87B6B5A1C7A633A6B34
:1034D000134478221A701FE0FB6B102B0FD1BB6CCA
:1034E00003F02003002B0AD07B6B1F2B07D87B6BCC
:1034F0005A1C7A633A6B134458221A700CE0FB6B27
:10350000022B09D17B6B1F2B06D87B6B5A1C7A636D
:103510003A6B134462221A707B6B1F2B06D87B6BAD
:103520005A1C7A633A6B134430221A707B6B002B5F
:1035300014D07A6B7B6C9A4210D197F83830002BFC
:1035400009D1BB6C03F00403002B04D1BB6C03F066
:103550000803002B02D07B6B013B7B637B6B1F2B33
:1035600024D897F83830002B07D07B6B5A1C7A632D
:103570003A6B13442D221A7018E0BB6C03F004035D
:10358000002B07D07B6B5A1C7A633A6B13442B22B7
:103590001A700BE0BB6C03F00803002B06D07B6BAA
:1035A0005A1C7A633A6B134420221A70BB6C03F0E6
:1035B0000203002B16D1BB6C03F00103002B11D1C9
:1035C0007B6BFB61FA697B6C9A420BD27A68531C65
:1035D0007B60FC683B68B9682020A047FB69013329
:1035E000FB61EFE70023BB61BA697B6B9A4211D2A2
:1035F0007A6BBB69D31A013B3A6B134418787A682B
:10360000531C7B60FC683B68B968A047BB69013309
:10361000BB61E9E7BB6C03F00203002B0ED07A68B4
:103620007B69D31A7A6C9A4208D97A68531C7B60FA
:10363000FC683B68B9682020A047F0E77B68184623
:103640002437BD4690BD80B596B008AFF860B9602C
:103650007A603B6000237B633B6C002B03D17B6D66
:1036600023F010037B657B6D03F48063002B02D095
:103670003B6C002B34D03B6CBA6CB3FBF2F2B96CF0
:1036800001FB02F29B1A87F8333097F83330092B8D
:1036900004D897F833303033DAB20DE07B6D03F0A5
:1036A0002003002B01D0412200E0612297F8333043
:1036B0001344DBB20A3BDAB27B6B591C796307F126
:1036C00038010B4403F8282C3A6CBB6CB2FBF3F3C3
:1036D0003B643B6C002B03D07B6B1F2B00D8CAE7ED
:1036E0007B6D06933B6D0593FB6C0493BB6C03935E
:1036F00097F8443002937B6B019307F1100300931A
:103700003B687A68B968F868FFF77CFE034618469C
:103710003837BD4680BD90B597B008AFF860B96046
:103720007A603B6000237B63D7E91234234303D1E3
:10373000BB6E23F01003BB66BB6E03F48063002BEB
:1037400003D0D7E9123423433AD0D7E91201D7E99D
:10375000162301F0A3FE1C46134687F8333097F872
:103760003330092B04D897F833303033DAB20DE018
:10377000BB6E03F02003002B01D0412200E0612248
:1037800097F833301344DBB20A3BDAB27B6B591C37
:10379000796307F138010B4403F8282CD7E9162385
:1037A000D7E9120101F07AFE03460C46C7E912344C
:1037B000D7E91234234303D07B6B1F2B00D8C4E717
:1037C000BB6DBA6E06927A6E05923A6E04920393BE
:1037D00097F8503002937B6B019307F1100300932D
:1037E0003B687A68B968F868FFF70CFE034618462C
:1037F0003C37BD4690BDFFFF90B59BB000AF7861F0
:103800003961FA60BB6087ED000BFB687B64D7E928
:10381000000101F0E5FC03467B6600233B664FF0A8
:1038200000033B644FF09E43FB63002387F85F3047
:10383000D7ED197AF5EEC07AF1EE10FA0AD5012328
:1038400087F85F309FEDAB7AD7ED197A77EE677A1C
:10385000C7ED197AD7F8803003F48063002B01D1CB
:103860000623BB673B6E1F2B0FD8BB6F092B0CD9F0
:103870003B6E5A1C3A6607F168021344302203F883
:10388000502CBB6F013BBB67ECE7D7ED197AFDEE1F
:10389000E77A17EE903ABB65BB6D07EE903AF8EE0B
:1038A000E77A97ED197A37EE677A934ABB6F9B00F8
:1038B0001344D3ED007A67EE277AC7ED0E7AD7ED81
:1038C0000E7AFCEEE77A17EE903A7B657B6D07EE99
:1038D000903AF8EE677A97ED0E7A77EE677AC7ED51
:1038E000107AD7ED107AB6EE007AF4EEC77AF1EEE0
:1038F00010FA18DD7B6D01337B657B6D07EE903A26
:10390000B8EE677A7C4ABB6F9B001344D3ED007A14
:10391000B4EEE77AF1EE10FA19DB00237B65BB6D9C
:103920000133BB6513E0D7ED107AB6EE007AF4EE02
:10393000477AF1EE10FA0AD17B6D002B04D07B6D33
:1039400003F00103002B02D07B6D01337B65D7EDC3
:10395000197A9FED6A7AF4EEC77AF1EE10FA01DD7A
:10396000002366E1BB6F002B29D1BB6D07EE903AB7
:10397000F8EEE77A97ED197A77EE677AC7ED107A65
:10398000D7ED107AB6EE007AF4EEC77AF1EE10FABF
:1039900003DDBB6D0133BB6562E0D7ED107AB6EE97
:1039A000007AF4EE477AF1EE10FA59D1BB6D03F0CC
:1039B0000103002B54D0BB6D0133BB6550E0BB6FDE
:1039C0003B653B6E1F2B28D83B6D013B3B65796DFA
:1039D0004B4BA3FB0123DA0813469B0013445B0007
:1039E000CA1AD3B23033D9B23B6E5A1C3A6607F1C9
:1039F000680213440A4603F8502C7B6D404AA2FB30
:103A00000323DB087B657B6D002B0CBF01230023A8
:103A1000DBB2002B00D1D4E700BF3B6E1F2B06D8D2
:103A20003B6D5A1E3A65002B01D0012300E00023B4
:103A3000002B09D03B6E5A1C3A6607F1680213440A
:103A4000302203F8502CE8E73B6E1F2B08D83B6E62
:103A50005A1C3A6607F1680213442E2203F8502CD0
:103A60003B6E1F2B29D8BA6D264B83FB021399108E
:103A7000D317C91A0B469B000B445B00D11ACBB27B
:103A80003033D9B23B6E5A1C3A6607F168021344D0
:103A90000A4603F8502CBB6D1A4A82FB031292109F
:103AA000DB17D31ABB65BB6D002B0CBF01230023B2
:103AB000DBB2002B00D1D3E700BFD7F8803003F092
:103AC0000203002B20D1D7F8803003F00103002B34
:103AD0001AD03A6EFB6F9A4216D23B6E1F2B13D848
:103AE0003B6E5A1C3A6607F168021344302203F811
:103AF000502CE2E700000000E87600000000004FD4
:103B0000CDCCCCCC676666663A6EFB6F9A4212D11A
:103B100097F85F30002B0BD1D7F8803003F0040307
:103B2000002B05D1D7F8803003F00803002B02D01A
:103B30003B6E013B3B663B6E1F2B2CD897F85F30EA
:103B4000002B09D03B6E5A1C3A6607F168021344F9
:103B50002D2203F8502C1EE0D7F8803003F0040328
:103B6000002B09D03B6E5A1C3A6607F168021344D9
:103B70002B2203F8502C0EE0D7F8803003F0080316
:103B8000002B08D03B6E5A1C3A6607F168021344BA
:103B9000202203F8502CD7F8803003F00203002BCA
:103BA00017D1D7F8803003F00103002B11D13B6E01
:103BB000FB64FA6CFB6F9A420BD2FA68531CFB60F1
:103BC0007C69BB6839692020A047FB6C0133FB642A
:103BD000EFE70023BB64BA6C3B6E9A4213D23A6E95
:103BE000BB6CD31A013B07F16802134413F8500C65
:103BF000FA68531CFB607C69BB683969A047BB6CE1
:103C00000133BB64E7E7D7F8803003F00203002BF1
:103C10000ED0FA687B6CD31AFA6F9A4208D9FA6808
:103C2000531CFB607C69BB6839692020A047F0E722
:103C3000FB6818466C37BD4690BD00BFB0B5A0B05C
:103C40000AAFF860B9607A603B6000237B64BB68B0
:103C5000002B01D1A24BFB603B681B78002B00F0CE
:103C600045843B681B78252B0DD03B6818787A6C0F
:103C7000531C7B64FC687B68B968A0473B680133D0
:103C80003B6000F031BC3B6801333B6000237B6547
:103C90003B681B78203B102B56D801A252F823F02A
:103CA000213D0000493D0000493D0000353D000038
:103CB000493D0000493D0000493D0000493D0000EC
:103CC000493D0000493D0000493D00000D3D000018
:103CD000493D0000F93C0000493D0000493D00001D
:103CE000E53C00007B6D43F001037B653B680133DD
:103CF0003B600123BB642AE07B6D43F002037B65DC
:103D00003B6801333B600123BB6420E07B6D43F0E3
:103D100004037B653B6801333B600123BB6416E011
:103D20007B6D43F008037B653B6801333B600123F7
:103D3000BB640CE07B6D43F010037B653B68013393
:103D40003B600123BB6402E00023BB6400BFBB6C8B
:103D5000002B00D09CE700233B653B681B7818468E
:103D6000FFF718FB0346002B05D03B461846FFF72C
:103D700025FB386518E03B681B782A2B14D1BB6EF5
:103D80001A1DBA661B683B633B6B002B07DA7B6D21
:103D900043F002037B653B6B5B423B6501E03B6BA1
:103DA0003B653B6801333B600023FB643B681B7849
:103DB0002E2B24D17B6D43F480637B653B680133FC
:103DC0003B603B681B781846FFF7E4FA0346002B7C
:103DD00005D03B461846FFF7F1FAF8640FE03B6860
:103DE0001B782A2B0BD1BB6E1A1DBA661B68FB62AF
:103DF000FB6A23EAE373FB643B6801333B603B6887
:103E00001B78683B122B67D801A252F823F000BF41
:103E1000833E0000D93E0000B93E0000D93E0000BC
:103E20005D3E0000D93E0000D93E0000D93E0000B2
:103E3000D93E0000D93E0000D93E0000D93E000026
:103E4000A93E0000D93E0000D93E0000D93E000046
:103E5000D93E0000D93E0000C93E00007B6D43F40E
:103E600080737B653B6801333B603B681B786C2B40
:103E700034D17B6D43F400737B653B6801333B6059
:103E80002CE07B6D43F080037B653B6801333B6036
:103E90003B681B78682B25D17B6D43F040037B6525
:103EA0003B6801333B601DE07B6D43F480737B65B1
:103EB0003B6801333B6016E07B6D43F400737B6528
:103EC0003B6801333B600EE07B6D43F480737B65A0
:103ED0003B6801333B6006E000BF04E000BF02E046
:103EE0002533000000BF3B681B78253B532B00F2B5
:103EF000EE8201A252F823F0B7440000CF44000044
:103F0000CF440000CF440000CF440000CF44000065
:103F1000CF440000CF440000CF440000CF44000055
:103F2000CF440000CF440000CF440000CF44000045
:103F3000CF440000CF440000CF440000CF44000035
:103F4000CF440000CF440000CF440000CF44000025
:103F5000CF440000CF440000CF440000CF44000015
:103F6000CF440000CF440000CF440000CF44000005
:103F7000CF440000CF440000CF440000D5420000F1
:103F8000CF440000CF440000CF440000CF440000E5
:103F9000CF440000CF440000CF440000CF440000D5
:103FA000CF440000CF440000CF440000CF440000C5
:103FB000CF440000CF440000CF440000CF440000B5
:103FC000CF44000049400000CF440000CF4400002F
:103FD000CF440000CF440000CF440000CF44000095
:103FE000CF440000CF440000CF440000494000000F
:103FF0001143000049400000CF440000D5420000BA
:10400000CF440000CF44000049400000CF440000EE
:10401000CF440000CF440000CF440000CF44000054
:10402000494000006F440000CF440000CF4400002E
:1040300099430000CF44000049400000CF440000F5
:10404000CF440000494000003B681B78782B03D028
:104050003B681B78582B02D110233B6413E03B686C
:104060001B786F2B02D108233B640CE03B681B7864
:10407000622B02D102233B6405E00A233B647B6D83
:1040800023F010037B653B681B78582B03D17B6DB5
:1040900043F020037B653B681B78692B07D03B68A6
:1040A0001B78642B03D07B6D23F00C037B657B6D49
:1040B00003F48063002B03D07B6D23F001037B6549
:1040C0003B681B78692B04D03B681B78642B40F05D
:1040D0008D807B6D03F40073002B2ED0BB6E0733F5
:1040E00023F0070303F10802BA66D3E90034C7E9F5
:1040F0000434D7E90434002B74F1000202DA5B4285
:1041000064EB4404194622467B69DB0FD8B23B6C52
:104110004FF000047D6D08953D6D0795FD6C06958B
:10412000CDE904340290CDE900127B687A6CB9685D
:10413000F868FFF7F0FA7864C8E07B6D03F48073E9
:10414000002B1ED0BB6E1A1DBA661B68FB61FB6993
:10415000002BB8BF5B421946FB69DB0FDBB27A6DFF
:1041600005923A6D0492FA6C03923A6C02920193B2
:1041700000917B687A6CB968F868FFF764FA786434
:10418000A4E07B6D03F04003002B05D0BB6E1A1D2D
:10419000BA661B68DBB20EE07B6D03F08003002B78
:1041A00005D0BB6E1A1DBA661B681BB203E0BB6E5E
:1041B0001A1DBA661B683B623B6A002BB8BF5B42A4
:1041C00019463B6ADB0FDBB27A6D05923A6D0492B9
:1041D000FA6C03923A6C0292019300917B687A6CBC
:1041E000B968F868FFF72FFA78646FE07B6D03F425
:1041F0000073002B20D0BB6E073323F0070303F1BD
:104200000802BA66D3E900343A6C11464FF0000256
:10421000786D0890386D0790F86C0690CDE904121F
:1042200000220292CDE900347B687A6CB968F868A4
:10423000FFF771FA786449E07B6D03F48073002B1B
:1042400016D0BB6E1A1DBA661B687A6D05923A6D60
:104250000492FA6C03923A6C02920022019200934B
:104260007B687A6CB968F868FFF7EDF978642DE03F
:104270007B6D03F04003002B05D0BB6E1A1DBA66A0
:104280001B68DBB20EE07B6D03F08003002B05D0D2
:10429000BB6E1A1DBA661B689BB203E0BB6E1A1D8B
:1042A000BA661B687B627B6D05933B6D0493FB6C68
:1042B00003933B6C0293002301937B6A00937B681A
:1042C0007A6CB968F868FFF7BEF978643B68013327
:1042D0003B6009E1BB6E073323F0070303F10802DB
:1042E000BA6693ED007B7B6D02933B6D0193FB6C93
:1042F0000093B0EE470AF0EE670A7B687A6CB96803
:10430000F868FFF779FA78643B6801333B60EBE0CB
:104310000123FB637B6D03F00203002B13D1FB6BC6
:104320005A1CFA633A6D9A428CBF01230023DBB218
:10433000002B08D07A6C531C7B64FC687B68B968DE
:104340002020A047EBE7BB6E1A1DBA661B68D8B2E7
:104350007A6C531C7B64FC687B68B968A0477B6DF2
:1043600003F00203002B13D0FB6B5A1CFA633A6D67
:104370009A428CBF01230023DBB2002B08D07A6C59
:10438000531C7B64FC687B68B9682020A047EBE77E
:104390003B6801333B60A7E0BB6E1A1DBA661B6821
:1043A000BB63B86BFEF7DFFF78637B6D03F480635C
:1043B000002B07D07A6BFB6C9A4201D27B6B00E03A
:1043C000FB6C7B637B6D03F00203002B13D17B6BD3
:1043D0005A1C7A633A6D9A428CBF01230023DBB2E8
:1043E000002B08D07A6C531C7B64FC687B68B9682E
:1043F0002020A047EBE7BB6B1B78002B0BD07B6D1D
:1044000003F48063002B04D0FB6C5A1EFA64002B6B
:1044100001D0012300E00023002B0BD0BB6B5A1C02
:10442000BA6318787A6C531C7B64FC687B68B96843
:10443000A047E0E77B6D03F00203002B13D07B6BFA
:104440005A1C7A633A6D9A428CBF01230023DBB277
:10445000002B08D07A6C531C7B64FC687B68B968BD
:104460002020A047EBE73B6801333B603CE008239A
:104470003B657B6D43F021037B65002387F82B3080
:10448000BB6E1A1DBA661B681A467B6D05933B6DA1
:104490000493FB6C03931023029300230193009277
:1044A0007B687A6CB968F868FFF7CDF878643B6888
:1044B00001333B6018E07A6C531C7B64FC687B68BA
:1044C000B9682520A0473B6801333B600CE03B689E
:1044D00018787A6C531C7B64FC687B68B968A047C9
:1044E0003B6801333B6000BFFFF7B6BB7A6C7B686B
:1044F0009A4202D37B685A1E00E07A6CFC687B68A3
:10450000B9680020A0477B6C18465837BD46B0BD3F
:104510000FB480B586B002AF07F11C03BB60391D34
:10452000BB680093BB694FF0FF320648FFF786FB7C
:10453000F860FB6818461037BD46BDE8804004B0FF
:10454000704700BF4133000080B483B000AF786093
:104550007B6803F01F0207497B685B09012000FAB2
:1045600002F241F8232000BF0C37BD465DF8047B02
:10457000704700BF00E100E080B483B000AF786016
:104580007B6803F01F0207497B685B09012000FA82
:1045900002F2203341F8232000BF0C37BD465DF8FE
:1045A000047B704700E100E080B483B000AF786026
:1045B00039607B68002B0BDA3B68DAB20D497B6807
:1045C00003F00F03043B5201D2B20B441A760AE007
:1045D0003B68DBB2084A796808465B01D9B2131818
:1045E0000A4683F8002300BF0C37BD465DF8047B04
:1045F000704700BF00ED00E000E100E080B483B050
:1046000000AF78600C4B1B68DA680B4B1B6842F0FC
:104610008072DA60094B1B6800225A60074B1B68E6
:104620001A68064B1B6842F001021A6000BF0C3783
:10463000BD465DF8047B7047680000106400001000
:1046400080B483B000AF7860044B1B685B68184689
:104650000C37BD465DF8047B704700BF6400001056
:1046600080B400AFDFF81C00016841F47001016004
:10467000BFF34F8FBFF36F8F00BFBD465DF8047B64
:104680007047000088ED00E080B586B000AF78602C
:10469000786800F007F8F0EE407AB0EE670A183755
:1046A000BD4680BD80B485B000AFF86039723A7104
:1046B0003B70FB681B6807EE903AB0EE670A143750
:1046C000BD465DF8047B704780B52DED028B82B04E
:1046D00000AF786039607B6893ED008A3B681846CC
:1046E000FFF7D2FFF0EE407AB4EEE78AF1EE10FA6F
:1046F00094BF01230023DBB218460837BD46BDEC4A
:10470000028B80BD80B483B000AF7860044A7B68C0
:10471000136000BF0C37BD465DF8047B704700BFD7
:104720000000001080B483B000AF78607B68103365
:1047300018460C37BD465DF8047B704780B582B0E3
:1047400000AF78607868FFF7EDFF03469B00034AEF
:10475000134418460837BD4680BD00BF2001001035
:1047600080B582B000AF094B1B685B68DBB27B6031
:10477000074A7B681360074A7B6852F823303B6026
:104780003B68984700BF0837BD4680BD6C000010ED
:10479000480000102001001084B090B585B000AF33
:1047A000786007F1240080E80E007B6AFB60BC6A39
:1047B000F868FFF7C3FF03461C6097F82C30002B06
:1047C00005D0FB68002B02DBF868FFF7BDFE3B6BF2
:1047D000002B04DB3B6B1946F868FFF7E5FE00BFD2
:1047E0001437BD46BDE8904004B0704780B582B034
:1047F00000AF786039603868FFF7BEFE3868FFF7B1
:104800009DFF0246024B136000BF0837BD4680BDC6
:10481000191B000080B582B000AF78607B68184635
:1048200000F004F878680837BD4680BD80B582B0D6
:1048300000AF786003497868FCF731F97868083789
:10484000BD4680BD887C000080B584B000AF07F114
:1048500008031846FFF7DEFF07F108023B46114642
:104860001846FDF7B5FE3B461946074800F0A4F987
:10487000064B1B68002B02D0044B1B68984700BFF7
:104880001037BD4680BD00BF180300101003001094
:1048900090B482B000AF78607A68054BD3E90034F9
:1048A000C2E9003478680837BD4690BC704700BF45
:1048B0001803001080B483B000AF786000BF0C37DD
:1048C000BD465DF8047B704780B483B000AF78606C
:1048D0003960044A3B68136000BF0C37BD465DF881
:1048E000047B704710030010F0B58BB002AF786006
:1048F0000423FB611F4B1B685B68002B14BF012363
:104900000023DBB2002B30D01A4B1B6800229A60C8
:10491000184B1B681A68174B1B6842F002021A609A
:10492000144B1B681A68134B1B6842F001021A6093
:10493000104B1B681A680F4B1B6842F004021A6088
:104940007B689E687B689B681B681D680A4B07F143
:104950000C040FCB84E80F00BB69009307F10C0334
:104960000ECB3046A8470023FB61FB69184624376D
:10497000BD46F0BD700000109878000080B584B08E
:1049800000AF786039607B681846FCF785FAB0EEB6
:10499000407A3B6807EE903AF8EEE77A77EE677A6E
:1049A00007F10C03B0EE670A1846FCF7B0FAFB6893
:1049B00018461037BD4680BD80B582B000AF786024
:1049C0007868FDF7E0FF034618460837BD4680BD0E
:1049D00090B589B000AF786039604FF001004FF0BA
:1049E0000001FBF7D9FD0346FB6007F10C023B46D3
:1049F00011461846FFF768FE0346002B02D04FF021
:104A0000FF3341E07B685A687B685B681B680C3346
:104A10001B68104698470346BB603A4607F10803F7
:104A200011461846FDF738F803467B6107F1140379
:104A300001211846FFF7A2FF03463B6107F110036F
:104A40001846FFF7B9FFF86107F108031846FCF7AD
:104A500061FD04463B461846FCF75CFD0346B4FB8B
:104A6000F3F203FB02F3E31ABB61FB69B3F1807F4E
:104A700005D36FF07F43FB616FF07F43BB61044B55
:104A80001B68FA695A60BB6918462437BD4690BD59
:104A90007000001080B582B000AF786039603A686D
:104AA00079680448FCF71AFF3B6818460837BD468A
:104AB00080BD00BF2403001090B587B002AF7860BE
:104AC000396007F108031846FDF709FDD7E90234FC
:104AD000CDE900343A6879680348FCF751FF3B6838
:104AE00018461437BD4690BD2403001080B500AFB2
:104AF0000248FFF7A5FD0346184680BD20030010BD
:104B000080B582B000AFFFF7ABFD1E4B19681E48A1
:104B1000FCF70AF8FF233B703B46012219461A486E
:104B2000FCF750F84FF416411848FCF731FE1848CE
:104B300000F052F9174800F05FF9174B1968174851
:104B4000FFF746FF1548FFF7CFFE78607B68002B24
:104B50000DD0D623124A13491348FFF7D9FC134846
:104B6000FEF7BAFB00210120FBF7AEFEFEE710487E
:104B7000FFF744FD0F48FFF7C5FD00BF0837BD46EE
:104B800080BD00BF907C0000740000102403001062
:104B9000954A0000B94A0000947C0000780000109B
:104BA000F47C0000C07C0000B47B00004879000069
:104BB0002003001091480000F0B583B000AF78608A
:104BC00039603868FDF7B4FB0A4601467B68D3E9D3
:104BD00000566B1846EB02047A68C2E900347B6821
:104BE00018460C37BD46F0BD80B582B000AF786086
:104BF00039607B68012B55D13B684FF6FF729342B9
:104C000050D12A4B1B6803F00103002B06D1274B20
:104C100001221A60264B1846FCF7A8FF254B1B689B
:104C200003F00103002B05D1224B01221A60224A16
:104C3000224B1A60224B1B6803F00103002B05D1A5
:104C40001F4B01221A601F4A1F4B1A601F4B1B6823
:104C500003F00103002B05D11C4B01221A601C4AF2
:104C60001C4B1A601C4B1B6803F00103002B05D181
:104C7000194B01221A60194A194B1A60194B1B680B
:104C800003F00103002B05D1164B01221A60164ACE
:104C9000164B1A60FCF70EFB03461A4614491548DA
:104CA000FCF75CFD00BF0837BD4680BD7C020010EC
:104CB000200100106802001000C00F401801001011
:104CC0006402001000C002400C0100106C020010D1
:104CD000008009400C0000107002001000C0094064
:104CE000200000107402001000400A403400001040
:104CF000AC7C00002403001080B500AF4FF6FF71BC
:104D00000120FFF771FF80BDFFFFFFFFFFFFFFFFE7
:104D1000074B19680868B0E8F04F80F30988BFF3C3
:104D20006F8F4FF0000080F311887047AFF3008061
:104D30009402001000BF00BFFFFFFFFFFFFFFFFF57
:104D4000EFF30980BFF36F8F154B1A681EF0100F39
:104D500008BF20ED108A20E9F04F10602DE909000E
:104D60004FF0280080F31188BFF34F8FBFF36F8F90
:104D7000FEF734FA4FF0000080F3118809BC19687F
:104D80000868B0E8F04F1EF0100F08BFB0EC108AB2
:104D900080F30988BFF36F8F704700BFAFF30080C7
:104DA0009402001000BF00BF80B483B000AF7860F1
:104DB0003960012318460C37BD465DF8047B704707
:104DC00080B483B000AF78603960002318460C3798
:104DD000BD465DF8047B704780B483B000AF786057
:104DE000044A7B68136000BF0C37BD465DF8047B46
:104DF000704700BF5C00001080B483B000AF7860E3
:104E0000044A7B68136000BF0C37BD465DF8047B25
:104E1000704700BF6000001080B582B000AF03464D
:104E2000FB71054B1B68FA1D01211046984700BF16
:104E30000837BD4680BD00BF5C00001008B500F01B
:104E40000DF808B5804701F02FFCFFFF024B1868F2
:104E5000BFF35B8F704700BF8400001008B5FFF7F9
:104E6000F5FFFFF7EEFFFFFF81F0004102E000BF1A
:104E700083F0004330B54FEA41044FEA430594EA1A
:104E8000050F08BF90EA020F1FBF54EA000C55EA55
:104E9000020C7FEA645C7FEA655C00F0E2804FEA26
:104EA0005454D4EB5555B8BF6D420CDD2C4480EA08
:104EB000020281EA030382EA000083EA010180EA38
:104EC000020281EA0303362D88BF30BD11F0004F86
:104ED0004FEA01314FF4801C4CEA113102D04042BC
:104EE00061EB410113F0004F4FEA03334CEA1333F7
:104EF00002D0524263EB430394EA050F00F0A7800F
:104F0000A4F10104D5F1200E0DDB02FA0EFC22FA09
:104F100005F2801841F1000103FA0EF2801843FAFD
:104F200005F359410EE0A5F120050EF1200E012AEE
:104F300003FA0EFC28BF4CF0020C43FA05F3C0182C
:104F400051EBE37101F0004507D54FF0000EDCF1A5
:104F5000000C7EEB00006EEB0101B1F5801F1BD34E
:104F6000B1F5001F0CD349085FEA30004FEA3C0C52
:104F700004F101044FEA445212F5800F80F09A8048
:104F8000BCF1004F08BF5FEA500C50F1000041EB4C
:104F9000045141EA050130BD5FEA4C0C404141EB50
:104FA000010111F4801FA4F10104E9D191F0000F77
:104FB00004BF01460020B1FA81F308BF2033A3F1FA
:104FC0000B03B3F120020CDA0C3208DD02F1140CF1
:104FD000C2F10C0201FA0CF021FA02F10CE002F12C
:104FE0001402D8BFC2F1200C01FA02F120FA0CFC25
:104FF000DCBF41EA0C019040E41AA2BF01EB04516E
:10500000294330BD6FEA04041F3C1CDA0C340EDC6B
:1050100004F11404C4F1200220FA04F001FA02F3AE
:1050200040EA030021FA04F345EA030130BDC4F16C
:105030000C04C4F1200220FA02F001FA04F340EA61
:105040000300294630BD21FA04F0294630BD94F012
:10505000000F83F4801306BF81F480110134013DF9
:105060004EE77FEA645C18BF7FEA655C29D094EA6A
:10507000050F08BF90EA020F05D054EA000C04BFE8
:105080001946104630BD91EA030F1EBF00210020D3
:1050900030BD5FEA545C05D14000494128BF41F072
:1050A000004130BD14F580043CBF01F5801130BDD6
:1050B00001F0004545F0FE4141F470014FF0000061
:1050C00030BD7FEA645C1ABF194610467FEA655C12
:1050D0001CBF0B46024650EA013406BF52EA0335B4
:1050E00091EA030F41F4002130BD00BF90F0000FA2
:1050F00004BF0021704730B54FF4806404F13204DE
:105100004FF000054FF0000150E700BF90F0000F96
:1051100004BF0021704730B54FF4806404F13204BD
:1051200010F0004548BF40424FF000013EE700BF8D
:1051300042004FEAE2014FEA31014FEA02701FBF1D
:1051400012F07F4393F07F4F81F06051704732F04F
:105150007F4208BF704793F07F4F04BF41F40021A6
:10516000704730B54FF4607401F0004521F0004104
:105170001CE700BF50EA010208BF704730B54FF08E
:1051800000050AE050EA010208BF704730B511F08F
:10519000004502D5404261EB41014FF4806404F1C7
:1051A00032045FEA915C3FF4D8AE4FF003025FEA4D
:1051B000DC0C18BF03325FEADC0C18BF033202EBD1
:1051C000DC02C2F1200300FA03FC20FA02F001FA2B
:1051D00003FE40EA0E0021FA02F11444BDE600BFCE
:1051E0004FEA4102B2F1E04324BFB3F5001CDCF109
:1051F000FE5C0DD901F0004C4FEAC0024CEA507041
:10520000B2F1004F40EB830008BF20F0010070476F
:1052100011F0804F21D113F13872BCBF01F0004072
:10522000704741F480114FEA5252C2F11802C2F1A4
:10523000200C10FA0CF320FA02F018BF40F0010025
:105240004FEAC1234FEAD32303FA0CFC40EA0C00D7
:1052500023FA02F34FEA4303CCE77FEA625307D114
:1052600050EA01331EBF4FF0FE4040F4400070474B
:1052700001F0004040F0FE4040F40000704700BFE5
:1052800080F0004002E000BF81F0004142001FBFFB
:105290005FEA410392EA030F7FEA226C7FEA236C04
:1052A0006AD04FEA1262D2EB1363C1BFD2184140F9
:1052B00048404140B8BF5B42192B88BF704710F08F
:1052C000004F40F4000020F07F4018BF404211F032
:1052D000004F41F4000121F07F4118BF494292EA9A
:1052E000030F3FD0A2F1010241FA03FC10EB0C00C6
:1052F000C3F1200301FA03F100F0004302D5494253
:1053000060EB4000B0F5000F13D3B0F1807F06D3FF
:1053100040084FEA310102F10102FE2A51D2B1F1F7
:10532000004F40EBC25008BF20F0010040EA0300EC
:105330007047490040EB000010F4000FA2F1010299
:10534000EDD1B0FA80FCACF1080CB2EB0C0200FA23
:105350000CF0AABF00EBC25052421843BCBFD04071
:105360001843704792F0000F81F4000106BF80F4EB
:1053700000000132013BB5E74FEA41037FEA226CAE
:1053800018BF7FEA236C21D092EA030F04D092F079
:10539000000F08BF0846704790EA010F1CBF0020AD
:1053A000704712F07F4F04D1400028BF40F000400A
:1053B000704712F100723CBF00F50000704700F02A
:1053C000004343F0FE4040F4000070477FEA226251
:1053D00016BF08467FEA23630146420206BF5FEA22
:1053E000412390EA010F40F4800070474FF0000322
:1053F00004E000BF10F0004348BF40425FEA000CE9
:1054000008BF704743F0964301464FF000001CE090
:1054100050EA010208BF70474FF000030AE000BFE6
:1054200050EA010208BF704711F0004302D5404224
:1054300061EB41015FEA010C02BF84460146002096
:1054400043F0B64308BFA3F18053A3F50003BCFAB1
:105450008CF2083AA3EBC25310DB01FA02FC63445E
:1054600000FA02FCC2F12002BCF1004F20FA02F265
:1054700043EB020008BF20F00100704702F1200258
:1054800001FA02FCC2F1200250EA4C0021FA02F2B9
:1054900043EB020008BF20EADC70704753B94AB9F9
:1054A000002908BF00281CBF4FF0FF314FF0FF302C
:1054B00001F0F8B8ADF1080C6DE904CE00F006F883
:1054C000DDF804E0DDE9022304B070472DE9F04780
:1054D000089E04468846002B4BD18A42154667D960
:1054E000B2FA82F24AB1C2F1200701FA02F320FABD
:1054F00007F7954047EA030894404FEA154E230CFE
:10550000B8FBFEF71FFA85FC0EFB178843EA084339
:1055100007FB0CF1994209D9EB1807F1FF3080F035
:105520001B81994240F21881023F2B445B1AA4B2BE
:10553000B3FBFEF00EFB103344EA034400FB0CFC0B
:10554000A44509D92C1900F1FF3380F00781A44547
:1055500040F2048102382C4440EA0740A4EB0C04DA
:1055600000271EB1D4400023C6E900433946BDE8F8
:10557000F0878B4209D9002E00F0EB800027C6E9A6
:10558000000138463946BDE8F087B3FA83F7002FAB
:1055900047D18B4202D3824200F2FA80841A61EB37
:1055A000030301209846002EE0D0C6E90048DDE75D
:1055B00002B9FFDEB2FA82F2002A40F08F80491B66
:1055C0004FEA154E1FFA85F80127B1FBFEFC230CAC
:1055D0000EFB1C1143EA014308FB0CF1994207D969
:1055E000EB180CF1FF3002D2994200F2CD808446D4
:1055F000591AA3B2B1FBFEF00EFB101443EA0444A7
:1056000008FB00F8A04507D92C1900F1FF3302D29E
:10561000A04500F2B6801846A4EB080440EA0C400E
:105620009FE7C7F1200CBB4022FA0CFE4EEA030EA6
:1056300001FA07F420FA0CF521FA0CF34FEA1E48A0
:105640002543B3FBF8F92C0C08FB19331FFA8EFA2B
:1056500044EA034309FB0AF49C4202FA07F200FA07
:1056600007F10BD91EEB030309F1FF3080F08780AF
:105670009C4240F28480A9F1020973441B1BADB225
:10568000B3FBF8F008FB103345EA034400FB0AFAC9
:10569000A24508D91EEB040400F1FF336BD2A245EA
:1056A00069D90238744440EA0940A0FB0289A4EB9E
:1056B0000A044C45C2464B4654D351D0002E69D003
:1056C000B1EB0A0564EB030404FA0CFCFD40FC405A
:1056D0004CEA0505C6E90054002747E7C2F120035C
:1056E00020FA03F7954001FA02F021FA03F34FEA9A
:1056F000154E3843010CB3FBFEF71FFA85F80EFB7D
:10570000173341EA034107FB08F38B4204FA02F422
:1057100007D9691807F1FF3C2FD28B422DD9023FE0
:105720002944CB1A81B2B3FBFEF00EFB103341EAE1
:10573000034100FB08F38B4207D9691800F1FF3CD5
:1057400017D28B4215D902382944C91A40EA0747B3
:105750003BE73746304609E70746E7E61846FBE6EB
:105760004145ABD2B8EB020A69EB0E020138134691
:10577000A4E76046E9E7184695E76746D1E7814622
:105780007CE702382C4447E7ACF1020C2B442FE7AE
:10579000384608E73746E9E603685A004CBF43F04D
:1057A000004323F000431844704700BF61B32DE964
:1057B000F84F01F1FF3A90460646D146002707EB25
:1057C000090404EBD4746410E50071190846FFF76E
:1057D000E3FFA245834605F10800304409D0FFF7F6
:1057E000DBFFC34500F1FF3005D8404509D2671CF7
:1057F000E5E7C34505D9A74202D004F1FF39DEE74A
:1058000000210846BDE8F88F08467047012807D0F8
:10581000022807D0044B00280CBF18460020704710
:105820000248704702487047F95E0000FD5E0000C4
:10583000015F000030B5254B83B004468D1E4BB38D
:1058400001A92846AFF30080F0B101992A46FFF77D
:10585000ADFF0146C0B1FFF79FFF4B68A064012B6D
:105860002ED0002B01F1040026DBFFF795FF00236B
:10587000C4E913030368002B12DBFFF78DFF00233D
:105880002061184603B030BD002323610923184668
:1058900003B030BD0E490F48091AC9100191D5E770
:1058A000C3F30360FFF7B2FF002814BF00230923EE
:1058B0002061184603B030BD0123C4E91303D9E7C2
:1058C000002323610523184603B030BD000000000B
:1058D000447E00008C7D00000368DA0710B50446A2
:1058E00006D49B0700F1480009D500F05FFC23684F
:1058F000590709D51A070ED5DB0613D510BD00F0E0
:105900004DFC23685907F5D404F1D00000F056FC93
:1059100023681A07F0D404F5A87000F057FC236838
:10592000DB06EBD404F5E870BDE8104000F092BC53
:10593000036803B103441846704700BF092070474D
:10594000704700BF70B504460D4608E02B6C6361DC
:105950002A462369214601209847082808D1296C46
:105960002046FFF767FF06460028EFD000F09CFEB8
:105970000728FBD13046296CFFF7E2FF281D00F015
:1059800001FC00BF2DE9F0470C1D054617460FCC62
:10599000ADF5727D03AE0FC60FCC0FC60FCC0FC690
:1059A00094E80F0002ACD5F80C80D5F8189086E882
:1059B0000F000023236021E0236C6B614FF4F07231
:1059C00021467AA800F09CFE2B697AAA2946304627
:1059D0009847889BCDE900498246636431462B464F
:1059E0002A460120C0470746F8B94FF4F0727AA959
:1059F000204600F085FEBAF1080F1CD1216C284624
:105A0000FFF718FF002F08BF0926074618BF0A2610
:105A10000028D1D0A36B46F01001CDE900492A46F9
:105A2000636401202B46C04700B1092738460DF5B5
:105A3000727DBDE8F087BAF1070FF6D13846216CC8
:105A4000FFF77EFF03A800F09DFB00BF406C70478E
:105A5000F0B5CB6B0B640D1D0F4606460FCDF9B0AC
:105A600001AC0FC40FCD0FC40FCD0FC495E80F00CC
:105A70004FF0FF3584E80F00009506E033696A4671
:105A8000314698470828044608D110993046FFF758
:105A9000D1FE0028F2D0092079B0F0BD6846FFF7AA
:105AA0001BFF062CF7D139463046FFF74BFF00BFEE
:105AB00030B4DD6BC160826119461D64002230BCC8
:105AC00060E700BF70B5C66843690B64BEB903697F
:105AD0000A4604460D46014602209847072807D08B
