:10000000000001107D3A00006D670000553A0000C5
:100010006D6700006D6700006D6700000000000064
:10002000000000000000000000000000116F000050
:100030006D67000000000000217000006D67000087
:100040006D6700006D6700006D6700006D67000060
:100050006D6700006D6700006D6700006D67000050
:100060006D6700006D6700006D6700006D67000040
:100070006D6700006D6700006D6700006D67000030
:100080006D6700006D6700006D6700006D67000020
:100090006D6700006D6700006D6700006D67000010
:1000A0006D6700006D6700006D6700006D67000000
:1000B0006D6700006D6700006D6700006D670000F0
:1000C0006D6700006D6700006D6700006D670000E0
:1000D0006D6700006D6700006D6700006D670000D0
:1000E0006D67000084AB000000000010F800000005
:1000F00084AB00000000002000000000F8000010A9
:10010000440E00000000002000000000FFFFFFFF81
:10011000FFFFFFFFFFFFFFFFFFFFFFFFFFFFFFFFEF
:10012000FFFFFFFFFFFFFFFFFFFFFFFFFFFFFFFFDF
:10013000FFFFFFFFFFFFFFFFFFFFFFFFFFFFFFFFCF
:10014000FFFFFFFFFFFFFFFFFFFFFFFFFFFFFFFFBF
:10015000FFFFFFFFFFFFFFFFFFFFFFFFFFFFFFFFAF
:10016000FFFFFFFFFFFFFFFFFFFFFFFFFFFFFFFF9F
:10017000FFFFFFFFFFFFFFFFFFFFFFFFFFFFFFFF8F
:10018000FFFFFFFFFFFFFFFFFFFFFFFFFFFFFFFF7F
:10019000FFFFFFFFFFFFFFFFFFFFFFFFFFFFFFFF6F
:1001A000FFFFFFFFFFFFFFFFFFFFFFFFFFFFFFFF5F
:1001B000FFFFFFFFFFFFFFFFFFFFFFFFFFFFFFFF4F
:1001C000FFFFFFFFFFFFFFFFFFFFFFFFFFFFFFFF3F
:1001D000FFFFFFFFFFFFFFFFFFFFFFFFFFFFFFFF2F
:1001E000FFFFFFFFFFFFFFFFFFFFFFFFFFFFFFFF1F
:1001F000FFFFFFFFFFFFFFFFFFFFFFFFFFFFFFFF0F
:10020000FFFFFFFFFFFFFFFFFFFFFFFFFFFFFFFFFE
:10021000FFFFFFFFFFFFFFFFFFFFFFFFFFFFFFFFEE
:10022000FFFFFFFFFFFFFFFFFFFFFFFFFFFFFFFFDE
:10023000FFFFFFFFFFFFFFFFFFFFFFFFFFFFFFFFCE
:10024000FFFFFFFFFFFFFFFFFFFFFFFFFFFFFFFFBE
:10025000FFFFFFFFFFFFFFFFFFFFFFFFFFFFFFFFAE
:10026000FFFFFFFFFFFFFFFFFFFFFFFFFFFFFFFF9E
:10027000FFFFFFFFFFFFFFFFFFFFFFFFFFFFFFFF8E
:10028000FFFFFFFFFFFFFFFFFFFFFFFFFFFFFFFF7E
:10029000FFFFFFFFFFFFFFFFFFFFFFFFFFFFFFFF6E
:1002A000FFFFFFFFFFFFFFFFFFFFFFFFFFFFFFFF5E
:1002B000FFFFFFFFFFFFFFFFFFFFFFFFFFFFFFFF4E
:1002C000FFFFFFFFFFFFFFFFFFFFFFFFFFFFFFFF3E
:1002D000FFFFFFFFFFFFFFFFFFFFFFFFFFFFFFFF2E
:1002E000FFFFFFFFFFFFFFFFFFFFFFFFFFFFFFFF1E
:1002F000FFFFFFFFFFFFFFFFFFFFFFFFFFFFFFFF0E
:10030000F8B500BFF8BC08BC9E4670474D0300001E
:10031000AD380000313B0000696E0000F8B500BF49
:10032000F8BC08BC9E46704710B5054C237833B91D
:10033000044B13B10448AFF300800123237010BDB8
:10034000F800001000000000CCAA000008B5034B24
:100350001BB103490348AFF3008008BD0000000053
:10036000FC000010CCAA000090B400AF4FF0FF33A7
:100370006FF0004418462146BD4690BC704780B4DB
:1003800000AF4FF4000307EE903AB0EE670ABD46A7
:100390005DF8047B704780B400AF4FF0505307EE18
:1003A000903AB0EE670ABD465DF8047B7047FFFFE8
:1003B00080B483B000AF78607B6803F01F02074908
:1003C0007B685B09012000FA02F2203341F8232008
:1003D00000BF0C37BD465DF8047B704700E100E0CC
:1003E00080B483B000AF78607B681B7918460C3707
:1003F000BD465DF8047B704780B483B000AF786081
:100400007B685B7918460C37BD465DF8047B704706
:1004100080B582B000AF78600B46FB70084BF9786E
:100420001A785B781B021A43002362F30F031A4603
:10043000786800F059F800BF0837BD4680BD00BF9E
:100440008093000080B582B000AF78600B46FB70EF
:10045000084BF9781A785B781B021A43002362F381
:100460000F031A46786800F03FF800BF0837BD4612
:1004700080BD00BF8493000080B582B000AF78607B
:100480000B46FB70FB7883F00103DBB21946084B87
:100490001A785B781B021A43002362F30F031A4693
:1004A000786800F021F800BF0837BD4680BD00BF66
:1004B0008893000080B582B000AF78600B46FB7077
:1004C000F978084B1A785B781B021A43002362F311
:1004D0000F031A46786800F007F800BF0837BD46DA
:1004E00080BD00BF8C930000F0B587B000AFF8600E
:1004F0000B46BA80FB72FB683B61194B1C683B6979
:100500001846FFF76DFF03461D463B691846FFF787
:1005100073FF03461A466B0113449B0023441B6878
:10052000F97A7A68184602F01DFD0546FB687B6182
:100530000B4B1C687B691846FFF752FF03461E46AB
:100540007B691846FFF758FF03461A4673011344A8
:100550009B0023441D6000BF1C37BD46F0BD00BF9B
:100560001401001080B483B000AF87ED010AD7ED0D
:10057000017AF5EEC07AF1EE10FA04D5D7ED017AE2
:10058000F1EE677A01E0D7ED017AB0EE670A0C3739
:10059000BD465DF8047B704780B584B000AFC7E905
:1005A0000001D7E9000107F049FC024607F10C03FE
:1005B00000EE102A184600F05CF8FB681846103769
:1005C000BD4680BD80B584B000AFC7E90001D7E962
:1005D000000107F033FC024607F10C0300EE102A7D
:1005E000184600F005F8FB6818461037BD4680BD78
:1005F00080B582B000AF786087ED000A7B683A462C
:100600001146184600F005F87B6818460837BD46C5
:1006100080BD80B483B000AF786039603B681A68F1
:100620007B681A607B6818460C37BD465DF8047B12
:10063000704780B586B000AF7860786800F007F842
:10064000F0EE407AB0EE670A1837BD4680BD80B440
:1006500085B000AFF86039723A713B70FB681B6877
:1006600007EE903AB0EE670A1437BD465DF8047B9A
:10067000704780B582B000AF786087ED000A7B6874
:100680003A4611461846FFF7C4FF7B6818460837FC
:10069000BD4680BD80B52DED048B82B000AF786083
:1006A00039607B6893ED008A3B68184600F049F892
:1006B000F0EE407A78EE677AB0EE670AFFF752FF05
:1006C000F0EE408AFFF767FEB0EE409A7B6893ED4C
:1006D000008A3B68184600F034F8F0EE407A78EE75
:1006E000277AB0EE670AFFF73DFFF0EE407A69EE39
:1006F000277AF4EEE78AF1EE10FA19D47B6893EDCD
:10070000008A3B68184600F01CF8F0EE407A78EE5C
:10071000677AB0EE670AFFF725FFB0EE408AFFF771
:100720002EFEF0EE407AB4EEE78AF1EE10FA01D533
:10073000012300E0002318460837BD46BDEC048BBA
:1007400080BD80B586B000AF7860786800F007F8AB
:10075000F0EE407AB0EE670A1837BD4680BD80B42F
:1007600085B000AFF86039723A713B70FB681B6866
:1007700007EE903AB0EE670A1437BD465DF8047B89
:10078000704780B586B000AF786039607B681B68C1
:1007900008331B6839687868984778614FF0000320
:1007A000FB607B69002B0FD07B681B680C331B68D8
:1007B0007868984703463B6107F11003796918464A
:1007C00002F0E3FB0346FB60FB6818461837BD46A2
:1007D00080BDFFFF80B485B000AF78600A4BFB603E
:1007E0007B68002B02D0012B03D005E0074BFB6098
:1007F00002E0074BFB6000BFFB6818461437BD469C
:100800005DF8047B704700BF909300009893000050
:10081000A493000080B586B002AF786039603A6872
:1008200007F10C03009300230021786807F092FE83
:10083000FB6818461037BD4680BDFFFF80B584B009
:1008400000AF786039603B68FB600F217868FFF784
:10085000E1FF034623F00103BB60FB681968BB6836
:10086000043B1A46064805F0D7FDFB681B685A1C76
:10087000FB681A60002318461037BD4680BD00BFD4
:10088000B093000080B584B000AF786039603B68F9
:10089000FB600F217868FFF7BDFF034623F00103DB
:1008A000BB60BB68043B1946064805F0B5FDFB6814
:1008B0001B685A1CFB681A60002318461037BD4697
:1008C00080BD00BFC093000080B584B000AF034678
:1008D0003960FB710023FB6007F10C0319461A48CD
:1008E00008F02AFA3B68002B05D0FB683A681946E5
:1008F000164805F091FDFB79002B20D0144805F037
:100900008BFD144805F088FD0020FFF763FF0346C8
:100910001946114805F080FD07F10C0319460F48F0
:1009200008F00AFA3B68002B03D039680C4805F040
:1009300073FD0C4805F070FD0B4804F029FC00BF66
:100940001037BD4680BD00BF3D080000C8930000C1
:10095000D49300000C940000189400008508000057
:10096000349400003C9400004494000090B482B0A1
:1009700000AF786039603B68D3E900347A68C2E937
:1009800000347B6818460837BD4690BC7047FFFFAF
:1009900080B582B000AF78607B68002203491846BA
:1009A00002F011FB78680837BD4680BD18010010C1
:1009B00080B586B000AF7860786800F007F8F0EE98
:1009C000407AB0EE670A1837BD4680BD80B485B066
:1009D00000AFF86039723A713B70FB68D3ED007A72
:1009E0009FED057A67EE877AB0EE670A1437BD4649
:1009F0005DF8047B704700BF0024744980B584B063
:100A000000AF786039600021786800F0E3F84FF0BB
:100A10000C004FF00001FFF7D5FD0346BB6007F166
:100A200008023B461146184602F00FFB0346002B16
:100A30000FD0164B3A681968786800F0DFFA012188
:100A4000786800F0EBF83B461946114802F01BFBB2
:100A500007E00021786800F0E1F80E490C4802F048
:100A600012FB0121786800F02DFBFF233B7307F197
:100A70000C0301221946786800F00EF8002178680E
:100A800000F05EFB00BF1037BD4680BDB89B000084
:100A900004000010C09B000080B584B000AFF86077
:100AA000B9601346FB71FB79042B0DD9B2230B4AB5
:100AB0000B490C4805F0B0FC0B4804F069FB002121
:100AC0000120FFF701FFFEE7084B1B68FA79C3F826
:100AD000A82100BF1037BD4680BD00BFBC9E0000EE
:100AE000DC9B000098940000389500002001001065
:100AF00080B483B000AF78603960054B1B68D3F8D1
:100B0000A83118460C37BD465DF8047B704700BF1E
:100B10002001001080B483B000AF7860034B1B68E5
:100B200018460C37BD465DF8047B70470400001082
:100B300080B485B000AF786039600B4B1B68D3F888
:100B4000C4303A681278114601228A401340002BC3
:100B500014BF01230023FB73FB7B18461437BD46EB
:100B60005DF8047B704700BF2001001090B583B092
:100B700000AF78603960094B1B68D3F8C4203B682C
:100B80001B781946054B1C68104602F08FFA034685
:100B9000C4F8C43000BF0C37BD4690BD2001001022
:100BA00090B583B000AF78603960094B1B68D3F80B
:100BB000C4203B681B781946054B1C68104602F0A0
:100BC00087FA0346C4F8C43000BF0C37BD4690BD59
:100BD0002001001090B583B000AF78600B467B8099
:100BE0000C4B1B68D3F80C0179880A4B1C680A4B24
:100BF0001A785B781B021A43002362F30F031A462C
:100C000002F079FA0346C4F80C3100BF0C37BD4638
:100C100090BD00BF20010010C49B000090B583B0C0
:100C200000AF78600B467B800C4B1B68D3F8040147
:100C300079880A4B1C680A4B1A785B781B021A43A6
:100C4000002362F30F031A4602F055FA0346C4F874
:100C5000043100BF0C37BD4690BD00BF200100101D
:100C6000D09B000090B583B000AF78600B467B80CE
:100C70000C4B1B68D3F8080179880A4B1C680A4B97
:100C80001A785B781B021A43002362F30F031A469B
:100C900002F031FA0346C4F8083100BF0C37BD46F4
:100CA00090BD00BF20010010D49B000090B583B020
:100CB00000AF78600B467B800C4B1B68D3F8B40107
:100CC00079880A4B1C680A4B1A785B781B021A4316
:100CD000002362F30F031A4602F00DFA0346C4F82C
:100CE000B43100BF0C37BD4690BD00BF20010010DD
:100CF000D89B000080B52DED028B82B000AF7860EC
:100D000039607B6893ED008A3B681846FFF791FCD9
:100D1000F0EE407AB4EEE78AF1EE10FA4CBF012310
:100D20000023DBB218460837BD46BDEC028B80BD00
:100D300080B582B000AF7860786800F005F80346AF
:100D400018460837BD4680BD80B582B000AF7860D8
:100D50007B68184600F00AF8F0EE407AFCEEE77A7D
:100D600017EE903A18460837BD4680BD80B483B070
:100D700000AF78607B681B6807EE903AB0EE670AB8
:100D80000C37BD465DF8047B704780B52DED028BB6
:100D900084B000AF786039607B681846FFF7E6FFE3
:100DA000B0EE408A3B681846FFF7E0FFF0EE407A6D
:100DB000C7ED037A07F10C031846FFF73AFCB0EED3
:100DC000407AC8EE077A07F10803B0EE670A1846C2
:100DD00000F007F8BB6818461037BD46BDEC028B23
:100DE00080BD80B582B000AF786087ED000A7B6877
:100DF0003A4611461846FFF70CFC7B681846083740
:100E0000BD4680BD80B584B000AF786039607B6836
:100E10001846FFF7ABFFB0EE407A3B6807EE903A1A
:100E2000F8EEE77A77EE277A07F10C03B0EE670A5F
:100E30001846FFF7D6FFFB6818461037BD4680BD41
:100E400080B582B000AF78607B681846FFF78EFFF0
:100E5000F0EE407AFCEEE77A17EE903A9BB2184635
:100E60000837BD4680BDFFFF90B58DB000AFF8607C
:100E7000B9607A604FF4C0704FF00001FFF7A2FB39
:100E800003463B6107F110023B1D11461846FFF770
:100E900031FF034683F00103DBB2002B14D14FF086
:100EA0000C004FF00001FFF78DFB03467B6107F15B
:100EB00014023B1D1146184602F0C7F8034683F0A2
:100EC0000103DBB2002B01D0012300E00023002B43
:100ED0000DD0F623434A4449444805F09DFA44485E
:100EE00004F056F900210120FFF7EEFCFEE7012394
:100EF00087F82F303B1D1846FFF71AFF044607F10D
:100F000008031846FFF714FF0346B4FBF3F203FB94
:100F100002F3E31A002B14BF01230023DBB2002BE2
:100F200017D007F108023B1D11461846FFF72DFFA9
:100F30000346FB6107F11C0301211846FFF762FF1E
:100F40000346BB6107F11803184602F0E6F8B862E1
:100F50000EE007F108023B1D11461846FFF715FF8A
:100F600003463B6207F12003184602F0D6F8B86248
:100F70000123FB8497F82F30002B2DD007F10803B5
:100F80001846FFF75DFF03461A46BB6A9BB212FB89
:100F900003F39BB2FA8C12FB03F39BB25B00BB849E
:100FA000BB8C9B2B03D9002387F82F30E2E7FB8C07
:100FB0005B00FB84FB8C072BDCD94FF48973094A57
:100FC0000C490D4805F028FA094804F0E1F8002121
:100FD0000120FFF779FCFEE7BB6A18463437BD46AF
:100FE00090BD00BF409F0000F49B000050950000A2
:100FF000389500000C9C00004096000080B586B03B
:1010000000AFF860B9607A600123FB827A68B96842
:10101000F868FFF729FF38610021F868FFF7DAFD6B
:101020000021F868FFF7FAFD0021F868FFF71AFEC3
:101030000021F868FFF73AFE214B1B68D3F8843093
:1010400023F01F013B695A1E1D4B1B680A43C3F85E
:1010500084201B4B1B68D3F8843023F06002FB8A8A
:101060005B011946164B1B680A43C3F88420144BD6
:101070001B68D3F88020124B1B6842F00102C3F8B2
:1010800080200F4B1B68AA22C3F88C200C4B1B68D6
:101090005522C3F88C200A4B1B68D3F888300A21EC
:1010A000184602F055F8034683F00103DBB2002B2B
:1010B00001D000BFEFE700BF1837BD4680BD00BFBD
:1010C0002001001090B583B000AF78600B46FB7034
:1010D000FB781F2B0ED94FF4A973134A13491448F8
:1010E00005F09AF9134804F053F800210120FFF7A6
:1010F000EBFBFEE7104B1B68D3F804010E4B1C689A
:101100000E4BF9781A785B781B021A43002362F3BE
:101110000F031A4601F026FF0346C4F8043100BF4E
:101120000C37BD4690BD00BFBC9F0000249C000052
:10113000E89600003895000020010010CC9B0000CC
:1011400090B583B000AF78600B46FB700C4B1B680A
:10115000D3F80001F9780A4B1C680A4B1A785B78BF
:101160001B021A43002362F30F031A4601F0C3FF68
:101170000346C4F8003100BF0C37BD4690BD00BF28
:1011800020010010C89B000080B400AF024B18463D
:10119000BD465DF8047B70470800001080B582B042
:1011A00000AF78600B46FB707B681B6808331B68D8
:1011B000F91C01227868984700BF0837BD4680BDFA
:1011C000B0B588B002AFF860C7E90023FB681B68C0
:1011D0000C331D6807F11701D7E90034CDE900345D
:1011E0000122F868A8470346012B0CBF0123002306
:1011F000DBB2002B01D0FF23FB75FB7D18461837AF
:10120000BD46B0BD80B489B000AF786087ED000AFC
:101210007B6800221A607B6800225A607B6801228A
:101220009A600023FB770023BB61BB690E2B4FDC68
:10123000FB7F002B4CD1BB6901337B617B690E2B9B
:1012400042DCFB7F002B3FD1BB6907EE903AF8EE02
:10125000E77AC7ED047A7B6907EE903AF8EEE77A11
:10126000C7ED037AD7ED046A97ED037AC6EE877A65
:10127000B7EE007A77EE877AC7ED027AD7ED027A79
:101280009FED177A77EE877A97ED007AB4EEE77ADA
:10129000F1EE10FA14D8D7ED027A9FED117A77EEBD
:1012A000C77A97ED007AB4EEE77AF1EE10FA07DB31
:1012B000BA697B685A607A697B689A600123FB7718
:1012C0007B6901337B61B9E7BB690133BB61ACE783
:1012D00000BF78682437BD465DF8047B704700BFC7
:1012E000CDCC4C3D80B487B000AF87ED030AC7ED8D
:1012F000020A78607B6807EE903AF8EE677AC7EDED
:10130000057AD7ED037AB3EE007A27EE877AD7ED28
:10131000027A67EE277A97ED057AC7EE276AF0EE34
:10132000667AB0EE670A1C37BD465DF8047B7047ED
:1013300080B487B000AF87ED030AC7ED020A78607A
:101340007B6807EE903AF8EE677AC7ED057AD7ED3D
:10135000037AB3EE007A27EE877AD7ED027A67EE4A
:10136000277A97ED057AC7EE276AF0EE667AB0EE37
:10137000670A1C37BD465DF8047B704780B483B0B4
:1013800000AF87ED010AD7ED017AB6EE007A77EE6D
:10139000877AFDEEE77AF8EEE77AB0EE670A0C3767
:1013A000BD465DF8047B704780B586B000AF87ED21
:1013B000010A0023FB7597ED010AFFF7DFFF87EDB8
:1013C000040A97ED017AD7ED047A77EE677AC7EDD4
:1013D000037AD7ED037A9FED0B7AF4EEC77AF1EE3C
:1013E00010FA0ADBD7ED037A9FED077AF4EEC77A9D
:1013F000F1EE10FA01D80123FB75FB7D1846183772
:10140000BD4680BDCDCC4CBDCDCC4C3D80B582B071
:1014100000AF7860786800F005F803461846083792
:10142000BD4680BD80B582B000AF78607B6818464D
:10143000FFF79CFCF0EE407AFCEEE77A17EE903A6C
:1014400018460837BD4680BD90B591B000AFF86131
:10145000B9617A6107F114031846FFF7D7FFB86244
:101460000023FB63FB6900221A60FB6900225A60BB
:10147000FB6901229A60BB6907EE903AF8EE677A41
:10148000C7ED097A4FF00003BB634FF07F537B63D6
:101490004FF07E533B634FF08043FB62FB6B042BAA
:1014A00000F0BE80FB6B032B00F2B88001A252F863
:1014B00023F000BFC51400001F1500007F150000B9
:1014C000EF150000B86AF7EE000A97ED090AFFF77A
:1014D00009FF87ED0E0AD7ED0E7AB7EE007AF4EE2B
:1014E000C77AF1EE10FA05D5FB6900221A600423D1
:1014F000FB6394E097ED0E0AFFF756FF0346002BBF
:101500000AD0D7ED0E7AFCEEE77A17EE902AFB6947
:101510001A600423FB6382E00123FB637FE0B86A67
:10152000D7ED0D0A97ED090AFFF7DCFEF0EE407AE1
:10153000B0EE670AFFF722FF87ED0E0AB86AD7ED13
:101540000E0A97ED090AFFF7F3FE87ED0D0AD7EDB6
:101550000D7A9FED367AF4EEC77AF1EE10FA0BDBD6
:10156000D7ED0D7A9FED327AF4EEC77AF1EE10FAEC
:1015700002D80323FB6352E00223FB634FE0D7ED65
:101580000B7AB7EE007A77EE877AC7ED0B7AD7ED54
:101590000C7AB2EE0E7AF4EEC77AF1EE10FA02DDB2
:1015A0000423FB633BE0D7ED0B7AB2EE0E7AF4EE48
:1015B000C77AF1EE10FA0FDDD7ED0C7AB7EE007AAC
:1015C00077EE877AC7ED0C7AD7ED0C7AB7EE007A12
:1015D00077EE877AC7ED0B7AD7ED0C6A97ED0B7A29
:1015E000C6EE877AC7ED0D7A0123FB6317E0FC692D
:1015F0003B4697ED0D0A1846FFF704FE3B4693E87D
:10160000070084E80700D7ED0E7AFCEEE77A17EEC4
:10161000902AFB691A600423FB6300E000BF3DE7EA
:1016200000BFF8694437BD4690BD00BFCDCC8C3FAC
:101630003333F33F80B483B000AF7860044A7B68F3
:101640001A607B6818460C37BD465DF8047B70470E
:10165000549E000080B584B000AFF860B9607A6035
:10166000FB681846FFF7E6FF064AFB681A60FB684E
:10167000BA685A60FB687A689A60FB681846103747
:10168000BD4680BD389E000080B584B000AF786054
:1016900039600723FB737B6898687B689B681B68CD
:1016A00014331B687A6852680432114698473968C7
:1016B000786800F049F87B685B68D8687B685B688D
:1016C000DB681B681B687A685268127CC2F3C2022E
:1016D000D2B2114698477B685B6898687B685B6804
:1016E0009B681B681B687A685268127CC2F302020E
:1016F000D2B2114698477B685B68DA687B685B68A2
:10170000DB681B6804331B680221104698477B681E
:101710005B689A687B685B689B681B6804331B681E
:101720000221104698477B685B681B681B7ADAB217
:101730007B685B681B6842F00702D2B21A72002312
:1017400018461037BD4680BD80B586B000AF7860C2
:1017500039607B689A687B685B6804331946104679
:10176000FFF70FF8024607F1080339681846FFF73C
:101770006BFE8023FB75BB681B0ABB75BB687B7562
:101780003B69DBB21B01DAB2FB68DBB203F00F038B
:10179000DBB213433B757B685B681B6880221A735E
:1017A0007B685B681B68BA7D1A717B685B681B6825
:1017B0007A7D1A707B685B681B683A7D83F8282005
:1017C0007B685B681B6803221A730123184618376D
:1017D000BD4680BD80B586B000AFF860B9607A6064
:1017E00000237B617A697B689A4216D2BA687B696A
:1017F0001A44FB685B681B6812781A70F86800F07E
:10180000B5F8034683F00103DBB2002B01D000BF23
:10181000F4E77B6901337B61E4E700BF1837BD461D
:1018200080BD90B583B000AF78607B681B681846B8
:1018300000F08AF80346002B10D07B681B685B68B9
:101840001B681B78DCB27B685B6819687B68DA68A8
:101850001368581C10600B4422461A707B68DB68C2
:101860001A687B689B689A4201D3012300E0002339
:1018700018460C37BD4690BD90B59DB000AF78615D
:101880003961FA600023FB637B693B6407F1100355
:101890007B64FB68BB6407F13C03FB64D7E920343D
:1018A000C7E9083407F12C0407F140030FCB84E8A3
:1018B0000F0007F16003184600F04DFF07F16002CA
:1018C00007F120031146184601F098FB0346002B50
:1018D00004D0D7E90834C7E9063411E0194B1B6876
:1018E00007F15802104698473B4607F1200207F1DE
:1018F0005801184601F0C6FDD7E90034C7E906349F
:101900000123FB660F4B1B6807F1500210469847F6
:1019100007F1180207F150031146184601F0DFFDE8
:101920000346002B09D007F12C031846FFF779FF77
:101930000346002BE6D00023FB66FB6E1846743787
:10194000BD4690BD0000001080B582B000AF786049
:101950007B685B681B681B7DDBB20021184601F0C9
:101960000EFC034618460837BD4680BD80B582B0E0
:1019700000AF78607B685B681B681B7DDBB205216C
:10198000184601F0FCFB034618460837BD4680BDEB
:1019900080B500AF084B1B681868084B1A785B7855
:1019A0001B021A43002362F30F03194601F0FEFBEA
:1019B0000346184680BD00BF24010010749C00003F
:1019C00080B483B000AF7860044A7B681A607B689B
:1019D00018460C37BD465DF8047B7047249E000016
:1019E00080B584B000AFF860B9607A60FB681846D3
:1019F000FFF7E6FF064AFB681A60FB68BA685A60A0
:101A0000FB687A689A60FB6818461037BD4680BD4F
:101A1000109E000080B52DED028B84B000AF786081
:101A200039607B681846FFF7A1F9B0EE408A3B6841
:101A30001846FFF79BF9F0EE407AC7ED037A07F1FD
:101A40000C031846FEF77DFEB0EE407AC8EE077A2A
:101A500007F10803B0EE670A1846FFF7C2F9BB6842
:101A600018461037BD46BDEC028B80BD80B582B0F4
:101A700000AF7860786801F050FB034618460837DD
:101A8000BD4680BD80B586B000AF78607B689A683F
:101A90007B689B681B6814331B683C491046984759
:101AA0007B685B6818687B685B681B681B681B68E1
:101AB0007A6852681279C2F3C202D2B211469847CC
:101AC0007B685B681A687B685B681B681B6804330B
:101AD0001B680021104698477B685B681A687B6822
:101AE0005B681B681B680C331B6801211046984714
:101AF0007B689B6825491846FEF743FE0346BB609A
:101B000007F1080322491846FFF784FF0346FB60EC
:101B100007F10C031846FFF7A9FF38611D4B1B683E
:101B20001B687B611C4B1A785B781B021A430023ED
:101B300062F30F031946786901F047FB7861174B90
:101B40001A785B781B021A43002362F30F031A46CC
:101B50003969786901F0CFFA7861FFF719FF034618
:101B6000002B0AD07B685B681B79C3F30203DBB2EE
:101B70001946786901F09AFA7861064B1B687A6910
:101B80001A60002318461837BD4680BDBC9B000074
:101B9000C89C000024010010789C0000709C00008C
:101BA00080B584B000AF7860786800F051F80E4BD3
:101BB0001B687A6852681279C2F30202D2B2043208
:101BC00053F82200094B1A785B781B021A43002352
:101BD00062F30F03194601F007FBF860FB68184633
:101BE0001037BD4680BD00BF24010010809C00005E
:101BF00080B483B000AF78600C2318460C37BD4624
:101C00005DF8047B7047FFFF80B582B000AF78605D
:101C10000D4B1B687A6852681279C2F30202D2B285
:101C2000043253F82200094B1A785B781B021A43DE
:101C3000002362F30F03194601F0B8FA0346184671
:101C40000837BD4680BD00BF24010010849C000001
:101C500090B585B000AF7860FFF79AFE0346002B81
:101C600013D0294B1B681868274B1C68274B1A7820
:101C70005B781B021A43002362F30F031A4600210C
:101C800001F0C3FA034623603AE07B685B681B7986
:101C9000C3F30203DBB21A4601239340FB601A4BE5
:101CA0001B681868184B1C68194B1A785B781B0264
:101CB0001A43002362F30F031A46F96801F01BFA76
:101CC00003462360104B1B6818680F4B1C680F4BB2
:101CD0001A785B781B021A43002362F30F031A463B
:101CE000012101F092FA034623607868FFF78CFF28
:101CF000034683F00103DBB2002B01D000BFF4E701
:101D000000BF1437BD4690BD240100107C9C00002C
:101D10006C9C000080B400AF00BFBD465DF8047B42
:101D20007047FFFF80B582B002AF094B1B6800937C
:101D30001D23084A0849094804F06EFB044B1B6840
:101D4000103B1846FEF734FB00BFBD4680BD00BF08
:101D5000480000100CA10000CC9C000084970000FB
:101D600080B483B000AF7860402318460C37BD467E
:101D70005DF8047B7047FFFF80B584B000AF7860EA
:101D80007B6818464FF480731A46002107F0E9F982
:101D90000023FB60FB680F2B08D87B68FA681149A9
:101DA00043F82210FB680133FB60F3E71023BB60AC
:101DB0007868FFF7D5FF0246BB68934234BF012322
:101DC0000023DBB2002B08D07B68BA68064943F8D1
:101DD0002210BB680133BB60EAE700BF78681037A8
:101DE000BD4680BD151D0000251D000080B483B0D8
:101DF00000AF7860044A7B681A607B6818460C372D
:101E0000BD465DF8047B7047F89D000080B584B046
:101E100000AFF860B9607A60FB681846FFF7E6FF2C
:101E2000064AFB681A60FB68BA685A60FB687A6801
:101E30009A60FB6818461037BD4680BDE09D0000E3
:101E400090B585B000AF786039607B685B681B7ABD
:101E500003F00703DBB2002B07D07B685B681B7ABB
:101E600003F00703DBB2072B0DD1BB235D4A5E49AC
:101E70005E4804F0D1FA5E4803F08AF9002101209F
:101E8000FEF722FDFEE77B6898687B689B681B680D
:101E900014331B687A6852681268043211469847F6
:101EA0007B685B681B681B680022DA607B685B6884
:101EB0001B681B6800221A617B685B681B681B68D3
:101EC000186F7B685B681B681C684A4B1A785B78E4
:101ED0001B021A43002362F30F031A46002101F08C
:101EE00094F9034623677B685B681B681B68186F5F
:101EF0007B685B681B681C683F4B1A785B781B0229
:101F00001A43002362F30F031A46002101F07DF902
:101F1000034623677B689A687B685B681B680433A9
:101F200019461046FEF72DFC0346BB603A4607F102
:101F3000080311461846FFF76DFD0346FB607B68FA
:101F40005B681B681C6807F10C031846FFF78EFDE1
:101F50000346A3617B685B681B681B6858697B68E4
:101F60005B681B681C68254B1A785B781B021A4358
:101F7000002362F30F03194601F027F9034663615A
:101F80000121786800F04CF97B685B681B681B686E
:101F9000DA6C082319467B685B681B7AC3F302037B
:101FA000DBB20B4419467B685B681B681C681046F3
:101FB00001F07CF80346E3647B685B6858687B68E3
:101FC0005B685B681B681B687A685268127AC2F3A8
:101FD000C202D2B211469847002318461437BD46B4
:101FE00090BD00BF78A00000589D0000049800003C
:101FF00038950000EC9C0000F09C0000DC9C000088
:1020000090B585B002AF786087ED000AD7ED007A11
:10201000F5EEC07AF1EE10FAACBF01230023DBB27B
:1020200083F00103DBB2002B10D1D7ED007AB7EEBD
:10203000007AF4EEC77AF1EE10FA94BF0123002380
:10204000DBB283F00103DBB2002B14D0386805F05B
:10205000FDFC03460C46CDE90034E9231B4A1C492C
:102060001C4804F0D9F91C4803F092F80021012023
:10207000FEF72AFCFEE797ED000A786800F08AF97F
:1020800004467B685B681B7AC3F30203DBB2194624
:10209000786800F02FF903461C607B685B681B685A
:1020A0001B681A6D7B685B681B7AC3F30203DBB2A3
:1020B000194601238B4019467B685B681B681B68C7
:1020C0000A431A6500BF0C37BD4690BDD0A0000082
:1020D000609D0000D89800003895000080B52DED77
:1020E000028B82B000AF78607B685B681B7AC3F3B9
:1020F0000203DBB21946786800F0FCF803461B685F
:1021000007EE903AB8EE678A0021786800F0F2F89E
:1021100003461B6807EE903AF8EE677A88EE277A56
:10212000F0EE477AB0EE670A0837BD46BDEC028B89
:1021300080BD80B582B000AF78603960396878685A
:10214000FEF7A8FA034683F00103DBB2184608370E
:10215000BD4680BD90B587B000AF786039604FF064
:1021600000004FF00001FEF717FA0346FB6007F18D
:102170000C023B4611461846FFF7DBFF034683F08F
:102180000103DBB2002B0DD0F623214A214922485E
:1021900004F042F9214802F0FBFF00210120FEF784
:1021A00093FBFEE77868FFF799FF87ED050A0021AA
:1021B000786800F035F87B689A687B685B681B6814
:1021C000043319461046FEF7DCFA0346BB603A4674
:1021D00007F1080311461846FFF71CFC03463B6154
:1021E0007B685B681B681C6807F110031846FFF7E3
:1021F0003DFC0346A36197ED050A7868FFF700FFF1
:102200000121786800F00CF800BF1C37BD4690BD76
:1022100028A00000689D0000A899000038950000E3
:1022200080B584B000AF78600B46FB707B685B685C
:102230001B681B680433FB60FB78002B40D0FB68F5
:102240001868294B1A785B781B021A43002362F343
:102250000F03194600F0B9FF0246FB681A60FB68DD
:102260001868214B1A785B781B021A43002362F32B
:102270000F03194600F0DBFF0246FB681A60FB689B
:1022800018681A4B1A785B781B021A43002362F312
:102290000F03194600F099FF0246FB681A60FB68BD
:1022A0001868134B1A785B781B021A43002362F3F9
:1022B0000F03194600F089FF0246FB681A600FE021
:1022C000FB681868094B1A785B781B021A430023D5
:1022D00062F30F03194600F0AAFF0246FB681A607A
:1022E00000BF1037BD4680BDE49C0000E89C0000A4
:1022F000E09C000080B483B000AF78600B46FB70B8
:10230000FB78062B3AD801A252F823F029230000CB
:1023100035230000412300004D2300005923000015
:1023200065230000712300007B685B681B681B68E5
:10233000183328E07B685B681B681B681C3322E04D
:102340007B685B681B681B6820331CE07B685B68EC
:102350001B681B68243316E07B685B681B681B687E
:10236000403310E07B685B681B681B6844330AE0FD
:102370007B685B681B681B68483304E07B685B68AC
:102380001B681B68183318460C37BD465DF8047B84
:10239000704700BF80B584B000AF786087ED000A59
:1023A00000217868FFF7A6FF03461B6807EE903A06
:1023B000F8EE677AC7ED037A97ED007AD7ED037AE6
:1023C00067EE277AFCEEE77A17EE903A1846103758
:1023D000BD4680BD90B585B000AF78603960174AC2
:1023E0007B681A607B683A685A607B6803F1080270
:1023F0000023FB6007F10C031946104600F068FA51
:102400007A684FF47A734FF00004C2E904347A68B2
:102410004FF4FA634FF00004C2E906347B684FF0D2
:1024200000021A627B684FF000025A627B68044A1D
:102430005A627B6818461437BD4690BDC09D0000A7
:102440000000B44280B582B000AF786039607B682C
:102450005A687B685B681B681B6839681046984738
:102460007B681B6804331B6839687868984700BF2D
:102470000837BD4680BD80B586B000AF786078680B
:1024800000F0E4FEF0EE407AB0EE670A1837BD4681
:1024900080BD80B52DED028B84B000AF78603960CF
:1024A0007B681846FEF762FCB0EE408A3B6818462F
:1024B000FEF75CFCF0EE407AC7ED037A07F10C03FF
:1024C0001846FFF7D8FFB0EE407AC8EE077A07F15A
:1024D0000803B0EE670A1846FEF783FCBB6818468F
:1024E0001037BD46BDEC028B80BD90B482B000AF0A
:1024F000786039603B681B684FF000047A68C2E975
:1025000000347B6818460837BD4690BC704790B5CC
:1025100089B000AF786039607B685A687B685B6817
:102520001B680C331B683968104698474FF0010050
:102530004FF00001FEF746F80346FB613A4607F10B
:102540001C0311461846FFF7A4FF0346BB6107F1C1
:1025500018031846FFF78AFA03467B6107F1140255
:1025600007F1080311461846FFF7BFFF7A68D7E95D
:102570000234C2E9023400BF2437BD4690BD90B496
:1025800084B000AFF860C7E90023FA68D7E90034E7
:10259000C2E90434FA68D7E90634C2E9063400BF58
:1025A0001037BD4690BC704780B485B000AFF8606E
:1025B000B9607A60FB68BA681A62FB687A685A6226
:1025C00000BF1437BD465DF8047B704790B482B0FD
:1025D00000AF78607B68D3E900341846214608379D
:1025E000BD4690BC7047B0B52DED028B84B000AFF6
:1025F000F860C7E90023FB685D68FB685B681B68DF
:1026000004331C683B461846FFF7E0FF02460B46C2
:102610001046194605F01AFC08EE100AFB6808334C
:102620001846FFF7D3FF02460B461046194605F041
:102630000DFC07EE100AC8EE077AB0EE670A2846CE
:10264000A04700BF1037BD46BDEC028BB0BD80B5C2
:1026500082B000AF7860786800F007F8F0EE407A5A
:10266000B0EE670A0837BD4680BD80B582B000AFC6
:1026700078607B681846FEF779FBF0EE407AB0EEA2
:10268000670A0837BD4680BDB0B52DED048B86B016
:1026900000AF786039603B461846FFF7D8FFB0EED0
:1026A000408A7B6820331846FFF7D1FFF0EE408A5E
:1026B0007B6824331846FFF7CAFFB0EE409A7B6868
:1026C00010331846FFF782FF03460C461846214692
:1026D00005F0BCFB05467B6818331846FFF776FF0C
:1026E00003460C461846214605F0B0FB034602EEB1
:1026F000103A01EE905AB0EE491AF0EE680AB0EEC8
:10270000480A00F0BDFD87ED050A7B681B681033A1
:102710001C68D7ED057AFCEEE77A17EE903A3B613C
:1027200007F1100207F1080311461846FFF7DDFE16
:10273000D7E902237868A04700BF1837BD46BDEC33
:10274000048BB0BD98B500AFFDF70EFE03460C46F6
:102750001846214698BD90B585B000AF7860FFF768
:10276000F1FF03460C46C7E9023407F10803194696
:102770007868FEF7FBF878681437BD4690BDFFFF18
:1027800090B593B002AF7860002387F83330FEF73E
:10279000FBFC03461A4607F11C0346491846FEF7A0
:1027A00059FF07F11C034FF416411846FEF76CFF62
:1027B0001C23414A4149424803F02EFE414B07F198
:1027C0000C040FCB84E80F000023FB63FB6B032B8F
:1027D0006CDC1823BB63BB6B002B16D03A4B1B6819
:1027E000FA6B043253F82220BB6B22FA03F387F80A
:1027F000323097F8322007F11C0311461846FEF7D5
:10280000CDFCBB6B083BBB63E5E72F4B1B68FA6B4A
:10281000043253F82230DAB207F11C03114618468D
:10282000FEF7BCFC00237B637B6B032B20D807F1F6
:1028300028031846FFF78FFF07F11C01D7E90A2389
:102840000846FEF7BDFC034687F833301E4B1B6875
:10285000FA6B53F82230190297F833201A4B1B6891
:102860001143FA6B43F822107B6B01337B63DBE788
:10287000FB6B9B0007F14002134453F8344C124B9E
:102880001A68FB6B9B0013441B68184605F0DEF8C2
:102890000A460146FB6B009313460A4621460B4845
:1028A00003F0BAFDFB6B0133FB638FE7C82001F037
:1028B00059FB89E70C000010A49E0000889D0000D1
:1028C0004C9A0000B89A000078020010989A000014
:1028D00090B482B000AF786039603B681B684FEA03
:1028E000E3747A68C2E900347B6818460837BD464D
:1028F00090BC704780B483B000AF78603960054AFF
:102900007B681A607B6818460C37BD465DF8047B0F
:10291000704700BF249E000080B582B000AF786091
:1029200039607B683A6811461846FFF7E3FF084AAA
:102930007B681A603B685A687B685A603B689A6893
:102940007B689A607B6818460837BD4680BD00BF2B
:10295000109E000090B482B000AF78603960134AD6
:102960007B681A603B685A687B685A607A683B6883
:10297000D3E90234C2E902347A683B68D3E904340B
:10298000C2E904347A683B68D3E90634C2E9063404
:102990007B683A68126A1A627B683A68526A5A62BD
:1029A0007B6818460837BD4690BC7047C09D000044
:1029B000B0B5ADF5207D02AF3B1D18604FF00003B0
:1029C000C7F8683207F5147300221A605A609A60DB
:1029D000DA60FEF7D9FB03461A4607F51173D649AC
:1029E0001846FEF7FDFFFEF7CFFB03461A4607F534
:1029F0000E73D2491846FEF7F3FFFEF7C5FB0346F8
:102A00001A4607F50B73CE491846FEF7E9FFFEF7A5
:102A1000BBFB03461A4607F50873CA491846FEF77A
:102A2000DFFFFEF7B1FB03461A4607F50573C649FB
:102A30001846FFF7EBF9FEF7A7FB03461A4607F522
:102A40000273C2491846FFF7E1F9FEF79DFB034602
:102A50001A4607F5FE73BE491846FFF7D7F9FEF789
:102A600093FB03461A4607F5F873BA491846FFF771
:102A7000CDF9FEF789FB03461A4607F5F273B6490E
:102A80001846FFF7C3F907F5057207F5DC73114621
:102A90001846FFF79FFC07F5027207F5C873114649
:102AA0001846FFF797FC07F5FE7207F5B473114659
:102AB0001846FFF78FFC07F5F87207F5A07311466B
:102AC0001846FFF787FC07F5F27207F58C7311467D
:102AD0001846FFF77FFC07F5117207F1E80311466E
:102AE0001846FFF719FF07F50E7207F1E8030C33DC
:102AF00011461846FFF710FF07F50B7207F1E803C0
:102B0000183311461846FFF707FF07F5087207F15B
:102B1000E803243311461846FFF7FEFE07F5DC7282
:102B200007F1200311461846FFF714FF07F5C87296
:102B300007F12003283311461846FFF70BFF07F56E
:102B4000B47207F12003503311461846FFF702FF15
:102B500007F5A07207F12003783311461846FFF7F6
:102B6000F9FE07F58C7207F12003A03311461846D1
:102B7000FFF7F0FE0023C7F87432D7F87432032B46
:102B800000F38180754B1B68D7F87422002143F84D
:102B9000221007F12001D7F8742213469B0013443A
:102BA000DB00C818D7F8742213469B001344DB00DF
:102BB00007F12001D7F8742213469B001344DB0071
:102BC0000B441B681B68664A1168984707F120018F
:102BD000D7F8742213469B001344DB00C818D7F8BB
:102BE000742213469B001344DB0007F12001D7F841
:102BF000742213469B001344DB000B441B68043310
:102C00001B68584A1168984707F12001D7F87422C9
:102C100013469B001344DB00C818D7F874221346F0
:102C20009B001344DB0007F12001D7F87422134600
:102C30009B001344DB000B441B68083319684A4AA5
:102C40004A4BD3E90034CDE90034D2E90023884768
:102C5000D7F8743200939B23454A4649464803F00F
:102C6000DBFB07F1E801D7F8742213465B0013443D
:102C70009B000B441846FEF705FFD7F8743201336A
:102C8000C7F8743279E707F12003D3F8A0301B6846
:102C9000334907F12002A03209681046984707F12E
:102CA0002003D3F8A03004331B682E4907F120021B
:102CB000A03209681046984707F12003D3F8A030E6
:102CC00008331968284A07F1200303F1A000274BB5
:102CD000D3E90034CDE90034D2E900238847A223A8
:102CE000234A2649264803F097FB07F11003254A9B
:102CF0001C4613460FCB84E80F000023C7F8703240
:102D0000D7F87032032B00F3A080144B1A68D7F861
:102D100070329B001344D3ED007AF5EEC07AF1EEE9
:102D200010FA31D50D4B1A68D7F870329B00134456
:102D30004FF000021A6041E0A89C0000B09C000027
:102D4000B89C0000C09C00001C9D0000289D000055
:102D5000349D0000409D00004C9D00007802001052
:102D6000709D0000749D0000789D0000809D000013
:102D700004A00000989D0000C89A0000A89D0000D3
:102D8000209B0000749B0000554B1A68D7F87032E6
:102D90009B0013441B68184604F058FE4EA3D3E969
:102DA000002304F029FF0346002B07D04C4B1A6880
:102DB000D7F870329B0013444A4A1A60484B1A688D
:102DC000D7F870329B001344D3ED007A4FF4FA61C8
:102DD0004FF47A709FED441ADFED440AB0EE670AB3
:102DE00000F08FFA024607F10C031A6007F1200188
:102DF000D7F8702213469B001344DB00CD18D7F898
:102E0000702213469B001344DB0007F12001D7F822
:102E1000702213469B001344DB000B441B681033E5
:102E20001C6807F10C0207F5187311461846FFF7E6
:102E30004FFD07F51873D3E900232846A047D7F8BC
:102E400070320133C7F870325AE707F5F873184645
:102E5000FFF744F9F0EE407A07F5F273B0EE670A37
:102E60001846FFF7CDF80023C7F86C32D7F86C325C
:102E7000032B2DDC07F1E801D7F86C2213465B0029
:102E800013449B000B441846FEF78AFE07EE900A97
:102E9000F8EE677AC7ED9A7A114B1C689FED141A09
:102EA000DFED120A40F6FF71002097ED9A0A00F05C
:102EB00073FAF0EE407AD7F86C3204339B00234467
:102EC000C3ED007AD7F86C320133C7F86C32CDE726
:102ED000C82001F047F810E76666666666660A4035
:102EE0007802001033335340333353400000000066
:102EF0000000FA4480B58AB002AF002210210A20F7
:102F000001F06DFD0246104B1A603A460F4B0193DB
:102F10000223009313464FF480620D490D4800F0E0
:102F2000F3FE3A460C4B01930123009313464FF4F2
:102F300080620A490A4800F0E7FE01F037F80023F2
:102F400018462037BD4680BD740200106C02001088
:102F5000849B00008127000070020010909B0000FD
:102F6000B129000080B584B000AFF8600B46BA808C
:102F7000FB723B791A467B79F97AF86800F055FACA
:102F8000034618461037BD4680BD80B584B000AFFB
:102F9000786039607B681846FDF7E8FEF0EE406A1D
:102FA0003B6807EE903AF8EE677A86EEA77A07F16B
:102FB0000C03B0EE470A1846FDF75BFBFB681846AA
:102FC0001037BD4680BD90B587B000AFF860B960DE
:102FD0007A60BB68D3E90034591C44F10002B86838
:102FE000C0E90012C7E9043407F110031946F86874
:102FF000FDF7BCFCF8681C37BD4690BDF0B587B046
:1030000000AF786039607B68D3E90034C7E90234E7
:1030100007F108031846FFF7D9FA05460E463B6844
:10302000D3E90034C7E9043407F110031846FFF769
:10303000CDFA03460C46A64206BF9D42012300235B
:10304000DBB218461C37BD46F0BD80B52DED028BB6
:1030500082B000AF786039607B6893ED008A3B688E
:103060001846FDF7E6FAF0EE407AB4EEE78AF1EEA4
:1030700010FACCBF01230023DBB218460837BD4647
:10308000BDEC028B80BD80B582B000AF7860396046
:103090003B681846FDF78CFCF0EE407A7B68C3ED88
:1030A000007A7B6818460837BD4680BD80B483B07F
:1030B00000AF7860396001223B6802FA03F31A46D8
:1030C0007B68134318460C37BD465DF8047B704798
:1030D00080B483B000AF7860396001223B6802FAA7
:1030E00003F3DB431A467B68134018460C37BD4692
:1030F0005DF8047B704780B584B000AFF860B960BC
:10310000BA803B791A467B79B968F86800F00FFA03
:10311000034618461037BD4680BD80B584B000AF69
:1031200078607B681846FDF721FEF0EE407AC7ED27
:10313000037A07F10C03184600F025FAF0EE407A06
:10314000FCEEE77A17EE903A18461037BD4680BD80
:1031500080B483B000AF7860396001223B6802FA26
:1031600003F31A467B681340002B14BF012300238E
:10317000DBB218460C37BD465DF8047B704780B45F
:1031800083B000AF03463960FB71FA793B6842FABD
:1031900003F303F00103002B14BF01230023DBB270
:1031A00018460C37BD465DF8047B704780B582B089
:1031B00000AF786039803B7819467868FFF7C8FF20
:1031C000034618460837BD4680BD80B582B000AFC3
:1031D000786039803B7819467868FFF767FF0346C7
:1031E00018460837BD4680BD80B582B000AF786014
:1031F00039803B7819467B781A46786800F0D1F917
:10320000034618460837BD4680BD80B584B000AF80
:10321000F860B960BA803B791A467B79B968F8687A
:1032200000F0DDF9034618461037BD4680BD80B575
:1032300082B000AF786039803B7819467868FFF734
:1032400047FF034618460837BD4680BD80B485B0A9
:1032500000AFF86039723A713B70FB68D3ED007AC9
:103260009FED067AC7EE876AF0EE667AB0EE670ADF
:103270001437BD465DF8047B704700BF00247449D5
:1032800080B48FB000AF87ED050AC7ED040A87ED63
:10329000031AC7ED021A87ED012A7B697B633B693C
:1032A0003B63FB68FB62BB68BB627B687B6297ED3C
:1032B000097AD7ED0A7A77EE676A97ED0B7AD7ED40
:1032C0000C7A37EE677AC6EE877AC7ED087A97ED03
:1032D0000D7AD7ED0C7A37EE677AD7ED087A67EE7C
:1032E000277A97ED0A7A77EE277AC7ED077AFB6996
:1032F00007EE903AB0EE670A3C37BD465DF8047BB6
:10330000704780B48FB000AF87ED050AC7ED040A9F
:1033100087ED031AB86079607B697B633B693B6327
:10332000FB68FB62BB6807EE903AF8EEE77AC7ED00
:103330000A7A7B6807EE903AF8EEE77AC7ED097AE9
:1033400097ED097AD7ED0A7A77EE676A97ED0B7AEF
:10335000D7ED0C7A37EE677AC6EE877AC7ED087A32
:1033600097ED0D7AD7ED0C7A37EE677AD7ED087ABC
:1033700067EE277A97ED0A7A77EE277AC7ED077A14
:10338000D7ED077AFDEEE77A17EE903A18463C370C
:10339000BD465DF8047B704780B48FB000AF87ED09
:1033A000050A3861F960C7ED020A87ED011A7B69E9
:1033B0007B633B6907EE903AF8EEE77AC7ED0C7A4B
:1033C000FB6807EE903AF8EEE77AC7ED0B7ABB6838
:1033D000BB627B687B6297ED097AD7ED0A7A77EE5C
:1033E000676A97ED0B7AD7ED0C7A37EE677AC6EEFF
:1033F000877AC7ED087A97ED0D7AD7ED0C7A37EE1C
:10340000677AD7ED087A67EE277A97ED0A7A77EE32
:10341000277AC7ED077AFB6907EE903AB0EE670AA4
:103420003C37BD465DF8047B704780B489B000AF7F
:10343000F8607A603B600B46FB724FF0FF33FB6134
:103440002023BB613B68C3F120034FF0FF3222FA17
:1034500003F37B617A697B6802FA03F3DB43FA6862
:103460001340FB60FA7A7B691A407B6802FA03F327
:10347000FA681343FB60FB6818462437BD465DF8C5
:10348000047B7047F0B58BB000AFF860B9607A602C
:10349000BB68D3E90034C7E9063407F118031846BE
:1034A000FFF794F805460E467B68D3E90034C7E978
:1034B000083407F120031846FFF788F80A4601464A
:1034C0004B1942EB0604C7E9043407F1100319460F
:1034D000F868FDF74BFAF8682C37BD46F0BDF0B53B
:1034E00087B000AF786039607B68D3E90034C7E902
:1034F000023407F108031846FFF768F805460E4640
:103500003B68D3E90034C7E9043407F110031846D7
:10351000FFF75CF803460C469D4276EB0403B4BF0C
:1035200001230023DBB218461C37BD46F0BD80B432
:1035300089B000AFF860B9607A603B604FF0FF334C
:10354000FB612023BB613B68C3F120034FF0FF32D6
:1035500022FA03F37B617A697B6802FA03F3DB43A7
:10356000FA681340FB60BA687B691A407B6802FA0C
:1035700003F3FA681343FB60FB6818462437BD4623
:103580005DF8047B704780B586B000AF78607868DE
:1035900000F051F8F0EE407AB0EE670A1837BD46F9
:1035A00080BD80B489B000AFF860B9607A604FF038
:1035B000FF33FB612023BB617B68C3F120034FF025
:1035C000FF3222FA03F37B61FA68BB68DA407B6959
:1035D000134018462437BD465DF8047B704780B41D
:1035E00089B000AFF860B9607A603B604FF0FF339C
:1035F000FB612023BB613B68C3F120034FF0FF3226
:1036000022FA03F37B617A697B6802FA03F3DB43F6
:10361000FA681340FB60BA687B691A407B6802FA5B
:1036200003F3FA681343FB60FB6818462437BD4672
:103630005DF8047B704780B485B000AFF8603972E4
:103640003A713B70FB681B6807EE903AB0EE670A70
:103650001437BD465DF8047B7047FFFF80B582B02C
:1036600000AF786039607B68012B40F0CB803B680D
:103670004FF6FF72934240F0C580644B1B6803F025
:103680000103002B05D1614B01221A60604A614B96
:103690001A60614B1B6803F00103002B05D15E4BE0
:1036A00001221A605D4A5E4B1A605E4B1B6803F094
:1036B0000103002B05D15B4B01221A605A4A5B4B78
:1036C0001A605B4B1B6803F00103002B05D1584BBC
:1036D00001221A60574A584B1A60584B1B6803F076
:1036E0000103002B05D1554B01221A60544A554B5A
:1036F0001A60554B1B6803F00103002B05D1524B98
:1037000001221A60514A524B1A60524B1B6803F057
:103710000103002B06D14F4B01221A604E4B184675
:10372000FEF72AFB4D4B1B6803F00103002B14D15D
:103730004A4B01221A604A4A4A4B1A604A4A494B8C
:103740005A604A4A474B9A60494A464BDA60494AAE
:10375000444B1A61484A434B5A61484B1B6803F07B
:103760000103002B22D1454B01221A60444B454AEC
:1037700004321A60434A08325A60424A0C329A6054
:10378000404A1032DA603F4A14321A6114333D4A1B
:1037900024321A603B4A28325A603A4A2C329A60E4
:1037A000384A3032DA60374A34321A61364B1B6895
:1037B00003F00103002B06D1334B01221A60314B79
:1037C0001A46324B1A60324B1B6803F00103002B80
:1037D00005D12F4B01221A602E4A2F4B1A602F4B16
:1037E0001B6803F00103002B05D12C4B01221A604A
:1037F0002B4A2C4B1A60202003F096FF03461A46F2
:10380000294B1A6000BF0837BD4680BD7C020010FE
:1038100000C00240140100108002001000C00F40E0
:103820002001001084020010008009400C000010EC
:103830008802001000C00940200000108C02001017
:1038400000400A4034000010900200100040034085
:1038500024010010940200102801001098020010AA
:1038600000800920280200102080092040800920C3
:103870006080092080800920A08009209C0200101F
:103880004002001080800240A00200106802001078
:10389000A4020010004001404C000010A8020010DB
:1038A00000800140540000107802001080B500AF85
:1038B0004FF6FF710120FFF7D1FE80BD80B487B0C5
:1038C00000AF00237B617A6913465B0013449B00C1
:1038D0001F4A13441F4A934233D21D497A69134643
:1038E0005B0013449B000B441B68FB6018497A691A
:1038F00013465B0013449B000B445B68BB60144998
:103900007A6913465B0013449B000B4408331B6821
:103910007B6000233B613A697B689A420DD23B6928
:103920009B00FA681A443B699B00B9680B44126813
:103930001A603B6901333B61EDE77B6901337B61D1
:10394000C1E700BF1C37BD465DF8047B704700BF70
:10395000E4000000FC00000080B485B000AF00234C
:10396000FB60FB68DB00154A1344154A93421ED2E4
:10397000124AFB6852F833307B60104AFB68DB0068
:1039800013445B683B600023BB60BA683B689A42A3
:1039900009D2BB689B007A68134400221A60BB6896
:1039A0000133BB60F1E7FB680133FB60D9E700BF7F
:1039B0001437BD465DF8047B704700BFFC00000073
:1039C0000C01000080B500AFFFF778FFFFF7C4FFE0
:1039D00005F088FB00BF80BD80B58CB002AF786079
:1039E0007B681B687B627B685B683B627B689B686B
:1039F000FB617B68DB68BB617B681B697B617B6803
:103A00005B693B617B689B69FB607B68DB69BB60D2
:103A10000D4802F001FD796A3A6AF869BB690093C2
:103A200003460A4802F0F8FC79693A69F868BB680D
:103A300000930346064802F0EFFCFB68194601209C
:103A4000FCF742FFFEE700BFE4A2000010A3000065
:103A500044A3000080B400AF1EF0040F0CBFEFF3CE
:103A60000880EFF309808169004A1047D9390000C6
:103A700000BFBD465DF8047B7047FFFF80B584B092
:103A800000AF164BFB60FB683B603B6883F3098823
:103A9000FB687B607B6883F30888FFF793FF104B1C
:103AA0001B6803F00103002B14BF01230023DBB2CA
:103AB000002B01D002F0D2FC03F0DAF8FFF71AFA7B
:103AC000B860BB68002B04DBB968064802F0A4FCB0
:103AD00003E0B968044802F09FFCFEE70000011013
:103AE000F0ED00E07CA30000B0A3000080B582B040
:103AF00000AF786039607B68012B11D13B684FF6CD
:103B0000FF7293420CD1084B1B6803F00103002B9A
:103B100006D1054B01221A60044B1846FEF72CF91A
:103B200000BF0837BD4680BD940200102801001078
:103B300080B500AF4FF6FF710120FFF7D7FF80BDC2
:103B400080B483B000AF78607B6803F108027B68C3
:103B50005A607B684FF0FF329A607B6803F108027D
:103B60007B68DA607B6803F108027B681A617B6816
:103B700000221A6000BF0C37BD465DF8047B704719
:103B800080B483B000AF78607B6800221A6100BF08
:103B90000C37BD465DF8047B704780B485B000AF3C
:103BA000786039607B685B68FB603B68FA685A60E4
:103BB000FB689A683B689A60FB689B683A685A6041
:103BC000FB683A689A603B687A681A617B681B6890
:103BD0005A1C7B681A6000BF1437BD465DF8047B31
:103BE000704780B485B000AF786039603B681B686F
:103BF000BB60BB68B3F1FF3F03D17B681B69FB600F
:103C00000CE07B680833FB6002E0FB685B68FB60EC
:103C1000FB685B681B68BA689A42F6D2FB685A6810
:103C20003B685A603B685B683A689A603B68FA6830
:103C30009A60FB683A685A603B687A681A617B68E8
:103C40001B685A1C7B681A6000BF1437BD465DF8BC
:103C5000047B704780B485B000AF78607B681B69D7
:103C6000FB607B685B687A6892689A607B689B6897
:103C70007A6852685A60FB685B687A689A4203D136
:103C80007B689A68FB685A607B6800221A61FB684F
:103C90001B685A1EFB681A60FB681B6818461437BD
:103CA000BD465DF8047B704780B58AB004AFF8600C
:103CB000B9607A603B60BB6A002B1ED07B6A002B28
:103CC0001BD0BB6A7B617B697A6A1A637B690222BB
:103CD00083F85D20002303937B69029307F11003AF
:103CE00001933B6A00933B687A68B968F86800F012
:103CF00050F8786900F0C8F801E000233B613B69A7
:103D000018461837BD4680BD80B58CB004AFF8604A
:103D1000B9603B601346FB80FB889B00184601F0AE
:103D2000C3F978617B69002B0ED0602001F0BCF9EB
:103D3000F861FB69002B03D0FB697A691A6305E01F
:103D4000786901F0C3F901E00023FB61FB69002BF6
:103D500017D0FB69002283F85D20FA8800230393C3
:103D6000FB690293FB6A0193BB6A00933B68B968E5
:103D7000F86800F00EF8F86900F086F80123BB61DE
:103D800002E04FF0FF33BB61BB6918462037BD46E8
:103D900080BD80B586B000AFF860B9607A603B60E6
:103DA000BB6A186B7B689B001A46A52105F0D9F900
:103DB000BB6A1A6B7B6803F18043013B9B00134491
:103DC0003B613B6923F007033B6100237B6112E009
:103DD000BA687B6913441978BA6A7B69134434332F
:103DE0000A461A70BA687B6913441B78002B06D008
:103DF0007B6901337B617B690F2BE9D900E000BF50
:103E0000BB6A002283F843203B6A042B01D90423B8
:103E10003B62BB6A3A6ADA62BB6A3A6ADA64BB6AD4
:103E200000221A65BB6A04331846FFF7A9FEBB6A75
:103E300018331846FFF7A4FEBB6ABA6A1A613B6AD8
:103E4000C3F10502BB6A9A61BB6ABA6A5A62BB6A6D
:103E500000225A65BB6A00229A65BB6A002283F879
:103E60005C203A68F968386903F006F80246BB6AD4
:103E70001A607B6A002B02D07B6ABA6A1A6000BFA4
:103E80001837BD4680BDFFFF80B582B000AF7860B7
:103E900003F090F82C4B1B6801332B4A13602B4B1B
:103EA0001B68002B09D1294A7B681360264B1B68CD
:103EB000012B10D100F082FB0DE0254B1B68002B7D
:103EC00009D1224B1B68DA6A7B68DB6A9A4202D806
:103ED0001E4A7B6813601F4B1B6801331D4A136029
:103EE0001C4B1A687B685A647B68DB6A01229A4023
:103EF000194B1B681343184A13607B68DA6A134630
:103F00009B0013449B00154A1A447B6804331946EE
:103F10001046FFF742FE03F067F80D4B1B68002BBD
:103F20000ED00A4B1B68DA6A7B68DB6A9A4207D2BA
:103F30000B4B4FF080521A60BFF34F8FBFF36F8F60
:103F400000BF0837BD4680BD84030010AC020010DE
:103F500090030010A00300108C030010B0020010AA
:103F600004ED00E080B584B000AF78600023FB6012
:103F70007B68002B08D000F06FF80021786800F013
:103F80004FFC00F077F8F860FB68002B07D1064B78
:103F90004FF080521A60BFF34F8FBFF36F8F00BF97
:103FA0001037BD4680BD00BF04ED00E080B58AB08B
:103FB00004AF0023FB600023BB603A1D07F108013A
:103FC00007F10C03184603F095F87968BB68FA68A6
:103FD000029201930023009300230A4618491948CE
:103FE000FFF762FE0246184B1A60174B1B68002B46
:103FF00002D001237B6101E000237B617B69012BFF
:1040000002D103F0B7F878617B69012B14D14FF02E
:10401000280383F31188BFF36F8FBFF34F8F3B618A
:104020000A4B4FF0FF321A60094B01221A60094B0C
:1040300000221A6002F094FF00BF1837BD4680BD11
:10404000E4A30000AD450000A8030010A403001085
:10405000900300108803001080B400AF044B1B686D
:104060000133034A136000BFBD465DF8047B70470F
:10407000AC03001080B584B000AF0023FB600023C8
:10408000BB6002F097FF394B1B68013B374A136056
:10409000364B1B68002B61D1354B1B68002B5DD064
:1040A0002EE0344BDB68DB68FB60FB681833184696
:1040B000FFF7D0FDFB6804331846FFF7CBFDFB6824
:1040C000DB6A01229A402C4B1B6813432A4A136077
:1040D000FB68DA6A13469B0013449B00274A1A4484
:1040E000FB68043319461046FFF757FDFB68DA6A90
:1040F000234B1B68DB6A9A4202D3224B01221A60CF
:104100001C4B1B68002BCCD1FB68002B01D000F0AE
:10411000DFFA1D4B1B687B607B68002B10D000F022
:1041200047F80346002B02D0164B01221A607B6829
:10413000013B7B607B68002BF1D1134B00221A609E
:10414000104B1B68002B09D00123BB600F4B4FF0B5
:1041500080521A60BFF34F8FBFF36F8F02F044FF9E
:10416000BB6818461037BD4680BD00BFAC030010C9
:1041700084030010440300108C030010B0020010F0
:10418000AC020010980300109403001004ED00E04E
:1041900080B483B000AF054B1B687B607B6818461A
:1041A0000C37BD465DF8047B704700BF88030010E4
:1041B00080B586B000AF00237B61484B1B68002BA5
:1041C0007CD1474B1B6801333B61454A3B69136017
:1041D0003B69002B10D1434B1B68FB60424B1B68B3
:1041E000404A1360404AFB681360404B1B68013330
:1041F0003E4A136000F06CFA3D4B1B683A699A42E4
:104200004DD3384B1B681B68002B01D1012300E004
:104210000023002B04D0364B4FF0FF321A603EE0F3
:10422000304B1B68DB68DB68BB60BB685B687B602E
:104230003A697B689A4203D22D4A7B6813602EE06C
:10424000BB6804331846FFF705FDBB689B6A002B6B
:1042500004D0BB6818331846FFF7FCFCBB68DB6A68
:1042600001229A40234B1B681343224A1360BB6808
:10427000DA6A13469B0013449B001F4A1A44BB682A
:10428000043319461046FFF788FCBB68DA6A1B4BFB
:104290001B68DB6A9A42B4D301237B61B1E7174BF9
:1042A0001B68DA6A144913469B0013449B000B44B5
:1042B0001B68012B07D901237B6104E0104B1B68AD
:1042C00001330F4A13600F4B1B68002B01D00123F1
:1042D0007B617B6918461837BD4680BDAC03001072
:1042E000880300103C030010400300109C030010E2
:1042F000A40300108C030010B0020010AC020010E8
:10430000940300109803001080B584B000AF284BD0
:104310001B68002B03D0274B01221A6043E0254B7A
:1043200000221A6002F06AFC0246234B1A60224BFC
:104330001A68224B1B689A4209D9214B1B68596D98
:104340001D4A10681D4A1268821A0A445A651A4B9F
:104350001B681A4A13601B4B1B687B607B68B3FAAF
:1043600083F3FB70FB78C3F11F03FB60FA6813460D
:104370009B0013449B00144A1344BB60BB685B68FA
:104380005A68BB685A60BB685A68BB6808339A426F
:1043900004D1BB685B685A68BB685A60BB685B68DD
:1043A000DB68074A136000BF1037BD4680BD00BF01
:1043B000AC03001098030010B4030010B003001009
:1043C000AC0200108C030010B002001080B582B067
:1043D00000AF78603960074B1B681833194678685E
:1043E000FFF7FFFB0121386800F01AFA00BF083719
:1043F000BD4680BDAC02001080B584B000AFF8604F
:10440000B9607A600A4B1B6818331946F868FFF7E1
:10441000C4FB7B68002B02D04FF0FF33BB60796890
:10442000B86800F0FDF900BF1037BD4680BD00BF81
:10443000AC02001080B584B000AF78607B68DB68A8
:10444000DB68BB60BB6818331846FFF703FC1D4BE5
:104450001B68002B1CD1BB6804331846FFF7FAFB1E
:10446000BB68DB6A01229A40174B1B681343164A4C
:104470001360BB68DA6A13469B0013449B00134A1F
:104480001A44BB68043319461046FFF786FB05E063
:10449000BB68183319460E48FFF77FFBBB68DA6A22
:1044A0000C4B1B68DB6A9A4205D90123FB600A4B5F
:1044B00001221A6001E00023FB60FB6818461037F8
:1044C000BD4680BDAC0300108C030010B00200108C
:1044D00044030010AC0200109803001080B483B0B5
:1044E00000AF7860064B1A687B681A60054B1A6843
:1044F0007B685A6000BF0C37BD465DF8047B70478F
:104500009C0300108803001080B586B000AF78606F
:10451000396002F04FFD1D4B1B683B617B685B6897
:104520003A69D31AFB603B681B68B3F1FF3F02D1C5
:1045300000237B6123E07B681A68154B1B689A4255
:1045400007D07B685B683A699A4202D301237B619A
:1045500015E03B681B68FA689A420BD23B681A6800
:10456000FB68D21A3B681A607868FFF7B7FF002330
:104570007B6104E03B6800221A6001237B6102F04A
:1045800033FD7B6918461837BD4680BD880300108F
:104590009C03001080B400AF034B01221A6000BFDF
:1045A000BD465DF8047B70479803001080B582B06B
:1045B00000AF786000F042F8FCE7FFFF80B582B002
:1045C00000AF00237B600CE07A6813469B00134425
:1045D0009B00124A13441846FFF7B2FA7B68013376
:1045E0007B607B68042BEFD90D48FFF7A9FA0D48D3
:1045F000FFF7A6FA0C48FFF7A3FA0C48FFF7A0FA5A
:104600000B48FFF79DFA0B4B054A1A600A4B054A07
:104610001A6000BF0837BD4680BD00BFB002001061
:104620001403001028030010440300105803001066
:10463000700300103C0300104003001080B582B0EE
:1046400000AF19E002F0B6FC0F4BDB68DB687B6063
:104650007B6804331846FFF7FDFA0C4B1B68013BDF
:104660000A4A13600A4B1B68013B094A136002F0B7
:10467000BBFC786800F00EF8054B1B68002BE1D1FD
:1046800000BF0837BD4680BD5803001084030010EA
:104690006C03001080B582B000AF78607B6893F83F
:1046A0005D30002B08D17B681B6B184600F00EFDB7
:1046B000786800F00BFD07E07B6893F85D30012B14
:1046C00002D1786800F002FD00BF0837BD4680BD0A
:1046D00080B483B000AF0F4B1B681B68002B01D167
:1046E000012300E00023002B04D00B4B4FF0FF32DE
:1046F0001A6008E0074B1B68DB68DB687B607B683F
:104700005B68054A136000BF0C37BD465DF8047B4B
:10471000704700BF3C030010A403001080B483B0B6
:1047200000AF0B4B1B68002B02D101237B6008E01C
:10473000084B1B68002B02D102237B6001E00023A1
:104740007B607B6818460C37BD465DF8047B70477C
:1047500090030010AC03001080B584B000AF786007
:104760007B68BB600023FB607B68002B4FD0BB687D
:104770001B6D5A1EBB681A65BB68DA6ABB68DB6CC6
:104780009A4244D0BB681B6D002B40D1BB680433F8
:104790001846FFF75FFA0346002B15D1BB68DA6AAB
:1047A0001D4913469B0013449B000B441B68002BC0
:1047B0000AD1BB68DB6A012202FA03F3DA43174B22
:1047C0001B681340154A1360BB68DA6CBB68DA6279
:1047D000BB68DB6AC3F10502BB689A61BB68DB6A30
:1047E00001229A400D4B1B6813430C4A1360BB68AF
:1047F000DA6A13469B0013449B00074A1A44BB68BD
:10480000043319461046FFF7C8F90123FB60FB6823
:1048100018461037BD4680BDB00200108C03001052
:1048200080B584B000AF78603960294B1B68FB60AD
:10483000284B1B6804331846FFF70CFA0346002B7D
:104840000BD1244B1B68DB6A012202FA03F3DA4323
:10485000214B1B681340204A13607B68B3F1FF3F74
:104860000AD13B68002B07D01A4B1B68043319464A
:104870001A48FFF792F926E0FA687B681344BB6098
:10488000144B1B68BA685A60BA68FB689A4209D22E
:10489000134B1A680F4B1B68043319461046FFF779
:1048A000A0F910E00F4B1A680A4B1B680433194635
:1048B0001046FFF796F90C4B1B68BA689A4202D271
:1048C000094ABB68136000BF1037BD4680BD00BFFA
:1048D00088030010AC0200108C030010700300105D
:1048E000400300103C030010A403001080B584B006
:1048F00000AF786039607B68FB6002F05BFBFB68AF
:104900001A68FB68DB6BF968096C01FB03F31A4456
:10491000FB685A60FB6800229A63FB681A68FB68B0
:104920009A60FB681A68FB68DB6B013BF968096CED
:1049300001FB03F31A44FB68DA60FB68FF2283F88B
:104940004420FB68FF2283F845203B68002B14D1EC
:10495000FB681B69002B1AD0FB6810331846FFF761
:1049600069FD0346002B12D00C4B4FF080521A60A9
:10497000BFF34F8FBFF36F8F09E0FB68103318460A
:10498000FFF7DEF8FB6824331846FFF7D9F802F08A
:104990002BFB012318461037BD4680BD04ED00E017
:1049A00080B588B002AFF860B9607A603B603B6860
:1049B0007B617B69002B0DD07B69012283F8462047
:1049C00097F820207B69009313467A68B968F868E5
:1049D00000F035F87B6918461837BD4680BD80B5B4
:1049E0008AB002AFF860B9601346FB71BB68002B58
:1049F00002D10023FB6104E0FB68BA6802FB03F309
:104A0000FB61FB695033184600F04EFBB861BB698F
:104A1000002B0FD0BB6950337B61BB69002283F848
:104A20004620FA79BB69009313467A69B968F86839
:104A300000F005F8BB6918462037BD4680BD80B53B
:104A400084B000AFF860B9607A60FB70BB68002B7F
:104A500003D1BB69BA691A6002E0BB697A681A605F
:104A6000BB69FA68DA63BB69BA681A640121B8697C
:104A7000FFF73CFFBB69FA7883F84C2000BF103782
:104A8000BD4680BD80B58AB000AFF860B9607A607D
:104A90003B6000237B62FB683B6202F08BFA3B6A5F
:104AA0009A6B3B6ADB6B9A4202D33B68022B29D19B
:104AB0003A68B968386A00F08BF9F8613B6A5B6A5A
:104AC000002B10D03B6A24331846FFF7B3FC034693
:104AD000002B13D03F4B4FF080521A60BFF34F8F23
:104AE000BFF36F8F0AE0FB69002B07D0394B4FF003
:104AF00080521A60BFF34F8FBFF36F8F02F074FACA
:104B0000012363E07B68002B03D102F06DFA0023E0
:104B10005CE07B6A002B06D107F114031846FFF70F
:104B2000DDFC01237B6202F05FFAFFF795FA02F0E9
:104B300041FA3B6A93F844305BB2B3F1FF3F03D1D3
:104B40003B6A002283F844203B6A93F845305BB20D
:104B5000B3F1FF3F03D13B6A002283F8452002F006
:104B600043FA3A1D07F1140311461846FFF7CCFC2F
:104B70000346002B24D1386A00F022FA0346002BAA
:104B800018D03B6A10337A6811461846FFF71EFCAE
:104B9000386A00F0ADF9FFF76DFA0346002B7FF499
:104BA0007CAF0C4B4FF080521A60BFF34F8FBFF3B6
:104BB0006F8F72E7386A00F09BF9FFF75BFA6CE7DA
:104BC000386A00F095F9FFF755FA002318462837A0
:104BD000BD4680BD04ED00E080B58CB000AFF8604C
:104BE000B9607A603B60FB68BB62EFF311824FF003
:104BF000280383F31188BFF36F8FBFF34F8FFA61E0
:104C0000BB61FB697B62BB6A9A6BBB6ADB6B9A42D6
:104C100002D33B68022B2CD1BB6A93F8453087F84E
:104C200023303A68B968B86A00F0D2F897F92330AF
:104C3000B3F1FF3F12D1BB6A5B6A002B16D0BB6A8F
:104C400024331846FFF7F6FB0346002B0ED07B6893
:104C5000002B0BD07B6801221A6007E097F8233005
:104C60000133DBB25AB2BB6A83F845200123FB62F1
:104C700001E00023FB627B6A7B617B6983F311881F
:104C8000FB6A18463037BD4680BDFFFF80B58AB04D
:104C900000AFF860B9607A6000237B62FB683B621A
:104CA00002F088F93B6A9B6BFB61FB69002B1FD00C
:104CB000B968386A00F0F6F8FB695A1E3B6A9A63D5
:104CC0003B6A1B69002B0FD03B6A10331846FFF775
:104CD000B1FB0346002B07D03C4B4FF080521A60CB
:104CE000BFF34F8FBFF36F8F02F07EF9012369E0AE
:104CF0007B68002B03D102F077F9002362E07B6A26
:104D0000002B06D107F114031846FFF7E7FB012338
:104D10007B6202F069F9FFF79FF902F04BF93B6AF9
:104D200093F844305BB2B3F1FF3F03D13B6A0022FA
:104D300083F844203B6A93F845305BB2B3F1FF3F00
:104D400003D13B6A002283F8452002F04DF93A1D59
:104D500007F1140311461846FFF7D6FB0346002B54
:104D600023D1386A00F016F90346002B17D03B6AAE
:104D700024337A6811461846FFF728FB386A00F09A
:104D8000B7F8FFF777F90346002B89D10F4B4FF0A7
:104D900080521A60BFF34F8FBFF36F8F80E7386A7E
:104DA00000F0A6F8FFF766F97AE7386A00F0A0F895
:104DB000FFF760F9386A00F0EDF80346002B3FF486
:104DC0006FAF002318462837BD4680BD04ED00E0D4
:104DD00080B586B000AFF860B9607A6000237B616F
:104DE000FB689B6B3B61FB681B6C002B0DD1FB6868
:104DF0001B68002B4DD1FB685B681846FFF7ACFCC5
:104E00007861FB6800225A6043E07B68002B19D16F
:104E1000FB689868FB681B6C1A46B96804F096F941
:104E2000FB689A68FB681B6C1A44FB689A60FB6815
:104E30009A68FB685B689A422BD3FB681A68FB6828
:104E40009A6026E0FB68D868FB681B6C1A46B96854
:104E500004F07CF9FB68DA68FB681B6C5B421A445F
:104E6000FB68DA60FB68DA68FB681B689A4207D265
:104E7000FB685A68FB681B6C5B421A44FB68DA608B
:104E80007B68022B05D13B69002B02D03B69013BBB
:104E90003B613B695A1CFB689A637B69184618376B
:104EA000BD4680BD80B582B000AF786039607B6858
:104EB0001B6C002B18D07B68DA687B681B6C1A446B
:104EC0007B68DA607B68DA687B685B689A4203D348
:104ED0007B681A687B68DA607B68D9687B681B6CC2
:104EE0001A46386804F032F900BF0837BD4680BD65
:104EF00080B584B000AF786002F05CF87B6893F80E
:104F00004530FB7311E07B685B6A002B12D07B6835
:104F100024331846FFF78EFA0346002B01D0FFF723
:104F200039FBFB7B013BDBB2FB7397F90F30002BA6
:104F3000E9DC00E000BF7B68FF2283F8452002F037
:104F400053F802F037F87B6893F84430BB7311E0F4
:104F50007B681B69002B12D07B6810331846FFF763
:104F600069FA0346002B01D0FFF714FBBB7B013B22
:104F7000DBB2BB7397F90E30002BE9DC00E000BF19
:104F80007B68FF2283F8442002F02EF800BF103720
:104F9000BD4680BD80B584B000AF786002F00AF8ED
:104FA0007B689B6B002B02D10123FB6001E0002397
:104FB000FB6002F019F8FB6818461037BD4680BD4B
:104FC00080B584B000AF786001F0F4FF7B689A6B25
:104FD0007B68DB6B9A4202D10123FB6001E0002376
:104FE000FB6002F001F8FB6818461037BD4680BD33
:104FF00080B485B000AF786039600023FB6014E0B6
:105000000E4AFB6852F83330002B0BD10B49FB687A
:105010003A6841F83320094AFB68DB0013447A6898
:105020005A6005E0FB680133FB60FB68092BE7D998
:1050300000BF1437BD465DF8047B7047E80E0010D2
:1050400080B586B000AFF860B9607A60FB687B61BC
:1050500001F0B0FF7B6993F844305BB2B3F1FF3FDE
:1050600003D17B69002283F844207B6993F84530A3
:105070005BB2B3F1FF3F03D17B69002283F8452087
:1050800001F0B2FF7B699B6B002B06D17B69243357
:105090007A68B9681846FFF7AFF97869FFF728FF13
:1050A00000BF1837BD4680BD80B584B000AF7860C2
:1050B000FEF7D2FF786804F039F80346FB60FEF78C
:1050C000D9FFFB6818461037BD4680BD80B582B059
:1050D00000AF78607B68002B06D0FEF7BDFF7868D4
:1050E00004F02CF8FEF7C6FF00BF0837BD4680BDB0
:1050F00080B400AF01231846BD465DF8047B7047BD
:1051000080B483B000AF786039604FF0FF33184649
:105110000C37BD465DF8047B7047FFFF80B485B057
:1051200000AF78600C4B1B68FB600B4B1A687B6808
:1051300013440A4A934201D90023FB60064B1A68C4
:105140007B681344044A1360FB6818461437BD4655
:105150005DF8047B704700BF6400001000800020F1
:1051600080B584B000AFF860B9607A607B6819469A
:10517000B86801F07AF9054B1B687A681146B8687F
:105180009847034618461037BD4680BD5C000010A6
:1051900080B584B000AF7860786804F0E7F8034623
:1051A000FB600023BB60FA6879680020FFF7D8FF36
:1051B0000246BB681344BB60012206490020FFF78A
:1051C000CFFF0246BB681344BB60BB68184610376C
:1051D000BD4680BD14A4000080B483B000AF7860E9
:1051E00000BFFDE780B588B000AFB9607A603B6072
:1051F0000346FB73FE237B617A697B68B3FBF2F1A4
:1052000002FB01F29B1AFB61BA68FB691344FA7B4B
:105210001A70FB7B002B06D1FB691A46B968012086
:10522000FFF79EFF12E0FB695A1C7B699A420DD181
:105230007B690133BB61BA68BB69134400221A70F1
:10524000BB691A46B9680120FFF78AFF00BF203703
:10525000BD4680BD80B485B000AFB9607A603B6068
:105260000346FB7300BF1437BD465DF8047B7047EF
:1052700080B485B000AF78607B68FB60FB681B780A
:10528000002B03D0FB680133FB60F7E7FA687B680B
:10529000D31A18461437BD465DF8047B704780B4B6
:1052A00083B000AF0346FB71FB792F2B04D9FB7948
:1052B000392B01D8012300E0002318460C37BD46E6
:1052C0005DF8047B704780B584B000AF7860002340
:1052D000FB607B681B681B781846FFF7E0FF0346FE
:1052E000002B0FD0FA6813469B0013445B0018464E
:1052F0007B681B68591C7A6811601B780344303B3B
:10530000FB60E6E7FB6818461037BD4680BD90B5E8
:1053100089B000AFF860B9607A603B607B687B6100
:10532000BB6C03F00203002B0ED17A6B3B6C9A42EC
:105330000AD27B6B1F2B07D87B6B5A1C7A633A6BA4
:10534000134430221A70EBE7BB6C03F00203002B0E
:1053500013D1BB6C03F00103002B0ED07A6B7B6C76
:105360009A420AD27B6B1F2B07D87B6B5A1C7A633D
:105370003A6B134430221A70E6E7BB6C03F010035B
:10538000002B58D0BB6C03F48063002B16D17B6BD1
:10539000002B13D07A6B3B6C9A4203D07A6B7B6CF8
:1053A0009A420BD17B6B013B7B637B6B002B05D05F
:1053B000FB6B102B02D17B6B013B7B63FB6B102BD8
:1053C0000FD1BB6C03F02003002B0AD17B6B1F2B8A
:1053D00007D87B6B5A1C7A633A6B134478221A7095
:1053E0001FE0FB6B102B0FD1BB6C03F02003002BD5
:1053F0000AD07B6B1F2B07D87B6B5A1C7A633A6BE6
:10540000134458221A700CE0FB6B022B09D17B6B02
:105410001F2B06D87B6B5A1C7A633A6B13446222AB
:105420001A707B6B1F2B06D87B6B5A1C7A633A6B06
:10543000134430221A707B6B002B14D07A6B7B6C78
:105440009A4210D197F83830002B09D1BB6C03F089
:105450000403002B04D1BB6C03F00803002B02D023
:105460007B6B013B7B637B6B1F2B24D897F8383019
:10547000002B07D07B6B5A1C7A633A6B13442D22A6
:105480001A7018E0BB6C03F00403002B07D07B6B91
:105490005A1C7A633A6B13442B221A700BE0BB6CD4
:1054A00003F00803002B06D07B6B5A1C7A633A6B1F
:1054B000134420221A70BB6C03F00203002B16D198
:1054C000BB6C03F00103002B11D17B6BFB61FA690C
:1054D0007B6C9A420BD27A68531C7B60FC683B68F9
:1054E000B9682020A047FB690133FB61EFE7002387
:1054F000BB61BA697B6B9A4211D27A6BBB69D31AD2
:10550000013B3A6B134418787A68531C7B60FC6843
:105510003B68B968A047BB690133BB61E9E7BB6C75
:1055200003F00203002B0ED07A687B69D31A7A6CE1
:105530009A4208D97A68531C7B60FC683B68B9685A
:105540002020A047F0E77B6818462437BD4690BD71
:1055500080B596B008AFF860B9607A603B60002310
:105560007B633B6C002B03D17B6D23F010037B65C9
:105570007B6D03F48063002B02D03B6C002B34D096
:105580003B6CBA6CB3FBF2F2B96C01FB02F29B1AF2
:1055900087F8333097F83330092B04D897F8333035
:1055A0003033DAB20DE07B6D03F02003002B01D025
:1055B000412200E0612297F833301344DBB20A3B0A
:1055C000DAB27B6B591C796307F138010B4403F89D
:1055D000282C3A6CBB6CB2FBF3F33B643B6C002BA6
:1055E00003D07B6B1F2B00D8CAE77B6D06933B6D06
:1055F0000593FB6C0493BB6C039397F844300293C0
:105600007B6B019307F1100300933B687A68B968DC
:10561000F868FFF77CFE034618463837BD4680BD64
:1056200090B597B008AFF860B9607A603B6000232E
:105630007B63D7E91234234303D1BB6E23F01003FD
:10564000BB66BB6E03F48063002B03D0D7E9123432
:1056500023433AD0D7E91201D7E9162302F034FCEC
:105660001C46134687F8333097F83330092B04D89B
:1056700097F833303033DAB20DE0BB6E03F020031D
:10568000002B01D0412200E0612297F8333013440F
:10569000DBB20A3BDAB27B6B591C796307F1380144
:1056A0000B4403F8282CD7E91623D7E9120102F09E
:1056B0000BFC03460C46C7E91234D7E912342343E6
:1056C00003D07B6B1F2B00D8C4E7BB6DBA6E06926C
:1056D0007A6E05923A6E0492039397F850300293D3
:1056E0007B6B019307F1100300933B687A68B968FC
:1056F000F868FFF70CFE034618463C37BD4690BDE0
:1057000090B59BB000AF78613961FA60BB6087EDFE
:10571000000BFB687B64D7E9000102F077FA0346CF
:105720007B6600233B664FF000033B644FF09E43D3
:10573000FB63002387F85F30D7ED197AF5EEC07A66
:10574000F1EE10FA0AD5012387F85F309FEDAB7AAE
:10575000D7ED197A77EE677AC7ED197AD7F88030E6
:1057600003F48063002B01D10623BB673B6E1F2B24
:105770000FD8BB6F092B0CD93B6E5A1C3A6607F148
:1057800068021344302203F8502CBB6F013BBB6707
:10579000ECE7D7ED197AFDEEE77A17EE903ABB65A4
:1057A000BB6D07EE903AF8EEE77A97ED197A37EE8F
:1057B000677A934ABB6F9B001344D3ED007A67EE80
:1057C000277AC7ED0E7AD7ED0E7AFCEEE77A17EE60
:1057D000903A7B657B6D07EE903AF8EE677A97ED2D
:1057E0000E7A77EE677AC7ED107AD7ED107AB6EEBB
:1057F000007AF4EEC77AF1EE10FA18DD7B6D013312
:105800007B657B6D07EE903AB8EE677A7C4ABB6F9A
:105810009B001344D3ED007AB4EEE77AF1EE10FA70
:1058200019DB00237B65BB6D0133BB6513E0D7ED4E
:10583000107AB6EE007AF4EE477AF1EE10FA0AD159
:105840007B6D002B04D07B6D03F00103002B02D095
:105850007B6D01337B65D7ED197A9FED6A7AF4EEA3
:10586000C77AF1EE10FA01DD002366E1BB6F002B71
:1058700029D1BB6D07EE903AF8EEE77A97ED197AE9
:1058800077EE677AC7ED107AD7ED107AB6EE007A28
:10589000F4EEC77AF1EE10FA03DDBB6D0133BB65A0
:1058A00062E0D7ED107AB6EE007AF4EE477AF1EEC8
:1058B00010FA59D1BB6D03F00103002B54D0BB6D1E
:1058C0000133BB6550E0BB6F3B653B6E1F2B28D897
:1058D0003B6D013B3B65796D4B4BA3FB0123DA0824
:1058E00013469B0013445B00CA1AD3B23033D9B2BB
:1058F0003B6E5A1C3A6607F1680213440A4603F8E5
:10590000502C7B6D404AA2FB0323DB087B657B6D3B
:10591000002B0CBF01230023DBB2002B00D1D4E706
:1059200000BF3B6E1F2B06D83B6D5A1E3A65002BFD
:1059300001D0012300E00023002B09D03B6E5A1C4C
:105940003A6607F168021344302203F8502CE8E766
:105950003B6E1F2B08D83B6E5A1C3A6607F1680253
:1059600013442E2203F8502C3B6E1F2B29D8BA6DFE
:10597000264B83FB02139910D317C91A0B469B00C1
:105980000B445B00D11ACBB23033D9B23B6E5A1CF8
:105990003A6607F1680213440A4603F8502CBB6DBF
:1059A0001A4A82FB03129210DB17D31ABB65BB6D38
:1059B000002B0CBF01230023DBB2002B00D1D3E767
:1059C00000BFD7F8803003F00203002B20D1D7F8B6
:1059D000803003F00103002B1AD03A6EFB6F9A421D
:1059E00016D23B6E1F2B13D83B6E5A1C3A6607F13A
:1059F00068021344302203F8502CE2E70000000054
:105A000018A400000000004FCDCCCCCC67666666C1
:105A10003A6EFB6F9A4212D197F85F30002B0BD190
:105A2000D7F8803003F00403002B05D1D7F880307D
:105A300003F00803002B02D03B6E013B3B663B6E3C
:105A40001F2B2CD897F85F30002B09D03B6E5A1CC7
:105A50003A6607F1680213442D2203F8502C1EE029
:105A6000D7F8803003F00403002B09D03B6E5A1C9A
:105A70003A6607F1680213442B2203F8502C0EE01B
:105A8000D7F8803003F00803002B08D03B6E5A1C77
:105A90003A6607F168021344202203F8502CD7F825
:105AA000803003F00203002B17D1D7F8803003F0C9
:105AB0000103002B11D13B6EFB64FA6CFB6F9A4221
:105AC0000BD2FA68531CFB607C69BB6839692020E3
:105AD000A047FB6C0133FB64EFE70023BB64BA6CA7
