:1000000000000110594200009557000031420000E5
:10001000955700009557000095570000000000001C
:10002000000000000000000000000000215D000052
:100030009557000000000000515D0000955700003A
:100040009557000095570000955700009557000000
:1000500095570000955700009557000095570000F0
:1000600095570000955700009557000095570000E0
:1000700095570000955700009557000095570000D0
:1000800095570000955700009557000095570000C0
:1000900095570000955700009557000095570000B0
:1000A00095570000955700009557000095570000A0
:1000B0009557000095570000955700009557000090
:1000C0009557000095570000955700009557000080
:1000D0009557000095570000955700009557000070
:1000E000955700008492000000000010D800000026
:1000F000849200000000002000000000D8000010E2
:10010000500300000000002000000000FFFFFFFF80
:10011000FFFFFFFFFFFFFFFFFFFFFFFFFFFFFFFFEF
:10012000FFFFFFFFFFFFFFFFFFFFFFFFFFFFFFFFDF
:10013000FFFFFFFFFFFFFFFFFFFFFFFFFFFFFFFFCF
:10014000FFFFFFFFFFFFFFFFFFFFFFFFFFFFFFFFBF
:10015000FFFFFFFFFFFFFFFFFFFFFFFFFFFFFFFFAF
:10016000FFFFFFFFFFFFFFFFFFFFFFFFFFFFFFFF9F
:10017000FFFFFFFFFFFFFFFFFFFFFFFFFFFFFFFF8F
:10018000FFFFFFFFFFFFFFFFFFFFFFFFFFFFFFFF7F
:10019000FFFFFFFFFFFFFFFFFFFFFFFFFFFFFFFF6F
:1001A000FFFFFFFFFFFFFFFFFFFFFFFFFFFFFFFF5F
:1001B000FFFFFFFFFFFFFFFFFFFFFFFFFFFFFFFF4F
:1001C000FFFFFFFFFFFFFFFFFFFFFFFFFFFFFFFF3F
:1001D000FFFFFFFFFFFFFFFFFFFFFFFFFFFFFFFF2F
:1001E000FFFFFFFFFFFFFFFFFFFFFFFFFFFFFFFF1F
:1001F000FFFFFFFFFFFFFFFFFFFFFFFFFFFFFFFF0F
:10020000FFFFFFFFFFFFFFFFFFFFFFFFFFFFFFFFFE
:10021000FFFFFFFFFFFFFFFFFFFFFFFFFFFFFFFFEE
:10022000FFFFFFFFFFFFFFFFFFFFFFFFFFFFFFFFDE
:10023000FFFFFFFFFFFFFFFFFFFFFFFFFFFFFFFFCE
:10024000FFFFFFFFFFFFFFFFFFFFFFFFFFFFFFFFBE
:10025000FFFFFFFFFFFFFFFFFFFFFFFFFFFFFFFFAE
:10026000FFFFFFFFFFFFFFFFFFFFFFFFFFFFFFFF9E
:10027000FFFFFFFFFFFFFFFFFFFFFFFFFFFFFFFF8E
:10028000FFFFFFFFFFFFFFFFFFFFFFFFFFFFFFFF7E
:10029000FFFFFFFFFFFFFFFFFFFFFFFFFFFFFFFF6E
:1002A000FFFFFFFFFFFFFFFFFFFFFFFFFFFFFFFF5E
:1002B000FFFFFFFFFFFFFFFFFFFFFFFFFFFFFFFF4E
:1002C000FFFFFFFFFFFFFFFFFFFFFFFFFFFFFFFF3E
:1002D000FFFFFFFFFFFFFFFFFFFFFFFFFFFFFFFF2E
:1002E000FFFFFFFFFFFFFFFFFFFFFFFFFFFFFFFF1E
:1002F000FFFFFFFFFFFFFFFFFFFFFFFFFFFFFFFF0E
:10030000F8B500BFF8BC08BC9E4670474D0300001E
:1003100089400000F1420000095D0000F8B500BF0F
:10032000F8BC08BC9E46704710B5054C237833B91D
:10033000044B13B10448AFF300800123237010BDB8
:10034000D800001000000000CC91000008B5034B5D
:100350001BB103490348AFF3008008BD0000000053
:10036000DC000010CC91000090B400AF4FF0FF33E0
:100370006FF0004418462146BD4690BC704780B4DB
:1003800000AF4FF4000307EE903AB0EE670ABD46A7
:100390005DF8047B704780B400AF4FF0505307EE18
:1003A000903AB0EE670ABD465DF8047B704780B4B2
:1003B00083B000AF87ED010A7B6803F00043002B98
:1003C00014BF01230023DBB218460C37BD465DF88D
:1003D000047B704780B483B000AF87ED010AD7ED8E
:1003E000017AF5EEC07AF1EE10FA04D5D7ED017A74
:1003F000F1EE677A01E0D7ED017AB0EE670A0C37CB
:10040000BD465DF8047B704780B584B000AFC7E996
:100410000001D7E9000106F003F8024607F10C03DA
:1004200000EE102A184600F088F8FB6818461037CE
:10043000BD4680BD80B584B000AFC7E90001D7E9F3
:10044000000105F0EDFF024607F10C0300EE102A53
:10045000184600F031F8FB6818461037BD4680BDDD
:1004600080B584B000AF87ED000BD7E9000105F03F
:10047000BFFE024607F10C0300EE102A184600F0FA
:10048000DDFFFB6818461037BD4680BD80B584B0DF
:1004900000AFC7E90001D7E9000105F0C1FF02463E
:1004A00007F10C0300EE102A184600F0C7FFFB68A6
:1004B00018461037BD4680BD80B582B000AF786069
:1004C00087ED000A7B683A461146184600F005F8A9
:1004D0007B6818460837BD4680BD80B483B000AF46
:1004E000786039603B681A687B681A607B681846D8
:1004F0000C37BD465DF8047B704780B586B000AF11
:100500007860786800F007F8F0EE407AB0EE670A9D
:100510001837BD4680BD80B485B000AFF860397231
:100520003A713B70FB681B6807EE903AB0EE670AC1
:100530001437BD465DF8047B704780B582B000AFCC
:10054000786087ED000A7B683A4611461846FFF747
:10055000C4FF7B6818460837BD4680BD80B52DEDC9
:10056000048B82B000AF786039607B6893ED008ABD
:100570003B68184600F049F8F0EE407A78EE677A6A
:10058000B0EE670AFFF726FFF0EE408AFFF703FFA1
:10059000B0EE409A7B6893ED008A3B68184600F005
:1005A00034F8F0EE407A78EE277AB0EE670AFFF77B
:1005B00011FFF0EE407A69EE277AF4EEE78AF1EE69
:1005C00010FA19D47B6893ED008A3B68184600F056
:1005D0001CF8F0EE407A78EE677AB0EE670AFFF723
:1005E000F9FEB0EE408AFFF7CAFEF0EE407AB4EEB4
:1005F000E78AF1EE10FA01D5012300E00023184646
:100600000837BD46BDEC048B80BD80B586B000AF19
:100610007860786800F007F8F0EE407AB0EE670A8C
:100620001837BD4680BD80B485B000AFF860397220
:100630003A713B70FB681B6807EE903AB0EE670AB0
:100640001437BD465DF8047B704780B586B002AFB5
:10065000786039603A6807F10C03009300230021A9
:10066000786806F069FAFB6818461037BD4680BD09
:1006700080B485B000AF78600A4BFB607B68002BCC
:1006800002D0012B03D005E0074BFB6002E0074BD3
:10069000FB6000BFFB6818461437BD465DF8047B5D
:1006A000704700BFD8770000E0770000EC770000CB
:1006B00080B584B000AF786039603B68FB600F2183
:1006C0007868FFF7C2FF034623F00103BB60FB68B5
:1006D0001968BB68043B1A46064804F0ABFFFB6888
:1006E0001B685A1CFB681A60002318461037BD4669
:1006F00080BD00BFF877000080B584B000AF78609F
:1007000039603B68FB600F217868FFF79EFF034666
:1007100023F00103BB60BB68043B1946064804F0A4
:1007200089FFFB681B685A1CFB681A600023184687
:100730001037BD4680BD00BF0878000080B584B08A
:1007400000AF03463960FB710023FB6007F10C0327
:1007500019461A4806F0E2FD3B68002B05D0FB68FD
:100760003A681946164804F065FFFB79002B20D043
:10077000144804F05FFF144804F05CFF0020FFF70A
:1007800077FF03461946114804F054FF07F10C03A4
:1007900019460F4806F0C2FD3B68002B03D03968AC
:1007A0000C4804F047FF0C4804F044FF0B4803F0EA
:1007B00025FE00BF1037BD4680BD00BFB10600005A
:1007C000107800001C780000547800006078000069
:1007D000F90600007C780000847800008C78000026
:1007E00090B482B000AF786039603B68D3E90034E0
:1007F0007A68C2E900347B6818460837BD4690BC69
:100800007047FFFF80B582B000AF78607B68002240
:100810000349184602F0F2FE78680837BD4680BDED
:10082000F800001080B483B000AF78600023184651
:100830000C37BD465DF8047B704780B500AF0020E3
:10084000FFF7F0FF0346184680BDFFFF90B593B059
:1008500000AFC7E90201D7E90234C7E9063487F8D7
:10086000242007F13803184602F06BFC07F1380228
:1008700007F118031146184602F0DBFE0346002B71
:1008800004D0D7E90634C7E9043411E0194B1B68DA
:1008900007F13002104698473B4607F1180207F16E
:1008A0003001184603F026F9D7E90034C7E90434CB
:1008B00001237B640F4B1B6807F128021046984701
:1008C00007F1100207F128031146184603F03FF91B
:1008D0000346002B09D007F124031846FFF7A2FFB7
:1008E0000346002BE6D000237B647B6C18464C3714
:1008F000BD4690BD0000001080B582B000AFC7E9D2
:100900000001D7E90001FFF7A1FF00BF0837BD468E
:1009100080BDFFFF80B489B000AFF861B9617A6132
:100920003B6187ED030AC7ED020A87ED011AFB69F7
:1009300064221A60FB694FF000025A62FB691B4A8D
:100940009A62FB69BA699A60FB697A69DA60FB6945
:100950003A691A61FB69FA685A61FB691B68144AB3
:10096000A2FB03239B0907EE903AB8EE677AD7ED16
:10097000027A67EE277AFB69C3ED067AFB691B688A
:100980000B4AA2FB03239B0907EE903AB8EE677A65
:10099000D7ED016AC6EE877AFB69C3ED077AFB697A
:1009A00018462437BD465DF8047B704700007F433E
:1009B000D34D62102DE9B0438CB004AF78607B68F2
:1009C0001B6993ED007A7B689B68D3ED007A77EE24
:1009D000677AC7ED077A7B689B6893ED007A7B683E
:1009E000D3ED017A77EE677AC7ED067A7B68D3EDAF
:1009F000067A97ED077A67EE277AC7ED057A7B6866
:100A000093ED087AD7ED057A77EE277A7B68C3ED08
:100A1000087A7B6893ED087A7B68D3ED0A7AB4EEA6
:100A2000E77AF1EE10FA02DD7B689B6A01E07B68F1
:100A30001B6A7A6813627B6893ED087A7B68D3ED52
:100A4000097AB4EEE77AF1EE10FA02D57B685B6AB8
:100A500001E07B681B6A7A6813627B681B6A184630
:100A600005F06EFB03460C461A462346354804F053
:100A7000E1FD7B68D3ED057A97ED077A67EE277A7B
:100A8000C7ED047A7B68D3ED077A97ED067A67EEB7
:100A9000277AC7ED037A7B681B6A184605F050FB7E
:100AA00080468946F86805F04BFB04460D467B6896
:100AB00093ED087AD7ED037A77EE677A17EE900A0E
:100AC00005F03EFB02460B46CDE90223CDE9004589
:100AD00042464B461C4804F0ADFD7B6893ED087A16
:100AE000D7ED037A77EE677A97ED047A77EE277A77
:100AF000C7ED047A7B68D3ED0A7A97ED047AB4EEF9
:100B0000E77AF1EE10FA02DD7B689B6A00E03B6950
:100B10003B617B68D3ED097A97ED047AB4EEE77A0E
:100B2000F1EE10FA02D57B685B6A00E03B693B613D
:100B30007B68DB683A691A6000BF2037BD46BDE8B4
:100B4000B08300BFE0780000F078000080B584B08A
:100B500000AFF86087ED020AC7ED010A97ED027A4F
:100B6000D7ED017AB4EEE77AF1EE10FA06D5FB681C
:100B7000BA685A62FB687A689A6206E04823044AB7
:100B80000449054804F056FD00BF1037BD4680BD3E
:100B9000748800008C8200001879000080B483B053
:100BA00000AF78607B681B7918460C37BD465DF84E
:100BB000047B704780B483B000AF78607B685B795A
:100BC00018460C37BD465DF8047B704780B483B08F
:100BD00000AF78607B6803F01F0207497B685B0900
:100BE000012000FA02F241F8232000BF0C37BD4675
:100BF0005DF8047B704700BF00E100E080B483B083
:100C000000AF78607B6803F01F0207497B685B09CF
:100C1000012000FA02F2203341F8232000BF0C37F4
:100C2000BD465DF8047B704700E100E080B483B00E
:100C300000AF786039607B68002B0BDA3B68DAB272
:100C40000D497B6803F00F03043B5201D2B20B4401
:100C50001A760AE03B68DBB2084A796808465B010D
:100C6000D9B213180A4683F8002300BF0C37BD46DB
:100C70005DF8047B704700BF00ED00E000E100E09C
:100C800080B582B000AF78600B46FB70084BF978F6
:100C90001A785B781B021A43002362F30F031A468B
:100CA000786800F059F800BF0837BD4680BD00BF26
:100CB0009482000080B582B000AF78600B46FB7074
:100CC000084BF9781A785B781B021A43002362F309
:100CD0000F031A46786800F03FF800BF0837BD469A
:100CE00080BD00BF9882000080B582B000AF786000
:100CF0000B46FB70FB7883F00103DBB21946084B0F
:100D00001A785B781B021A43002362F30F031A461A
:100D1000786800F021F800BF0837BD4680BD00BFED
:100D20009C82000080B582B000AF78600B46FB70FB
:100D3000F978084B1A785B781B021A43002362F398
:100D40000F031A46786800F007F800BF0837BD4661
:100D500080BD00BFA0820000F0B587B000AFF86092
:100D60000B46BA80FB72FB683B61194B1C683B6900
:100D70001846FFF713FF03461D463B691846FFF769
:100D800019FF03461A466B0113449B0023441B685A
:100D9000F97A7A68184602F073FC0546FB687B61B5
:100DA0000B4B1C687B691846FFF7F8FE03461E468E
:100DB0007B691846FFF7FEFE03461A46730113448B
:100DC0009B0023441D6000BF1C37BD46F0BD00BF23
:100DD0000001001080B582B000AF78607B681B68AE
:100DE00004331B6800217868984700BF0837BD4668
:100DF00080BD80B582B000AF78607B681B681B68DF
:100E000001217868984700BF0837BD4680BD80B48F
:100E100000AF00BFBD465DF8047B704780B582B06F
:100E200002AF094B1B6800931D23084A0849094873
:100E300004F000FC044B1B68103B1846FFF7DEFE75
:100E400000BFBD4680BD00BF0400001080850000CB
:100E5000A48200008079000080B483B000AF786085
:100E6000402318460C37BD465DF8047B7047FFFFF2
:100E700080B584B000AF78607B6818464FF480730B
:100E80001A46002106F04FFC0023FB60FB680F2B85
:100E900008D87B68FA68114943F82210FB680133CF
:100EA000FB60F3E71023BB607868FFF7D5FF0246CD
:100EB000BB68934234BF01230023DBB2002B08D070
:100EC0007B68BA68064943F82210BB680133BB60EF
:100ED000EAE700BF78681037BD4680BD0F0E0000FE
:100EE0001D0E000080B483B000AF78607B681033C3
:100EF00018460C37BD465DF8047B704780B582B05C
:100F000000AF78607868FFF7EDFF03469B00034A67
:100F1000134418460837BD4680BD00BF04010010C9
:100F200084B090B585B000AF786007F1240080E808
:100F30000E007B6AFB60BC6AF868FFF7DFFF0346C0
:100F40001C6097F82C30002B05D0FB68002B02DBCF
:100F5000F868FFF73BFE3B6B002B04DB3B6B19464D
:100F6000F868FFF763FE00BF1437BD46BDE8904048
:100F700004B0704780B582B000AF786039603868DF
:100F8000FFF73CFE3868FFF7B9FF0246024B1360DB
:100F900000BF0837BD4680BD1D0E000090B585B06E
:100FA00000AF78600B46FB707B6808330021184661
:100FB000FFF766FE7B6808331846FFF7EFFD034630
:100FC0001A46154B53F82230FB60FB78002B0FD1EB
:100FD000FB681C687B6808331846FFF7EBFD034687
:100FE0001946204602F05FFB0246FB681A600EE0DD
:100FF000FB681C687B6808331846FFF7DBFD034677
:101000001946204602F062FB0246FB681A6000BFE8
:101010001437BD4690BD00BF0402001090B583B0E8
:1010200000AF78600B46FB70FB78012B15D17B6815
:1010300008331846FFF7BEFD03461A4601239340C6
:101040001C467B6808331846FFF7A8FD03461A467E
:101050000E4B53F822309C6114E07B68083318462D
:10106000FFF7A8FD03461A46012393401C467B6800
:1010700008331846FFF792FD03461A46034B53F810
:101080002230DC6100BF0C37BD4690BD0402001069
:1010900090B583B000AF78607B6808331846FFF7DF
:1010A00089FD03461A46012303FA02F47B680833DC
:1010B0001846FFF773FD03461A46054B53F82230D6
:1010C0005A6921464A405A6100BF0C37BD4690BD5F
:1010D0000402001090B583B000AF78607B680833DD
:1010E0001846FFF75BFD03461A46094B53F82230BA
:1010F0005C697B6808331846FFF75CFD03461946B8
:10110000204602F0F5FA034618460C37BD4690BD5E
:101110000402001080B483B000AF78607B680833AD
:1011200018460C37BD465DF8047B704780B586B025
:1011300002AF78607B681B79012B94BF01230023E9
:10114000DBB2FB73FB7B83F00103DBB2002B0CD023
:101150007B6808331846FFF721FD034600937D2383
:10116000044A0549054804F065FAFB7B1846103728
:10117000BD4680BDD0850000B8820000007A000026
:10118000B0B582B000AF786039607868FFF7CEFF05
:101190003C687B681B791D467B6808331846FFF75F
:1011A00009FD03461946044A6B010B4442F82340EB
:1011B00000BF0837BD46B0BD1C02001090B583B01B
:1011C00000AF78607B681B791C467B680833184643
:1011D000FFF7F0FC03461946044A63010B44002163
:1011E00042F8231000BF0C37BD4690BD1C02001012
:1011F00080B483B000AF0346FB71FB7918460C370F
:10120000BD465DF8047B704780B584B002AF78605E
:101210000B46FB707868FFF789FFFB78012B08D03D
:10122000012B02D3022B08D00EE0786800F04EF8B4
:1012300016E0786800F078F812E0786800F046F878
:10124000786800F071F80BE0FB781846FFF7D0FFE4
:1012500003460093A923044A0449054804F0EAF927
:1012600000BF0837BD4680BD04860000C482000070
:10127000907A000080B584B000AFF860B960134682
:10128000FB71F868FFF752FFB968F868FFF778FF5D
:10129000FB791946F868FFF7B7FF00BF1037BD4666
:1012A00080BD80B582B000AF78607868FFF73EFF00
:1012B0007868FFF783FF786800F064F8786800F0DA
:1012C0008FF800BF0837BD4680BDFFFF90B583B0E3
:1012D00000AF78607B6808331846FFF76BFC034665
:1012E0001A46012303FA02F07B681B7919460D4A5E
:1012F0000B469B000B449B0013440C331B681A687D
:1013000004467B681B791846064903469B00034444
:101310009B000B440C331B6822431A6000BF0C3740
:10132000BD4690BD1C03001090B583B000AF78603F
:101330007B6808331846FFF73DFC03461A46012335
:1013400003FA02F07B681B7919460D4A0B469B0095
:101350000B449B00134410331B681A6804467B68D7
:101360001B791846064903469B0003449B000B4427
:1013700010331B6822431A6000BF0C37BD4690BD76
:101380001C03001090B583B000AF78607B68083311
:101390001846FFF70FFC03461A4601239340D84333
:1013A0007B681B7919460D4A0B469B000B449B003A
:1013B00013440C331B681A6804467B681B79184673
:1013C000064903469B0003449B000B440C331B68F7
:1013D00022401A6000BF0C37BD4690BD1C030010B0
:1013E00090B583B000AF78607B6808331846FFF78C
:1013F000E1FB03461A4601239340D8437B681B79DF
:1014000019460D4A0B469B000B449B0013441033B6
:101410001B681A6804467B681B7918460649034610
:101420009B0003449B000B4410331B6822401A604E
:1014300000BF0C37BD4690BD1C03001080B582B0C4
:1014400000AF786087ED000A7B683A46114618467F
:10145000FFF743F87B6818460837BD4680BDFFFF9D
:1014600090B587B000AFF860B9607A60184AFB6841
:101470001A60FB68BA685A60FB687A689A60FB6811
:1014800003F1100200237B6107F114031946104693
:1014900001F03CFEFA684FF000034FF00004C2E98F
:1014A0000634FA684FF4FA634FF00004C2E90834D6
:1014B000FB684FF000029A62FB684FF00002DA62AC
:1014C000FB68044ADA62FB6818461C37BD4690BDCB
:1014D000F48400000000204180B582B000AF786045
:1014E00039607B685A687B685B681B681B68396871
:1014F000104698477B681B6804331B683968786816
:10150000984700BF0837BD4680BD80B483B000AFA8
:1015100078607B681B6807EE903AB0EE670A0C377C
:10152000BD465DF8047B704780B586B000AF78603B
:10153000786802F0F5F8F0EE407AB0EE670A1837F6
:10154000BD4680BD80B52DED028B84B000AF7860C4
:1015500039607B681846FFF7D8FFB0EE408A3B68D9
:101560001846FFF7D2FFF0EE407AC7ED037A07F195
:101570000C031846FFF7D8FFB0EE407AC8EE077AA2
:1015800007F10803B0EE670A184600F007F8BB68D9
:1015900018461037BD46BDEC028B80BD80B582B0C9
:1015A00000AF786087ED000A7B683A46114618461E
:1015B000FEF793FF7B6818460837BD4680BD80B5AF
:1015C00082B000AF7860786802F0C4F8034618462D
:1015D0000837BD4680BD90B482B000AF78603960F6
:1015E0003B681B684FF000047A68C2E900347B68EE
:1015F00018460837BD4690BC704790B589B000AF1B
:10160000786039607B685A687B685B681B680C335C
:101610001B683968104698474FF001004FF00001F1
:10162000FEF708FF0346FB613A4607F11C0311462B
:101630001846FFF787FF0346BB6107F118031846FA
:10164000FFF7BDFF03467B6107F1140207F10803B2
:1016500011461846FFF7BFFF7A68D7E90234C2E99E
:10166000043400BF2437BD4690BD90B484B000AFB1
:10167000F860C7E90023FA68D7E90034C2E9063404
:10168000FA68D7E90634C2E9083400BF1037BD460E
:1016900090BC704780B485B000AFF860B9607A60E4
:1016A000FB68BA689A62FB687A68DA6200BF14372E
:1016B000BD465DF8047B704790B482B000AF78609F
:1016C0007B68D3E90034184621460837BD4690BCF4
:1016D0007047B0B52DED028B84B000AFF860C7E95C
:1016E0000023FB685D68FB685B681B6804331C684B
:1016F0003B461846FFF7E0FF02460B4610461946E8
:1017000004F096FE08EE100AFB6810331846FFF747
:10171000D3FF02460B461046194604F089FE07EE39
:10172000100AC8EE077AB0EE670A2846A04700BF45
:101730001037BD46BDEC028BB0BD80B582B000AFA6
:1017400078600B46FB707B689A687B689B681B68B7
:1017500004331B68F9781046984700BF0837BD4628
:1017600080BD80B582B000AF7860786800F007F87F
:10177000F0EE407AB0EE670A0837BD4680BD80B50E
:1017800082B000AF78607B681846FFF7BEFEF0EECF
:10179000407AB0EE670A0837BD4680BDB0B52DED82
:1017A000048B86B000AF786039603B461846FFF77F
:1017B000D8FFB0EE408A7B6828331846FFF7D1FF88
:1017C000F0EE408A7B682C331846FFF7CAFFB0EE74
:1017D000409A7B6818331846FFF76EFF03460C46A5
:1017E0001846214604F024FE05467B68203318463F
:1017F000FFF762FF03460C461846214604F018FE28
:10180000034602EE103A01EE905AB0EE491AF0EE9D
:10181000680AB0EE480A01F0B8FF87ED050A7B6858
:101820001B6810331C68D7ED057AFCEEE77A17EEDB
:10183000903A3B6107F1100207F108031146184680
:10184000FFF7C9FED7E902237868A04700BF183721
:10185000BD46BDEC048BB0BD80B586B000AF7860EE
:1018600039607B681B6808331B683968786898475B
:1018700078614FF00003FB607B69002B0FD07B6821
:101880001B680C331B687868984703463B6107F177
:1018900010037969184601F0B9FF0346FB60FB6845
:1018A00018461837BD4680BD90B482B000AF78604E
:1018B00039603B68D3E900347A68C2E900347B6858
:1018C00018460837BD4690BC704790B482B000AF50
:1018D00078607B68D3E90034184621460837BD4656
:1018E00090BC704780B586B000AF7860786800F033
:1018F00007F8F0EE407AB0EE670A1837BD4680BDB3
:1019000080B485B000AFF86039723A713B70FB6803
:10191000D3ED007A9FED057A67EE877AB0EE670A1D
:101920001437BD465DF8047B704700BF002474493E
:1019300080B584B000AF786039600021786800F02D
:10194000E3F84FF00C004FF00001FEF773FD034683
:10195000BB6007F108023B461146184601F074FFD0
:101960000346002B0FD0164B3A681968786800F0D0
:10197000BFFA0121786800F0EBF83B4619461148A0
:1019800001F080FF07E00021786800F0E1F80E49DF
:101990000C4801F077FF0121786800F00DFBFF2370
:1019A0003B7307F10C0301221946786800F00EF82A
:1019B0000021786800F03EFB00BF1037BD4680BDB7
:1019C000D082000008000010D882000080B584B0EA
:1019D00000AFF860B9601346FB71FB79042B0DD999
:1019E000B2230B4A0B490C4803F024FE0B4802F0CB
:1019F00005FD00210120FEF7A1FEFEE7084B1B6854
:101A0000FA79C3F8A82100BF1037BD4680BD00BFDA
:101A100048860000F4820000307B0000D07B00008C
:101A20004803001080B483B000AF78603960054B84
:101A30001B68D3F8A83118460C37BD465DF8047B07
:101A4000704700BF4803001080B483B000AF7860D7
:101A5000034B1B6818460C37BD465DF8047B704786
:101A60000800001080B485B000AF786039600B4B7F
:101A70001B68D3F8C4303A681278114601228A40B4
:101A80001340002B14BF01230023FB73FB7B18467C
:101A90001437BD465DF8047B704700BF4803001053
:101AA00090B583B000AF78603960094B1B68D3F8FC
:101AB000C4203B681B781946054B1C68104601F092
:101AC00005FE0346C4F8C43000BF0C37BD4690BDC8
:101AD0004803001090B583B000AF78603960094BBF
:101AE0001B68D3F8C4203B681B781946054B1C685B
:101AF000104601F0D8FD0346C4F8C43000BF0C37CF
:101B0000BD4690BD4803001090B583B000AF78602B
:101B10000B467B800C4B1B68D3F80C0179880A4B71
:101B20001C680A4B1A785B781B021A43002362F385
:101B30000F031A4601F0B9FE0346C4F80C3100BF8A
:101B40000C37BD4690BD00BF48030010DC8200008A
:101B500090B583B000AF78600B467B800C4B1B6860
:101B6000D3F8040179880A4B1C680A4B1A785B7811
:101B70001B021A43002362F30F031A4601F095FE7D
:101B80000346C4F8043100BF0C37BD4690BD00BF0A
:101B900048030010E882000090B583B000AF786081
:101BA0000B467B800C4B1B68D3F8080179880A4BE5
:101BB0001C680A4B1A785B781B021A43002362F3F5
:101BC0000F031A4601F071FE0346C4F8083100BF46
:101BD0000C37BD4690BD00BF48030010EC820000EA
:101BE00090B583B000AF78600B467B800C4B1B68D0
:101BF000D3F8B40179880A4B1C680A4B1A785B78D1
:101C00001B021A43002362F30F031A4601F04DFE34
:101C10000346C4F8B43100BF0C37BD4690BD00BFC9
:101C200048030010F082000080B52DED028B82B0D9
:101C300000AF786039607B6893ED008A3B68184696
:101C4000FEF75BFCF0EE407AB4EEE78AF1EE10FAB4
:101C50004CBF01230023DBB218460837BD46BDEC5C
:101C6000028B80BD80B582B000AF7860786800F0EC
:101C700005F8034618460837BD4680BD80B582B0DA
:101C800000AF78607B681846FFF73FFCF0EE407AC3
:101C9000FCEEE77A17EE903A18460837BD4680BD4D
:101CA00080B52DED028B84B000AF786039607B6821
:101CB0001846FFF72AFCB0EE408A3B681846FFF74B
:101CC00024FCF0EE407AC7ED037A07F10C031846C6
:101CD000FEF713FCB0EE407AC8EE077A07F108036E
:101CE000B0EE670A1846FFF759FCBB681846103774
:101CF000BD46BDEC028B80BD80B584B000AF78607E
:101D000039607B681846FFF700FCB0EE407A3B680C
:101D100007EE903AF8EEE77A77EE277A07F10C03B0
:101D2000B0EE670A1846FFF739FCFB681846103713
:101D3000BD4680BD80B582B000AF78607B68184634
:101D4000FFF7E3FBF0EE407AFCEEE77A17EE903A0D
:101D50009BB218460837BD4680BDFFFF90B58DB0D9
:101D600000AFF860B9607A604FF4C0704FF00001C6
:101D7000FEF760FB03463B6107F110023B1D114675
:101D80001846FFF751FF034683F00103DBB2002B37
:101D900014D14FF00C004FF00001FEF74BFB03464F
:101DA0007B6107F114023B1D1146184601F04CFD02
:101DB000034683F00103DBB2002B01D0012300E0D6
:101DC0000023002B0DD0F623434A4449444803F036
:101DD00031FC444802F012FB00210120FEF7AEFC6A
:101DE000FEE7012387F82F303B1D1846FFF73AFF27
:101DF000044607F108031846FFF734FF0346B4FB17
:101E0000F3F203FB02F3E31A002B14BF01230023B8
:101E1000DBB2002B17D007F108023B1D1146184614
:101E2000FFF73EFF0346FB6107F11C030121184643
:101E3000FFF762FF0346BB6107F11803184601F084
:101E400089FCB8620EE007F108023B1D11461846F6
:101E5000FFF726FF03463B6207F12003184601F017
:101E600079FCB8620123FB8497F82F30002B2DD02A
:101E700007F108031846FFF75DFF03461A46BB6AE1
:101E80009BB212FB03F39BB2FA8C12FB03F39BB2DF
:101E90005B00BB84BB8C9B2B03D9002387F82F30BE
:101EA000E2E7FB8C5B00FB84FB8C072BDCD94FF457
:101EB0008973094A0C490D4803F0BCFB094802F03C
:101EC0009DFA00210120FEF739FCFEE7BB6A1846A7
:101ED0003437BD4690BD00BFCC8600000C830000A7
:101EE000E87B0000D07B000024830000D87C000049
:101EF00080B586B000AFF860B9607A600123FB82DC
:101F00007A68B968F868FFF729FF38610021F86836
:101F1000FFF7FAFD0021F868FFF71AFE0021F868C4
:101F2000FFF73AFE0021F868FFF75AFE214B1B68C5
:101F3000D3F8843023F01F013B695A1E1D4B1B68E8
:101F40000A43C3F884201B4B1B68D3F8843023F06A
:101F50006002FB8A5B011946164B1B680A43C3F8F3
:101F60008420144B1B68D3F88020124B1B6842F06E
:101F70000102C3F880200F4B1B68AA22C3F88C20F3
:101F80000C4B1B685522C3F88C200A4B1B68D3F8F6
:101F900088300A21184601F0ABFB034683F00103A9
:101FA000DBB2002B01D000BFEFE700BF1837BD4602
:101FB00080BD00BF4803001090B583B000AF7860CB
:101FC0000B46FB70FB781F2B0ED94FF4A973134AF5
:101FD0001349144803F02EFB134802F00FFA0021B6
:101FE0000120FEF7ABFBFEE7104B1B68D3F80401A2
:101FF0000E4B1C680E4BF9781A785B781B021A435B
:10200000002362F30F031A4601F03AFB0346C4F8BB
:10201000043100BF0C37BD4690BD00BF48870000AB
:102020003C830000807D0000D07B0000480300104E
:10203000E482000090B583B000AF78600B46FB707F
:102040000C4B1B68D3F80001F9780A4B1C680A4B4B
:102050001A785B781B021A43002362F30F031A46B7
:1020600001F023FC0346C4F8003100BF0C37BD4625
:1020700090BD00BF48030010E082000080B400AFB4
:10208000024B1846BD465DF8047B70470C000010FB
:10209000B0B588B002AFF860C7E90023FB681B68E1
:1020A0000C331D6807F11701D7E90034CDE900347E
:1020B0000122F868A8470346012B0CBF0123002327
:1020C000DBB2002B01D0FF23FB75FB7D18461837D0
:1020D000BD46B0BD80B489B000AF786087ED000A1E
:1020E0007B6800221A607B6800225A607B680122AC
:1020F0009A600023FB770023BB61BB690E2B4FDC8A
:10210000FB7F002B4CD1BB6901337B617B690E2BBC
:1021100042DCFB7F002B3FD1BB6907EE903AF8EE23
:10212000E77AC7ED047A7B6907EE903AF8EEE77A32
:10213000C7ED037AD7ED046A97ED037AC6EE877A86
:10214000B7EE007A77EE877AC7ED027AD7ED027A9A
:102150009FED177A77EE877A97ED007AB4EEE77AFB
:10216000F1EE10FA14D8D7ED027A9FED117A77EEDE
:10217000C77A97ED007AB4EEE77AF1EE10FA07DB52
:10218000BA697B685A607A697B689A600123FB7739
:102190007B6901337B61B9E7BB690133BB61ACE7A4
:1021A00000BF78682437BD465DF8047B704700BFE8
:1021B000CDCC4C3D80B487B000AF87ED030AC7EDAE
:1021C000020A78607B6807EE903AF8EE677AC7ED0E
:1021D000057AD7ED037AB3EE007A27EE877AD7ED4A
:1021E000027A67EE277A97ED057AC7EE276AF0EE56
:1021F000667AB0EE670A1C37BD465DF8047B70470F
:1022000080B487B000AF87ED030AC7ED020A78609B
:102210007B6807EE903AF8EE677AC7ED057AD7ED5E
:10222000037AB3EE007A27EE877AD7ED027A67EE6B
:10223000277A97ED057AC7EE276AF0EE667AB0EE58
:10224000670A1C37BD465DF8047B704780B483B0D5
:1022500000AF87ED010AD7ED017AB6EE007A77EE8E
:10226000877AFDEEE77AF8EEE77AB0EE670A0C3788
:10227000BD465DF8047B704780B586B000AF87ED42
:10228000010A0023FB7597ED010AFFF7DFFF87EDD9
:10229000040A97ED017AD7ED047A77EE677AC7EDF5
:1022A000037AD7ED037A9FED0B7AF4EEC77AF1EE5D
:1022B00010FA0ADBD7ED037A9FED077AF4EEC77ABE
:1022C000F1EE10FA01D80123FB75FB7D1846183793
:1022D000BD4680BDCDCC4CBDCDCC4C3D80B582B093
:1022E00000AF7860786800F005F8034618460837B4
:1022F000BD4680BD80B582B000AF78607B6818466F
:10230000FFF703F9F0EE407AFCEEE77A17EE903A29
:1023100018460837BD4680BD90B591B000AFF86152
:10232000B9617A6107F114031846FFF7D7FFB86265
:102330000023FB63FB6900221A60FB6900225A60DC
:10234000FB6901229A60BB6907EE903AF8EE677A62
:10235000C7ED097A4FF00003BB634FF07F537B63F7
:102360004FF07E533B634FF08043FB62FB6B042BCB
:1023700000F0BE80FB6B032B00F2B88001A252F884
:1023800023F000BF95230000EF2300004F2400003E
:10239000BF240000B86AF7EE000A97ED090AFFF7BC
:1023A00009FF87ED0E0AD7ED0E7AB7EE007AF4EE4C
:1023B000C77AF1EE10FA05D5FB6900221A600423F2
:1023C000FB6394E097ED0E0AFFF756FF0346002BE0
:1023D0000AD0D7ED0E7AFCEEE77A17EE902AFB6969
:1023E0001A600423FB6382E00123FB637FE0B86A89
:1023F000D7ED0D0A97ED090AFFF7DCFEF0EE407A03
:10240000B0EE670AFFF722FF87ED0E0AB86AD7ED34
:102410000E0A97ED090AFFF7F3FE87ED0D0AD7EDD7
:102420000D7A9FED367AF4EEC77AF1EE10FA0BDBF7
:10243000D7ED0D7A9FED327AF4EEC77AF1EE10FA0D
:1024400002D80323FB6352E00223FB634FE0D7ED86
:102450000B7AB7EE007A77EE877AC7ED0B7AD7ED75
:102460000C7AB2EE0E7AF4EEC77AF1EE10FA02DDD3
:102470000423FB633BE0D7ED0B7AB2EE0E7AF4EE69
:10248000C77AF1EE10FA0FDDD7ED0C7AB7EE007ACD
:1024900077EE877AC7ED0C7AD7ED0C7AB7EE007A33
:1024A00077EE877AC7ED0B7AD7ED0C6A97ED0B7A4A
:1024B000C6EE877AC7ED0D7A0123FB6317E0FC694E
:1024C0003B4697ED0D0A1846FFF704FE3B4693E89E
:1024D000070084E80700D7ED0E7AFCEEE77A17EEE6
:1024E000902AFB691A600423FB6300E000BF3DE70C
:1024F00000BFF8694437BD4690BD00BFCDCC8C3FCE
:102500003333F33F80B483B000AF7860044A7B6814
:102510001A607B6818460C37BD465DF8047B70472F
:10252000B484000080B584B000AFF860B9607A6010
:10253000FB681846FFF7E6FF064AFB681A60FB686F
:10254000BA685A60FB687A689A60FB681846103768
:10255000BD4680BD9884000080B584B000AF78602F
:1025600039600723FB737B6898687B689B681B68EE
:1025700014331B687A6852680432114698473968E8
:10258000786800F049F87B685B68D8687B685B68AE
:10259000DB681B681B687A685268127CC2F3C2024F
:1025A000D2B2114698477B685B6898687B685B6825
:1025B0009B681B681B687A685268127CC2F302022F
:1025C000D2B2114698477B685B68DA687B685B68C3
:1025D000DB681B6804331B680221104698477B6840
:1025E0005B689A687B685B689B681B6804331B6840
:1025F0000221104698477B685B681B681B7ADAB239
:102600007B685B681B6842F00702D2B21A72002333
:1026100018461037BD4680BD80B586B000AF7860E3
:1026200039607B689A687B685B680433194610469A
:10263000FFF712F9024607F1080339681846FFF759
:102640006BFE8023FB75BB681B0ABB75BB687B7583
:102650003B69DBB21B01DAB2FB68DBB203F00F03AC
:10266000DBB213433B757B685B681B6880221A737F
:102670007B685B681B68BA7D1A717B685B681B6846
:102680007A7D1A707B685B681B683A7D83F8282026
:102690007B685B681B6803221A730123184618378E
:1026A000BD4680BD80B586B000AFF860B9607A6085
:1026B00000237B617A697B689A4216D2BA687B698B
:1026C0001A44FB685B681B6812781A70F86800F09F
:1026D000B5F8034683F00103DBB2002B01D000BF45
:1026E000F4E77B6901337B61E4E700BF1837BD463F
:1026F00080BD90B583B000AF78607B681B681846DA
:1027000000F08AF80346002B10D07B681B685B68DA
:102710001B681B78DCB27B685B6819687B68DA68C9
:102720001368581C10600B4422461A707B68DB68E3
:102730001A687B689B689A4201D3012300E000235A
:1027400018460C37BD4690BD90B59DB000AF78617E
:102750003961FA600023FB637B693B6407F1100376
:102760007B64FB68BB6407F13C03FB64D7E920345E
:10277000C7E9083407F12C0407F140030FCB84E8C4
:102780000F0007F16003184600F0DBFC07F1600260
:1027900007F120031146184600F04BFF0346002BBB
:1027A00004D0D7E90834C7E9063411E0194B1B6897
:1027B00007F15802104698473B4607F1200207F1FF
:1027C0005801184601F096F9D7E90034C7E90634F4
:1027D0000123FB660F4B1B6807F150021046984718
:1027E00007F1180207F150031146184601F0AFF93E
:1027F0000346002B09D007F12C031846FFF779FF99
:102800000346002BE6D00023FB66FB6E18467437A8
:10281000BD4690BD0000001080B582B000AF78606A
:102820007B685B681B681B7DDBB20021184601F0EA
:102830004EF8034618460837BD4680BD80B582B0C5
:1028400000AF78607B685B681B681B7DDBB205218D
:10285000184601F03CF8034618460837BD4680BDCF
:1028600090B583B000AF0346FB710B4B1B68186833
:10287000094B1C68094BF9791A785B781B021A43DB
:10288000002362F30F031A4601F038F80346236071
:1028900000BF0C37BD4690BD4C0300108C83000078
:1028A00080B500AF084B1B681868084B1A785B7836
:1028B0001B021A43002362F30F03194601F031F89B
:1028C0000346184680BD00BF4C0300108C830000F7
:1028D00080B483B000AF7860044A7B681A607B687C
:1028E00018460C37BD465DF8047B704784840000B1
:1028F00080B584B000AFF860B9607A60FB681846B4
:10290000FFF7E6FF064AFB681A60FB68BA685A6080
:10291000FB687A689A60FB6818461037BD4680BD30
:102920007084000080B52DED028B84B000AF78601C
:1029300039607B681846FEF7E8FDB0EE408A3B68D8
:102940001846FEF7E2FDF0EE407AC7ED037A07F194
:102950000C031846FDF759FEB0EE407AC8EE077A30
:1029600007F10803B0EE670A1846FEF717FEBB68CA
:1029700018461037BD46BDEC028B80BD80B586B0D1
:1029800000AF78607B689A687B689B681B6814332B
:102990001B683C49104698477B685B6818687B68F1
:1029A0005B681B681B681B687A6852681279C2F3FF
:1029B000C202D2B2114698477B685B681A687B688E
:1029C0005B681B681B6804331B680021104698472E
:1029D0007B685B681A687B685B681B681B680C33E4
:1029E0001B680121104698477B689B68254918465B
:1029F000FEF732FF0346BB6007F108032249184681
:102A0000FFF790FF0346FB6007F10C031846FEF743
:102A1000D6FD38611D4B1B681B687B611C4B1A7807
:102A20005B781B021A43002362F30F03194678698F
:102A300000F086FF7861174B1A785B781B021A4307
:102A4000002362F30F031A463969786900F02DFFFD
:102A50007861FFF725FF0346002B0AD07B685B688F
:102A60001B79C3F30203DBB21946786900F02EFE2E
:102A70007861064B1B687A691A600023184618377C
:102A8000BD4680BDD4820000B08300004C0300101E
:102A9000908300008883000080B584B000AF786028
:102AA000786800F051F80E4B1B687A68526812790A
:102AB000C2F30202D2B2043253F82200094B1A7850
:102AC0005B781B021A43002362F30F03194600F0E0
:102AD00046FFF860FB6818461037BD4680BD00BF52
:102AE0004C0300109883000080B483B000AF78607E
:102AF0000C2318460C37BD465DF8047B7047FFFF7A
:102B000080B582B000AF78600D4B1B687A68526860
:102B10001279C2F30202D2B2043253F82200094BF6
:102B20001A785B781B021A43002362F30F031946DD
:102B300000F0F7FE034618460837BD4680BD00BFCB
:102B40004C0300109C83000090B585B000AF786006
:102B5000FFF7A6FE0346002B13D0294B1B6818680D
:102B6000274B1C68274B1A785B781B021A430023FB
:102B700062F30F031A46002100F002FF03462360B0
:102B80003AE07B685B681B79C3F30203DBB21A4649
:102B900001239340FB601A4B1B681868184B1C6894
:102BA000194B1A785B781B021A43002362F30F0358
:102BB0001A46F96800F079FE03462360104B1B6843
:102BC00018680F4B1C680F4B1A785B781B021A436E
:102BD000002362F30F031A46012100F0D1FE0346E1
:102BE00023607868FFF78CFF034683F00103DBB2B4
:102BF000002B01D000BFF4E700BF1437BD4690BDE5
:102C00004C030010948300008483000080B483B0E0
:102C100000AF7860044A7B681A607B6818460C37FE
:102C2000BD465DF8047B70471885000080B584B010
:102C300000AFF860B9607A60FB681846FFF7E6FFFE
:102C4000064AFB681A60FB68BA685A60FB687A68D3
:102C50009A60FB6818461037BD4680BD5884000056
:102C600090B585B000AF786039607B685B681B7A8F
:102C700003F00703DBB2002B07D07B685B681B7A8D
:102C800003F00703DBB2072B0DD189235A4A5B49B6
:102C90005B4802F0CFFC5B4801F0B0FB0021012053
:102CA000FDF74CFDFEE77B6898687B689B681B68B6
:102CB00014331B687A6852681268043211469847C8
:102CC0007B685B681B681B680022DA607B685B6856
:102CD0001B681B6800221A617B685B681B681B68A5
:102CE000186F7B685B681B681C68474B1A785B78B9
:102CF0001B021A43002362F30F031A46002100F05F
:102D00003FFE034623677B685B681B681B68186F80
:102D10007B685B681B681C683C4B1A785B781B02FD
:102D20001A43002362F30F031A46002100F028FE25
:102D3000034623677B689A687B685B681B6804337B
:102D400019461046FEF788FD0346BB603A4607F178
:102D5000080311461846FFF7E5FD0346FB607B6854
:102D60005B681B681C6807F10C031846FEF727FC1C
:102D70000346A3617B685B681B681B685A69012373
:102D800019467B685B681B681C68104600F09EFC57
:102D9000034663610121786800F044F97B685B6851
:102DA0001B681B68DA6C082319467B685B681B7A12
:102DB000C3F30203DBB20B4419467B685B681B68F4
:102DC0001C68104600F082FC0346E3647B685B6885
:102DD00058687B685B685B681B681B687A68526828
:102DE000127AC2F3C202D2B21146984700231846A3
:102DF0001437BD4690BD00BF1C880000D083000082
:102E00001C7E0000D07B0000B4830000B88300006B
:102E100090B583B000AF786087ED000AD7ED007AF7
:102E2000F5EEC07AF1EE10FAACBF01230023DBB25D
:102E300083F00103DBB2002B10D1D7ED007AB7EE9F
:102E4000007AF4EEC77AF1EE10FA94BF0123002362
:102E5000DBB283F00103DBB2002B0DD0B5231C4A9B
:102E60001C491D4802F0E6FB1C4801F0C7FA00218E
:102E70000120FDF763FCFEE797ED000A786800F09B
:102E800026F90446786800F013F902467B685B680F
:102E90001B7AC3F30203DBB29B0013441C607B6804
:102EA0005B681B681B681A6D7B685B681B7AC3F3E1
:102EB0000203DBB2194601238B4019467B685B682D
:102EC0001B681B680A431A6500BF0C37BD4690BDDE
:102ED000E0870000D8830000F07E0000D07B000077
:102EE00080B52DED028B82B000AF7860786800F07D
:102EF000DFF802467B685B681B7AC3F30203DBB230
:102F00009B0013441B6807EE903AB8EE678A786816
:102F100000F0CEF803461B6807EE903AF8EE677AA9
:102F200088EE277AF0EE477AB0EE670A0837BD469A
:102F3000BDEC028B80BD80B582B000AF7860396097
:102F400039687868FDF70AFB034683F00103DBB2BA
:102F500018460837BD4680BD90B587B000AF786091
:102F600039604FF000004FF00001FDF74DFA0346C5
:102F7000FB6007F10C023B4611461846FFF7DBFFEA
:102F8000034683F00103DBB2002B0DD0C223214A9C
:102F90002149224802F04EFB214801F02FFA00217E
:102FA0000120FDF7CBFBFEE77868FFF799FF87ED7F
:102FB000050A0021786800F035F87B689A687B681C
:102FC0005B681B68043319461046FEF745FC034650
:102FD000BB603A4607F1080311461846FFF7A2FC0A
:102FE00003463B617B685B681B681C6807F1100344
:102FF0001846FEF7E4FA0346A36197ED050A7868E0
:10300000FFF706FF0121786800F00CF800BF1C37BD
:10301000BD4690BD90870000E0830000BC7F0000AB
:10302000D07B000080B584B000AF78600B46FB70A9
:103030007B685B681B681B680433FB60FB78002BB4
:1030400028D0FB681B6801221146184600F03EFBA1
:103050000246FB681A60FB681B680122114618468D
:1030600000F021FB0246FB681A60FB681B68032224
:103070001146184600F02AFB0246FB681A60FB68FE
:103080001B6800221146184600F020FB0246FB6830
:103090001A6009E0FB681B6803221146184600F01D
:1030A00002FB0246FB681A6000BF1037BD4680BDB8
:1030B00080B483B000AF78607B685B681B681B6876
:1030C000183318460C37BD465DF8047B704780B551
:1030D00084B000AF786087ED000A7868FFF7E8FFFA
:1030E00003461B6807EE903AF8EE677AC7ED037A5D
:1030F00097ED007AD7ED037A67EE277AFCEEE77A50
:1031000017EE903A18461037BD4680BD90B482B095
:1031100000AF786039603B681B684FEAE3747A68F7
:10312000C2E900347B6818460837BD4690BC70473A
:1031300098B500AFFDF718F903460C46184621462E
:1031400098BD90B585B000AF7860FFF7F1FF0346FA
:103150000C46C7E9023407F1080319467868FDF701
:103160003FFB78681437BD4690BD80B582B000AF94
:1031700078607B68184600F005F878680837BD4627
:1031800080BDFFFF80B582B000AF786003497868EA
:10319000FEF78AFB78680837BD4680BDD07700000F
:1031A00080B582B000AF786039607B6839681846B6
:1031B00000F004F878680837BD4680BDF0B585B0EA
:1031C00000AF786039603868FEF77FFB05460E4631
:1031D0002B4634464FF000014FF00002620142EAF4
:1031E000D36259010B4614465B1B64EB06044FF097
:1031F00000014FF00002A20042EA937299000B46D0
:1032000014465B1944EB06044FF000014FF0000236
:10321000E20042EA5372D9000B461446C7E9023471
:1032200007F1080319467868FDF7DAFA7868143769
:10323000BD46F0BD90B585B000AF7860396007F14C
:10324000080339681846FFF7ABFF07F10803184673
:10325000FEF732FA03460C467A68C2E900347B680E
:1032600018461437BD4690BD2DE9B0432DED028BB5
:10327000BAB004AFFEF702FF03461A4607F1A003F7
:10328000C1491846FFF74EF9FEF7F8FE03461A4605
:1032900007F19403BD491846FFF72AFBFEF7EEFE3F
:1032A00003461A4607F18803B9491846FFF7BEFCE2
:1032B000B84B7B67002387F87830B74BFB67012357
:1032C00087F88030012387F88130B44BC7F8843009
:1032D00007F174031846FDF78CFD07F174031846D7
:1032E000FDF778FD2723AE4AAE49AF4802F0A2F9B8
:1032F00007F194031846FFF741FB0120FFF7B0FAEE
:103300002B23A74AA949AA4802F094F907F1A00380
:103310004FF416411846FFF71FF92D23A04AA5497F
:10332000A54802F087F94FF000033B674FF0000318
:10333000FB660023C7F8CC304FF00003BB6607F1F3
:10334000680307F16C0207F1700107F13C009FED83
:103350009B1ADFED9A0A9FED990AFDF7DBFA07F158
:103360003C03DFED970A9FED970A1846FDF7EEFB49
:1033700035238B4A9449954802F05CF907F17402B1
:1033800007F1880107F108031846FEF769F8904B2A
:1033900007F1080219681046FEF79EF88D4A07F1FA
:1033A00008018D4BD3E90034CDE90034D2E9002384
:1033B0000846FEF75AF9894A894B07F10800126856
:1033C0001968FEF767F93D23754A8649864802F079
:1033D00031F9002387F8D7304FF000037B6007F105
:1033E00094031846FFF758FB0346DFED750A9FED7F
:1033F0007F0A40F6FF720021184600F0D3FAF0EE83
:10340000407AC7ED1C7A0023C7F8D030D7F8D03007
:10341000032B1CD807F1B0031846FFF792FE07F103
:10342000A001D7E92C230846FEF732FE034687F8B1
:10343000CB30D7F8AC301A0297F8CB301343C7F82B
:10344000AC30D7F8D0300133C7F8D030DEE7D7F84A
:10345000AC30184602F074FE03460C46CDE9003449
:103460004B234F4A6249634802F0E4F8D7F8AC3086
:10347000BB6607F13C031846FDF79CFAD7F8AC3061
:10348000184602F05DFE804689463B6F184602F002
:1034900057FE04460D46FB6E184602F051FE0246EA
:1034A0000B46CDE90223CDE9004542464B46524842
:1034B00002F0C0F897ED1B8A4FF000004FF00001BA
:1034C000FCF7E4FF04469FED2E0BFCF7C9FF034613
:1034D000194620469FED3A1ADFED3A0AB0EE480A47
:1034E00000F0ADFA03463B603A463B1D11461846D4
:1034F00000F0EFFA0346002B05D007F10803396806
:103500001846FEF74BF9D7ED1B7AB0EE670AFCF7C9
:103510004EFF03461A4697F8D730934214BF012353
:103520000023DBB2002B16D0D7ED1B7AB0EE670A72
:10353000FCF73DFF03461A4607F1080311461846FB
:10354000FEF7FBF8D7ED1B7AB0EE670AFCF72FFF0A
:10355000034687F8D73007F1C0031846FFF705FE8A
:1035600007F1C00207F1B80311461846FFF762FEE3
:10357000D7E92E01FDF7C0F931E700BFAFF30080B6
:103580009A9999999999B93F10000010A883000061
:10359000C48300003085000064850000B482000010
:1035A000748500000884000060800000148400001E
:1035B000BC8000002084000008810000CDCCCC3D00
:1035C00033335340333353C02C8400005481000004
:1035D000F0830000F883000000840000EC8300000A
:1035E000E883000038840000A8810000000000008B
:1035F00044840000008200005482000090B587B02F
:1036000000AFF860B9607A60BB68D3E90034591C38
:1036100044F10002B868C0E90012C7E9043407F1B8
:1036200010031946F868FDF7DBF8F8681C37BD464B
:1036300090BDF0B587B000AF786039607B68D3E9A2
:103640000034C7E9023407F108031846FEF734F8DE
:1036500005460E463B68D3E90034C7E9043407F158
:1036600010031846FEF728F803460C46A64206BF8C
:103670009D4201230023DBB218461C37BD46F0BD36
:1036800080B584B000AFF8600B46BA80FB723B791E
:103690001A467B79F97AF86800F081FA03461846F1
:1036A0001037BD4680BD80B483B000AF786039600C
:1036B00001223B6802FA03F3DB431A467B6813409E
:1036C00018460C37BD465DF8047B704780B483B064
:1036D00000AF7860396001223B6802FA03F31A46B2
:1036E0007B68134318460C37BD465DF8047B704772
:1036F00080B483B000AF7860396001223B6802FA81
:1037000003F31A467B681340002B14BF01230023E8
:10371000DBB218460C37BD465DF8047B7047FFFFEF
:1037200080B485B000AFF86039723A713B70FB68C5
:10373000D3ED007A9FED067AC7EE876AF0EE667ADF
:10374000B0EE670A1437BD465DF8047B704700BFD2
:103750000024744980B584B000AF78607B68184657
:10376000FDF7D3FEF0EE407AC7ED037A07F10C03C4
:10377000184600F041FAF0EE407AFCEEE77A17EED8
:10378000903A18461037BD4680BD80B48FB000AF68
:1037900087ED050AC7ED040A87ED031AC7ED021A83
:1037A00087ED012A7B697B633B693B63FB68FB62B6
:1037B000BB68BB627B687B6297ED097AD7ED0A7ABA
:1037C00077EE676A97ED0B7AD7ED0C7A37EE677A6A
:1037D000C6EE877AC7ED087A97ED0D7AD7ED0C7AA9
:1037E00037EE677AD7ED087A67EE277A97ED0A7A8F
:1037F00077EE277AC7ED077AFB6907EE903AB0EECD
:10380000670A3C37BD465DF8047B704780B584B0DD
:1038100000AF786039607B681846FDF776FEF0EE01
:10382000406A3B6807EE903AF8EE677A86EEA77A30
:1038300007F10C03B0EE470A1846FCF77EFEFB6862
:1038400018461037BD4680BD80B52DED028B82B085
:1038500000AF786039607B6893ED008A3B6818465A
:10386000FCF74BFEF0EE407AB4EEE78AF1EE10FA88
:10387000CCBF01230023DBB218460837BD46BDECA0
:10388000028B80BD80B582B000AF786039603B6844
:103890001846FEF727F8F0EE407A7B68C3ED007A11
:1038A0007B6818460837BD4680BD80B584B000AF40
:1038B000F860B960BA803B791A467B79B968F868D4
:1038C00000F0A8F9034618461037BD4680BD80B405
:1038D00083B000AF03463960FB71FA793B6842FA66
:1038E00003F303F00103002B14BF01230023DBB219
:1038F00018460C37BD465DF8047B704780B584B030
:1039000000AFF8600B46BA80FB723B791A467B79B0
:10391000F97AF86800F0AAF9034618461037BD4650
:1039200080BD80B582B000AF786039803B781946A1
:103930007868FFF7DDFE034618460837BD4680BDB0
:1039400080B582B000AF786039803B7819467868DE
:10395000FFF7BCFE034618460837BD4680BD80B55C
:1039600082B000AF786039803B7819467B781A4680
:10397000786800F0A8F9034618460837BD4680BDB0
:1039800080B584B000AFF860B960BA803B791A4660
:103990007B79B968F86800F0B4F903461846103727
:1039A000BD4680BD80B48FB000AF78613961FA60E8
:1039B00087ED020AC7ED010A7B6907EE903AF8EE3F
:1039C000677AC7ED0D7A3B6907EE903AF8EEE77A31
:1039D000C7ED0C7AFB6807EE903AF8EEE77AC7ED90
:1039E0000B7ABB68BB627B687B6297ED097AD7ED87
:1039F0000A7A77EE676A97ED0B7AD7ED0C7A37EE95
:103A0000677AC6EE877AC7ED087A97ED0D7AD7ED1B
:103A10000C7A37EE677AD7ED087A67EE277A97ED5A
:103A20000A7A77EE277AC7ED077AFB6907EE903AB4
:103A3000B0EE670A3C37BD465DF8047B704780B541
:103A40008EB000AF87ED050AC7ED040A87ED031AB3
:103A5000B86079607B697B633B693B63FB68FB62B1
:103A600007F108031846FDF78AFE87ED0A0A3B1D99
:103A70001846FDF784FE87ED090A97ED097AD7ED20
:103A80000A7A77EE676A97ED0B7AD7ED0C7A37EE04
:103A9000677AC6EE877AC7ED087A97ED0D7AD7ED8B
:103AA0000C7A37EE677AD7ED087A67EE277A97EDCA
:103AB0000A7A77EE277AC7ED077A07F1180397EDB0
:103AC000070A1846FDF7BAFCBB6918463837BD46E9
:103AD00080BD80B582B000AF7860396039687868A1
:103AE00000F03BF9034683F00103DBB218460837C8
:103AF000BD4680BDF0B58BB000AFF860B9607A60AC
:103B0000BB68D3E90034C7E9063407F11803184647
:103B1000FDF7D2FD05460E467B68D3E90034C7E9C0
:103B2000083407F120031846FDF7C6FD0A46014692
:103B30004B1942EB0604C7E9043407F11003194698
:103B4000F868FCF74DFEF8682C37BD46F0BDF0B5BF
:103B500087B000AF786039607B68D3E90034C7E98B
:103B6000023407F108031846FDF7A6FD05460E4688
:103B70003B68D3E90034C7E9043407F11003184661
:103B8000FDF79AFD03460C469D4276EB0403B4BF55
:103B900001230023DBB218461C37BD46F0BD80B4BC
:103BA00089B000AFF8607A603B600B46FB724FF063
:103BB000FF33FB612023BB613B68C3F120034FF05F
:103BC000FF3222FA03F37B617A697B6802FA03F31E
:103BD000DB43FA681340FB60FA7A7B691A407B6822
:103BE00002FA03F3FA681343FB60FB6818462437B4
:103BF000BD465DF8047B704780B586B000AF786045
:103C0000786800F001F9F0EE407AB0EE670A1837F4
:103C1000BD4680BD80B489B000AFF860B9607A60FD
:103C20003B604FF0FF33FB612023BB613B68C3F176
:103C300020034FF0FF3222FA03F37B617A697B683D
:103C400002FA03F3DB43FA681340FB60BA687B694E
:103C50001A407B6802FA03F3FA681343FB60FB68BF
:103C600018462437BD465DF8047B704780B489B0A0
:103C700000AFF8607A603B600B46FB724FF0FF3399
:103C8000FB612023BB613B68C3F120034FF0FF328F
:103C900022FA03F37B617A697B6802FA03F3DB4360
:103CA000FA681340FB60FA7A7B691A407B6802FA73
:103CB00003F3FA681343FB60FB6818462437BD46DC
:103CC0005DF8047B704780B489B000AFF860B960DC
:103CD0007A604FF0FF33FB612023BB617B68C3F147
:103CE00020034FF0FF3222FA03F37B61FA68BB68CE
:103CF000DA407B69134018462437BD465DF8047BE3
:103D0000704780B489B000AFF860B9607A603B60FA
:103D10004FF0FF33FB612023BB613B68C3F12003FD
:103D20004FF0FF3222FA03F37B617A697B6802FA73
:103D300003F3DB43FA681340FB60BA687B691A40FF
:103D40007B6802FA03F3FA681343FB60FB681846CA
:103D50002437BD465DF8047B704780B52DED048B9C
:103D600082B000AF786039607B6893ED008A3B6871
:103D7000184600F05BF8F0EE407A78EE677AB0EE25
:103D8000670AFCF727FBF0EE408AFCF704FBB0EE75
:103D9000409A7B6893ED008A3B68184600F046F82D
:103DA000F0EE407A78EE277AB0EE670AFCF712FB65
:103DB000F0EE407A69EE277AF4EEE78AF1EE10FA37
:103DC00019D47B6893ED008A3B68184600F02EF802
:103DD000F0EE407A78EE677AB0EE670AFCF7FAFA0E
:103DE000B0EE408AFCF7CBFAF0EE407AB4EEE78A08
:103DF000F1EE10FA01D5012300E000231846083740
:103E0000BD46BDEC048B80BD80B485B000AFF860CA
:103E100039723A713B70FB681B6807EE903AB0EE5E
:103E2000670A1437BD465DF8047B704780B586B0DD
:103E300000AF7860786800F007F8F0EE407AB0EEF6
:103E4000670A1837BD4680BD80B485B000AFF86002
:103E500039723A713B70FB681B6807EE903AB0EE1E
:103E6000670A1437BD465DF8047B704780B582B0A1
:103E700000AF786039607B68012B40F0B8803B6808
:103E80004FF6FF72934240F0B2805B4B1B6803F029
:103E90000103002B05D1584B01221A60574A584B99
:103EA0001A60584B1B6803F00103002B06D1554BD9
:103EB00001221A60544B1846FCF7DAFF534B1B687B
:103EC00003F00103002B14D1504B01221A60504A19
:103ED000504B1A60504A4F4B5A60504A4D4B9A60B3
:103EE0004F4A4C4BDA604F4A4A4B1A614E4A494B93
:103EF0005A614E4B1B6803F00103002B22D14B4B40
:103F000001221A604A4B4B4A04321A60494A08326D
:103F10005A60484A0C329A60464A1032DA60454A82
:103F200014321A611433434A24321A60414A283247
:103F30005A60404A2C329A603E4A3032DA603D4A3A
:103F400034321A613C4B1B6803F00103002B06D18D
:103F5000394B01221A60374B1A46384B1A60384BDE
:103F60001B6803F00103002B05D1354B01221A60B9
:103F7000344A354B1A60354B1B6803F00103002BA4
:103F800005D1324B01221A60314A324B1A60324B52
:103F90001B6803F00103002B05D12F4B01221A608F
:103FA0002E4A2F4B1A602F4B1B6803F00103002B86
:103FB00005D12C4B01221A602B4A2C4B1A602C4B3A
:103FC0001B6803F00103002B05D1294B01221A6065
:103FD000284A294B1A60294B1B6803F00103002B68
:103FE00005D1264B01221A60254A264B1A6000BFD4
:103FF0000837BD4680BD00BF5003001000C002401E
:1040000000010010540300100401001058030010B8
:10401000008009200402001020800920408009202F
:104020006080092080800920A08009205C030010A6
:104030001C03001080800240600300104403001045
:104040006403001000C00F40480300106803001014
:1040500000800940100000106C03001000C00940EF
:10406000240000107003001000400A4038000010C7
:1040700074030010004003404C030010780300104C
:10408000008001404C00001080B500AF4FF6FF717A
:104090000120FFF7EBFE80BD80B487B000AF0023A6
:1040A0007B617A6913465B0013449B001F4A1344EB
:1040B0001F4A934233D21D497A6913465B00134469
:1040C0009B000B441B68FB6018497A6913465B0030
:1040D00013449B000B445B68BB6014497A69134628
:1040E0005B0013449B000B4408331B687B60002378
:1040F0003B613A697B689A420DD23B699B00FA6842
:104100001A443B699B00B9680B4412681A603B690A
:1041100001333B61EDE77B6901337B61C1E700BFA0
:104120001C37BD465DF8047B704700BFE40000000B
:10413000FC00000080B485B000AF0023FB60FB688A
:10414000DB00154A1344154A93421ED2124AFB68FB
:1041500052F833307B60104AFB68DB0013445B6825
:104160003B600023BB60BA683B689A4209D2BB68D7
:104170009B007A68134400221A60BB680133BB605D
:10418000F1E7FB680133FB60D9E700BF1437BD4698
:104190005DF8047B704700BFFC0000000C010000CC
:1041A00080B500AFFFF778FFFFF7C4FF03F08CFA8C
:1041B00000BF80BD80B58CB002AF78607B681B68A3
:1041C0007B627B685B683B627B689B68FB617B68AA
:1041D000DB68BB617B681B697B617B685B693B61FA
:1041E0007B689B69FB607B68DB69BB600D4801F005
:1041F00021FA796A3A6AF869BB69009303460A486A
:1042000001F018FA79693A69F868BB6800930346C7
:10421000064801F00FFAFB6819460120FCF78EFAF8
:10422000FEE700BF248A0000508A0000848A000054
:1042300080B400AF1EF0040F0CBFEFF30880EFF363
:1042400009808169004A1047B541000000BFBD46A2
:104250005DF8047B7047FFFF80B584B000AF104B62
:10426000FB60FB683B603B6883F30988FB687B600D
:104270007B6883F30888FFF793FF01F03DFCFEF7AE
:10428000F3FFB860BB68002B04DBB968054801F098
:10429000D1F903E0B968044801F0CCF9FEE700BFAA
:1042A00000000110BC8A0000F08A000080B582B0D6
:1042B00000AF786039607B68012B11D13B684FF605
:1042C000FF7293420CD1084B1B6803F00103002BD3
:1042D00006D1054B01221A60044B1846FCF7C8FDB5
:1042E00000BF0837BD4680BD540300100401001014
:1042F00080B500AF4FF6FF710120FFF7D7FF80BDFB
:1043000080B584B000AF284B1B68002B03D0274B2F
:1043100001221A6043E0254B00221A6001F0E2FB03
:104320000246234B1A60224B1A68224B1B689A42A2
:1043300009D9214B1B68596D1D4A10681D4A126826
:10434000821A0A445A651A4B1B681A4A13601B4B9F
:104350001B687B607B68B3FA83F3FB70FB78C3F167
:104360001F03FB60FA6813469B0013449B00144A2A
:104370001344BB60BB685B685A68BB685A60BB6823
:104380005A68BB6808339A4204D1BB685B685A68B4
:10439000BB685A60BB685B68DB68074A136000BF94
:1043A0001037BD4680BD00BFEC030010E8030010CD
:1043B000F4030010F00300107C030010E40300106D
:1043C0008003001080B483B000AF786000BFFDE7C9
:1043D00080B400AF01231846BD465DF8047B7047EA
:1043E00080B483B000AF786039604FF0FF33184677
:1043F0000C37BD465DF8047B7047FFFF80B584B085
:1044000000AF7860786803F0DBF9F8600023BB60E8
:104410000B4B1B68F968786898470246BB681344E1
:10442000BB60074B1B680121064898470246BB68E2
:104430001344BB60BB6818461037BD4680BD00BF43
:1044400054000010248B000080B485B000AFB96028
:104450007A603B600346FB7300BF1437BD465DF8CE
:10446000047B704780B584B000AFB9607A603B6070
:104470000346FB73FB7B002B03D0FB7B184601F04C
:10448000D3FC00BF1037BD4680BD80B485B000AFFF
:1044900078607B68FB60FB681B78002B03D0FB68AF
:1044A0000133FB60F7E7FA687B68D31A18461437C4
:1044B000BD465DF8047B704780B483B000AF03460F
:1044C000FB71FB792F2B04D9FB79392B01D8012300
:1044D00000E0002318460C37BD465DF8047B7047AA
:1044E00080B584B000AF78600023FB607B681B68F8
:1044F0001B781846FFF7E0FF0346002B0FD0FA6841
:1045000013469B0013445B0018467B681B68591CCC
:104510007A6811601B780344303BFB60E6E7FB6878
:1045200018461037BD4680BD90B589B000AFF86021
:10453000B9607A603B607B687B61BB6C03F002030F
:10454000002B0ED17A6B3B6C9A420AD27B6B1F2BED
:1045500007D87B6B5A1C7A633A6B134430221A706B
:10456000EBE7BB6C03F00203002B13D1BB6C03F031
:104570000103002B0ED07A6B7B6C9A420AD27B6BC4
:104580001F2B07D87B6B5A1C7A633A6B134430227B
:104590001A70E6E7BB6C03F01003002B58D0BB6C1D
:1045A00003F48063002B16D17B6B002B13D07A6B46
:1045B0003B6C9A4203D07A6B7B6C9A420BD17B6B3B
:1045C000013B7B637B6B002B05D0FB6B102B02D177
:1045D0007B6B013B7B63FB6B102B0FD1BB6C03F040
:1045E0002003002B0AD17B6B1F2B07D87B6B5A1C37
:1045F0007A633A6B134478221A701FE0FB6B102B1E
:104600000FD1BB6C03F02003002B0AD07B6B1F2B58
:1046100007D87B6B5A1C7A633A6B134458221A7082
:104620000CE0FB6B022B09D17B6B1F2B06D87B6B3D
:104630005A1C7A633A6B134462221A707B6B1F2BED
:1046400006D87B6B5A1C7A633A6B134430221A707B
:104650007B6B002B14D07A6B7B6C9A4210D197F84D
:104660003830002B09D1BB6C03F00403002B04D1BC
:10467000BB6C03F00803002B02D07B6B013B7B6318
:104680007B6B1F2B24D897F83830002B07D07B6B1F
:104690005A1C7A633A6B13442D221A7018E0BB6CD3
:1046A00003F00403002B07D07B6B5A1C7A633A6B30
:1046B00013442B221A700BE0BB6C03F00803002B91
:1046C00006D07B6B5A1C7A633A6B134420221A7013
:1046D000BB6C03F00203002B16D1BB6C03F001038B
:1046E000002B11D17B6BFB61FA697B6C9A420BD278
:1046F0007A68531C7B60FC683B68B9682020A0473F
:10470000FB690133FB61EFE70023BB61BA697B6B97
:104710009A4211D27A6BBB69D31A013B3A6B1344AC
:1047200018787A68531C7B60FC683B68B968A047BE
:10473000BB690133BB61E9E7BB6C03F00203002BEB
:104740000ED07A687B69D31A7A6C9A4208D97A6853
:10475000531C7B60FC683B68B9682020A047F0E7E9
:104760007B6818462437BD4690BD80B596B008AF2B
:10477000F860B9607A603B6000237B633B6C002B80
:1047800003D17B6D23F010037B657B6D03F48063A5
:10479000002B02D03B6C002B34D03B6CBA6CB3FBCB
:1047A000F2F2B96C01FB02F29B1A87F8333097F8EA
:1047B0003330092B04D897F833303033DAB20DE0B8
:1047C0007B6D03F02003002B01D0412200E0612229
:1047D00097F833301344DBB20A3BDAB27B6B591CD7
:1047E000796307F138010B4403F8282C3A6CBB6C51
:1047F000B2FBF3F33B643B6C002B03D07B6B1F2BB2
:1048000000D8CAE77B6D06933B6D0593FB6C049360
:10481000BB6C039397F8443002937B6B019307F1D1
:10482000100300933B687A68B968F868FFF77CFE6C
:10483000034618463837BD4680BD90B597B008AFDF
:10484000F860B9607A603B6000237B63D7E912347B
:10485000234303D1BB6E23F01003BB66BB6E03F48E
:104860008063002B03D0D7E9123423433AD0D7E931
:104870001201D7E9162301F019FE1C46134687F8EA
:10488000333097F83330092B04D897F8333030336E
:10489000DAB20DE0BB6E03F02003002B01D0412201
:1048A00000E0612297F833301344DBB20A3BDAB2FE
:1048B0007B6B591C796307F138010B4403F8282CF2
:1048C000D7E91623D7E9120101F0F0FD03460C46A3
:1048D000C7E91234D7E91234234303D07B6B1F2B73
:1048E00000D8C4E7BB6DBA6E06927A6E05923A6E36
:1048F0000492039397F8503002937B6B019307F176
:10490000100300933B687A68B968F868FFF70CFEFB
:10491000034618463C37BD4690BDFFFF90B59BB09F
:1049200000AF78613961FA60BB6087ED000BFB680E
:104930007B64D7E9000101F05BFC03467B66002342
:104940003B664FF000033B644FF09E43FB63002344
:1049500087F85F30D7ED197AF5EEC07AF1EE10FAEC
:104960000AD5012387F85F309FEDAB7AD7ED197A2E
:1049700077EE677AC7ED197AD7F8803003F4806351
:10498000002B01D10623BB673B6E1F2B0FD8BB6FDB
:10499000092B0CD93B6E5A1C3A6607F16802134486
:1049A000302203F8502CBB6F013BBB67ECE7D7ED1F
:1049B000197AFDEEE77A17EE903ABB65BB6D07EE0C
:1049C000903AF8EEE77A97ED197A37EE677A934ADC
:1049D000BB6F9B001344D3ED007A67EE277AC7EDD7
:1049E0000E7AD7ED0E7AFCEEE77A17EE903A7B65F9
:1049F0007B6D07EE903AF8EE677A97ED0E7A77EED8
:104A0000677AC7ED107AD7ED107AB6EE007AF4EE39
:104A1000C77AF1EE10FA18DD7B6D01337B657B6D93
:104A200007EE903AB8EE677A7C4ABB6F9B0013445E
:104A3000D3ED007AB4EEE77AF1EE10FA19DB002339
:104A40007B65BB6D0133BB6513E0D7ED107AB6EE25
:104A5000007AF4EE477AF1EE10FA0AD17B6D002B62
:104A600004D07B6D03F00103002B02D07B6D01337A
:104A70007B65D7ED197A9FED6A7AF4EEC77AF1EE8D
:104A800010FA01DD002366E1BB6F002B29D1BB6D5D
:104A900007EE903AF8EEE77A97ED197A77EE677AB3
:104AA000C7ED107AD7ED107AB6EE007AF4EEC77A39
:104AB000F1EE10FA03DDBB6D0133BB6562E0D7EDAB
:104AC000107AB6EE007AF4EE477AF1EE10FA59D188
:104AD000BB6D03F00103002B54D0BB6D0133BB65EC
:104AE00050E0BB6F3B653B6E1F2B28D83B6D013BF5
:104AF0003B65796D4B4BA3FB0123DA0813469B0002
:104B000013445B00CA1AD3B23033D9B23B6E5A1C7D
:104B10003A6607F1680213440A4603F8502C7B6D8D
:104B2000404AA2FB0323DB087B657B6D002B0CBF97
:104B300001230023DBB2002B00D1D4E700BF3B6E82
:104B40001F2B06D83B6D5A1E3A65002B01D001235E
:104B500000E00023002B09D03B6E5A1C3A6607F197
:104B600068021344302203F8502CE8E73B6E1F2BF9
:104B700008D83B6E5A1C3A6607F1680213442E228D
:104B800003F8502C3B6E1F2B29D8BA6D264B83FBA4
:104B900002139910D317C91A0B469B000B445B00F4
:104BA000D11ACBB23033D9B23B6E5A1C3A6607F1F8
:104BB000680213440A4603F8502CBB6D1A4A82FB64
:104BC00003129210DB17D31ABB65BB6D002B0CBF11
:104BD00001230023DBB2002B00D1D3E700BFD7F8BD
:104BE000803003F00203002B20D1D7F8803003F08F
:104BF0000103002B1AD03A6EFB6F9A4216D23B6E1D
:104C00001F2B13D83B6E5A1C3A6607F168021344F7
:104C1000302203F8502CE2E700000000288B00004F
:104C20000000004FCDCCCCCC676666663A6EFB6F59
:104C30009A4212D197F85F30002B0BD1D7F8803011
:104C400003F00403002B05D1D7F8803003F00803EC
:104C5000002B02D03B6E013B3B663B6E1F2B2CD8DA
:104C600097F85F30002B09D03B6E5A1C3A6607F16B
:104C7000680213442D2203F8502C1EE0D7F8803030
:104C800003F00403002B09D03B6E5A1C3A6607F16F
:104C9000680213442B2203F8502C0EE0D7F8803022
:104CA00003F00803002B08D03B6E5A1C3A6607F14C
:104CB00068021344202203F8502CD7F8803003F008
:104CC0000203002B17D1D7F8803003F00103002B2B
:104CD00011D13B6EFB64FA6CFB6F9A420BD2FA68FF
:104CE000531CFB607C69BB6839692020A047FB6CC2
:104CF0000133FB64EFE70023BB64BA6C3B6E9A425E
:104D000013D23A6EBB6CD31A013B07F1680213440D
:104D100013F8500CFA68531CFB607C69BB68396956
:104D2000A047BB6C0133BB64E7E7D7F8803003F0E2
:104D30000203002B0ED0FA687B6CD31AFA6F9A42EA
:104D400008D9FA68531CFB607C69BB68396920206C
:104D5000A047F0E7FB6818466C37BD4690BD00BF22
:104D6000B0B5A0B00AAFF860B9607A603B600023CC
:104D70007B64BB68002B01D1A24BFB603B681B78B6
:104D8000002B00F045843B681B78252B0DD03B6839
:104D900018787A6C531C7B64FC687B68B968A04700
:104DA0003B6801333B6000F031BC3B6801333B6042
:104DB00000237B653B681B78203B102B56D801A253
:104DC00052F823F0454E00006D4E00006D4E00007D
:104DD000594E00006D4E00006D4E00006D4E0000FB
:104DE0006D4E00006D4E00006D4E00006D4E0000D7
:104DF000314E00006D4E00001D4E00006D4E000053
:104E00006D4E0000094E00007B6D43F001037B6591
:104E10003B6801333B600123BB642AE07B6D43F0B8
:104E200002037B653B6801333B600123BB6420E0E8
:104E30007B6D43F004037B653B6801333B600123DA
:104E4000BB6416E07B6D43F008037B653B68013370
:104E50003B600123BB640CE07B6D43F010037B657A
:104E60003B6801333B600123BB6402E00023BB6469
:104E700000BFBB6C002B00D09CE700233B653B6868
:104E80001B781846FFF718FB0346002B05D03B465E
:104E90001846FFF725FB386518E03B681B782A2B7E
:104EA00014D1BB6E1A1DBA661B683B633B6B002BAB
:104EB00007DA7B6D43F002037B653B6B5B423B652E
:104EC00001E03B6B3B653B6801333B600023FB64C7
:104ED0003B681B782E2B24D17B6D43F480637B656C
:104EE0003B6801333B603B681B781846FFF7E4FAE8
:104EF0000346002B05D03B461846FFF7F1FAF8644D
:104F00000FE03B681B782A2B0BD1BB6E1A1DBA66CB
:104F10001B68FB62FB6A23EAE373FB643B680133B3
:104F20003B603B681B78683B122B67D801A252F8A4
:104F300023F000BFA74F0000FD4F0000DD4F000031
:104F4000FD4F0000814F0000FD4F0000FD4F0000AD
:104F5000FD4F0000FD4F0000FD4F0000FD4F000021
:104F6000FD4F0000CD4F0000FD4F0000FD4F000041
:104F7000FD4F0000FD4F0000FD4F0000ED4F000011
:104F80007B6D43F480737B653B6801333B603B681A
:104F90001B786C2B34D17B6D43F400737B653B68CD
:104FA00001333B602CE07B6D43F080037B653B6805
:104FB00001333B603B681B78682B25D17B6D43F048
:104FC00040037B653B6801333B601DE07B6D43F430
:104FD00080737B653B6801333B6016E07B6D43F477
:104FE00000737B653B6801333B600EE07B6D43F4EF
:104FF00080737B653B6801333B6006E000BF04E0E3
:1050000000BF02E04944000000BF3B681B78253B1D
:10501000532B00F2EE8201A252F823F0DB55000080
:10502000F3550000F3550000F3550000F355000060
:10503000F3550000F3550000F3550000F355000050
:10504000F3550000F3550000F3550000F355000040
:10505000F3550000F3550000F3550000F355000030
:10506000F3550000F3550000F3550000F355000020
:10507000F3550000F3550000F3550000F355000010
:10508000F3550000F3550000F3550000F355000000
:10509000F3550000F3550000F3550000F3550000F0
:1050A000F9530000F3550000F3550000F3550000DC
:1050B000F3550000F3550000F3550000F3550000D0
:1050C000F3550000F3550000F3550000F3550000C0
:1050D000F3550000F3550000F3550000F3550000B0
:1050E000F3550000F35500006D510000F35500002A
:1050F000F3550000F3550000F3550000F355000090
:10510000F3550000F3550000F3550000F35500007F
:105110006D510000355400006D510000F355000042
:10512000F9530000F3550000F35500006D510000E5
:10513000F3550000F3550000F3550000F35500004F
:10514000F35500006D51000093550000F355000029
:10515000F3550000BD540000F35500006D510000F0
:10516000F3550000F35500006D5100003B681B78BB
:10517000782B03D03B681B78582B02D110233B645B
:1051800013E03B681B786F2B02D108233B640CE0D3
:105190003B681B78622B02D102233B6405E00A23A3
:1051A0003B647B6D23F010037B653B681B78582BB9
:1051B00003D17B6D43F020037B653B681B78692B33
:1051C00007D03B681B78642B03D07B6D23F00C0366
:1051D0007B657B6D03F48063002B03D07B6D23F034
:1051E00001037B653B681B78692B04D03B681B7807
:1051F000642B40F08D807B6D03F40073002B2ED068
:10520000BB6E073323F0070303F10802BA66D3E944
:105210000034C7E90434D7E90434002B74F10002E8
:1052200002DA5B4264EB4404194622467B69DB0FD9
:10523000D8B23B6C4FF000047D6D08953D6D07952D
:10524000FD6C0695CDE904340290CDE900127B682F
:105250007A6CB968F868FFF7F0FA7864C8E07B6D9B
:1052600003F48073002B1ED0BB6E1A1DBA661B6838
:10527000FB61FB69002BB8BF5B421946FB69DB0F82
:10528000DBB27A6D05923A6D0492FA6C03923A6C35
:105290000292019300917B687A6CB968F868FFF715
:1052A00064FA7864A4E07B6D03F04003002B05D022
:1052B000BB6E1A1DBA661B68DBB20EE07B6D03F095
:1052C0008003002B05D0BB6E1A1DBA661B681BB28B
:1052D00003E0BB6E1A1DBA661B683B623B6A002B7B
:1052E000B8BF5B4219463B6ADB0FDBB27A6D0592B1
:1052F0003A6D0492FA6C03923A6C02920193009117
:105300007B687A6CB968F868FFF72FFA78646FE009
:105310007B6D03F40073002B20D0BB6E073323F0AA
:10532000070303F10802BA66D3E900343A6C114668
:105330004FF00002786D0890386D0790F86C069079
:10534000CDE9041200220292CDE900347B687A6C28
:10535000B968F868FFF771FA786449E07B6D03F487
:105360008073002B16D0BB6E1A1DBA661B687A6D4F
:1053700005923A6D0492FA6C03923A6C0292002202
:10538000019200937B687A6CB968F868FFF7EDF9D1
:1053900078642DE07B6D03F04003002B05D0BB6EDD
:1053A0001A1DBA661B68DBB20EE07B6D03F080034A
:1053B000002B05D0BB6E1A1DBA661B689BB203E0BA
:1053C000BB6E1A1DBA661B687B627B6D05933B6DD5
:1053D0000493FB6C03933B6C0293002301937B6A61
:1053E00000937B687A6CB968F868FFF7BEF9786457
:1053F0003B6801333B6009E1BB6E073323F00703D1
:1054000003F10802BA6693ED007B7B6D02933B6D5E
:105410000193FB6C0093B0EE470AF0EE670A7B68DD
:105420007A6CB968F868FFF779FA78643B680133F9
:105430003B60EBE00123FB637B6D03F00203002B79
:1054400013D1FB6B5A1CFA633A6D9A428CBF01234D
:105450000023DBB2002B08D07A6C531C7B64FC6801
:105460007B68B9682020A047EBE7BB6E1A1DBA66BF
:105470001B68D8B27A6C531C7B64FC687B68B96883
:10548000A0477B6D03F00203002B13D0FB6B5A1C6B
:10549000FA633A6D9A428CBF01230023DBB2002BE2
:1054A00008D07A6C531C7B64FC687B68B968202048
:1054B000A047EBE73B6801333B60A7E0BB6E1A1DDA
:1054C000BA661B68BB63B86BFEF7DFFF78637B6D62
:1054D00003F48063002B07D07A6BFB6C9A4201D2F5
:1054E0007B6B00E0FB6C7B637B6D03F00203002BA6
:1054F00013D17B6B5A1C7A633A6D9A428CBF01239D
:105500000023DBB2002B08D07A6C531C7B64FC6850
:105510007B68B9682020A047EBE7BB6B1B78002BAA
:105520000BD07B6D03F48063002B04D0FB6C5A1E00
:10553000FA64002B01D0012300E00023002B0BD0E4
:10554000BB6B5A1CBA6318787A6C531C7B64FC687A
:105550007B68B968A047E0E77B6D03F00203002B8E
:1055600013D07B6B5A1C7A633A6D9A428CBF01232D
:105570000023DBB2002B08D07A6C531C7B64FC68E0
:105580007B68B9682020A047EBE73B6801333B60AC
:105590003CE008233B657B6D43F021037B650023E2
:1055A00087F82B30BB6E1A1DBA661B681A467B6DD6
:1055B00005933B6D0493FB6C03931023029300232C
:1055C000019300927B687A6CB968F868FFF7CDF8B0
:1055D00078643B6801333B6018E07A6C531C7B6451
:1055E000FC687B68B9682520A0473B6801333B60B5
:1055F0000CE03B6818787A6C531C7B64FC687B6811
:10560000B968A0473B6801333B6000BFFFF7B6BBFA
:105610007A6C7B689A4202D37B685A1E00E07A6CEF
:10562000FC687B68B9680020A0477B6C1846583737
:10563000BD46B0BD0FB480B586B002AF07F11C0304
:10564000BB60391DBB680093BB694FF0FF32064851
:10565000FFF786FBF860FB6818461037BD46BDE8CB
:10566000804004B0704700BF6544000080B483B040
:1056700000AF78600C4B1B68DA680B4B1B6842F07C
:105680008072DA60094B1B6800225A60074B1B6866
:105690001A68064B1B6842F001021A6000BF0C3703
:1056A000BD465DF8047B7047600000105C00001090
:1056B00080B483B000AF7860044B1B685B68184609
:1056C0000C37BD465DF8047B704700BF5C000010DE
:1056D00080B400AFDFF81C00016841F47001016084
:1056E000BFF34F8FBFF36F8F00BFBD465DF8047BE4
:1056F0007047000088ED00E080B586B000AF7860AC
:10570000786800F007F8F0EE407AB0EE670A1837D4
:10571000BD4680BD80B485B000AFF86039723A7183
:105720003B70FB681B6807EE903AB0EE670A1437CF
:10573000BD465DF8047B704780B52DED028B82B0CD
:1057400000AF786039607B6893ED008A3B6818464B
:10575000FFF7D2FFF0EE407AB4EEE78AF1EE10FAEE
:1057600094BF01230023DBB218460837BD46BDECC9
:10577000028B80BD80B483B000AF7860044A7B6840
:10578000136000BF0C37BD465DF8047B704700BF57
:105790000000001080B582B000AF094B1B685B6849
:1057A000DBB27B60074A7B681360074A7B6852F86C
:1057B00023303B603B68984700BF0837BD4680BD3B
:1057C00064000010040000100401001080B483B0D5
:1057D00000AF7860044A7B681A607B6818460C3713
:1057E000BD465DF8047B70472891000080B584B009
:1057F00000AFF860B9607A60FB681846FFF7E6FF13
:10580000064AFB681A60FB68BA685A60FB687A68E7
:105810009A60FB6818461037BD4680BD14910000A1
:1058200080B582B000AF78607B68184600F004F85D
:1058300078680837BD4680BD80B582B000AF78601B
:1058400003497868FCF730F878680837BD4680BDB2
:10585000C890000080B584B000AF07F10803184677
:10586000FFF7DEFF07F108023B4611461846FDF739
:10587000E1FC3B461946074800F09AF9064B1B68C5
:10588000002B02D0044B1B68984700BF1037BD4661
:1058900080BD00BF00040010F803001090B482B077
:1058A00000AF78607A68054BD3E90034C2E9003470
:1058B00078680837BD4690BC704700BF00040010F0
:1058C00080B483B000AF78603960044A3B681360ED
:1058D00000BF0C37BD465DF8047B7047F80300102D
:1058E000F0B58BB002AF78600423FB611F4B1B68DF
:1058F0005B68002B14BF01230023DBB2002B30D0E8
:105900001A4B1B6800229A60184B1B681A68174BC9
:105910001B6842F002021A60144B1B681A68134B92
:105920001B6842F001021A60104B1B681A680F4B8B
:105930001B6842F004021A607B689E687B689B6863
:105940001B681D680A4B07F10C040FCB84E80F009D
:10595000BB69009307F10C030ECB3046A847002328
:10596000FB61FB6918462437BD46F0BD6800001096
:10597000D88C000080B584B000AF786039607B6857
:105980001846FBF7C2FDB0EE407A3B6807EE903A4E
:10599000F8EEE77A77EE677A07F10C03B0EE670A64
:1059A0001846FBF7FBFDFB6818461037BD4680BD67
:1059B00080B582B000AF78607868FDF7CBFE034613
:1059C00018460837BD4680BD90B589B000AF7860F5
:1059D00039604FF001004FF00001FAF715FD034662
:1059E000FB6007F10C023B4611461846FFF7A4FE88
:1059F0000346002B02D04FF0FF3341E07B685A682A
:105A00007B685B681B680C331B681046984703462D
:105A1000BB603A4607F1080311461846FCF782FFBF
:105A200003467B6107F1140301211846FFF7A2FF2B
:105A300003463B6107F110031846FFF7B9FFF86111
:105A400007F108031846FCF749FC04463B46184694
:105A5000FCF744FC0346B4FBF3F203FB02F3E31A46
:105A6000BB61FB69B3F1807F05D36FF07F43FB61BE
:105A70006FF07F43BB61044B1B68FA695A60BB69D6
:105A800018462437BD4690BD6800001080B582B02E
:105A900000AF786039603A6879680448FCF702FE24
:105AA0003B6818460837BD4680BD00BF0C04001097
:105AB00090B587B002AF7860396007F108031846E7
:105AC000FDF73FFBD7E90234CDE900343A68796845
:105AD0000348FCF739FE3B6818461437BD4690BDB5
