:1000000000000110592A0000B1400000312A000010
:10001000B1400000B1400000B1400000000000000D
:10002000000000000000000000000000B1460000D9
:10003000B140000000000000E1460000B1400000B7
:10004000B1400000B1400000B1400000B1400000EC
:10005000B1400000B1400000B1400000B1400000DC
:10006000B1400000B1400000B1400000B1400000CC
:10007000B1400000B1400000B1400000B1400000BC
:10008000B1400000B1400000B1400000B1400000AC
:10009000B1400000B1400000B1400000B14000009C
:1000A000B1400000B1400000B1400000B14000008C
:1000B000B1400000B1400000B1400000B14000007C
:1000C000B1400000B1400000B1400000B14000006C
:1000D000B1400000B1400000B1400000B14000005C
:1000E000B14000002474000000000010D80000009F
:1000F000247400000000002000000000D800001060
:10010000500200000000002000000000FFFFFFFF81
:10011000FFFFFFFFFFFFFFFFFFFFFFFFFFFFFFFFEF
:10012000FFFFFFFFFFFFFFFFFFFFFFFFFFFFFFFFDF
:10013000FFFFFFFFFFFFFFFFFFFFFFFFFFFFFFFFCF
:10014000FFFFFFFFFFFFFFFFFFFFFFFFFFFFFFFFBF
:10015000FFFFFFFFFFFFFFFFFFFFFFFFFFFFFFFFAF
:10016000FFFFFFFFFFFFFFFFFFFFFFFFFFFFFFFF9F
:10017000FFFFFFFFFFFFFFFFFFFFFFFFFFFFFFFF8F
:10018000FFFFFFFFFFFFFFFFFFFFFFFFFFFFFFFF7F
:10019000FFFFFFFFFFFFFFFFFFFFFFFFFFFFFFFF6F
:1001A000FFFFFFFFFFFFFFFFFFFFFFFFFFFFFFFF5F
:1001B000FFFFFFFFFFFFFFFFFFFFFFFFFFFFFFFF4F
:1001C000FFFFFFFFFFFFFFFFFFFFFFFFFFFFFFFF3F
:1001D000FFFFFFFFFFFFFFFFFFFFFFFFFFFFFFFF2F
:1001E000FFFFFFFFFFFFFFFFFFFFFFFFFFFFFFFF1F
:1001F000FFFFFFFFFFFFFFFFFFFFFFFFFFFFFFFF0F
:10020000FFFFFFFFFFFFFFFFFFFFFFFFFFFFFFFFFE
:10021000FFFFFFFFFFFFFFFFFFFFFFFFFFFFFFFFEE
:10022000FFFFFFFFFFFFFFFFFFFFFFFFFFFFFFFFDE
:10023000FFFFFFFFFFFFFFFFFFFFFFFFFFFFFFFFCE
:10024000FFFFFFFFFFFFFFFFFFFFFFFFFFFFFFFFBE
:10025000FFFFFFFFFFFFFFFFFFFFFFFFFFFFFFFFAE
:10026000FFFFFFFFFFFFFFFFFFFFFFFFFFFFFFFF9E
:10027000FFFFFFFFFFFFFFFFFFFFFFFFFFFFFFFF8E
:10028000FFFFFFFFFFFFFFFFFFFFFFFFFFFFFFFF7E
:10029000FFFFFFFFFFFFFFFFFFFFFFFFFFFFFFFF6E
:1002A000FFFFFFFFFFFFFFFFFFFFFFFFFFFFFFFF5E
:1002B000FFFFFFFFFFFFFFFFFFFFFFFFFFFFFFFF4E
:1002C000FFFFFFFFFFFFFFFFFFFFFFFFFFFFFFFF3E
:1002D000FFFFFFFFFFFFFFFFFFFFFFFFFFFFFFFF2E
:1002E000FFFFFFFFFFFFFFFFFFFFFFFFFFFFFFFF1E
:1002F000FFFFFFFFFFFFFFFFFFFFFFFFFFFFFFFF0E
:10030000F8B500BFF8BC08BC9E4670474D0300001E
:1003100089280000F12A0000A1460000F8B500BFBE
:10032000F8BC08BC9E46704710B5054C237833B91D
:10033000044B13B10448AFF300800123237010BDB8
:10034000D8000010000000006C73000008B5034BDB
:100350001BB103490348AFF3008008BD0000000053
:10036000DC0000106C73000090B400AF4FF0FF335E
:100370006FF0004418462146BD4690BC704780B5DA
:1003800084B000AFC7E90001D7E9000104F010FD17
:10039000024607F10C0300EE102A184600F005F89B
:1003A000FB6818461037BD4680BD80B582B000AFEF
:1003B000786087ED000A7B683A461146184600F0DF
:1003C00005F87B6818460837BD4680BD80B483B009
:1003D00000AF786039603B681A687B681A607B6898
:1003E00018460C37BD465DF8047B704780B586B073
:1003F00000AF7860786800F007F8F0EE407AB0EE71
:10040000670A1837BD4680BD80B485B000AFF8607C
:1004100039723A713B70FB681B6807EE903AB0EE98
:10042000670A1437BD465DF8047B704780B582B01B
:1004300000AF786087ED000A7B683A46114618469F
:10044000FFF7C4FF7B6818460837BD4680BD80B5FE
:1004500086B000AF7860786800F007F8F0EE407A78
:10046000B0EE670A1837BD4680BD80B485B000AFD6
:10047000F86039723A713B70FB681B6807EE903A7E
:10048000B0EE670A1437BD465DF8047B704780B54F
:1004900086B002AF786039603A6807F10C030093C8
:1004A00000230021786805F00FF8FB681846103724
:1004B000BD4680BD80B485B000AF78600A4BFB605C
:1004C0007B68002B02D0012B03D005E0074BFB60BB
:1004D00002E0074BFB6000BFFB6818461437BD46BF
:1004E0005DF8047B704700BF686100007061000028
:1004F0007C61000080B584B000AF786039603B68F3
:10050000FB600F217868FFF7C2FF034623F0010369
:10051000BB60FB681968BB68043B1A46064803F0D9
:1005200089FCFB681B685A1CFB681A60002318468C
:100530001037BD4680BD00BF8861000080B584B023
:1005400000AF786039603B68FB600F217868FFF787
:100550009EFF034623F00103BB60BB68043B1946C2
:10056000064803F067FCFB681B685A1CFB681A60AE
:10057000002318461037BD4680BD00BF98610000BB
:1005800080B584B000AF03463960FB710023FB6087
:1005900007F10C0319461A4805F088FB3B68002B4D
:1005A00005D0FB683A681946164803F043FCFB790E
:1005B000002B20D0144803F03DFC144803F03AFC13
:1005C0000020FFF777FF03461946114803F032FC7D
:1005D00007F10C0319460F4805F068FB3B68002B38
:1005E00003D039680C4803F025FC0C4803F022FCCA
:1005F0000B4802F003FB00BF1037BD4680BD00BFB3
:10060000F5040000A0610000AC610000E46100009E
:10061000F06100003D0500000C6200001462000063
:100620001C62000090B482B000AF786039603B6813
:10063000D3E900347A68C2E900347B681846083789
:10064000BD4690BC7047FFFF80B582B000AF7860B8
:100650007B6800220349184601F0E0FC78680837FF
:10066000BD4680BDF800001080B483B000AF786054
:10067000002318460C37BD465DF8047B704780B5F3
:1006800000AF0020FFF7F0FF0346184680BDFFFFD4
:1006900090B593B000AFC7E90201D7E90234C7E9CA
:1006A000063487F8242007F13803184601F0DAFCF5
:1006B00007F1380207F118031146184601F0E6FC6D
:1006C0000346002B04D0D7E90634C7E9043411E00F
:1006D000194B1B6807F13002104698473B4607F15B
:1006E000180207F13001184601F07AFED7E900340C
:1006F000C7E9043401237B640F4B1B6807F1280210
:100700001046984707F1100207F1280311461846D2
:1007100001F093FE0346002B09D007F1240318468D
:10072000FFF7A2FF0346002BE6D000237B647B6C1F
:1007300018464C37BD4690BD0000001080B582B011
:1007400000AFC7E90001D7E90001FFF7A1FF00BF33
:100750000837BD4680BD80B483B000AF78607B6849
:100760001B7918460C37BD465DF8047B704780B492
:1007700083B000AF78607B685B7918460C37BD4664
:100780005DF8047B7047FFFF80B483B000AF7860F2
:100790007B6803F01F0207497B685B09012000FAB0
:1007A00002F2203341F8232000BF0C37BD465DF82C
:1007B000047B704700E100E080B582B000AF786054
:1007C0000B46FB70084BF9781A785B781B021A43CA
:1007D000002362F30F031A46786800F059F800BF4F
:1007E0000837BD4680BD00BFC866000080B582B036
:1007F00000AF78600B46FB70084BF9781A785B788D
:100800001B021A43002362F30F031A46786800F0B4
:100810003FF800BF0837BD4680BD00BFCC66000072
:1008200080B582B000AF78600B46FB70FB7883F038
:100830000103DBB21946084B1A785B781B021A4396
:10084000002362F30F031A46786800F021F800BF16
:100850000837BD4680BD00BFD066000080B582B0BD
:1008600000AF78600B46FB70F978084B1A785B781C
:100870001B021A43002362F30F031A46786800F044
:1008800007F800BF0837BD4680BD00BFD466000032
:10089000F0B587B000AFF8600B46BA80FB72FB681A
:1008A0003B61194B1C683B691846FFF754FF034630
:1008B0001D463B691846FFF75AFF03461A466B016F
:1008C00013449B0023441B68F97A7A68184601F0A8
:1008D00004FC0546FB687B610B4B1C687B69184672
:1008E000FFF739FF03461E467B691846FFF73FFFB7
:1008F00003461A46730113449B0023441D6000BF46
:100900001C37BD46F0BD00BF0001001080B400AF31
:1009100000BFBD465DF8047B7047FFFF80B582B025
:1009200002AF094B1B6800931D23084A0849094878
:1009300003F080FA044B1B68103B1846FFF724FFB6
:1009400000BFBD4680BD00BF04000010E06900008C
:10095000D86600007062000080B483B000AF786099
:10096000402318460C37BD465DF8047B7047FFFFF7
:1009700080B584B000AF78607B6818464FF4807310
:100980001A46002105F097FB0023FB60FB680F2B44
:1009900008D87B68FA68114943F82210FB680133D4
:1009A000FB60F3E71023BB607868FFF7D5FF0246D2
:1009B000BB68934234BF01230023DBB2002B08D075
:1009C0007B68BA68064943F82210BB680133BB60F4
:1009D000EAE700BF78681037BD4680BD0D0900000A
:1009E0001D09000080B483B000AF78607B681B688D
:1009F00007EE903AB0EE670A0C37BD465DF8047B0F
:100A0000704780B582B000AF786087ED000A7B68E0
:100A10003A4611461846FFF7D9FC7B681846083756
:100A2000BD4680BD80B582B000AF7860786801F0C7
:100A3000A3FB034618460837BD4680BD90B482B07C
:100A400000AF78607B68D3E9003418462146083748
:100A5000BD4690BC704780B586B000AF7860396005
:100A60007B681B6808331B68396878689847786129
:100A70004FF00003FB607B69002B0FD07B681B6885
:100A80000C331B687868984703463B6107F11003F5
:100A90007969184601F08BFB0346FB60FB6818463A
:100AA0001837BD4680BD90B482B000AF7860396021
:100AB0003B68D3E900347A68C2E900347B681846A1
:100AC0000837BD4690BC704790B482B000AF7860E4
:100AD0007B68D3E90034184621460837BD4690BCF0
:100AE000704780B586B000AF7860786800F008F88D
:100AF000F0EE407AB0EE670A1837BD4680BDFFFFC2
:100B000080B485B000AFF86039723A713B70FB6811
:100B1000D3ED007A9FED057A67EE877AB0EE670A2B
:100B20001437BD465DF8047B704700BF002474494C
:100B300080B584B000AF786039600021786800F03B
:100B4000E3F84FF00C004FF00001FFF718FC0346EC
:100B5000BB6007F108023B461146184601F045FB11
:100B60000346002B0FD0164B3A681968786800F0DE
:100B7000BFFA0121786800F0EBF83B4619461148AE
:100B800001F051FB07E00021786800F0E1F80E4920
:100B90000C4801F048FB0121786800F00DFBFF23B1
:100BA0003B7307F10C0301221946786800F00EF838
:100BB0000021786800F03EFB00BF1037BD4680BDC5
:100BC000E866000008000010F066000080B584B000
:100BD00000AFF860B9601346FB71FB79042B0DD9A7
:100BE000B2230B4A0B490C4803F024F90B4802F0DE
:100BF00005F800210120FFF7C3FCFEE7084B1B6846
:100C0000FA79C3F8A82100BF1037BD4680BD00BFE8
:100C1000986800000C670000F0620000906300001C
:100C20004802001080B483B000AF78603960054B93
:100C30001B68D3F8A83118460C37BD465DF8047B15
:100C4000704700BF4802001080B483B000AF7860E6
:100C5000034B1B6818460C37BD465DF8047B704794
:100C60000800001080B485B000AF786039600B4B8D
:100C70001B68D3F8C4303A681278114601228A40C2
:100C80001340002B14BF01230023FB73FB7B18468A
:100C90001437BD465DF8047B704700BF4802001062
:100CA00090B583B000AF78603960094B1B68D3F80A
:100CB000C4203B681B781946054B1C68104601F0A0
:100CC00032FA0346C4F8C43000BF0C37BD4690BDAD
:100CD0004802001090B583B000AF78603960094BCE
:100CE0001B68D3F8C4203B681B781946054B1C6869
:100CF000104601F005FA0346C4F8C43000BF0C37B3
:100D0000BD4690BD4802001090B583B000AF78603A
:100D10000B467B800C4B1B68D3F80C0179880A4B7F
:100D20001C680A4B1A785B781B021A43002362F393
:100D30000F031A4601F08AFA0346C4F80C3100BFCB
:100D40000C37BD4690BD00BF48020010F46600009D
:100D500090B583B000AF78600B467B800C4B1B686E
:100D6000D3F8040179880A4B1C680A4B1A785B781F
:100D70001B021A43002362F30F031A4601F066FABE
:100D80000346C4F8043100BF0C37BD4690BD00BF18
:100D9000480200100067000090B583B000AF786093
:100DA0000B467B800C4B1B68D3F8080179880A4BF3
:100DB0001C680A4B1A785B781B021A43002362F303
:100DC0000F031A4601F042FA0346C4F8083100BF87
:100DD0000C37BD4690BD00BF4802001004670000FC
:100DE00090B583B000AF78600B467B800C4B1B68DE
:100DF000D3F8B40179880A4B1C680A4B1A785B78DF
:100E00001B021A43002362F30F031A4601F01EFA75
:100E10000346C4F8B43100BF0C37BD4690BD00BFD7
:100E2000480200100867000080B52DED028B82B0EB
:100E300000AF786039607B6893ED008A3B681846A4
:100E4000FFF7D4FAF0EE407AB4EEE78AF1EE10FA4A
:100E50004CBF01230023DBB218460837BD46BDEC6A
:100E6000028B80BD80B582B000AF7860786800F0FA
:100E700005F8034618460837BD4680BD80B582B0E8
:100E800000AF78607B681846FFF7ACFDF0EE407A63
:100E9000FCEEE77A17EE903A18460837BD4680BD5B
:100EA00080B52DED028B84B000AF786039607B682F
:100EB0001846FFF797FDB0EE408A3B681846FFF7EB
:100EC00091FDF0EE407AC7ED037A07F10C03184666
:100ED000FFF78CFAB0EE407AC8EE077A07F1080304
:100EE000B0EE670A1846FFF78CFDBB68184610374E
:100EF000BD46BDEC028B80BD80B584B000AF78608C
:100F000039607B681846FFF76DFDB0EE407A3B68AC
:100F100007EE903AF8EEE77A77EE277A07F10C03BE
:100F2000B0EE670A1846FFF76CFDFB6818461037ED
:100F3000BD4680BD80B582B000AF78607B68184642
:100F4000FFF750FDF0EE407AFCEEE77A17EE903AAC
:100F50009BB218460837BD4680BDFFFF90B58DB0E7
:100F600000AFF860B9607A604FF4C0704FF00001D4
:100F7000FFF705FA03463B6107F110023B1D1146DE
:100F80001846FFF751FF034683F00103DBB2002B45
:100F900014D14FF00C004FF00001FFF7F0F90346B9
:100FA0007B6107F114023B1D1146184601F01DF943
:100FB000034683F00103DBB2002B01D0012300E0E4
:100FC0000023002B0DD0F623434A4449444802F045
:100FD00031FF444801F012FE00210120FFF7D0FA52
:100FE000FEE7012387F82F303B1D1846FFF73AFF35
:100FF000044607F108031846FFF734FF0346B4FB25
:10100000F3F203FB02F3E31A002B14BF01230023C6
:10101000DBB2002B17D007F108023B1D1146184622
:10102000FFF73EFF0346FB6107F11C030121184651
:10103000FFF762FF0346BB6107F11803184601F092
:101040009BF8B8620EE007F108023B1D11461846F6
:10105000FFF726FF03463B6207F12003184601F025
:101060008BF8B8620123FB8497F82F30002B2DD02A
:1010700007F108031846FFF75DFF03461A46BB6AEF
:101080009BB212FB03F39BB2FA8C12FB03F39BB2ED
:101090005B00BB84BB8C9B2B03D9002387F82F30CC
:1010A000E2E7FB8C5B00FB84FB8C072BDCD94FF465
:1010B0008973094A0C490D4802F0BCFE094801F049
:1010C0009DFD00210120FFF75BFAFEE7BB6A184691
:1010D0003437BD4690BD00BF1C6900002467000086
:1010E000A8630000906300003C6700009864000063
:1010F00080B586B000AFF860B9607A600123FB82EA
:101100007A68B968F868FFF729FF38610021F86844
:10111000FFF7FAFD0021F868FFF71AFE0021F868D2
:10112000FFF73AFE0021F868FFF75AFE214B1B68D3
:10113000D3F8843023F01F013B695A1E1D4B1B68F6
:101140000A43C3F884201B4B1B68D3F8843023F078
:101150006002FB8A5B011946164B1B680A43C3F801
:101160008420144B1B68D3F88020124B1B6842F07C
:101170000102C3F880200F4B1B68AA22C3F88C2001
:101180000C4B1B685522C3F88C200A4B1B68D3F804
:1011900088300A21184600F0D8FF034683F0010387
:1011A000DBB2002B01D000BFEFE700BF1837BD4610
:1011B00080BD00BF4802001090B583B000AF7860DA
:1011C0000B46FB70FB781F2B0ED94FF4A973134A03
:1011D0001349144802F02EFE134801F00FFD0021C0
:1011E0000120FFF7CDF9FEE7104B1B68D3F804018F
:1011F0000E4B1C680E4BF9781A785B781B021A4369
:10120000002362F30F031A4600F067FF0346C4F899
:10121000043100BF0C37BD4690BD00BF9869000087
:101220005467000040650000906300004802001011
:10123000FC66000090B583B000AF78600B46FB7091
:101240000C4B1B68D3F80001F9780A4B1C680A4B59
:101250001A785B781B021A43002362F30F031A46C5
:1012600000F0F4FF0346C4F8003100BF0C37BD4660
:1012700090BD00BF48020010F866000080B400AFC7
:10128000024B1846BD465DF8047B70470C00001009
:1012900080B582B000AF78600B46FB707B681B683E
:1012A00008331B68F91C01227868984700BF08378B
:1012B000BD4680BD80B489B000AF786087ED000A7C
:1012C0007B6800221A607B6800225A607B680122DA
:1012D0009A600023FB770023BB61BB690E2B4FDCB8
:1012E000FB7F002B4CD1BB6901337B617B690E2BEB
:1012F00042DCFB7F002B3FD1BB6907EE903AF8EE52
:10130000E77AC7ED047A7B6907EE903AF8EEE77A60
:10131000C7ED037AD7ED046A97ED037AC6EE877AB4
:10132000B7EE007A77EE877AC7ED027AD7ED027AC8
:101330009FED177A77EE877A97ED007AB4EEE77A29
:10134000F1EE10FA14D8D7ED027A9FED117A77EE0C
:10135000C77A97ED007AB4EEE77AF1EE10FA07DB80
:10136000BA697B685A607A697B689A600123FB7767
:101370007B6901337B61B9E7BB690133BB61ACE7D2
:1013800000BF78682437BD465DF8047B704700BF16
:10139000CDCC4C3D80B487B000AF87ED030AC7EDDC
:1013A000020A78607B6807EE903AF8EE677AC7ED3C
:1013B000057AD7ED037AB3EE007A27EE877AD7ED78
:1013C000027A67EE277A97ED057AC7EE276AF0EE84
:1013D000667AB0EE670A1C37BD465DF8047B70473D
:1013E00080B487B000AF87ED030AC7ED020A7860CA
:1013F0007B6807EE903AF8EE677AC7ED057AD7ED8D
:10140000037AB3EE007A27EE877AD7ED027A67EE99
:10141000277A97ED057AC7EE276AF0EE667AB0EE86
:10142000670A1C37BD465DF8047B704780B483B003
:1014300000AF87ED010AD7ED017AB6EE007A77EEBC
:10144000877AFDEEE77AF8EEE77AB0EE670A0C37B6
:10145000BD465DF8047B704780B586B000AF87ED70
:10146000010A0023FB7597ED010AFFF7DFFF87ED07
:10147000040A97ED017AD7ED047A77EE677AC7ED23
:10148000037AD7ED037A9FED0B7AF4EEC77AF1EE8B
:1014900010FA0ADBD7ED037A9FED077AF4EEC77AEC
:1014A000F1EE10FA01D80123FB75FB7D18461837C1
:1014B000BD4680BDCDCC4CBDCDCC4C3D80B582B0C1
:1014C00000AF7860786800F005F8034618460837E2
:1014D000BD4680BD80B582B000AF78607B6818469D
:1014E000FFF780FAF0EE407AFCEEE77A17EE903ADA
:1014F00018460837BD4680BD90B591B000AFF86181
:10150000B9617A6107F114031846FFF7D7FFB86293
:101510000023FB63FB6900221A60FB6900225A600A
:10152000FB6901229A60BB6907EE903AF8EE677A90
:10153000C7ED097A4FF00003BB634FF07F537B6325
:101540004FF07E533B634FF08043FB62FB6B042BF9
:1015500000F0BE80FB6B032B00F2B88001A252F8B2
:1015600023F000BF75150000CF1500002F160000F6
:101570009F160000B86AF7EE000A97ED090AFFF718
:1015800009FF87ED0E0AD7ED0E7AB7EE007AF4EE7A
:10159000C77AF1EE10FA05D5FB6900221A60042320
:1015A000FB6394E097ED0E0AFFF756FF0346002B0E
:1015B0000AD0D7ED0E7AFCEEE77A17EE902AFB6997
:1015C0001A600423FB6382E00123FB637FE0B86AB7
:1015D000D7ED0D0A97ED090AFFF7DCFEF0EE407A31
:1015E000B0EE670AFFF722FF87ED0E0AB86AD7ED63
:1015F0000E0A97ED090AFFF7F3FE87ED0D0AD7ED06
:101600000D7A9FED367AF4EEC77AF1EE10FA0BDB25
:10161000D7ED0D7A9FED327AF4EEC77AF1EE10FA3B
:1016200002D80323FB6352E00223FB634FE0D7EDB4
:101630000B7AB7EE007A77EE877AC7ED0B7AD7EDA3
:101640000C7AB2EE0E7AF4EEC77AF1EE10FA02DD01
:101650000423FB633BE0D7ED0B7AB2EE0E7AF4EE97
:10166000C77AF1EE10FA0FDDD7ED0C7AB7EE007AFB
:1016700077EE877AC7ED0C7AD7ED0C7AB7EE007A61
:1016800077EE877AC7ED0B7AD7ED0C6A97ED0B7A78
:10169000C6EE877AC7ED0D7A0123FB6317E0FC697C
:1016A0003B4697ED0D0A1846FFF704FE3B4693E8CC
:1016B000070084E80700D7ED0E7AFCEEE77A17EE14
:1016C000902AFB691A600423FB6300E000BF3DE73A
:1016D00000BFF8694437BD4690BD00BFCDCC8C3FFC
:1016E0003333F33F80B483B000AF7860044A7B6843
:1016F0001A607B6818460C37BD465DF8047B70475E
:101700003C68000080B584B000AFF860B9607A60D2
:10171000FB681846FFF7E6FF064AFB681A60FB689D
:10172000BA685A60FB687A689A60FB681846103796
:10173000BD4680BD2068000080B584B000AF7860F1
:1017400039600723FB737B6898687B689B681B681C
:1017500014331B687A685268043211469847396816
:10176000786800F049F87B685B68D8687B685B68DC
:10177000DB681B681B687A685268127CC2F3C2027D
:10178000D2B2114698477B685B6898687B685B6853
:101790009B681B681B687A685268127CC2F302025D
:1017A000D2B2114698477B685B68DA687B685B68F1
:1017B000DB681B6804331B680221104698477B686E
:1017C0005B689A687B685B689B681B6804331B686E
:1017D0000221104698477B685B681B681B7ADAB267
:1017E0007B685B681B6842F00702D2B21A72002362
:1017F00018461037BD4680BD80B586B000AF786012
:1018000039607B689A687B685B68043319461046C8
:10181000FFF721F9024607F1080339681846FFF778
:101820006BFE8023FB75BB681B0ABB75BB687B75B1
:101830003B69DBB21B01DAB2FB68DBB203F00F03DA
:10184000DBB213433B757B685B681B6880221A73AD
:101850007B685B681B68BA7D1A717B685B681B6874
:101860007A7D1A707B685B681B683A7D83F8282054
:101870007B685B681B6803221A73012318461837BC
:10188000BD4680BD80B586B000AFF860B9607A60B3
:1018900000237B617A697B689A4216D2BA687B69B9
:1018A0001A44FB685B681B6812781A70F86800F0CD
:1018B000B5F8034683F00103DBB2002B01D000BF73
:1018C000F4E77B6901337B61E4E700BF1837BD466D
:1018D00080BD90B583B000AF78607B681B68184608
:1018E00000F08AF80346002B10D07B681B685B6809
:1018F0001B681B78DCB27B685B6819687B68DA68F8
:101900001368581C10600B4422461A707B68DB6811
:101910001A687B689B689A4201D3012300E0002388
:1019200018460C37BD4690BD90B59DB000AF7861AC
:101930003961FA600023FB637B693B6407F11003A4
:101940007B64FB68BB6407F13C03FB64D7E920348C
:10195000C7E9083407F12C0407F140030FCB84E8F2
:101960000F0007F16003184600F07CFB07F16002EE
:1019700007F120031146184600F088FB0346002BB0
:1019800004D0D7E90834C7E9063411E0194B1B68C5
:1019900007F15802104698473B4607F1200207F12D
:1019A0005801184600F01CFDD7E90034C7E9063499
:1019B0000123FB660F4B1B6807F150021046984746
:1019C00007F1180207F150031146184600F035FDE3
:1019D0000346002B09D007F12C031846FFF779FFC7
:1019E0000346002BE6D00023FB66FB6E18467437D7
:1019F000BD4690BD0000001080B582B000AF786099
:101A00007B685B681B681B7DDBB20021184600F019
:101A10002FFC034618460837BD4680BD80B582B00E
:101A200000AF78607B685B681B681B7DDBB20521BB
:101A3000184600F01DFC034618460837BD4680BD19
:101A400090B583B000AF0346FB710B4B1B68186861
:101A5000094B1C68094BF9791A785B781B021A4309
:101A6000002362F30F031A4600F019FC03462360BB
:101A700000BF0C37BD4690BD4C020010A4670000AB
:101A800080B500AF084B1B681868084B1A785B7864
:101A90001B021A43002362F30F03194600F012FCE5
:101AA0000346184680BD00BF4C020010A46700002A
:101AB00080B483B000AF7860044A7B681A607B68AA
:101AC00018460C37BD465DF8047B70470C68000073
:101AD00080B584B000AFF860B9607A60FB681846E2
:101AE000FFF7E6FF064AFB681A60FB68BA685A60AF
:101AF000FB687A689A60FB6818461037BD4680BD5F
:101B0000F867000080B52DED028B84B000AF7860DF
:101B100039607B681846FEF765FFB0EE408A3B6887
:101B20001846FEF75FFFF0EE407AC7ED037A07F143
:101B30000C031846FEF78BFCB0EE407AC8EE077A2D
:101B400007F10803B0EE670A1846FEF75AFFBB68B4
:101B500018461037BD46BDEC028B80BD80B586B0FF
:101B600000AF78607B689A687B689B681B68143359
:101B70001B683C49104698477B685B6818687B681F
:101B80005B681B681B681B687A6852681279C2F32D
:101B9000C202D2B2114698477B685B681A687B68BC
:101BA0005B681B681B6804331B680021104698475C
:101BB0007B685B681A687B685B681B681B680C3312
:101BC0001B680121104698477B689B682549184689
:101BD000FEF741FF0346BB6007F1080322491846A0
:101BE000FFF790FF0346FB6007F10C031846FEF772
:101BF00019FF38611D4B1B681B687B611C4B1A78F1
:101C00005B781B021A43002362F30F0319467869BD
:101C100000F067FB7861174B1A785B781B021A4358
:101C2000002362F30F031A463969786900F00EFB4E
:101C30007861FFF725FF0346002B0AD07B685B68BD
:101C40001B79C3F30203DBB21946786900F06BFA23
:101C50007861064B1B687A691A60002318461837AA
:101C6000BD4680BDEC660000C86700004C02001055
:101C7000A8670000A067000080B584B000AF78605E
:101C8000786800F051F80E4B1B687A685268127938
:101C9000C2F30202D2B2043253F82200094B1A787E
:101CA0005B781B021A43002362F30F03194600F00E
:101CB00027FBF860FB6818461037BD4680BD00BFA3
:101CC0004C020010B067000080B483B000AF7860B1
:101CD0000C2318460C37BD465DF8047B7047FFFFA8
:101CE00080B582B000AF78600D4B1B687A6852688F
:101CF0001279C2F30202D2B2043253F82200094B25
:101D00001A785B781B021A43002362F30F0319460B
:101D100000F0D8FA034618460837BD4680BD00BF1C
:101D20004C020010B467000090B585B000AF786039
:101D3000FFF7A6FE0346002B13D0294B1B6818683B
:101D4000274B1C68274B1A785B781B021A43002329
:101D500062F30F031A46002100F0E3FA0346236002
:101D60003AE07B685B681B79C3F30203DBB21A4677
:101D700001239340FB601A4B1B681868184B1C68C2
:101D8000194B1A785B781B021A43002362F30F0386
:101D90001A46F96800F05AFA03462360104B1B6894
:101DA00018680F4B1C680F4B1A785B781B021A439C
:101DB000002362F30F031A46012100F0B2FA034632
:101DC00023607868FFF78CFF034683F00103DBB2E2
:101DD000002B01D000BFF4E700BF1437BD4690BD13
:101DE0004C020010AC6700009C67000080B582B018
:101DF00000AF78607B68184600F004F87868083710
:101E0000BD4680BD80B582B000AF78600349786878
:101E1000FEF749FE78680837BD4680BD6061000066
:101E200080B582B000AF786039607B683968184649
:101E300000F004F878680837BD4680BDF0B585B07D
:101E400000AF786039603868FEF73EFE05460E4602
:101E50002B4634464FF000014FF00002620142EA87
:101E6000D36259010B4614465B1B64EB06044FF02A
:101E700000014FF00002A20042EA937299000B4663
:101E800014465B1944EB06044FF000014FF00002CA
:101E9000E20042EA5372D9000B461446C7E9023405
:101EA00007F1080319467868FEF7BCFB7868143719
:101EB000BD46F0BD90B585B000AF7860396007F1E0
:101EC000080339681846FFF7ABFF07F10803184607
:101ED000FEF7B4FD03460C467A68C2E900347B681D
:101EE00018461437BD4690BD90B593B002AFFFF7CA
:101EF000C5F903461A4607F110033D491846FFF796
:101F000001FCFFF7BBF903461A463B1D3949184649
:101F1000FFF7DEFD3B1D1846FFF720FE0120FFF70F
:101F20008FFD1C23344A3549354801F083FF07F102
:101F300010034FF416411846FFF7FEFB1E232E4AEE
:101F40003049314801F076FF0023BB633B1D184642
:101F5000FFF792FEB863DFED2D0A9FED2D0A40F6E4
:101F6000FF720021B86B00F0EEF9F0EE407AC7ED99
:101F7000077A1823FB63FB6B002B11D0FA69FB6B0C
:101F800022FA03F387F8373097F8372007F1100368
:101F900011461846FFF77CF9FB6B083BFB63EAE749
:101FA000FB69DAB207F1100311461846FFF770F922
:101FB000FB69184602F08CFD03460C46CDE900345F
:101FC0002E230D4A1349144801F034FF07F128036A
:101FD0001846FFF70BFF07F1280207F1200311460F
:101FE0001846FFF767FFD7E90801FEF7A7FBADE743
:101FF00010000010C06700008C680000CC67000073
:10200000DC650000D86700002866000033335340C9
:1020100000000000E46700007466000090B587B01F
:1020200000AFF860B9607A60BB68D3E90034591C2E
:1020300044F10002B868C0E90012C7E9043407F1AE
:1020400010031946F868FEF7EDFAF8681C37BD462C
:1020500090BD98B500AFFEF787F903460C461846C9
:10206000214698BD90B585B000AF7860FFF7F1FFCD
:1020700003460C46C7E9023407F10803194678689D
:10208000FEF7D0FA78681437BD4690BDF0B587B03A
:1020900000AF786039607B68D3E90034C7E9023467
:1020A00007F108031846FEF7C9FC05460E463B68D3
:1020B000D3E90034C7E9043407F110031846FEF7EA
:1020C000BDFC03460C46A64206BF9D4201230023E9
:1020D000DBB218461C37BD46F0BD80B584B000AFFA
:1020E000F8600B46BA80FB723B791A467B79F97A25
:1020F000F86800F0CAF9034618461037BD4680BD9F
:1021000080B483B000AF7860396001223B6802FA86
:1021100003F3DB431A467B68134018460C37BD4671
:102120005DF8047B704780B483B000AF786039609D
:1021300001223B6802FA03F31A467B6813431846F0
:102140000C37BD465DF8047B704780B483B000AFA8
:102150007860396001223B6802FA03F31A467B6813
:102160001340002B14BF01230023DBB218460C37A9
:10217000BD465DF8047B704780B584B000AF7860E1
:102180007B681846FEF72EFCF0EE407AC7ED037A26
:1021900007F10C03184600F0A5F9F0EE407AFCEECA
:1021A000E77A17EE903A18461037BD4680BD80B5E5
:1021B00084B000AF786039607B681846FEF712FC87
:1021C000F0EE406A3B6807EE903AF8EE677A86EEEA
:1021D000A77A07F10C03B0EE470A1846FEF726F976
:1021E000FB6818461037BD4680BD80B52DED028BCB
:1021F00082B000AF786039607B6893ED008A3B68FD
:102200001846FEF7F3F8F0EE407AB4EEE78AF1EE06
:1022100010FACCBF01230023DBB218460837BD46B5
:10222000BDEC028B80BD80B582B000AF78603960B4
:102230003B681846FEF755FCF0EE407A7B68C3ED2C
:10224000007A7B6818460837BD4680BD80B584B0EB
:1022500000AFF860B960BA803B791A467B79B968FB
:10226000F86800F04DF9034618461037BD4680BDAA
:1022700080B483B000AF03463960FB71FA793B68E4
:1022800042FA03F303F00103002B14BF01230023E0
:10229000DBB218460C37BD465DF8047B704780B54D
:1022A00084B000AFF8600B46BA80FB723B791A46E7
:1022B0007B79F97AF86800F04FF903461846103731
:1022C000BD4680BD80B582B000AF786039803B7874
:1022D00019467868FFF739FF034618460837BD46A8
:1022E00080BD80B582B000AF786039803B781946F8
:1022F0007868FFF718FF034618460837BD4680BDCB
:1023000080B582B000AF786039803B7819467B7821
:102310001A46786800F04DF9034618460837BD465E
:1023200080BD80B584B000AFF860B960BA803B79F9
:102330001A467B79B968F86800F059F903461846DF
:102340001037BD4680BD80B48FB000AF7861396171
:10235000FA6087ED020AC7ED010A7B6907EE903A41
:10236000F8EE677AC7ED0D7A3B6907EE903AF8EE22
:10237000E77AC7ED0C7AFB6807EE903AF8EEE77A59
:10238000C7ED0B7ABB68BB627B687B6297ED097A0D
:10239000D7ED0A7A77EE676A97ED0B7AD7ED0C7A6C
:1023A00037EE677AC6EE877AC7ED087A97ED0D7A31
:1023B000D7ED0C7A37EE677AD7ED087A67EE277A91
:1023C00097ED0A7A77EE277AC7ED077AFB6907EE71
:1023D000903AB0EE670A3C37BD465DF8047B704723
:1023E000F0B58BB000AFF860B9607A60BB68D3E934
:1023F0000034C7E9063407F118031846FEF71EFB40
:1024000005460E467B68D3E90034C7E9083407F176
:1024100020031846FEF712FB0A4601464B1942EB11
:102420000604C7E9043407F110031946F868FEF7FB
:10243000F9F8F8682C37BD46F0BDF0B587B000AFAD
:10244000786039607B68D3E90034C7E9023407F16A
:1024500008031846FEF7F2FA05460E463B68D3E934
:102460000034C7E9043407F110031846FEF7E6FA12
:1024700003460C469D4276EB0403B4BF01230023C0
:10248000DBB218461C37BD46F0BD80B489B000AF42
:10249000F8607A603B600B46FB724FF0FF33FB61E4
:1024A0002023BB613B68C3F120034FF0FF3222FAC7
:1024B00003F37B617A697B6802FA03F3DB43FA6812
:1024C0001340FB60FA7A7B691A407B6802FA03F3D7
:1024D000FA681343FB60FB6818462437BD465DF875
:1024E000047B704780B586B000AF7860786800F0F4
:1024F000AAF8F0EE407AB0EE670A1837BD4680BD04
:1025000080B489B000AFF860B9607A603B604FF08A
:10251000FF33FB612023BB613B68C3F120034FF015
:10252000FF3222FA03F37B617A697B6802FA03F3D4
:10253000DB43FA681340FB60BA687B691A407B682A
:1025400002FA03F3FA681343FB60FB68184624376A
:10255000BD465DF8047B704780B489B000AFF86079
:102560007A603B600B46FB724FF0FF33FB61202328
:10257000BB613B68C3F120034FF0FF3222FA03F343
:102580007B617A697B6802FA03F3DB43FA681340E4
:10259000FB60FA7A7B691A407B6802FA03F3FA68F7
:1025A0001343FB60FB6818462437BD465DF8047B87
:1025B000704780B489B000AFF860B9607A604FF0BE
:1025C000FF33FB612023BB617B68C3F120034FF025
:1025D000FF3222FA03F37B61FA68BB68DA407B6959
:1025E000134018462437BD465DF8047B704780B41D
:1025F00089B000AFF860B9607A603B604FF0FF339C
:10260000FB612023BB613B68C3F120034FF0FF3225
:1026100022FA03F37B617A697B6802FA03F3DB43F6
:10262000FA681340FB60BA687B691A407B6802FA5B
:1026300003F3FA681343FB60FB6818462437BD4672
:102640005DF8047B704780B485B000AFF8603972E4
:102650003A713B70FB681B6807EE903AB0EE670A70
:102660001437BD465DF8047B7047FFFF80B582B02C
:1026700000AF786039607B68012B40F0B8803B6820
:102680004FF6FF72934240F0B2805B4B1B6803F041
:102690000103002B05D1584B01221A60574A584BB1
:1026A0001A60584B1B6803F00103002B06D1554BF1
:1026B00001221A60544B1846FEF75AF9534B1B6817
:1026C00003F00103002B14D1504B01221A60504A31
:1026D000504B1A60504A4F4B5A60504A4D4B9A60CB
:1026E0004F4A4C4BDA604F4A4A4B1A614E4A494BAB
:1026F0005A614E4B1B6803F00103002B22D14B4B58
:1027000001221A604A4B4B4A04321A60494A083285
:102710005A60484A0C329A60464A1032DA60454A9A
:1027200014321A611433434A24321A60414A28325F
:102730005A60404A2C329A603E4A3032DA603D4A52
:1027400034321A613C4B1B6803F00103002B06D1A5
:10275000394B01221A60374B1A46384B1A60384BF6
:102760001B6803F00103002B05D1354B01221A60D1
:10277000344A354B1A60354B1B6803F00103002BBC
:1027800005D1324B01221A60314A324B1A60324B6A
:102790001B6803F00103002B05D12F4B01221A60A7
:1027A0002E4A2F4B1A602F4B1B6803F00103002B9E
:1027B00005D12C4B01221A602B4A2C4B1A602C4B52
:1027C0001B6803F00103002B05D1294B01221A607D
:1027D000284A294B1A60294B1B6803F00103002B80
:1027E00005D1264B01221A60254A264B1A6000BFEC
:1027F0000837BD4680BD00BF5002001000C0024037
:1028000000010010540200100401001058020010D2
:102810000080092004020010208009204080092047
:102820006080092080800920A08009205C020010BF
:102830001C02001080800240600200104402001060
:102840006402001000C00F4048020010680200102F
:1028500000800940100000106C02001000C0094008
:10286000240000107002001000400A4038000010E0
:1028700074020010004003404C0200107802001067
:10288000008001404C00001080B500AF4FF6FF7192
:102890000120FFF7EBFE80BD80B487B000AF0023BE
:1028A0007B617A6913465B0013449B001F4A134403
:1028B0001F4A934233D21D497A6913465B00134481
:1028C0009B000B441B68FB6018497A6913465B0048
:1028D00013449B000B445B68BB6014497A69134640
:1028E0005B0013449B000B4408331B687B60002390
:1028F0003B613A697B689A420DD23B699B00FA685A
:102900001A443B699B00B9680B4412681A603B6922
:1029100001333B61EDE77B6901337B61C1E700BFB8
:102920001C37BD465DF8047B704700BFE400000023
:10293000FC00000080B485B000AF0023FB60FB68A2
:10294000DB00154A1344154A93421ED2124AFB6813
:1029500052F833307B60104AFB68DB0013445B683D
:102960003B600023BB60BA683B689A4209D2BB68EF
:102970009B007A68134400221A60BB680133BB6075
:10298000F1E7FB680133FB60D9E700BF1437BD46B0
:102990005DF8047B704700BFFC0000000C010000E4
:1029A00080B500AFFFF778FFFFF7C4FF03F054FBDB
:1029B00000BF80BD80B58CB002AF78607B681B68BB
:1029C0007B627B685B683B627B689B68FB617B68C2
:1029D000DB68BB617B681B697B617B685B693B6112
:1029E0007B689B69FB607B68DB69BB600D4801F01D
:1029F00021FA796A3A6AF869BB69009303460A4882
:102A000001F018FA79693A69F868BB6800930346DF
:102A1000064801F00FFAFB6819460120FDF7B0FDEA
:102A2000FEE700BFB86B0000E46B0000186C00000C
:102A300080B400AF1EF0040F0CBFEFF30880EFF37B
:102A400009808169004A1047B529000000BFBD46D2
:102A50005DF8047B7047FFFF80B584B000AF104B7A
:102A6000FB60FB683B603B6883F30988FB687B6025
:102A70007B6883F30888FFF793FF01F009FDFFF7F8
:102A800033FAB860BB68002B04DBB968054801F075
:102A9000D1F903E0B968044801F0CCF9FEE700BFC2
:102AA00000000110506C0000846C000080B582B002
:102AB00000AF786039607B68012B11D13B684FF61D
:102AC000FF7293420CD1084B1B6803F00103002BEB
:102AD00006D1054B01221A60044B1846FDF748FF4A
:102AE00000BF0837BD4680BD54020010040100102D
:102AF00080B500AF4FF6FF710120FFF7D7FF80BD13
:102B000080B584B000AF284B1B68002B03D0274B47
:102B100001221A6043E0254B00221A6001F0AEFC4E
:102B20000246234B1A60224B1A68224B1B689A42BA
:102B300009D9214B1B68596D1D4A10681D4A12683E
:102B4000821A0A445A651A4B1B681A4A13601B4BB7
:102B50001B687B607B68B3FA83F3FB70FB78C3F17F
:102B60001F03FB60FA6813469B0013449B00144A42
:102B70001344BB60BB685B685A68BB685A60BB683B
:102B80005A68BB6808339A4204D1BB685B685A68CC
:102B9000BB685A60BB685B68DB68074A136000BFAC
:102BA0001037BD4680BD00BFEC020010E8020010E7
:102BB000F4020010F00200107C020010E402001089
:102BC0008002001080B483B000AF786000BFFDE7E2
:102BD00080B400AF01231846BD465DF8047B704702
:102BE00080B483B000AF786039604FF0FF3318468F
:102BF0000C37BD465DF8047B7047FFFF80B584B09D
:102C000000AF7860786803F0A3FAF8600023BB6037
:102C10000B4B1B68F968786898470246BB681344F9
:102C2000BB60074B1B680121064898470246BB68FA
:102C30001344BB60BB6818461037BD4680BD00BF5B
:102C400054000010B86C000080B485B000AFB960CB
:102C50007A603B600346FB7300BF1437BD465DF8E6
:102C6000047B704780B584B000AFB9607A603B6088
:102C70000346FB73FB7B002B03D0FB7B184601F064
:102C80009BFD00BF1037BD4680BD80B485B000AF4E
:102C900078607B68FB60FB681B78002B03D0FB68C7
:102CA0000133FB60F7E7FA687B68D31A18461437DC
:102CB000BD465DF8047B704780B483B000AF034627
:102CC000FB71FB792F2B04D9FB79392B01D8012318
:102CD00000E0002318460C37BD465DF8047B7047C2
:102CE00080B584B000AF78600023FB607B681B6810
:102CF0001B781846FFF7E0FF0346002B0FD0FA6859
:102D000013469B0013445B0018467B681B68591CE4
:102D10007A6811601B780344303BFB60E6E7FB6890
:102D200018461037BD4680BD90B589B000AFF86039
:102D3000B9607A603B607B687B61BB6C03F0020327
:102D4000002B0ED17A6B3B6C9A420AD27B6B1F2B05
:102D500007D87B6B5A1C7A633A6B134430221A7083
:102D6000EBE7BB6C03F00203002B13D1BB6C03F049
:102D70000103002B0ED07A6B7B6C9A420AD27B6BDC
:102D80001F2B07D87B6B5A1C7A633A6B1344302293
:102D90001A70E6E7BB6C03F01003002B58D0BB6C35
:102DA00003F48063002B16D17B6B002B13D07A6B5E
:102DB0003B6C9A4203D07A6B7B6C9A420BD17B6B53
:102DC000013B7B637B6B002B05D0FB6B102B02D18F
:102DD0007B6B013B7B63FB6B102B0FD1BB6C03F058
:102DE0002003002B0AD17B6B1F2B07D87B6B5A1C4F
:102DF0007A633A6B134478221A701FE0FB6B102B36
:102E00000FD1BB6C03F02003002B0AD07B6B1F2B70
:102E100007D87B6B5A1C7A633A6B134458221A709A
:102E20000CE0FB6B022B09D17B6B1F2B06D87B6B55
:102E30005A1C7A633A6B134462221A707B6B1F2B05
:102E400006D87B6B5A1C7A633A6B134430221A7093
:102E50007B6B002B14D07A6B7B6C9A4210D197F865
:102E60003830002B09D1BB6C03F00403002B04D1D4
:102E7000BB6C03F00803002B02D07B6B013B7B6330
:102E80007B6B1F2B24D897F83830002B07D07B6B37
:102E90005A1C7A633A6B13442D221A7018E0BB6CEB
:102EA00003F00403002B07D07B6B5A1C7A633A6B48
:102EB00013442B221A700BE0BB6C03F00803002BA9
:102EC00006D07B6B5A1C7A633A6B134420221A702B
:102ED000BB6C03F00203002B16D1BB6C03F00103A3
:102EE000002B11D17B6BFB61FA697B6C9A420BD290
:102EF0007A68531C7B60FC683B68B9682020A04757
:102F0000FB690133FB61EFE70023BB61BA697B6BAF
:102F10009A4211D27A6BBB69D31A013B3A6B1344C4
:102F200018787A68531C7B60FC683B68B968A047D6
:102F3000BB690133BB61E9E7BB6C03F00203002B03
:102F40000ED07A687B69D31A7A6C9A4208D97A686B
:102F5000531C7B60FC683B68B9682020A047F0E701
:102F60007B6818462437BD4690BD80B596B008AF43
:102F7000F860B9607A603B6000237B633B6C002B98
:102F800003D17B6D23F010037B657B6D03F48063BD
:102F9000002B02D03B6C002B34D03B6CBA6CB3FBE3
:102FA000F2F2B96C01FB02F29B1A87F8333097F802
:102FB0003330092B04D897F833303033DAB20DE0D0
:102FC0007B6D03F02003002B01D0412200E0612241
:102FD00097F833301344DBB20A3BDAB27B6B591CEF
:102FE000796307F138010B4403F8282C3A6CBB6C69
:102FF000B2FBF3F33B643B6C002B03D07B6B1F2BCA
:1030000000D8CAE77B6D06933B6D0593FB6C049378
:10301000BB6C039397F8443002937B6B019307F1E9
:10302000100300933B687A68B968F868FFF77CFE84
:10303000034618463837BD4680BD90B597B008AFF7
:10304000F860B9607A603B6000237B63D7E9123493
:10305000234303D1BB6E23F01003BB66BB6E03F4A6
:103060008063002B03D0D7E9123423433AD0D7E949
:103070001201D7E9162301F0E1FE1C46134687F83A
:10308000333097F83330092B04D897F83330303386
:10309000DAB20DE0BB6E03F02003002B01D0412219
:1030A00000E0612297F833301344DBB20A3BDAB216
:1030B0007B6B591C796307F138010B4403F8282C0A
:1030C000D7E91623D7E9120101F0B8FE03460C46F2
:1030D000C7E91234D7E91234234303D07B6B1F2B8B
:1030E00000D8C4E7BB6DBA6E06927A6E05923A6E4E
:1030F0000492039397F8503002937B6B019307F18E
:10310000100300933B687A68B968F868FFF70CFE13
:10311000034618463C37BD4690BDFFFF90B59BB0B7
:1031200000AF78613961FA60BB6087ED000BFB6826
:103130007B64D7E9000101F023FD03467B66002391
:103140003B664FF000033B644FF09E43FB6300235C
:1031500087F85F30D7ED197AF5EEC07AF1EE10FA04
:103160000AD5012387F85F309FEDAB7AD7ED197A46
:1031700077EE677AC7ED197AD7F8803003F4806369
:10318000002B01D10623BB673B6E1F2B0FD8BB6FF3
:10319000092B0CD93B6E5A1C3A6607F1680213449E
:1031A000302203F8502CBB6F013BBB67ECE7D7ED37
:1031B000197AFDEEE77A17EE903ABB65BB6D07EE24
:1031C000903AF8EEE77A97ED197A37EE677A934AF4
:1031D000BB6F9B001344D3ED007A67EE277AC7EDEF
:1031E0000E7AD7ED0E7AFCEEE77A17EE903A7B6511
:1031F0007B6D07EE903AF8EE677A97ED0E7A77EEF0
:10320000677AC7ED107AD7ED107AB6EE007AF4EE51
:10321000C77AF1EE10FA18DD7B6D01337B657B6DAB
:1032200007EE903AB8EE677A7C4ABB6F9B00134476
:10323000D3ED007AB4EEE77AF1EE10FA19DB002351
:103240007B65BB6D0133BB6513E0D7ED107AB6EE3D
:10325000007AF4EE477AF1EE10FA0AD17B6D002B7A
:1032600004D07B6D03F00103002B02D07B6D013392
:103270007B65D7ED197A9FED6A7AF4EEC77AF1EEA5
:1032800010FA01DD002366E1BB6F002B29D1BB6D75
:1032900007EE903AF8EEE77A97ED197A77EE677ACB
:1032A000C7ED107AD7ED107AB6EE007AF4EEC77A51
:1032B000F1EE10FA03DDBB6D0133BB6562E0D7EDC3
:1032C000107AB6EE007AF4EE477AF1EE10FA59D1A0
:1032D000BB6D03F00103002B54D0BB6D0133BB6504
:1032E00050E0BB6F3B653B6E1F2B28D83B6D013B0D
:1032F0003B65796D4B4BA3FB0123DA0813469B001A
:1033000013445B00CA1AD3B23033D9B23B6E5A1C95
:103310003A6607F1680213440A4603F8502C7B6DA5
:10332000404AA2FB0323DB087B657B6D002B0CBFAF
:1033300001230023DBB2002B00D1D4E700BF3B6E9A
:103340001F2B06D83B6D5A1E3A65002B01D0012376
:1033500000E00023002B09D03B6E5A1C3A6607F1AF
:1033600068021344302203F8502CE8E73B6E1F2B11
:1033700008D83B6E5A1C3A6607F1680213442E22A5
:1033800003F8502C3B6E1F2B29D8BA6D264B83FBBC
:1033900002139910D317C91A0B469B000B445B000C
:1033A000D11ACBB23033D9B23B6E5A1C3A6607F110
:1033B000680213440A4603F8502CBB6D1A4A82FB7C
:1033C00003129210DB17D31ABB65BB6D002B0CBF29
:1033D00001230023DBB2002B00D1D3E700BFD7F8D5
:1033E000803003F00203002B20D1D7F8803003F0A7
:1033F0000103002B1AD03A6EFB6F9A4216D23B6E35
:103400001F2B13D83B6E5A1C3A6607F1680213440F
:10341000302203F8502CE2E700000000BC6C0000F2
:103420000000004FCDCCCCCC676666663A6EFB6F71
:103430009A4212D197F85F30002B0BD1D7F8803029
:1034400003F00403002B05D1D7F8803003F0080304
:10345000002B02D03B6E013B3B663B6E1F2B2CD8F2
:1034600097F85F30002B09D03B6E5A1C3A6607F183
:10347000680213442D2203F8502C1EE0D7F8803048
:1034800003F00403002B09D03B6E5A1C3A6607F187
:10349000680213442B2203F8502C0EE0D7F880303A
:1034A00003F00803002B08D03B6E5A1C3A6607F164
:1034B00068021344202203F8502CD7F8803003F020
:1034C0000203002B17D1D7F8803003F00103002B43
:1034D00011D13B6EFB64FA6CFB6F9A420BD2FA6817
:1034E000531CFB607C69BB6839692020A047FB6CDA
:1034F0000133FB64EFE70023BB64BA6C3B6E9A4276
:1035000013D23A6EBB6CD31A013B07F16802134425
:1035100013F8500CFA68531CFB607C69BB6839696E
:10352000A047BB6C0133BB64E7E7D7F8803003F0FA
:103530000203002B0ED0FA687B6CD31AFA6F9A4202
:1035400008D9FA68531CFB607C69BB683969202084
:10355000A047F0E7FB6818466C37BD4690BD00BF3A
:10356000B0B5A0B00AAFF860B9607A603B600023E4
:103570007B64BB68002B01D1A24BFB603B681B78CE
:10358000002B00F045843B681B78252B0DD03B6851
:1035900018787A6C531C7B64FC687B68B968A04718
:1035A0003B6801333B6000F031BC3B6801333B605A
:1035B00000237B653B681B78203B102B56D801A26B
:1035C00052F823F0453600006D3600006D360000DD
:1035D000593600006D3600006D3600006D36000073
:1035E0006D3600006D3600006D3600006D3600004F
:1035F000313600006D3600001D3600006D360000CB
:103600006D360000093600007B6D43F001037B65D9
:103610003B6801333B600123BB642AE07B6D43F0D0
:1036200002037B653B6801333B600123BB6420E000
:103630007B6D43F004037B653B6801333B600123F2
:10364000BB6416E07B6D43F008037B653B68013388
:103650003B600123BB640CE07B6D43F010037B6592
:103660003B6801333B600123BB6402E00023BB6481
:1036700000BFBB6C002B00D09CE700233B653B6880
:103680001B781846FFF718FB0346002B05D03B4676
:103690001846FFF725FB386518E03B681B782A2B96
:1036A00014D1BB6E1A1DBA661B683B633B6B002BC3
:1036B00007DA7B6D43F002037B653B6B5B423B6546
:1036C00001E03B6B3B653B6801333B600023FB64DF
:1036D0003B681B782E2B24D17B6D43F480637B6584
:1036E0003B6801333B603B681B781846FFF7E4FA00
:1036F0000346002B05D03B461846FFF7F1FAF86465
:103700000FE03B681B782A2B0BD1BB6E1A1DBA66E3
:103710001B68FB62FB6A23EAE373FB643B680133CB
:103720003B603B681B78683B122B67D801A252F8BC
:1037300023F000BFA7370000FD370000DD37000091
:10374000FD37000081370000FD370000FD37000025
:10375000FD370000FD370000FD370000FD37000099
:10376000FD370000CD370000FD370000FD370000B9
:10377000FD370000FD370000FD370000ED37000089
:103780007B6D43F480737B653B6801333B603B6832
:103790001B786C2B34D17B6D43F400737B653B68E5
:1037A00001333B602CE07B6D43F080037B653B681D
:1037B00001333B603B681B78682B25D17B6D43F060
:1037C00040037B653B6801333B601DE07B6D43F448
:1037D00080737B653B6801333B6016E07B6D43F48F
:1037E00000737B653B6801333B600EE07B6D43F407
:1037F00080737B653B6801333B6006E000BF04E0FB
:1038000000BF02E0492C000000BF3B681B78253B4D
:10381000532B00F2EE8201A252F823F0DB3D0000B0
:10382000F33D0000F33D0000F33D0000F33D0000D8
:10383000F33D0000F33D0000F33D0000F33D0000C8
:10384000F33D0000F33D0000F33D0000F33D0000B8
:10385000F33D0000F33D0000F33D0000F33D0000A8
:10386000F33D0000F33D0000F33D0000F33D000098
:10387000F33D0000F33D0000F33D0000F33D000088
:10388000F33D0000F33D0000F33D0000F33D000078
:10389000F33D0000F33D0000F33D0000F33D000068
:1038A000F93B0000F33D0000F33D0000F33D000054
:1038B000F33D0000F33D0000F33D0000F33D000048
:1038C000F33D0000F33D0000F33D0000F33D000038
:1038D000F33D0000F33D0000F33D0000F33D000028
:1038E000F33D0000F33D00006D390000F33D0000A2
:1038F000F33D0000F33D0000F33D0000F33D000008
:10390000F33D0000F33D0000F33D0000F33D0000F7
:103910006D390000353C00006D390000F33D0000BA
:10392000F93B0000F33D0000F33D00006D3900005D
:10393000F33D0000F33D0000F33D0000F33D0000C7
:10394000F33D00006D390000933D0000F33D0000A1
:10395000F33D0000BD3C0000F33D00006D39000068
:10396000F33D0000F33D00006D3900003B681B781B
:10397000782B03D03B681B78582B02D110233B6473
:1039800013E03B681B786F2B02D108233B640CE0EB
:103990003B681B78622B02D102233B6405E00A23BB
:1039A0003B647B6D23F010037B653B681B78582BD1
:1039B00003D17B6D43F020037B653B681B78692B4B
:1039C00007D03B681B78642B03D07B6D23F00C037E
:1039D0007B657B6D03F48063002B03D07B6D23F04C
:1039E00001037B653B681B78692B04D03B681B781F
:1039F000642B40F08D807B6D03F40073002B2ED080
:103A0000BB6E073323F0070303F10802BA66D3E95C
:103A10000034C7E90434D7E90434002B74F1000200
:103A200002DA5B4264EB4404194622467B69DB0FF1
:103A3000D8B23B6C4FF000047D6D08953D6D079545
:103A4000FD6C0695CDE904340290CDE900127B6847
:103A50007A6CB968F868FFF7F0FA7864C8E07B6DB3
:103A600003F48073002B1ED0BB6E1A1DBA661B6850
:103A7000FB61FB69002BB8BF5B421946FB69DB0F9A
:103A8000DBB27A6D05923A6D0492FA6C03923A6C4D
:103A90000292019300917B687A6CB968F868FFF72D
:103AA00064FA7864A4E07B6D03F04003002B05D03A
:103AB000BB6E1A1DBA661B68DBB20EE07B6D03F0AD
:103AC0008003002B05D0BB6E1A1DBA661B681BB2A3
:103AD00003E0BB6E1A1DBA661B683B623B6A002B93
:103AE000B8BF5B4219463B6ADB0FDBB27A6D0592C9
:103AF0003A6D0492FA6C03923A6C0292019300912F
:103B00007B687A6CB968F868FFF72FFA78646FE021
:103B10007B6D03F40073002B20D0BB6E073323F0C2
:103B2000070303F10802BA66D3E900343A6C114680
:103B30004FF00002786D0890386D0790F86C069091
:103B4000CDE9041200220292CDE900347B687A6C40
:103B5000B968F868FFF771FA786449E07B6D03F49F
:103B60008073002B16D0BB6E1A1DBA661B687A6D67
:103B700005923A6D0492FA6C03923A6C029200221A
:103B8000019200937B687A6CB968F868FFF7EDF9E9
:103B900078642DE07B6D03F04003002B05D0BB6EF5
:103BA0001A1DBA661B68DBB20EE07B6D03F0800362
:103BB000002B05D0BB6E1A1DBA661B689BB203E0D2
:103BC000BB6E1A1DBA661B687B627B6D05933B6DED
:103BD0000493FB6C03933B6C0293002301937B6A79
:103BE00000937B687A6CB968F868FFF7BEF978646F
:103BF0003B6801333B6009E1BB6E073323F00703E9
:103C000003F10802BA6693ED007B7B6D02933B6D76
:103C10000193FB6C0093B0EE470AF0EE670A7B68F5
:103C20007A6CB968F868FFF779FA78643B68013311
:103C30003B60EBE00123FB637B6D03F00203002B91
:103C400013D1FB6B5A1CFA633A6D9A428CBF012365
:103C50000023DBB2002B08D07A6C531C7B64FC6819
:103C60007B68B9682020A047EBE7BB6E1A1DBA66D7
:103C70001B68D8B27A6C531C7B64FC687B68B9689B
:103C8000A0477B6D03F00203002B13D0FB6B5A1C83
:103C9000FA633A6D9A428CBF01230023DBB2002BFA
:103CA00008D07A6C531C7B64FC687B68B968202060
:103CB000A047EBE73B6801333B60A7E0BB6E1A1DF2
:103CC000BA661B68BB63B86BFEF7DFFF78637B6D7A
:103CD00003F48063002B07D07A6BFB6C9A4201D20D
:103CE0007B6B00E0FB6C7B637B6D03F00203002BBE
:103CF00013D17B6B5A1C7A633A6D9A428CBF0123B5
:103D00000023DBB2002B08D07A6C531C7B64FC6868
:103D10007B68B9682020A047EBE7BB6B1B78002BC2
:103D20000BD07B6D03F48063002B04D0FB6C5A1E18
:103D3000FA64002B01D0012300E00023002B0BD0FC
:103D4000BB6B5A1CBA6318787A6C531C7B64FC6892
:103D50007B68B968A047E0E77B6D03F00203002BA6
:103D600013D07B6B5A1C7A633A6D9A428CBF012345
:103D70000023DBB2002B08D07A6C531C7B64FC68F8
:103D80007B68B9682020A047EBE73B6801333B60C4
:103D90003CE008233B657B6D43F021037B650023FA
:103DA00087F82B30BB6E1A1DBA661B681A467B6DEE
:103DB00005933B6D0493FB6C039310230293002344
:103DC000019300927B687A6CB968F868FFF7CDF8C8
:103DD00078643B6801333B6018E07A6C531C7B6469
:103DE000FC687B68B9682520A0473B6801333B60CD
:103DF0000CE03B6818787A6C531C7B64FC687B6829
:103E0000B968A0473B6801333B6000BFFFF7B6BB12
:103E10007A6C7B689A4202D37B685A1E00E07A6C07
:103E2000FC687B68B9680020A0477B6C184658374F
:103E3000BD46B0BD0FB480B586B002AF07F11C031C
:103E4000BB60391DBB680093BB694FF0FF32064869
:103E5000FFF786FBF860FB6818461037BD46BDE8E3
:103E6000804004B0704700BF652C000080B483B070
:103E700000AF78607B6803F01F0207497B685B092D
:103E8000012000FA02F241F8232000BF0C37BD46A2
:103E90005DF8047B704700BF00E100E080B483B0B0
:103EA00000AF78607B6803F01F0207497B685B09FD
:103EB000012000FA02F2203341F8232000BF0C3722
:103EC000BD465DF8047B704700E100E080B483B03C
:103ED00000AF786039607B68002B0BDA3B68DAB2A0
:103EE0000D497B6803F00F03043B5201D2B20B442F
:103EF0001A760AE03B68DBB2084A796808465B013B
:103F0000D9B213180A4683F8002300BF0C37BD4608
:103F10005DF8047B704700BF00ED00E000E100E0C9
:103F200080B483B000AF78600C4B1B68DA680B4B31
:103F30001B6842F08072DA60094B1B6800225A60ED
:103F4000074B1B681A68064B1B6842F001021A6097
:103F500000BF0C37BD465DF8047B70476000001061
:103F60005C00001080B483B000AF7860044B1B6825
:103F70005B6818460C37BD465DF8047B704700BF90
:103F80005C00001080B400AFDFF81C00016841F451
:103F900070010160BFF34F8FBFF36F8F00BFBD464D
:103FA0005DF8047B7047000088ED00E080B584B0C8
:103FB00000AFC7E90001D7E9000100F0F9FE0246B1
:103FC00007F10C0300EE102A1846FCF72FFAFB68E5
:103FD00018461037BD4680BD80B586B000AF78600A
:103FE000786800F007F8F0EE407AB0EE670A18370C
:103FF000BD4680BD80B485B000AFF86039723A71BB
:104000003B70FB681B6807EE903AB0EE670A143706
:10401000BD465DF8047B704780B52DED028B82B004
:1040200000AF786039607B6893ED008A3B68184682
:10403000FFF7D2FFF0EE407AB4EEE78AF1EE10FA25
:1040400094BF01230023DBB218460837BD46BDEC00
:10405000028B80BD80B483B000AF7860044A7B6877
:10406000136000BF0C37BD465DF8047B704700BF8E
:104070000000001080B483B000AF78607B6810331C
:1040800018460C37BD465DF8047B704780B582B09A
:1040900000AF78607868FFF7EDFF03469B00034AA6
:1040A000134418460837BD4680BD00BF0401001008
:1040B00080B582B000AF094B1B685B68DBB27B60E8
:1040C000074A7B681360074A7B6852F823303B60DD
:1040D0003B68984700BF0837BD4680BD64000010AC
:1040E000040000100401001084B090B585B000AF4A
:1040F000786007F1240080E80E007B6AFB60BC6AF0
:10410000F868FFF7C3FF03461C6097F82C30002BBC
:1041100005D0FB68002B02DBF868FFF7A7FE3B6BBE
:10412000002B04DB3B6B1946F868FFF7CFFE00BF9E
:104130001437BD46BDE8904004B0704780B582B0EA
:1041400000AF786039603868FFF7A8FE3868FFF77D
:104150009DFF0246024B136000BF0837BD4680BD7D
:104160001D09000080B483B000AF7860044A7B680A
:104170001A607B6818460C37BD465DF8047B7047B3
:10418000B872000080B584B000AFF860B9607A60A2
:10419000FB681846FFF7E6FF064AFB681A60FB68F3
:1041A000BA685A60FB687A689A60FB6818461037EC
:1041B000BD4680BDA472000080B582B000AF7860BB
:1041C0007B68184600F004F878680837BD4680BD63
:1041D00080B582B000AF786003497868FCF763FC73
:1041E00078680837BD4680BD5872000080B584B03D
:1041F00000AF07F108031846FFF7DEFF07F10802DA
:104200003B4611461846FDF755FE3B461946074802
:1042100000F09AF9064B1B68002B02D0044B1B6878
:10422000984700BF1037BD4680BD00BF0003001097
:10423000F802001090B482B000AF78607A68054B45
:10424000D3E90034C2E9003478680837BD4690BC31
:10425000704700BF0003001080B483B000AF7860E7
:104260003960044A3B68136000BF0C37BD465DF8F7
:10427000047B7047F8020010F0B58BB002AF786095
:104280000423FB611F4B1B685B68002B14BF0123D9
:104290000023DBB2002B30D01A4B1B6800229A603F
:1042A000184B1B681A68174B1B6842F002021A6011
:1042B000144B1B681A68134B1B6842F001021A600A
:1042C000104B1B681A680F4B1B6842F004021A60FF
:1042D0007B689E687B689B681B681D680A4B07F1BA
:1042E0000C040FCB84E80F00BB69009307F10C03AB
:1042F0000ECB3046A8470023FB61FB6918462437E4
:10430000BD46F0BD680000106C6E000080B584B042
:1043100000AF786039607B681846FCF763FBB0EE4D
:10432000407A3B6807EE903AF8EEE77A77EE677AE4
:1043300007F10C03B0EE670A1846FCF762FBFB6856
:1043400018461037BD4680BD80B582B000AF78609A
:104350007868FDF711FF034618460837BD4680BD53
:1043600090B589B000AF786039604FF001004FF030
:104370000001FFF71BFE0346FB6007F10C023B4602
:1043800011461846FFF748FE0346002B02D04FF0B7
:10439000FF3341E07B685A687B685B681B680C33BD
:1043A0001B68104698470346BB603A4607F108036E
:1043B00011461846FDF7A6FB03467B6107F114037F
:1043C00001211846FFF7A2FF03463B6107F11003E6
:1043D0001846FFF7B9FFF86107F108031846FDF723
:1043E0006DF804463B461846FDF768F80346B4FBF3
:1043F000F3F203FB02F3E31ABB61FB69B3F1807FC5
:1044000005D36FF07F43FB616FF07F43BB61044BCB
:104410001B68FA695A60BB6918462437BD4690BDCF
:104420006800001080B582B000AF786039603A68EB
:1044300079680448FDF726FA3B6818460837BD46F8
:1044400080BD00BF0C03001090B587B002AF78604C
:10445000396007F108031846FDF704FED7E9023476
:10446000CDE900343A6879680348FDF75DFA3B68A6
:1044700018461437BD4690BD0C03001080B500AF40
:104480000248FFF76FFD0346184680BD0803001081
:1044900080B582B000AFFFF775FD1E4B19681E484E
:1044A000FCF746FBFF233B703B46012219461A48A6
:1044B000FCF78CFB4FF416411848FDF73DF91848FE
:1044C00000F05AF9174800F067F9174B19681748B8
:1044D000FFF746FF1548FFF7CFFE78607B68002B9B
:1044E0000DD0D623124A13491348FFF7A3FC1348F3
:1044F000FEF784FB00210120FCF742F8FEE710489C
:10450000FFF70EFD0F48FFF7A5FD00BF0837BD46BA
:1045100080BD00BF607200006C0000100C03001032
:104520002544000049440000647200001803001094
:10453000D472000090720000887100001C6F0000AF
:104540000803001035420000F0B583B000AF78607A
:1045500039603868FCF772FA0A4601467B68D3E98D
:1045600000566B1846EB02047A68C2E900347B6897
:1045700018460C37BD46F0BD80B582B000AF7860FC
:1045800039607B68012B5AD13B684FF6FF7293422A
:1045900055D12D4B1B6803F00103002B06D12A4B8C
:1045A00001221A60294B1846FCF7E2F9284B1B68D8
:1045B00003F00103002B05D1254B01221A60254A87
:1045C000254B1A60254B1B6803F00103002B05D116
:1045D000224B01221A60224A224B1A60224B1B688E
:1045E00003F00103002B05D11F4B01221A601F4A63
:1045F0001F4B1A601F4B1B6803F00103002B05D1F2
:104600001C4B01221A601C4A1C4B1A601C4B1B6875
:1046100003F00103002B05D1194B01221A60194A3E
:10462000194B1A60FCF72AFE03461A461749184828
:10463000FDF768F8174A18491848FFF7A3FD00BFAF
:104640000837BD4680BD00BF5402001004010010B1
:104650006402001000C00F40480200105002001019
:1046600000C00240000100106802001000800940F4
:10467000100000106C02001000C00940240000105F
:104680007002001000400A40380000107C720000E8
:104690000C030010687200006C000010180300107A
:1046A00080B500AF4FF6FF710120FFF765FF80BDB9
:1046B000074B19680868B0E8F04F80F30988BFF32A
:1046C0006F8F4FF0000080F311887047AFF30080C8
:1046D0007C02001000BF00BFFFFFFFFFFFFFFFFFD6
:1046E000EFF30980BFF36F8F154B1A681EF0100FA0
:1046F00008BF20ED108A20E9F04F10602DE9090075
:104700004FF0280080F31188BFF34F8FBFF36F8FF6
:10471000FEF7F6F94FF0000080F3118809BC196824
:104720000868B0E8F04F1EF0100F08BFB0EC108A18
:1047300080F30988BFF36F8F704700BFAFF300802D
:104740007C02001000BF00BF80B483B000AF78606F
:104750003960012318460C37BD465DF8047B70476D
:1047600080B483B000AF78603960002318460C37FE
:10477000BD465DF8047B704780B483B000AF7860BD
:10478000044A7B68136000BF0C37BD465DF8047BAC
:10479000704700BF5400001080B483B000AF786051
:1047A000044A7B68136000BF0C37BD465DF8047B8C
:1047B000704700BF5800001080B582B000AF0346BC
:1047C000FB71054B1B68FA1D01211046984700BF7D
:1047D0000837BD4680BD00BF5400001008B500F08A
:1047E0000DF808B5804701F02FFCFFFF024B186859
:1047F000BFF35B8F704700BF7000001008B5FFF774
:10480000F5FFFFF7EEFFFFFF81F0004102E000BF80
:1048100083F0004330B54FEA41044FEA430594EA80
:10482000050F08BF90EA020F1FBF54EA000C55EABB
:10483000020C7FEA645C7FEA655C00F0E2804FEA8C
:104840005454D4EB5555B8BF6D420CDD2C4480EA6E
:10485000020281EA030382EA000083EA010180EA9E
:10486000020281EA0303362D88BF30BD11F0004FEC
:104870004FEA01314FF4801C4CEA113102D0404222
:1048800061EB410113F0004F4FEA03334CEA13335D
:1048900002D0524263EB430394EA050F00F0A78075
:1048A000A4F10104D5F1200E0DDB02FA0EFC22FA70
:1048B00005F2801841F1000103FA0EF2801843FA64
:1048C00005F359410EE0A5F120050EF1200E012A55
:1048D00003FA0EFC28BF4CF0020C43FA05F3C01893
:1048E00051EBE37101F0004507D54FF0000EDCF10C
:1048F000000C7EEB00006EEB0101B1F5801F1BD3B5
:10490000B1F5001F0CD349085FEA30004FEA3C0CB8
:1049100004F101044FEA445212F5800F80F09A80AE
:10492000BCF1004F08BF5FEA500C50F1000041EBB2
:10493000045141EA050130BD5FEA4C0C404141EBB6
:10494000010111F4801FA4F10104E9D191F0000FDD
:1049500004BF01460020B1FA81F308BF2033A3F160
:104960000B03B3F120020CDA0C3208DD02F1140C57
:10497000C2F10C0201FA0CF021FA02F10CE002F192
:104980001402D8BFC2F1200C01FA02F120FA0CFC8B
:10499000DCBF41EA0C019040E41AA2BF01EB0451D4
:1049A000294330BD6FEA04041F3C1CDA0C340EDCD2
:1049B00004F11404C4F1200220FA04F001FA02F315
:1049C00040EA030021FA04F345EA030130BDC4F1D3
:1049D0000C04C4F1200220FA02F001FA04F340EAC8
:1049E0000300294630BD21FA04F0294630BD94F079
:1049F000000F83F4801306BF81F480110134013D60
:104A00004EE77FEA645C18BF7FEA655C29D094EAD0
:104A1000050F08BF90EA020F05D054EA000C04BF4E
:104A20001946104630BD91EA030F1EBF0021002039
:104A300030BD5FEA545C05D14000494128BF41F0D8
:104A4000004130BD14F580043CBF01F5801130BD3C
:104A500001F0004545F0FE4141F470014FF00000C7
:104A600030BD7FEA645C1ABF194610467FEA655C78
:104A70001CBF0B46024650EA013406BF52EA03351A
:104A800091EA030F41F4002130BD00BF90F0000F08
:104A900004BF0021704730B54FF4806404F1320444
:104AA0004FF000054FF0000150E700BF90F0000FFD
:104AB00004BF0021704730B54FF4806404F1320424
:104AC00010F0004548BF40424FF000013EE700BFF4
:104AD00042004FEAE2014FEA31014FEA02701FBF84
:104AE00012F07F4393F07F4F81F06051704732F0B6
:104AF0007F4208BF704793F07F4F04BF41F400210D
:104B0000704730B54FF4607401F0004521F000416A
:104B10001CE700BF50EA010208BF704730B54FF0F4
:104B200000050AE050EA010208BF704730B511F0F5
:104B3000004502D5404261EB41014FF4806404F12D
:104B400032045FEA915C3FF4D8AE4FF003025FEAB3
:104B5000DC0C18BF03325FEADC0C18BF033202EB37
:104B6000DC02C2F1200300FA03FC20FA02F001FA91
:104B700003FE40EA0E0021FA02F11444BDE600BF34
:104B80004FEA4102B2F1E04324BFB3F5001CDCF16F
:104B9000FE5C0DD901F0004C4FEAC0024CEA5070A7
:104BA000B2F1004F40EB830008BF20F001007047D6
:104BB00011F0804F21D113F13872BCBF01F00040D9
:104BC000704741F480114FEA5252C2F11802C2F10B
:104BD000200C10FA0CF320FA02F018BF40F001008C
:104BE0004FEAC1234FEAD32303FA0CFC40EA0C003E
:104BF00023FA02F34FEA4303CCE77FEA625307D17B
:104C000050EA01331EBF4FF0FE4040F440007047B1
:104C100001F0004040F0FE4040F40000704700BF4B
:104C200080F0004002E000BF81F0004142001FBF61
:104C30005FEA410392EA030F7FEA226C7FEA236C6A
:104C40006AD04FEA1262D2EB1363C1BFD21841405F
:104C500048404140B8BF5B42192B88BF704710F0F5
:104C6000004F40F4000020F07F4018BF404211F098
:104C7000004F41F4000121F07F4118BF494292EA00
:104C8000030F3FD0A2F1010241FA03FC10EB0C002C
:104C9000C3F1200301FA03F100F0004302D54942B9
:104CA00060EB4000B0F5000F13D3B0F1807F06D366
:104CB00040084FEA310102F10102FE2A51D2B1F15E
:104CC000004F40EBC25008BF20F0010040EA030053
:104CD0007047490040EB000010F4000FA2F1010200
:104CE000EDD1B0FA80FCACF1080CB2EB0C0200FA8A
:104CF0000CF0AABF00EBC25052421843BCBFD040D8
:104D00001843704792F0000F81F4000106BF80F451
:104D100000000132013BB5E74FEA41037FEA226C14
:104D200018BF7FEA236C21D092EA030F04D092F0DF
:104D3000000F08BF0846704790EA010F1CBF002013
:104D4000704712F07F4F04D1400028BF40F0004070
:104D5000704712F100723CBF00F50000704700F090
:104D6000004343F0FE4040F4000070477FEA2262B7
:104D700016BF08467FEA23630146420206BF5FEA88
:104D8000412390EA010F40F4800070474FF0000388
:104D900004E000BF10F0004348BF40425FEA000C4F
:104DA00008BF704743F0964301464FF000001CE0F7
:104DB00050EA010208BF70474FF000030AE000BF4D
:104DC00050EA010208BF704711F0004302D540428B
:104DD00061EB41015FEA010C02BF844601460020FD
:104DE00043F0B64308BFA3F18053A3F50003BCFA18
:104DF0008CF2083AA3EBC25310DB01FA02FC6344C5
:104E000000FA02FCC2F12002BCF1004F20FA02F2CB
:104E100043EB020008BF20F00100704702F12002BE
:104E200001FA02FCC2F1200250EA4C0021FA02F21F
:104E300043EB020008BF20EADC70704753B94AB95F
:104E4000002908BF00281CBF4FF0FF314FF0FF3092
:104E500001F0F8B8ADF1080C6DE904CE00F006F8E9
:104E6000DDF804E0DDE9022304B070472DE9F047E6
:104E7000089E04468846002B4BD18A42154667D9C6
:104E8000B2FA82F24AB1C2F1200701FA02F320FA23
:104E900007F7954047EA030894404FEA154E230C64
:104EA000B8FBFEF71FFA85FC0EFB178843EA0843A0
:104EB00007FB0CF1994209D9EB1807F1FF3080F09C
:104EC0001B81994240F21881023F2B445B1AA4B225
:104ED000B3FBFEF00EFB103344EA034400FB0CFC72
:104EE000A44509D92C1900F1FF3380F00781A445AE
:104EF00040F2048102382C4440EA0740A4EB0C0441
:104F000000271EB1D4400023C6E900433946BDE85E
:104F1000F0878B4209D9002E00F0EB800027C6E90C
:104F2000000138463946BDE8F087B3FA83F7002F11
:104F300047D18B4202D3824200F2FA80841A61EB9D
:104F4000030301209846002EE0D0C6E90048DDE7C3
:104F500002B9FFDEB2FA82F2002A40F08F80491BCC
:104F60004FEA154E1FFA85F80127B1FBFEFC230C12
:104F70000EFB1C1143EA014308FB0CF1994207D9CF
:104F8000EB180CF1FF3002D2994200F2CD8084463A
:104F9000591AA3B2B1FBFEF00EFB101443EA04440D
:104FA00008FB00F8A04507D92C1900F1FF3302D205
:104FB000A04500F2B6801846A4EB080440EA0C4075
:104FC0009FE7C7F1200CBB4022FA0CFE4EEA030E0D
:104FD00001FA07F420FA0CF521FA0CF34FEA1E4807
:104FE0002543B3FBF8F92C0C08FB19331FFA8EFA92
:104FF00044EA034309FB0AF49C4202FA07F200FA6E
:1050000007F10BD91EEB030309F1FF3080F0878015
:105010009C4240F28480A9F1020973441B1BADB28B
:10502000B3FBF8F008FB103345EA034400FB0AFA2F
:10503000A24508D91EEB040400F1FF336BD2A24550
:1050400069D90238744440EA0940A0FB0289A4EB04
:105050000A044C45C2464B4654D351D0002E69D069
:10506000B1EB0A0564EB030404FA0CFCFD40FC40C0
:105070004CEA0505C6E90054002747E7C2F12003C2
:1050800020FA03F7954001FA02F021FA03F34FEA00
:10509000154E3843010CB3FBFEF71FFA85F80EFBE3
:1050A000173341EA034107FB08F38B4204FA02F489
:1050B00007D9691807F1FF3C2FD28B422DD9023F47
:1050C0002944CB1A81B2B3FBFEF00EFB103341EA48
:1050D000034100FB08F38B4207D9691800F1FF3C3C
:1050E00017D28B4215D902382944C91A40EA07471A
:1050F0003BE73746304609E70746E7E61846FBE652
:105100004145ABD2B8EB020A69EB0E0201381346F7
:10511000A4E76046E9E7184695E76746D1E7814688
:105120007CE702382C4447E7ACF1020C2B442FE714
:10513000384608E73746E9E603685A004CBF43F0B3
:10514000004323F000431844704700BF61B32DE9CA
:10515000F84F01F1FF3A90460646D146002707EB8B
:10516000090404EBD4746410E50071190846FFF7D4
:10517000E3FFA245834605F10800304409D0FFF75C
:10518000DBFFC34500F1FF3005D8404509D2671C5D
:10519000E5E7C34505D9A74202D004F1FF39DEE7B0
:1051A00000210846BDE8F88F08467047012807D05F
:1051B000022807D0044B00280CBF18460020704777
:1051C0000248704702487047995800009D580000F7
:1051D000A158000030B5254B83B004468D1E4BB35B
:1051E00001A92846AFF30080F0B101992A46FFF7E4
:1051F000ADFF0146C0B1FFF79FFF4B68A064012BD4
:105200002ED0002B01F1040026DBFFF795FF0023D1
:10521000C4E913030368002B12DBFFF78DFF0023A3
:105220002061184603B030BD0023236109231846CE
:1052300003B030BD0E490F48091AC9100191D5E7D6
:10524000C3F30360FFF7B2FF002814BF0023092354
:105250002061184603B030BD0123C4E91303D9E728
:10526000002323610523184603B030BD0000000071
:10527000247400006C7300000368DA0710B504465C
:1052800006D49B0700F1480009D500F05FFC2368B5
:10529000590709D51A070ED5DB0613D510BD00F046
:1052A0004DFC23685907F5D404F1D00000F056FCFA
:1052B00023681A07F0D404F5A87000F057FC23689F
:1052C000DB06EBD404F5E870BDE8104000F092BCBA
:1052D000036803B103441846704700BF09207047B4
:1052E000704700BF70B504460D4608E02B6C636143
:1052F0002A462369214601209847082808D1296CAD
:105300002046FFF767FF06460028EFD000F09CFE1E
:105310000728FBD13046296CFFF7E2FF281D00F07B
:1053200001FC00BF2DE9F0470C1D054617460FCCC8
:10533000ADF5727D03AE0FC60FCC0FC60FCC0FC6F6
:1053400094E80F0002ACD5F80C80D5F8189086E8E8
:105350000F000023236021E0236C6B614FF4F07297
:1053600021467AA800F09CFE2B697AAA294630468D
:105370009847889BCDE900498246636431462B46B5
:105380002A460120C0470746F8B94FF4F0727AA9BF
:10539000204600F085FEBAF1080F1CD1216C28468A
:1053A000FFF718FF002F08BF0926074618BF0A2677
:1053B0000028D1D0A36B46F01001CDE900492A4660
:1053C000636401202B46C04700B1092738460DF51C
:1053D000727DBDE8F087BAF1070FF6D13846216C2F
:1053E000FFF77EFF03A800F09DFB00BF406C7047F5
:1053F000F0B5CB6B0B640D1D0F4606460FCDF9B013
:1054000001AC0FC40FCD0FC40FCD0FC495E80F0032
:105410004FF0FF3584E80F00009506E033696A46D7
:10542000314698470828044608D110993046FFF7BE
:10543000D1FE0028F2D0092079B0F0BD6846FFF710
:105440001BFF062CF7D139463046FFF74BFF00BF54
:1054500030B4DD6BC160826119461D64002230BC2E
:1054600060E700BF70B5C66843690B64BEB90369E5
:105470000A4604460D46014602209847072807D0F1
:10548000082803D129462046FFF72CFF00F0DCFD59
:105490003046296CFFF724FF281D00F043FB012252
:1054A000FFF740FF00F0D0FDC2681AB1CA6B0A6472
:1054B000002237E79CE700BF704700BF836813B145
:1054C0000146012018477047042907D8DFE801F09A
:1054D0000308060808000BB90F2A03D902207047F9
:1054E0000120704700EB820218465368009A13604F
:1054F000704700BF10B584B0002303AC0A46009487
:105500001946FFF7E1FF039804B010BD042907D83E
:10551000DFE801F00308060808000BB90F2A03D9D9
:10552000022070470120704700EB8200009A126849
:1055300042601846704700BF10B584B004AC002329
:1055400044F8042D0A4600941946FFF7DFFF04B023
:1055500010BD00BFF0B5D36B1364151D07460E4692
:105560000FCDADF50F7D17AC0FC40FCD0FC40FCD10
:105570000FC495E80F004FF0FF3584E80F00169533
:1055800010E016A8FFF7D8FF314616A8B84716AAAC
:10559000694678B9049B08209847052804460AD034
:1055A000092807D026996846FFF714FE6A460C21A1
:1055B0000028E6D0092416A8FFF75EFE20460DF568
:1055C0000F7DF0BD2DE9F04F0D46C96C89B00C1D63
:1055D000164600F0030B0A6806941F46002B68D09D
:1055E000130CD9B212048DF81D30022304EB810490
:1055F00005928DF81C302B6DBBF1020F08BFAC6B10
:1056000013F0010346D1019300F008030093D4F88E
:105610000090B9F1000F00F0F380022F45D0B4F8EC
:105620000090B4F802800434AB6C28F0010A0F211A
:1056300030469A44FFF75EFF824534D829F00103D3
:105640005344834294BF002001204FEA480808F0E9
:10565000020809F0010948EA0908B8F1010F3AD037
:1056600031D3B8F1020F1AD1236823F0004ABBF1FD
:10567000000F66D130B1009A002A6CD0BAF1000F49
:1056800000F09080002B00DA04340AF1010304EBEF
:105690008304BCE7304605A900F046FB78B1092039
:1056A00009B0BDE8F08F0020CFE7D4F804800834BB
:1056B000BAE7120203230592ADF81C309BE70820DD
:1056C00009B0BDE8F08FBBF1000F02D0002840F018
:1056D000B48004349BE7BBF1000F18D1A8B1D4E922
:1056E0000023991C4FEAD272D9D005F15801013339
:1056F000049100F0B580201DFFF7EAFD04AB0146E0
:105700002846AFF30080002867D108347FE70D21D9
:105710003046D5F82080FFF7EDFE8045F5D1AB6A25
:105720009C42F2D12046FFF707FD0F21024630468A
:10573000FFF702FF30462A460021FFF7FDFE072053
:10574000AEE70D213046D5F82080FFF7D3FE804527
:1057500032D0236896E7BAF1000F23D005F1580341
:1057600004F10408CDF808B0DDF800900397A346D3
:105770001C4602E05745B94640D040460494FFF726
:10578000A7FD04AB014600222846AFF3008009F1D3
:10579000010708F104080028ECD0D1455C46DDE99A
:1057A00002B7D6D130460D21FFF7A4FE049B286234
:1057B000C5E90934062073E7AB6A9C42C9D10422CB
:1057C0004FF00008A318C5E90AA8C5E90C2323680F
:1057D00043454DDB0123019357E780460D213046B9
:1057E000FFF788FEB8F1020F28623ED12B46049ADB
:1057F00043F82C2F6B62AC62062051E75C46D1E780
:1058000005A9304600F090FA00287FF448AF019BCC
:10581000002B3FF454AF0F213046FFF76BFE0E21F3
:1058200002463046FFF788FE30461A4A0F21FFF73E
:1058300083FE072009B0BDE8F08F2046FFF77CFC0F
:1058400004340746AC632846AFF3008000283FF4D9
:1058500026AF30463A460F21FFF76EFE07201FE7BE
:1058600030460D21FFF746FE2862049B6B62C2E7BB
:105870000AF1010004EB8000FFF75EFC0F210246F5
:105880003046FFF759FE30462A464146FFF754FEA0
:10589000072005E700000000002393E6012391E6BE
:1058A00002238FE62DE9F0410546C4B0042906D84D
:1058B000DFE801F04D2B05030900032B5FD0022028
:1058C00044B0BDE8F081002BF9D1102AF7D82B683D
:1058D000DC0600F1F48022AC2046019200F094F93D
:1058E000A86B019A0023012606FA03F1114203D0A6
:1058F000016844F8231004300133042BF4D1A86369
:10590000204600F077F90020DAE7012B4FEA124633
:1059100097B252D0052BD2D106EB0708B8F1200F71
:10592000CDD80F2E40F29980B846002F40F0DB8092
:10593000AA6BAA630F2E40F2BE80B8F1000F02D00E
:1059400002A800F00BF9002044B0BDE8F081002B64
:10595000B5D1AC6B97B2281D012606FA03F1394286
:1059600003F1010302D0216801600434102B00F11F
:105970000400F2D112F40050E5D1AC63A0E7160C9C
:1059800097B2F319102B9AD82B681A075DD422AC62
:10599000204600F00DF904EBC601AB6B3FB103EB01
:1059A000C702186841F8040B04339342F9D120462A
:1059B000AB6300F0DBF8002082E7F219102A3FF613
:1059C0007EAF0F2E3FF67BAF2A68D10708D5284659
:1059D00022F0030240F8482B019300F0B3F8019B3A
:1059E000019322AC204600F0ADF8A96B019B002F7B
:1059F00000F095807F0004EBC6044FF00008043CE3
:105A000001EB870251F8040B44F8040F9142F9D1DD
:105A1000B8F1000F0FD002AC102E314638BF102164
:105A200004EBC101843902EBC80452F8040B41F8BD
:105A3000040F9442F9D1012B7FF47BAF22AC0432E6
:105A4000AA63204600F07AF87DE723F008032B6074
:105A500005F5A87000F0ACF899E7B8F1100F2A68C6
:105A600043D9D007A8F110080BD5284622F001022F
:105A700042F0020240F8482B019300F06BF82A68CC
:105A8000019B510725D40F2E04D822A8019300F0C2
:105A900061F8019B019302AC204600F063F8C6F167
:105AA00010010029AA6B019BB6DD22AC4F0004EB6C
:105AB000C6041146A3E722A800F048F83DE723F00A
:105AC00010032B6005F5E870019200F09DF8019A33
:105AD00001E7284622F0040240F8D02B019300F0A1
