:1000000000000110FD2800005D4E0000D528000012
:100010005D4E00005D4E00005D4E000000000000DF
:100020000000000000000000000000000156000079
:100030005D4E000000000000115700005D4E000002
:100040005D4E00005D4E00005D4E00005D4E000004
:100050005D4E00005D4E00005D4E00005D4E0000F4
:100060005D4E00005D4E00005D4E00005D4E0000E4
:100070005D4E00005D4E00005D4E00005D4E0000D4
:100080005D4E00005D4E00005D4E00005D4E0000C4
:100090005D4E00005D4E00005D4E00005D4E0000B4
:1000A0005D4E00005D4E00005D4E00005D4E0000A4
:1000B0005D4E00005D4E00005D4E00005D4E000094
:1000C0005D4E00005D4E00005D4E00005D4E000084
:1000D0005D4E00005D4E00005D4E00005D4E000074
:1000E0005D4E0000EC93000000000010F8000000DE
:1000F000EC9300000000002000000000F800001059
:10010000400E00000000002000000000FFFFFFFF85
:10011000FFFFFFFFFFFFFFFFFFFFFFFFFFFFFFFFEF
:10012000FFFFFFFFFFFFFFFFFFFFFFFFFFFFFFFFDF
:10013000FFFFFFFFFFFFFFFFFFFFFFFFFFFFFFFFCF
:10014000FFFFFFFFFFFFFFFFFFFFFFFFFFFFFFFFBF
:10015000FFFFFFFFFFFFFFFFFFFFFFFFFFFFFFFFAF
:10016000FFFFFFFFFFFFFFFFFFFFFFFFFFFFFFFF9F
:10017000FFFFFFFFFFFFFFFFFFFFFFFFFFFFFFFF8F
:10018000FFFFFFFFFFFFFFFFFFFFFFFFFFFFFFFF7F
:10019000FFFFFFFFFFFFFFFFFFFFFFFFFFFFFFFF6F
:1001A000FFFFFFFFFFFFFFFFFFFFFFFFFFFFFFFF5F
:1001B000FFFFFFFFFFFFFFFFFFFFFFFFFFFFFFFF4F
:1001C000FFFFFFFFFFFFFFFFFFFFFFFFFFFFFFFF3F
:1001D000FFFFFFFFFFFFFFFFFFFFFFFFFFFFFFFF2F
:1001E000FFFFFFFFFFFFFFFFFFFFFFFFFFFFFFFF1F
:1001F000FFFFFFFFFFFFFFFFFFFFFFFFFFFFFFFF0F
:10020000FFFFFFFFFFFFFFFFFFFFFFFFFFFFFFFFFE
:10021000FFFFFFFFFFFFFFFFFFFFFFFFFFFFFFFFEE
:10022000FFFFFFFFFFFFFFFFFFFFFFFFFFFFFFFFDE
:10023000FFFFFFFFFFFFFFFFFFFFFFFFFFFFFFFFCE
:10024000FFFFFFFFFFFFFFFFFFFFFFFFFFFFFFFFBE
:10025000FFFFFFFFFFFFFFFFFFFFFFFFFFFFFFFFAE
:10026000FFFFFFFFFFFFFFFFFFFFFFFFFFFFFFFF9E
:10027000FFFFFFFFFFFFFFFFFFFFFFFFFFFFFFFF8E
:10028000FFFFFFFFFFFFFFFFFFFFFFFFFFFFFFFF7E
:10029000FFFFFFFFFFFFFFFFFFFFFFFFFFFFFFFF6E
:1002A000FFFFFFFFFFFFFFFFFFFFFFFFFFFFFFFF5E
:1002B000FFFFFFFFFFFFFFFFFFFFFFFFFFFFFFFF4E
:1002C000FFFFFFFFFFFFFFFFFFFFFFFFFFFFFFFF3E
:1002D000FFFFFFFFFFFFFFFFFFFFFFFFFFFFFFFF2E
:1002E000FFFFFFFFFFFFFFFFFFFFFFFFFFFFFFFF1E
:1002F000FFFFFFFFFFFFFFFFFFFFFFFFFFFFFFFF0E
:10030000F8B500BFF8BC08BC9E4670474D0300001E
:100310002D270000B129000059550000F8B500BF95
:10032000F8BC08BC9E46704710B5054C237833B91D
:10033000044B13B10448AFF300800123237010BDB8
:10034000F8000010000000003493000008B5034BD3
:100350001BB103490348AFF3008008BD0000000053
:10036000FC0000103493000090B400AF4FF0FF3356
:100370006FF0004418462146BD4690BC704780B5DA
:1003800084B000AFC7E90001D7E9000106F0DCFB4B
:10039000024607F10C0300EE102A184600F005F89B
:1003A000FB6818461037BD4680BD80B582B000AFEF
:1003B000786087ED000A7B683A461146184600F0DF
:1003C00005F87B6818460837BD4680BD80B483B009
:1003D00000AF786039603B681A687B681A607B6898
:1003E00018460C37BD465DF8047B704780B586B073
:1003F00000AF7860786800F007F8F0EE407AB0EE71
:10040000670A1837BD4680BD80B485B000AFF8607C
:1004100039723A713B70FB681B6807EE903AB0EE98
:10042000670A1437BD465DF8047B704780B582B01B
:1004300000AF786087ED000A7B683A46114618469F
:10044000FFF7C4FF7B6818460837BD4680BD80B5FE
:1004500086B000AF7860786800F007F8F0EE407A78
:10046000B0EE670A1837BD4680BD80B485B000AFD6
:10047000F86039723A713B70FB681B6807EE903A7E
:10048000B0EE670A1437BD465DF8047B704780B54F
:1004900086B002AF786039603A6807F10C030093C8
:1004A00000230021786806F0DBFEFB681846103751
:1004B000BD4680BD80B485B000AF78600A4BFB605C
:1004C0007B68002B02D0012B03D005E0074BFB60BB
:1004D00002E0074BFB6000BFFB6818461437BD46BF
:1004E0005DF8047B704700BF8C80000094800000A2
:1004F000A080000080B584B000AF786039603B68B0
:10050000FB600F217868FFF7C2FF034623F0010369
:10051000BB60FB681968BB68043B1A46064804F0D8
:10052000DDFAFB681B685A1CFB681A60002318463A
:100530001037BD4680BD00BFAC80000080B584B0E0
:1005400000AF786039603B68FB600F217868FFF787
:100550009EFF034623F00103BB60BB68043B1946C2
:10056000064804F0BBFAFB681B685A1CFB681A605B
:10057000002318461037BD4680BD00BFBC80000078
:1005800080B584B000AF03463960FB710023FB6087
:1005900007F10C0319461A4807F054FA3B68002B80
:1005A00005D0FB683A681946164804F097FAFB79BB
:1005B000002B20D0144804F091FA144804F08EFA6D
:1005C0000020FFF777FF03461946114804F086FA2A
:1005D00007F10C0319460F4807F034FA3B68002B6B
:1005E00003D039680C4804F079FA0C4804F076FA24
:1005F0000B4803F02FF900BF1037BD4680BD00BF88
:10060000F5040000C4800000D080000008810000D4
:10061000148100003D050000308100003881000099
:100620004081000090B482B000AF786039603B68D0
:10063000D3E900347A68C2E900347B681846083789
:10064000BD4690BC7047FFFF80B582B000AF7860B8
:100650007B6800220349184601F060FC786808377F
:10066000BD4680BD1801001080B483B000AF786033
:100670007B6803F01F0207497B685B09012000FAD1
:1006800002F2203341F8232000BF0C37BD465DF84D
:10069000047B704700E100E080B483B000AF786075
:1006A0007B681B7918460C37BD465DF8047B7047A4
:1006B00080B483B000AF78607B685B7918460C37F4
:1006C000BD465DF8047B704780B582B000AF7860AE
:1006D0000B46FB70084BF9781A785B781B021A43BB
:1006E000002362F30F031A46786800F059F800BF40
:1006F0000837BD4680BD00BF1486000080B582B0BB
:1007000000AF78600B46FB70084BF9781A785B787D
:100710001B021A43002362F30F031A46786800F0A5
:100720003FF800BF0837BD4680BD00BF18860000F7
:1007300080B582B000AF78600B46FB70FB7883F029
:100740000103DBB21946084B1A785B781B021A4387
:10075000002362F30F031A46786800F021F800BF07
:100760000837BD4680BD00BF1C86000080B582B042
:1007700000AF78600B46FB70F978084B1A785B780D
:100780001B021A43002362F30F031A46786800F035
:1007900007F800BF0837BD4680BD00BF20860000B7
:1007A000F0B587B000AFF8600B46BA80FB72FB680B
:1007B0003B61194B1C683B691846FFF76DFF034608
:1007C0001D463B691846FFF773FF03461A466B0147
:1007D00013449B0023441B68F97A7A68184601F099
:1007E000FCFB0546FB687B610B4B1C687B6918466C
:1007F000FFF752FF03461E467B691846FFF758FF76
:1008000003461A46730113449B0023441D6000BF36
:100810001C37BD46F0BD00BF2001001080B586B07A
:1008200000AF786039607B681B6808331B683968E3
:100830007868984778614FF00003FB607B69002B74
:100840000FD07B681B680C331B6878689847034699
:100850003B6107F110037969184601F0D1FB0346AB
:10086000FB60FB6818461837BD4680BD80B586B072
:1008700000AF7860786800F007F8F0EE407AB0EEEC
:10088000670A1837BD4680BD80B485B000AFF860F8
:1008900039723A713B70FB68D3ED007A9FED057AAF
:1008A00067EE877AB0EE670A1437BD465DF8047BC1
:1008B000704700BF0024744980B584B000AF7860F1
:1008C00039600021786800F0E3F84FF00C004FF039
:1008D0000001FFF754FD0346BB6007F108023B46E9
:1008E0001146184601F0AAFB0346002B0FD0164B09
:1008F0003A681968786800F0DFFA0121786800F03A
:10090000EBF83B461946114801F0B6FB07E0002121
:10091000786800F0E1F80E490C4801F0ADFB0121C8
:10092000786800F02DFBFF233B7307F10C030122D5
:100930001946786800F00EF80021786800F05EFB38
:1009400000BF1037BD4680BD2486000004000010A3
:100950002C86000080B584B000AFF860B960134603
:10096000FB71FB79042B0DD9B2230B4A0B490C48C0
:1009700004F0B4F80B4802F06DFF00210120FFF7EE
:10098000FFFDFEE7084B1B68FA79C3F8A82100BFFA
:100990001037BD4680BD00BF0C88000048860000AF
:1009A00094810000348200002401001080B483B0E0
:1009B00000AF78603960054B1B68D3F8A831184642
:1009C0000C37BD465DF8047B704700BF2401001062
:1009D00080B483B000AF7860034B1B6818460C37B7
:1009E000BD465DF8047B70470400001080B485B0FC
:1009F00000AF786039600B4B1B68D3F8C4303A689D
:100A00001278114601228A401340002B14BF0123A3
:100A10000023FB73FB7B18461437BD465DF8047B4F
:100A2000704700BF2401001090B583B000AF78601C
:100A30003960094B1B68D3F8C4203B681B78194602
:100A4000054B1C68104601F02AFB0346C4F8C4306D
:100A500000BF0C37BD4690BD2401001090B583B097
:100A600000AF78603960094B1B68D3F8C4203B683D
:100A70001B781946054B1C68104601F022FB034603
:100A8000C4F8C43000BF0C37BD4690BD240100102F
:100A900090B583B000AF78600B467B800C4B1B6831
:100AA000D3F80C0179880A4B1C680A4B1A785B78DA
:100AB0001B021A43002362F30F031A4601F014FBD2
:100AC0000346C4F80C3100BF0C37BD4690BD00BFD3
:100AD000240100103086000090B583B000AF78602C
:100AE0000B467B800C4B1B68D3F8040179880A4BBA
:100AF0001C680A4B1A785B781B021A43002362F3C6
:100B00000F031A4601F0F0FA0346C4F8043100BF9F
:100B10000C37BD4690BD00BF240100103C8600008C
:100B200090B583B000AF78600B467B800C4B1B68A0
:100B3000D3F8080179880A4B1C680A4B1A785B784D
:100B40001B021A43002362F30F031A4601F0CCFA8A
:100B50000346C4F8083100BF0C37BD4690BD00BF46
:100B6000240100104086000090B583B000AF78608B
:100B70000B467B800C4B1B68D3F8B40179880A4B79
:100B80001C680A4B1A785B781B021A43002362F335
:100B90000F031A4601F0A8FA0346C4F8B43100BFA7
:100BA0000C37BD4690BD00BF2401001044860000F4
:100BB00080B52DED028B82B000AF786039607B6824
:100BC00093ED008A3B681846FFF710FCF0EE407A80
:100BD000B4EEE78AF1EE10FA4CBF01230023DBB23A
:100BE00018460837BD46BDEC028B80BD80B582B08B
:100BF00000AF7860786800F005F8034618460837BB
:100C0000BD4680BD80B582B000AF78607B68184675
:100C100000F00AF8F0EE407AFCEEE77A17EE903A30
:100C200018460837BD4680BD80B483B000AF7860F9
:100C30007B681B6807EE903AB0EE670A0C37BD463A
:100C40005DF8047B704780B52DED028B84B000AF5A
:100C5000786039607B681846FFF7E6FFB0EE408A9F
:100C60003B681846FFF7E0FFF0EE407AC7ED037AE5
:100C700007F10C031846FFF7B9FBB0EE407AC8EE57
:100C8000077A07F10803B0EE670A184600F007F884
:100C9000BB6818461037BD46BDEC028B80BD80B5E1
:100CA00082B000AF786087ED000A7B683A46114653
:100CB0001846FFF78BFB7B6818460837BD4680BD9A
:100CC00080B584B000AF786039607B681846FFF764
:100CD000ABFFB0EE407A3B6807EE903AF8EEE77A69
:100CE00077EE277A07F10C03B0EE670A1846FFF794
:100CF000D6FFFB6818461037BD4680BD80B582B070
:100D000000AF78607B681846FFF78EFFF0EE407A00
:100D1000FCEEE77A17EE903A9BB218460837BD46CC
:100D200080BDFFFF90B58DB000AFF860B9607A600C
:100D30004FF4C0704FF00001FFF721FB03463B6109
:100D400007F110023B1D11461846FFF731FF03461D
:100D500083F00103DBB2002B14D14FF00C004FF0F5
:100D60000001FFF70CFB03467B6107F114023B1DFA
:100D70001146184601F062F9034683F00103DBB225
:100D8000002B01D0012300E00023002B0DD0F6231F
:100D9000434A4449444803F0A1FE444802F05AFD46
:100DA00000210120FFF7ECFBFEE7012387F82F303D
:100DB0003B1D1846FFF71AFF044607F108031846C3
:100DC000FFF714FF0346B4FBF3F203FB02F3E31A4D
:100DD000002B14BF01230023DBB2002B17D007F137
:100DE00008023B1D11461846FFF72DFF0346FB6125
:100DF00007F11C0301211846FFF762FF0346BB61A0
:100E000007F11803184601F081F9B8620EE007F106
:100E100008023B1D11461846FFF715FF03463B62CB
:100E200007F12003184601F071F9B8620123FB8431
:100E300097F82F30002B2DD007F108031846FFF745
:100E40005DFF03461A46BB6A9BB212FB03F39BB2DB
:100E5000FA8C12FB03F39BB25B00BB84BB8C9B2B15
:100E600003D9002387F82F30E2E7FB8C5B00FB847B
:100E7000FB8C072BDCD94FF48973094A0C490D48C8
:100E800003F02CFE094802F0E5FC00210120FFF7E9
:100E900077FBFEE7BB6A18463437BD4690BD00BFFE
:100EA00090880000608600004C82000034820000C0
:100EB000788600003C83000080B586B000AFF86003
:100EC000B9607A600123FB827A68B968F868FFF735
:100ED00029FF38610021F868FFF7DAFD0021F86882
:100EE000FFF7FAFD0021F868FFF71AFE0021F86805
:100EF000FFF73AFE214B1B68D3F8843023F01F0123
:100F00003B695A1E1D4B1B680A43C3F884201B4BC8
:100F10001B68D3F8843023F06002FB8A5B0119461A
:100F2000164B1B680A43C3F88420144B1B68D3F884
:100F30008020124B1B6842F00102C3F880200F4B47
:100F40001B68AA22C3F88C200C4B1B685522C3F8DF
:100F50008C200A4B1B68D3F888300A21184601F010
:100F6000F0F8034683F00103DBB2002B01D000BF91
:100F7000EFE700BF1837BD4680BD00BF2401001059
:100F800090B583B000AF78600B46FB70FB781F2BE9
:100F90000ED94FF4A973134A1349144803F09EFD68
:100FA000134802F057FC00210120FFF7E9FAFEE7A1
:100FB000104B1B68D3F804010E4B1C680E4BF978DC
:100FC0001A785B781B021A43002362F30F031A4658
:100FD00001F003F80346C4F8043100BF0C37BD46E6
:100FE00090BD00BF0C89000090860000E4830000E3
:100FF00034820000240100103886000090B583B0D0
:1010000000AF78600B46FB700C4B1B68D3F80001F7
:10101000F9780A4B1C680A4B1A785B781B021A4352
:10102000002362F30F031A4601F05EF80346C4F88A
:10103000003100BF0C37BD4690BD00BF2401001039
:101040003486000080B400AF024B1846BD465DF800
:10105000047B70470800001080B582B000AF786054
:101060000B46FB707B681B6808331B68F91C012268
:101070007868984700BF0837BD4680BD80B489B006
:1010800000AF786087ED000A7B6800221A607B68F9
:1010900000225A607B6801229A600023FB770023BC
:1010A000BB61BB690E2B4FDCFB7F002B4CD1BB69B6
:1010B00001337B617B690E2B42DCFB7F002B3FD130
:1010C000BB6907EE903AF8EEE77AC7ED047A7B69E0
:1010D00007EE903AF8EEE77AC7ED037AD7ED046AA7
:1010E00097ED037AC6EE877AB7EE007A77EE877AC5
:1010F000C7ED027AD7ED027A9FED177A77EE877AFD
:1011000097ED007AB4EEE77AF1EE10FA14D8D7ED45
:10111000027A9FED117A77EEC77A97ED007AB4EEF6
:10112000E77AF1EE10FA07DBBA697B685A607A69F0
:101130007B689A600123FB777B6901337B61B9E7A8
:10114000BB690133BB61ACE700BF78682437BD469B
:101150005DF8047B704700BFCDCC4C3D80B487B0B8
:1011600000AF87ED030AC7ED020A78607B6807EEDF
:10117000903AF8EE677AC7ED057AD7ED037AB3EEC9
:10118000007A27EE877AD7ED027A67EE277A97ED15
:10119000057AC7EE276AF0EE667AB0EE670A1C376A
:1011A000BD465DF8047B704780B487B000AF87ED23
:1011B000030AC7ED020A78607B6807EE903AF8EE02
:1011C000677AC7ED057AD7ED037AB3EE007A27EE9A
:1011D000877AD7ED027A67EE277A97ED057AC7EE20
:1011E000276AF0EE667AB0EE670A1C37BD465DF8F6
:1011F000047B704780B483B000AF87ED010AD7ED60
:10120000017AB6EE007A77EE877AFDEEE77AF8EEAD
:10121000E77AB0EE670A0C37BD465DF8047B70478D
:1012200080B586B000AF87ED010A0023FB7597ED0E
:10123000010AFFF7DFFF87ED040A97ED017AD7ED8A
:10124000047A77EE677AC7ED037AD7ED037A9FEDDC
:101250000B7AF4EEC77AF1EE10FA0ADBD7ED037AD7
:101260009FED077AF4EEC77AF1EE10FA01D8012368
:10127000FB75FB7D18461837BD4680BDCDCC4CBDF7
:10128000CDCC4C3D80B582B000AF7860786800F07E
:1012900005F8034618460837BD4680BD80B582B0C4
:1012A00000AF78607B681846FFF7BEFCF0EE407A2E
:1012B000FCEEE77A17EE903A18460837BD4680BD37
:1012C00090B591B000AFF861B9617A6107F114038C
:1012D0001846FFF7D7FFB8620023FB63FB690022C3
:1012E0001A60FB6900225A60FB6901229A60BB699F
:1012F00007EE903AF8EE677AC7ED097A4FF00003EF
:10130000BB634FF07F537B634FF07E533B634FF0E3
:101310008043FB62FB6B042B00F0BE80FB6B032B56
:1013200000F2B88001A252F823F000BF3D13000084
:1013300097130000F713000067140000B86AF7EE77
:10134000000A97ED090AFFF709FF87ED0E0AD7EDAE
:101350000E7AB7EE007AF4EEC77AF1EE10FA05D500
:10136000FB6900221A600423FB6394E097ED0E0AE8
:10137000FFF756FF0346002B0AD0D7ED0E7AFCEE9E
:10138000E77A17EE902AFB691A600423FB6382E078
:101390000123FB637FE0B86AD7ED0D0A97ED090AD8
:1013A000FFF7DCFEF0EE407AB0EE670AFFF722FFAF
:1013B00087ED0E0AB86AD7ED0E0A97ED090AFFF716
:1013C000F3FE87ED0D0AD7ED0D7A9FED367AF4EE38
:1013D000C77AF1EE10FA0BDBD7ED0D7A9FED327A7A
:1013E000F4EEC77AF1EE10FA02D80323FB6352E061
:1013F0000223FB634FE0D7ED0B7AB7EE007A77EE6E
:10140000877AC7ED0B7AD7ED0C7AB2EE0E7AF4EE4E
:10141000C77AF1EE10FA02DD0423FB633BE0D7ED5F
:101420000B7AB2EE0E7AF4EEC77AF1EE10FA0FDD17
:10143000D7ED0C7AB7EE007A77EE877AC7ED0C7AA3
:10144000D7ED0C7AB7EE007A77EE877AC7ED0B7A94
:10145000D7ED0C6A97ED0B7AC6EE877AC7ED0D7A59
:101460000123FB6317E0FC693B4697ED0D0A184624
:10147000FFF704FE3B4693E8070084E80700D7ED3A
:101480000E7AFCEEE77A17EE902AFB691A600423C5
:10149000FB6300E000BF3DE700BFF8694437BD468D
:1014A00090BD00BFCDCC8C3F3333F33F80B483B0CD
:1014B00000AF7860044A7B681A607B6818460C3776
:1014C000BD465DF8047B7047A487000080B584B0FA
:1014D00000AFF860B9607A60FB681846FFF7E6FF76
:1014E000064AFB681A60FB68BA685A60FB687A684B
:1014F0009A60FB6818461037BD4680BD888700009B
:1015000080B584B000AF786039600723FB737B68D7
:1015100098687B689B681B6814331B687A685268FC
:101520000432114698473968786800F049F87B68BA
:101530005B68D8687B685B68DB681B681B687A68D7
:101540005268127CC2F3C202D2B2114698477B683D
:101550005B6898687B685B689B681B681B687A6837
:101560005268127CC2F30202D2B2114698477B68DD
:101570005B68DA687B685B68DB681B6804331B6840
:101580000221104698477B685B689A687B685B68B5
:101590009B681B6804331B680221104698477B68D0
:1015A0005B681B681B7ADAB27B685B681B6842F079
:1015B0000702D2B21A72002318461037BD4680BD0A
:1015C00080B586B000AF786039607B689A687B68C8
:1015D0005B68043319461046FFF720F9024607F10D
:1015E000080339681846FFF76BFE8023FB75BB685C
:1015F0001B0ABB75BB687B753B69DBB21B01DAB2AA
:10160000FB68DBB203F00F03DBB213433B757B686F
:101610005B681B6880221A737B685B681B68BA7DF5
:101620001A717B685B681B687A7D1A707B685B68DF
:101630001B683A7D83F828207B685B681B6803225F
:101640001A73012318461837BD4680BD80B586B091
:1016500000AFF860B9607A6000237B617A697B68CB
:101660009A4216D2BA687B691A44FB685B681B68A9
:1016700012781A70F86800F0B5F8034683F0010399
:10168000DBB2002B01D000BFF4E77B6901337B6143
:10169000E4E700BF1837BD4680BD90B583B000AF0A
:1016A00078607B681B68184600F08AF80346002BB8
:1016B00010D07B681B685B681B681B78DCB27B689A
:1016C0005B6819687B68DA681368581C10600B4403
:1016D00022461A707B68DB681A687B689B689A42AE
:1016E00001D3012300E0002318460C37BD4690BD0E
:1016F00090B59DB000AF78613961FA600023FB635B
:101700007B693B6407F110037B64FB68BB6407F1F2
:101710003C03FB64D7E92034C7E9083407F12C0403
:1017200007F140030FCB84E80F0007F16003184670
:1017300000F018FC07F1600207F12003114618467B
:1017400000F024FC0346002B04D0D7E90834C7E995
:10175000063411E0194B1B6807F1580210469847F0
:101760003B4607F1200207F15801184600F0A5FD9D
:10177000D7E90034C7E906340123FB660F4B1B6829
:1017800007F150021046984707F1180207F150037D
:101790001146184600F0BEFD0346002B09D007F1A4
:1017A0002C031846FFF779FF0346002BE6D00023F1
:1017B000FB66FB6E18467437BD4690BD00000010F6
:1017C00080B582B000AF78607B685B681B681B7D6A
:1017D000DBB20021184600F0CBFC03461846083760
:1017E000BD4680BD80B582B000AF78607B685B6825
:1017F0001B681B7DDBB20521184600F0B9FC0346CF
:1018000018460837BD4680BD80B500AF084B1B6841
:101810001868084B1A785B781B021A43002362F39E
:101820000F03194600F0BBFC0346184680BD00BFFD
:1018300028010010E086000080B483B000AF78601B
:10184000044A7B681A607B6818460C37BD465DF811
:10185000047B70477487000080B584B000AFF860E7
:10186000B9607A60FB681846FFF7E6FF064AFB6836
:101870001A60FB68BA685A60FB687A689A60FB680D
:1018800018461037BD4680BD6087000080B52DED3D
:10189000028B84B000AF786039607B681846FFF730
:1018A000C3F9B0EE408A3B681846FFF7BDF9F0EE89
:1018B000407AC7ED037A07F10C031846FEF7C7FD1F
:1018C000B0EE407AC8EE077A07F10803B0EE670A77
:1018D0001846FFF7E4F9BB6818461037BD46BDEC63
:1018E000028B80BD80B582B000AF7860786800F070
:1018F0000DFC034618460837BD4680BD80B586B04E
:1019000000AF78607B689A687B689B681B681433BB
:101910001B683C49104698477B685B6818687B6881
:101920005B681B681B681B687A6852681279C2F38F
:10193000C202D2B2114698477B685B681A687B681E
:101940005B681B681B6804331B68002110469847BE
:101950007B685B681A687B685B681B681B680C3374
:101960001B680121104698477B689B6825491846EB
:10197000FEF754FF0346BB6007F1080322491846EF
:10198000FFF784FF0346FB6007F10C031846FFF7DF
:10199000A9FF38611D4B1B681B687B611C4B1A78C3
:1019A0005B781B021A43002362F30F031946786920
:1019B00000F004FC7861174B1A785B781B021A431D
:1019C000002362F30F031A463969786900F08CFB33
:1019D0007861FFF719FF0346002B0AD07B685B682C
:1019E0001B79C3F30203DBB21946786900F057FB99
:1019F0007861064B1B687A691A600023184618370D
:101A0000BD4680BD28860000148700002801001014
:101A1000E4860000DC86000080B584B000AF78600A
:101A2000786800F051F80E4B1B687A68526812799A
:101A3000C2F30202D2B2043253F82200094B1A78E0
:101A40005B781B021A43002362F30F03194600F070
:101A5000C4FBF860FB6818461037BD4680BD00BF68
:101A600028010010EC86000080B483B000AF7860DD
:101A70000C2318460C37BD465DF8047B7047FFFF0A
:101A800080B582B000AF78600D4B1B687A685268F1
:101A90001279C2F30202D2B2043253F82200094B87
:101AA0001A785B781B021A43002362F30F0319466E
:101AB00000F075FB034618460837BD4680BD00BFE1
:101AC00028010010F086000090B585B000AF786066
:101AD000FFF79AFE0346002B13D0294B1B681868AA
:101AE000274B1C68274B1A785B781B021A4300238C
:101AF00062F30F031A46002100F080FB03462360C7
:101B00003AE07B685B681B79C3F30203DBB21A46D9
:101B100001239340FB601A4B1B681868184B1C6824
:101B2000194B1A785B781B021A43002362F30F03E8
:101B30001A46F96800F0D8FA03462360104B1B6878
:101B400018680F4B1C680F4B1A785B781B021A43FE
:101B5000002362F30F031A46012100F04FFB0346F6
:101B600023607868FFF78CFF034683F00103DBB244
:101B7000002B01D000BFF4E700BF1437BD4690BD75
:101B800028010010E8860000D886000080B400AF6D
:101B900000BFBD465DF8047B7047FFFF80B582B093
:101BA00002AF094B1B6800931D23084A08490948E6
:101BB00002F094FF044B1B68103B1846FEF754FDDF
:101BC00000BFBD4680BD00BF480000107489000002
:101BD000188700008084000080B483B000AF786074
:101BE000402318460C37BD465DF8047B7047FFFF65
:101BF00080B584B000AF78607B6818464FF480737E
:101C00001A46002106F033F90023FB60FB680F2B16
:101C100008D87B68FA68114943F82210FB68013341
:101C2000FB60F3E71023BB607868FFF7D5FF02463F
:101C3000BB68934234BF01230023DBB2002B08D0E2
:101C40007B68BA68064943F82210BB680133BB6061
:101C5000EAE700BF78681037BD4680BD8D1B0000E5
:101C60009D1B000090B482B000AF78607B68D3E920
:101C70000034184621460837BD4690BC7047FFFF28
:101C800090B58DB002AF78607B68FB61FFF7DAF941
:101C900003461A4607F10C032A491846FFF716FCBB
:101CA00007F10C034FF416411846FFF729FC1823DF
:101CB000254A2649264802F011FF00237B627B6AF1
:101CC000012B3BDC18233B623B6A002B13D0FB69E2
:101CD0007A6A023253F822203B6A22FA03F3FB7637
:101CE000FA7E07F10C0311461846FFF7B5F93B6A77
:101CF000083B3B62E8E7FB697A6A023253F822301C
:101D0000DAB207F10C0311461846FFF7A5F9FA6994
:101D10007B6A02339B0013441B68184604F0A4FD41
:101D200003460C46CDE900342523074A09490A48F1
:101D300002F0D4FE7B6A01337B62C0E7642001F0CD
:101D400051F8BAE70C000010F48700002887000063
:101D500000850000388700004C85000080B483B007
:101D600000AF78603960054A7B681A607B68184666
:101D70000C37BD465DF8047B704700BF74870000D8
:101D800080B582B000AF786039607B683A681146F0
:101D90001846FFF7E3FF084A7B681A603B685A68F9
:101DA0007B685A603B689A687B689A607B681846D3
:101DB0000837BD4680BD00BF6087000080B592B087
:101DC00000AF78607B68FB63FFF73CF903461A4677
:101DD00007F12C0333491846FFF73EFDFFF732F9B0
:101DE00003461A4607F120032F491846FFF734FD32
:101DF00007F12C0207F1080311461846FFF7C0FF50
:101E000007F1200207F108030C3311461846FFF7CB
:101E1000B7FF00237B647B6C012B0EDC07F108010C
:101E20007A6C13465B0013449B000B441846FFF783
:101E300065FD7B6C01337B64EDE736231B4A1C494F
:101E40001C4802F04BFE0023BB6300233B643B6C49
:101E5000012B22DC07F108013A6C13465B001344A6
:101E60009B000B441846FFF7D7FDB863DFED120A5D
:101E70009FED120A40F6FF720021B86B00F0D0F916
:101E8000F0EE407AFA6B3B6C02339B001344C3EDD7
:101E9000007A3B6C01333B64D9E7642000F0A2FF79
:101EA000D3E700BF048700000C87000054890000BE
:101EB00048870000A0850000333353400000000035
:101EC00080B586B002AF3A460E4B019302230093D1
:101ED00013464FF480620C490C4800F055FE3A4618
:101EE0000B4B01930123009313464FF48062094981
:101EF000094800F049FE00F099FF0023184610370A
:101F0000BD4680BD70020010F4850000811C0000F9
:101F10007402001000860000BD1D000090B587B05F
:101F200000AFF860B9607A60BB68D3E90034591C2F
:101F300044F10002B868C0E90012C7E9043407F1AF
:101F400010031946F868FEF76DFBF8681C37BD46AC
:101F500090BD98B500AFFEF707FA03460C46184649
:101F6000214698BD90B585B000AF7860FFF7F1FFCE
:101F700003460C46C7E9023407F10803194678689E
:101F8000FEF750FB78681437BD4690BDF0B587B0BA
:101F900000AF786039607B68D3E90034C7E9023468
:101FA00007F108031846FFF75DFE05460E463B683D
:101FB000D3E90034C7E9043407F110031846FFF7EA
:101FC00051FE03460C46A64206BF9D420123002354
:101FD000DBB218461C37BD46F0BD80B584B000AFFB
:101FE000F8600B46BA80FB723B791A467B79F97A26
:101FF000F86800F0B7F9034618461037BD4680BDB3
:1020000080B584B000AF786039607B681846FEF711
:102010000BFEF0EE406A3B6807EE903AF8EE677A06
:1020200086EEA77A07F10C03B0EE470A1846FEF7D2
:10203000FDF9FB6818461037BD4680BD80B52DED13
:10204000028B82B000AF786039607B6893ED008AC4
:102050003B681846FEF7CAF9F0EE407AB4EEE78A1C
:10206000F1EE10FACCBF01230023DBB2184608378B
:10207000BD46BDEC028B80BD80B582B000AF7860FC
:1020800039603B681846FEF7F1FBF0EE407A7B685A
:10209000C3ED007A7B6818460837BD4680BD80B422
:1020A00083B000AF7860396001223B6802FA03F325
:1020B0001A467B68134318460C37BD465DF8047B0F
:1020C000704780B483B000AF7860396001223B680C
:1020D00002FA03F3DB431A467B68134018460C37B9
:1020E000BD465DF8047B704780B584B000AFF860F2
:1020F000B960BA803B791A467B79B968F86800F014
:102100005EF9034618461037BD4680BD80B584B0E1
:1021100000AF78607B681846FEF786FDF0EE407AE7
:10212000C7ED037A07F10C03184600F074F9F0EEDE
:10213000407AFCEEE77A17EE903A18461037BD4623
:1021400080BD80B483B000AF7860396001223B6805
:1021500002FA03F31A467B681340002B14BF0123D5
:102160000023DBB218460C37BD465DF8047B704790
:1021700080B483B000AF03463960FB71FA793B68E5
:1021800042FA03F303F00103002B14BF01230023E1
:10219000DBB218460C37BD465DF8047B704780B54E
:1021A00082B000AF786039803B7819467868FFF7D5
:1021B000C8FF034618460837BD4680BD80B582B0CB
:1021C00000AF786039803B7819467868FFF767FF81
:1021D000034618460837BD4680BD80B582B000AFC3
:1021E000786039803B7819467B781A46786800F029
:1021F00020F9034618460837BD4680BD80B584B037
:1022000000AFF860B960BA803B791A467B79B9684B
:10221000F86800F02CF9034618461037BD4680BD1B
:1022200080B48FB000AF78613961FA6087ED020A3F
:10223000C7ED010A7B6907EE903AF8EE677AC7EDC1
:102240000D7A3B6907EE903AF8EEE77AC7ED0C7A23
:10225000FB6807EE903AF8EEE77AC7ED0B7ABB68B9
:10226000BB627B687B6297ED097AD7ED0A7A77EEDD
:10227000676A97ED0B7AD7ED0C7A37EE677AC6EE80
:10228000877AC7ED087A97ED0D7AD7ED0C7A37EE9D
:10229000677AD7ED087A67EE277A97ED0A7A77EEB4
:1022A000277AC7ED077AFB6907EE903AB0EE670A26
:1022B0003C37BD465DF8047B7047F0B58BB000AF8E
:1022C000F860B9607A60BB68D3E90034C7E90634C6
:1022D00007F118031846FFF7C5FC05460E467B6854
:1022E000D3E90034C7E9083407F120031846FFF7A3
:1022F000B9FC0A4601464B1942EB0604C7E904340F
:1023000007F110031946F868FEF78CF9F8682C37C6
:10231000BD46F0BDF0B587B000AF786039607B682E
:10232000D3E90034C7E9023407F108031846FFF780
:1023300099FC05460E463B68D3E90034C7E90434EE
:1023400007F110031846FFF78DFC03460C469D422B
:1023500076EB0403B4BF01230023DBB218461C371D
:10236000BD46F0BD80B489B000AFF8607A603B60D4
:102370000B46FB724FF0FF33FB612023BB613B68D0
:10238000C3F120034FF0FF3222FA03F37B617A6935
:102390007B6802FA03F3DB43FA681340FB60FA7AC6
:1023A0007B691A407B6802FA03F3FA681343FB6007
:1023B000FB6818462437BD465DF8047B704780B43F
:1023C00089B000AFF860B9607A603B604FF0FF33CE
:1023D000FB612023BB613B68C3F120034FF0FF3258
:1023E00022FA03F37B617A697B6802FA03F3DB4329
:1023F000FA681340FB60BA687B691A407B6802FA8E
:1024000003F3FA681343FB60FB6818462437BD46A4
:102410005DF8047B704780B586B000AF786078685F
:1024200000F051F8F0EE407AB0EE670A1837BD467A
:1024300080BD80B489B000AFF860B9607A604FF0B9
:10244000FF33FB612023BB617B68C3F120034FF0A6
:10245000FF3222FA03F37B61FA68BB68DA407B69DA
:10246000134018462437BD465DF8047B704780B49E
:1024700089B000AFF860B9607A603B604FF0FF331D
:10248000FB612023BB613B68C3F120034FF0FF32A7
:1024900022FA03F37B617A697B6802FA03F3DB4378
:1024A000FA681340FB60BA687B691A407B6802FADD
:1024B00003F3FA681343FB60FB6818462437BD46F4
:1024C0005DF8047B704780B485B000AFF860397266
:1024D0003A713B70FB681B6807EE903AB0EE670AF2
:1024E0001437BD465DF8047B7047FFFF80B582B0AE
:1024F00000AF786039607B68012B40F0C4803B6896
:102500004FF6FF72934240F0BE80614B1B6803F0B0
:102510000103002B05D15E4B01221A605D4A5E4B20
:102520001A605E4B1B6803F00103002B05D15B4B67
:1025300001221A605A4A5B4B1A605B4B1B6803F01E
:102540000103002B05D1584B01221A60574A584B02
:102550001A60584B1B6803F00103002B05D1554B43
:1025600001221A60544A554B1A60554B1B6803F000
:102570000103002B05D1524B01221A60514A524BE4
:102580001A60524B1B6803F00103002B05D14F4B1F
:1025900001221A604E4A4F4B1A604F4B1B6803F0E2
:1025A0000103002B06D14C4B01221A604B4B1846FD
:1025B000FFF71EFB4A4B1B6803F00103002B14D1ED
:1025C000474B01221A60474A474B1A60474A464B1D
:1025D0005A60474A444B9A60464A434BDA60464A3F
:1025E000414B1A61454A404B5A61454B1B6803F009
:1025F0000103002B22D1424B01221A60414B424A77
:1026000004321A60404A08325A603F4A0C329A60DB
:102610003D4A1032DA603C4A14321A6114333A4AA5
:1026200024321A60384A28325A60374A2C329A606B
:10263000354A3032DA60344A34321A61334B1B681F
:1026400003F00103002B06D1304B01221A602E4B00
:102650001A462F4B1A602F4B1B6803F00103002B07
:1026600005D12C4B01221A602B4A2C4B1A602C4BA3
:102670001B6803F00103002B05D1294B01221A60CE
:10268000284A294B1A6000BF0837BD4680BD00BFED
:102690007802001000C00240200100107C020010EF
:1026A00000C00F402401001080020010008009408B
:1026B0000C0000108402001000C00940200000102F
:1026C0008802001000400A40340000108C02001004
:1026D0000040034028010010900200102C0100105F
:1026E00094020010008009202C0200102080092094
:1026F000408009206080092080800920A080092076
:102700009802001044020010808002409C020010D9
:102710006C020010A0020010004001404C000010AC
:10272000A4020010008001405400001080B500AFEA
:102730004FF6FF710120FFF7D9FE80BD80B487B04E
:1027400000AF00237B617A6913465B0013449B0052
:102750001F4A13441F4A934233D21D497A691346D4
:102760005B0013449B000B441B68FB6018497A69AB
:1027700013465B0013449B000B445B68BB60144929
:102780007A6913465B0013449B000B4408331B68B3
:102790007B6000233B613A697B689A420DD23B69BA
:1027A0009B00FA681A443B699B00B9680B441268A5
:1027B0001A603B6901333B61EDE77B6901337B6163
:1027C000C1E700BF1C37BD465DF8047B704700BF02
:1027D000E4000000FC00000080B485B000AF0023DE
:1027E000FB60FB68DB00154A1344154A93421ED276
:1027F000124AFB6852F833307B60104AFB68DB00FA
:1028000013445B683B600023BB60BA683B689A4234
:1028100009D2BB689B007A68134400221A60BB6827
:102820000133BB60F1E7FB680133FB60D9E700BF10
:102830001437BD465DF8047B704700BFFC00000004
:102840000C01000080B500AFFFF778FFFFF7C4FF71
:1028500005F0CEFA00BF80BD80B58CB002AF7860C5
:102860007B681B687B627B685B683B627B689B68FC
:10287000FB617B68DB68BB617B681B697B617B6894
:102880005B693B617B689B69FB607B68DB69BB6064
:102890000D4802F023F9796A3A6AF869BB69009336
:1028A00003460A4802F01AF979693A69F868BB6880
:1028B00000930346064802F011F9FB68194601200F
:1028C000FDF75EFEFEE700BF4C8B0000788B00003A
:1028D000AC8B000080B400AF1EF0040F0CBFEFF310
:1028E0000880EFF309808169004A104759280000E9
:1028F00000BFBD465DF8047B7047FFFF80B584B024
:1029000000AF164BFB60FB683B603B6883F30988B4
:10291000FB687B607B6883F30888FFF793FF104BAD
:102920001B6803F00103002B14BF01230023DBB25B
:10293000002B01D002F0F4F802F012FDFFF7C0FA0C
:10294000B860BB68002B04DBB968064802F0C6F823
:1029500003E0B968044802F0C1F8FEE70000011086
:10296000F0ED00E0E48B0000188C000080B582B030
:1029700000AF786039607B68012B11D13B684FF65E
:10298000FF7293420CD1084B1B6803F00103002B2C
:1029900006D1054B01221A60044B1846FFF728F9AF
:1029A00000BF0837BD4680BD900200102C0100100A
:1029B00080B500AF4FF6FF710120FFF7D7FF80BD54
:1029C00080B483B000AF78607B6803F108027B6855
:1029D0005A607B684FF0FF329A607B6803F108020F
:1029E0007B68DA607B6803F108027B681A617B68A8
:1029F00000221A6000BF0C37BD465DF8047B7047AB
:102A000080B483B000AF78607B6800221A6100BF99
:102A10000C37BD465DF8047B704780B485B000AFCD
:102A2000786039607B685B68FB603B68FA685A6075
:102A3000FB689A683B689A60FB689B683A685A60D2
:102A4000FB683A689A603B687A681A617B681B6821
:102A50005A1C7B681A6000BF1437BD465DF8047BC2
:102A6000704780B485B000AF786039603B681B6800
:102A7000BB60BB68B3F1FF3F03D17B681B69FB60A0
:102A80000CE07B680833FB6002E0FB685B68FB607E
:102A9000FB685B681B68BA689A42F6D2FB685A68A2
:102AA0003B685A603B685B683A689A603B68FA68C2
:102AB0009A60FB683A685A603B687A681A617B687A
:102AC0001B685A1C7B681A6000BF1437BD465DF84E
:102AD000047B704780B485B000AF78607B681B6969
:102AE000FB607B685B687A6892689A607B689B6829
:102AF0007A6852685A60FB685B687A689A4203D1C8
:102B00007B689A68FB685A607B6800221A61FB68E0
:102B10001B685A1EFB681A60FB681B68184614374E
:102B2000BD465DF8047B704780B58AB004AFF8609D
:102B3000B9607A603B60BB6A002B1ED07B6A002BB9
:102B40001BD0BB6A7B617B697A6A1A637B6902224C
:102B500083F85D20002303937B69029307F1100340
:102B600001933B6A00933B687A68B968F86800F0A3
:102B700050F8786900F0C8F801E000233B613B6938
:102B800018461837BD4680BD80B58CB004AFF860DC
:102B9000B9603B601346FB80FB889B00184600F041
:102BA000E5FD78617B69002B0ED0602000F0DEFD32
:102BB000F861FB69002B03D0FB697A691A6305E0B1
:102BC000786900F0E5FD01E00023FB61FB69002B63
:102BD00017D0FB69002283F85D20FA880023039355
:102BE000FB690293FB6A0193BB6A00933B68B96877
:102BF000F86800F00EF8F86900F086F80123BB6170
:102C000002E04FF0FF33BB61BB6918462037BD4679
:102C100080BD80B586B000AFF860B9607A603B6077
:102C2000BB6A186B7B689B001A46A52105F01FF94B
:102C3000BB6A1A6B7B6803F18043013B9B00134422
:102C40003B613B6923F007033B6100237B6112E09A
:102C5000BA687B6913441978BA6A7B6913443433C0
:102C60000A461A70BA687B6913441B78002B06D099
:102C70007B6901337B617B690F2BE9D900E000BFE1
:102C8000BB6A002283F843203B6A042B01D904234A
:102C90003B62BB6A3A6ADA62BB6A3A6ADA64BB6A66
:102CA00000221A65BB6A04331846FFF7A9FEBB6A07
:102CB00018331846FFF7A4FEBB6ABA6A1A613B6A6A
:102CC000C3F10502BB6A9A61BB6ABA6A5A62BB6AFF
:102CD00000225A65BB6A00229A65BB6A002283F80B
:102CE0005C203A68F968386902F03EFC0246BB6A2B
:102CF0001A607B6A002B02D07B6ABA6A1A6000BF36
:102D00001837BD4680BDFFFF80B582B000AF786048
:102D100002F0C8FC2C4B1B6801332B4A13602B4B71
:102D20001B68002B09D1294A7B681360264B1B685E
:102D3000012B10D100F082FB0DE0254B1B68002B0E
:102D400009D1224B1B68DA6A7B68DB6A9A4202D897
:102D50001E4A7B6813601F4B1B6801331D4A1360BA
:102D60001C4B1A687B685A647B68DB6A01229A40B4
:102D7000194B1B681343184A13607B68DA6A1346C1
:102D80009B0013449B00154A1A447B680433194680
:102D90001046FFF742FE02F09FFC0D4B1B68002B14
:102DA0000ED00A4B1B68DA6A7B68DB6A9A4207D24C
:102DB0000B4B4FF080521A60BFF34F8FBFF36F8FF2
:102DC00000BF0837BD4680BD80030010A802001078
:102DD0008C0300109C03001088030010AC0200104C
:102DE00004ED00E080B584B000AF78600023FB60A4
:102DF0007B68002B08D000F06FF80021786800F0A5
:102E00004FFC00F077F8F860FB68002B07D1064B09
:102E10004FF080521A60BFF34F8FBFF36F8F00BF28
:102E20001037BD4680BD00BF04ED00E080B58AB01C
:102E300004AF0023FB600023BB603A1D07F10801CB
:102E400007F10C03184602F0CDFC7968BB68FA68FC
:102E5000029201930023009300230A46184919485F
:102E6000FFF762FE0246184B1A60174B1B68002BD7
:102E700002D001237B6101E000237B617B69012B90
:102E800002D102F0EFFC78617B69012B14D14FF085
:102E9000280383F31188BFF36F8FBFF34F8F3B611C
:102EA0000A4B4FF0FF321A60094B01221A60094B9E
:102EB00000221A6002F0CCFB00BF1837BD4680BD6F
:102EC0004C8C00002D340000A4030010A00300105F
:102ED0008C0300108403001080B400AF044B1B6807
:102EE0000133034A136000BFBD465DF8047B7047A1
:102EF000A803001080B584B000AF0023FB6000235E
:102F0000BB6002F0CFFB394B1B68013B374A1360B3
:102F1000364B1B68002B61D1354B1B68002B5DD0F5
:102F20002EE0344BDB68DB68FB60FB681833184627
:102F3000FFF7D0FDFB6804331846FFF7CBFDFB68B5
:102F4000DB6A01229A402C4B1B6813432A4A136008
:102F5000FB68DA6A13469B0013449B00274A1A4415
:102F6000FB68043319461046FFF757FDFB68DA6A21
:102F7000234B1B68DB6A9A4202D3224B01221A6060
:102F80001C4B1B68002BCCD1FB68002B01D000F040
:102F9000DFFA1D4B1B687B607B68002B10D000F0B4
:102FA00047F80346002B02D0164B01221A607B68BB
:102FB000013B7B607B68002BF1D1134B00221A6030
:102FC000104B1B68002B09D00123BB600F4B4FF047
:102FD00080521A60BFF34F8FBFF36F8F02F07CFBFC
:102FE000BB6818461037BD4680BD00BFA80300105F
:102FF000800300104003001088030010AC02001092
:10300000A8020010940300109003001004ED00E0EB
:1030100080B483B000AF054B1B687B607B681846AB
:103020000C37BD465DF8047B704700BF8403001079
:1030300080B586B000AF00237B61484B1B68002B36
:103040007CD1474B1B6801333B61454A3B691360A8
:103050003B69002B10D1434B1B68FB60424B1B6844
:10306000404A1360404AFB681360404B1B680133C1
:103070003E4A136000F06CFA3D4B1B683A699A4275
:103080004DD3384B1B681B68002B01D1012300E096
:103090000023002B04D0364B4FF0FF321A603EE085
:1030A000304B1B68DB68DB68BB60BB685B687B60C0
:1030B0003A697B689A4203D22D4A7B6813602EE0FE
:1030C000BB6804331846FFF705FDBB689B6A002BFD
:1030D00004D0BB6818331846FFF7FCFCBB68DB6AFA
:1030E00001229A40234B1B681343224A1360BB689A
:1030F000DA6A13469B0013449B001F4A1A44BB68BC
:10310000043319461046FFF788FCBB68DA6A1B4B8C
:103110001B68DB6A9A42B4D301237B61B1E7174B8A
:103120001B68DA6A144913469B0013449B000B4446
:103130001B68012B07D901237B6104E0104B1B683E
:1031400001330F4A13600F4B1B68002B01D0012382
:103150007B617B6918461837BD4680BDA803001007
:1031600084030010380300103C0300109803001083
:10317000A003001088030010AC020010A802001089
:10318000900300109403001080B584B000AF284B6A
:103190001B68002B03D0274B01221A6043E0254B0C
:1031A00000221A6002F0A2F80246234B1A60224B5A
:1031B0001A68224B1B689A4209D9214B1B68596D2A
:1031C0001D4A10681D4A1268821A0A445A651A4B31
:1031D0001B681A4A13601B4B1B687B607B68B3FA41
:1031E00083F3FB70FB78C3F11F03FB60FA6813469F
:1031F0009B0013449B00144A1344BB60BB685B688C
:103200005A68BB685A60BB685A68BB6808339A4200
:1032100004D1BB685B685A68BB685A60BB685B686E
:10322000DB68074A136000BF1037BD4680BD00BF92
:10323000A803001094030010B0030010AC030010AA
:10324000A802001088030010AC02001080B582B004
:1032500000AF78603960074B1B68183319467868EF
:10326000FFF7FFFB0121386800F01AFA00BF0837AA
:10327000BD4680BDA802001080B584B000AFF860E4
:10328000B9607A600A4B1B6818331946F868FFF773
:10329000C4FB7B68002B02D04FF0FF33BB60796822
:1032A000B86800F0FDF900BF1037BD4680BD00BF13
:1032B000A802001080B584B000AF78607B68DB683E
:1032C000DB68BB60BB6818331846FFF703FC1D4B77
:1032D0001B68002B1CD1BB6804331846FFF7FAFBB0
:1032E000BB68DB6A01229A40174B1B681343164ADE
:1032F0001360BB68DA6A13469B0013449B00134AB1
:103300001A44BB68043319461046FFF786FB05E0F4
:10331000BB68183319460E48FFF77FFBBB68DA6AB3
:103320000C4B1B68DB6A9A4205D90123FB600A4BF0
:1033300001221A6001E00023FB60FB681846103789
:10334000BD4680BDA803001088030010AC02001029
:1033500040030010A80200109403001080B483B052
:1033600000AF7860064B1A687B681A60054B1A68D4
:103370007B685A6000BF0C37BD465DF8047B704720
:10338000980300108403001080B586B000AF786009
:10339000396002F087F91D4B1B683B617B685B68F5
:1033A0003A69D31AFB603B681B68B3F1FF3F02D157
:1033B00000237B6123E07B681A68154B1B689A42E7
:1033C00007D07B685B683A699A4202D301237B612C
:1033D00015E03B681B68FA689A420BD23B681A6892
:1033E000FB68D21A3B681A607868FFF7B7FF0023C2
:1033F0007B6104E03B6800221A6001237B6102F0DC
:103400006BF97B6918461837BD4680BD84030010F0
:103410009803001080B400AF034B01221A6000BF74
:10342000BD465DF8047B70479403001080B582B000
:1034300000AF786000F042F8FCE7FFFF80B582B093
:1034400000AF00237B600CE07A6813469B001344B6
:103450009B00124A13441846FFF7B2FA7B68013307
:103460007B607B68042BEFD90D48FFF7A9FA0D4864
:10347000FFF7A6FA0C48FFF7A3FA0C48FFF7A0FAEB
:103480000B48FFF79DFA0B4B054A1A600A4B054A99
:103490001A6000BF0837BD4680BD00BFAC020010F7
:1034A0001003001024030010400300105403001008
:1034B0006C030010380300103C03001080B582B08C
:1034C00000AF19E002F0EEF80F4BDB68DB687B60C1
:1034D0007B6804331846FFF7FDFA0C4B1B68013B71
:1034E0000A4A13600A4B1B68013B094A136002F049
:1034F000F3F8786800F00EF8054B1B68002BE1D15B
:1035000000BF0837BD4680BD540300108003001083
:103510006803001080B582B000AF78607B6893F8D4
:103520005D30002B08D17B681B6B184600F030F92A
:10353000786800F02DF907E07B6893F85D30012B87
:1035400002D1786800F024F900BF0837BD4680BD7D
:1035500080B483B000AF0F4B1B681B68002B01D1F8
:10356000012300E00023002B04D00B4B4FF0FF326F
:103570001A6008E0074B1B68DB68DB687B607B68D0
:103580005B68054A136000BF0C37BD465DF8047BDD
:10359000704700BF38030010A003001080B483B050
:1035A00000AF0B4B1B68002B02D101237B6008E0AE
:1035B000084B1B68002B02D102237B6001E0002333
:1035C0007B607B6818460C37BD465DF8047B70470E
:1035D0008C030010A803001080B584B000AF7860A1
:1035E0007B68BB600023FB607B68002B4FD0BB680F
:1035F0001B6D5A1EBB681A65BB68DA6ABB68DB6C58
:103600009A4244D0BB681B6D002B40D1BB68043389
:103610001846FFF75FFA0346002B15D1BB68DA6A3C
:103620001D4913469B0013449B000B441B68002B51
:103630000AD1BB68DB6A012202FA03F3DA43174BB3
:103640001B681340154A1360BB68DA6CBB68DA620A
:10365000BB68DB6AC3F10502BB689A61BB68DB6AC1
:1036600001229A400D4B1B6813430C4A1360BB6840
:10367000DA6A13469B0013449B00074A1A44BB684E
:10368000043319461046FFF7C8F90123FB60FB68B5
:1036900018461037BD4680BDAC02001088030010EC
:1036A00080B584B000AF78603960294B1B68FB603F
:1036B000284B1B6804331846FFF70CFA0346002B0F
:1036C0000BD1244B1B68DB6A012202FA03F3DA43B5
:1036D000214B1B681340204A13607B68B3F1FF3F06
:1036E0000AD13B68002B07D01A4B1B6804331946DC
:1036F0001A48FFF792F926E0FA687B681344BB602A
:10370000144B1B68BA685A60BA68FB689A4209D2BF
:10371000134B1A680F4B1B68043319461046FFF70A
:10372000A0F910E00F4B1A680A4B1B6804331946C6
:103730001046FFF796F90C4B1B68BA689A4202D202
:10374000094ABB68136000BF1037BD4680BD00BF8B
:1037500084030010A8020010880300106C030010FE
:103760003C03001038030010A003001080B584B0A3
:1037700000AF7860FFF7B0FB786804F05DFB0346AC
:10378000FB60FFF7B7FBFB6818461037BD4680BDEE
:1037900080B582B000AF78607B68002B06D0FFF761
:1037A0009BFB786804F050FBFFF7A4FB00BF0837D1
:1037B000BD4680BD80B400AF01231846BD465DF80C
:1037C000047B704780B483B000AF786039604FF0FD
:1037D000FF3318460C37BD465DF8047B7047FFFF8A
:1037E00080B485B000AF78600C4B1B68FB600B4B5E
:1037F0001A687B6813440A4A934201D90023FB608C
:10380000064B1A687B681344044A1360FB68184629
:103810001437BD465DF8047B704700BF640000109C
:103820000080002080B584B000AFF860B9607A6095
:103830007B681946B86801F07AF9054B1B687A680D
:103840001146B8689847034618461037BD4680BDF4
:103850005C00001080B584B000AF7860786804F038
:103860000BFC0346FB600023BB60FA68796800200C
:10387000FFF7D8FF0246BB681344BB60012206492C
:103880000020FFF7CFFF0246BB681344BB60BB6854
:1038900018461037BD4680BD7C8C000080B483B0D4
:1038A00000AF786000BFFDE780B588B000AFB960B9
:1038B0007A603B600346FB73FE237B617A697B6819
:1038C000B3FBF2F102FB01F29B1AFB61BA68FB69E0
:1038D0001344FA7B1A70FB7B002B06D1FB691A4656
:1038E000B9680120FFF79EFF12E0FB695A1C7B6953
:1038F0009A420DD17B690133BB61BA68BB6913443D
:1039000000221A70BB691A46B9680120FFF78AFFC6
:1039100000BF2037BD4680BD80B485B000AFB96020
:103920007A603B600346FB7300BF1437BD465DF809
:10393000047B704780B485B000AF78607B68FB6023
:10394000FB681B78002B03D0FB680133FB60F7E7B3
:10395000FA687B68D31A18461437BD465DF8047BB5
:10396000704780B483B000AF0346FB71FB792F2B07
:1039700004D9FB79392B01D8012300E00023184634
:103980000C37BD465DF8047B704780B584B000AF4E
:1039900078600023FB607B681B681B781846FFF784
:1039A000E0FF0346002B0FD0FA6813469B00134438
:1039B0005B0018467B681B68591C7A6811601B788D
:1039C0000344303BFB60E6E7FB6818461037BD4612
:1039D00080BD90B589B000AFF860B9607A603B6097
:1039E0007B687B61BB6C03F00203002B0ED17A6B0A
:1039F0003B6C9A420AD27B6B1F2B07D87B6B5A1CFD
:103A00007A633A6B134430221A70EBE7BB6C03F015
:103A10000203002B13D1BB6C03F00103002B0ED06B
:103A20007A6B7B6C9A420AD27B6B1F2B07D87B6B1D
:103A30005A1C7A633A6B134430221A70E6E7BB6C67
:103A400003F01003002B58D0BB6C03F48063002BF1
:103A500016D17B6B002B13D07A6B3B6C9A4203D050
:103A60007A6B7B6C9A420BD17B6B013B7B637B6BEC
:103A7000002B05D0FB6B102B02D17B6B013B7B63D2
:103A8000FB6B102B0FD1BB6C03F02003002B0AD172
:103A90007B6B1F2B07D87B6B5A1C7A633A6B1344E2
:103AA00078221A701FE0FB6B102B0FD1BB6C03F058
:103AB0002003002B0AD07B6B1F2B07D87B6B5A1C73
:103AC0007A633A6B134458221A700CE0FB6B022B9A
:103AD00009D17B6B1F2B06D87B6B5A1C7A633A6B20
:103AE000134462221A707B6B1F2B06D87B6B5A1C07
:103AF0007A633A6B134430221A707B6B002B14D01C
:103B00007A6B7B6C9A4210D197F83830002B09D130
:103B1000BB6C03F00403002B04D1BB6C03F008035F
:103B2000002B02D07B6B013B7B637B6B1F2B24D86C
:103B300097F83830002B07D07B6B5A1C7A633A6BAE
:103B400013442D221A7018E0BB6C03F00403002B01
:103B500007D07B6B5A1C7A633A6B13442B221A7082
:103B60000BE0BB6C03F00803002B06D07B6B5A1CE8
:103B70007A633A6B134420221A70BB6C03F0020381
:103B8000002B16D1BB6C03F00103002B11D17B6B12
:103B9000FB61FA697B6C9A420BD27A68531C7B609A
:103BA000FC683B68B9682020A047FB690133FB61D2
:103BB000EFE70023BB61BA697B6B9A4211D27A6B43
:103BC000BB69D31A013B3A6B134418787A68531CCB
:103BD0007B60FC683B68B968A047BB690133BB6187
:103BE000E9E7BB6C03F00203002B0ED07A687B6917
:103BF000D31A7A6C9A4208D97A68531C7B60FC68A5
:103C00003B68B9682020A047F0E77B681846243756
:103C1000BD4690BD80B596B008AFF860B9607A60D7
:103C20003B6000237B633B6C002B03D17B6D23F057
:103C300010037B657B6D03F48063002B02D03B6C2B
:103C4000002B34D03B6CBA6CB3FBF2F2B96C01FBC5
:103C500002F29B1A87F8333097F83330092B04D8D7
:103C600097F833303033DAB20DE07B6D03F0200388
:103C7000002B01D0412200E0612297F83330134439
:103C8000DBB20A3BDAB27B6B591C796307F138016E
:103C90000B4403F8282C3A6CBB6CB2FBF3F33B6487
:103CA0003B6C002B03D07B6B1F2B00D8CAE77B6DCE
:103CB00006933B6D0593FB6C0493BB6C039397F8E1
:103CC000443002937B6B019307F1100300933B6830
:103CD0007A68B968F868FFF77CFE034618463837FB
:103CE000BD4680BD90B597B008AFF860B9607A6006
:103CF0003B6000237B63D7E91234234303D1BB6EBF
:103D000023F01003BB66BB6E03F48063002B03D06B
:103D1000D7E9123423433AD0D7E91201D7E9162361
:103D200002F058FF1C46134687F8333097F83330BB
:103D3000092B04D897F833303033DAB20DE0BB6E7C
:103D400003F02003002B01D0412200E0612297F80C
:103D500033301344DBB20A3BDAB27B6B591C796314
:103D600007F138010B4403F8282CD7E91623D7E9CB
:103D7000120102F02FFF03460C46C7E91234D7E9BF
:103D80001234234303D07B6B1F2B00D8C4E7BB6DD9
:103D9000BA6E06927A6E05923A6E0492039397F881
:103DA000503002937B6B019307F1100300933B6843
:103DB0007A68B968F868FFF70CFE034618463C3786
:103DC000BD4690BD90B59BB000AF78613961FA6097
:103DD000BB6087ED000BFB687B64D7E9000102F054
:103DE0009BFD03467B6600233B664FF000033B646C
:103DF0004FF09E43FB63002387F85F30D7ED197ABD
:103E0000F5EEC07AF1EE10FA0AD5012387F85F309B
:103E10009FEDAB7AD7ED197A77EE677AC7ED197A0D
:103E2000D7F8803003F48063002B01D10623BB67F1
:103E30003B6E1F2B0FD8BB6F092B0CD93B6E5A1C46
:103E40003A6607F168021344302203F8502CBB6F26
:103E5000013BBB67ECE7D7ED197AFDEEE77A17EE89
:103E6000903ABB65BB6D07EE903AF8EEE77A97EDB6
:103E7000197A37EE677A934ABB6F9B001344D3EDF0
:103E8000007A67EE277AC7ED0E7AD7ED0E7AFCEE50
:103E9000E77A17EE903A7B657B6D07EE903AF8EE85
:103EA000677A97ED0E7A77EE677AC7ED107AD7EDDD
:103EB000107AB6EE007AF4EEC77AF1EE10FA18DD59
:103EC0007B6D01337B657B6D07EE903AB8EE677AC8
:103ED0007C4ABB6F9B001344D3ED007AB4EEE77AC3
:103EE000F1EE10FA19DB00237B65BB6D0133BB6576
:103EF00013E0D7ED107AB6EE007AF4EE477AF1EEE1
:103F000010FA0AD17B6D002B04D07B6D03F0010306
:103F1000002B02D07B6D01337B65D7ED197A9FEDC5
:103F20006A7AF4EEC77AF1EE10FA01DD002366E159
:103F3000BB6F002B29D1BB6D07EE903AF8EEE77A04
:103F400097ED197A77EE677AC7ED107AD7ED107A88
:103F5000B6EE007AF4EEC77AF1EE10FA03DDBB6D2F
:103F60000133BB6562E0D7ED107AB6EE007AF4EE6D
:103F7000477AF1EE10FA59D1BB6D03F00103002B23
:103F800054D0BB6D0133BB6550E0BB6F3B653B6EEE
:103F90001F2B28D83B6D013B3B65796D4B4BA3FB39
:103FA0000123DA0813469B0013445B00CA1AD3B2FC
:103FB0003033D9B23B6E5A1C3A6607F1680213449B
:103FC0000A4603F8502C7B6D404AA2FB0323DB0812
:103FD0007B657B6D002B0CBF01230023DBB2002B24
:103FE00000D1D4E700BF3B6E1F2B06D83B6D5A1E95
:103FF0003A65002B01D0012300E00023002B09D0FB
:104000003B6E5A1C3A6607F168021344302203F8EB
:10401000502CE8E73B6E1F2B08D83B6E5A1C3A66C3
:1040200007F1680213442E2203F8502C3B6E1F2B1D
:1040300029D8BA6D264B83FB02139910D317C91ADE
:104040000B469B000B445B00D11ACBB23033D9B284
:104050003B6E5A1C3A6607F1680213440A4603F89D
:10406000502CBB6D1A4A82FB03129210DB17D31A35
:10407000BB65BB6D002B0CBF01230023DBB2002B03
:1040800000D1D3E700BFD7F8803003F00203002B44
:1040900020D1D7F8803003F00103002B1AD03A6EFC
:1040A000FB6F9A4216D23B6E1F2B13D83B6E5A1CE5
:1040B0003A6607F168021344302203F8502CE2E715
:1040C00000000000808C00000000004FCDCCCCCC64
:1040D000676666663A6EFB6F9A4212D197F85F3058
:1040E000002B0BD1D7F8803003F00403002B05D14F
:1040F000D7F8803003F00803002B02D03B6E013B61
:104100003B663B6E1F2B2CD897F85F30002B09D0F5
:104110003B6E5A1C3A6607F1680213442D2203F8DD
:10412000502C1EE0D7F8803003F00403002B09D098
:104130003B6E5A1C3A6607F1680213442B2203F8BF
:10414000502C0EE0D7F8803003F00803002B08D085
:104150003B6E5A1C3A6607F168021344202203F8AA
:10416000502CD7F8803003F00203002B17D1D7F87A
:10417000803003F00103002B11D13B6EFB64FA6C1D
:10418000FB6F9A420BD2FA68531CFB607C69BB68D8
:1041900039692020A047FB6C0133FB64EFE7002363
:1041A000BB64BA6C3B6E9A4213D23A6EBB6CD31AA4
:1041B000013B07F16802134413F8500CFA68531CD2
:1041C000FB607C69BB683969A047BB6C0133BB6489
:1041D000E7E7D7F8803003F00203002B0ED0FA682F
:1041E0007B6CD31AFA6F9A4208D9FA68531CFB60A9
:1041F0007C69BB6839692020A047F0E7FB68184656
:104200006C37BD4690BD00BFB0B5A0B00AAFF86036
:10421000B9607A603B6000237B64BB68002B01D1EE
:10422000A24BFB603B681B78002B00F045843B6889
:104230001B78252B0DD03B6818787A6C531C7B6457
:10424000FC687B68B968A0473B6801333B6000F0BD
:1042500031BC3B6801333B6000237B653B681B78C6
:10426000203B102B56D801A252F823F0ED4200005B
:1042700015430000154300000143000015430000F2
:1042800015430000154300001543000015430000CE
:104290001543000015430000D942000015430000FB
:1042A000C54200001543000015430000B142000064
:1042B0007B6D43F001037B653B6801333B60012369
:1042C000BB642AE07B6D43F002037B653B680133EE
:1042D0003B600123BB6420E07B6D43F004037B65FE
:1042E0003B6801333B600123BB6416E07B6D43F008
:1042F00008037B653B6801333B600123BB640CE032
:104300007B6D43F010037B653B6801333B60012309
:10431000BB6402E00023BB6400BFBB6C002B00D079
:104320009CE700233B653B681B781846FFF719FBA9
:104330000346002B05D03B461846FFF726FB3865A1
:1043400018E03B681B782A2B14D1BB6E1A1DBA6685
:104350001B683B633B6B002B07DA7B6D43F002036A
:104360007B653B6B5B423B6501E03B6B3B653B68C0
:1043700001333B600023FB643B681B782E2B24D168
:104380007B6D43F480637B653B6801333B603B6836
:104390001B781846FFF7E5FA0346002B05D03B468D
:1043A0001846FFF7F2FAF8640FE03B681B782A2BF7
:1043B0000BD1BB6E1A1DBA661B68FB62FB6A23EA4F
:1043C000E373FB643B6801333B603B681B78683BED
:1043D000122B67D801A252F823F000BF4F4400000F
:1043E000A544000085440000A544000029440000C5
:1043F000A5440000A5440000A5440000A544000019
:10440000A5440000A5440000A54400007544000038
:10441000A5440000A5440000A5440000A5440000F8
:10442000A5440000954400007B6D43F480737B65D8
:104430003B6801333B603B681B786C2B34D17B6D50
:1044400043F400737B653B6801333B602CE07B6D7C
:1044500043F080037B653B6801333B603B681B781E
:10446000682B25D17B6D43F040037B653B680133AE
:104470003B601DE07B6D43F480737B653B680133DB
:104480003B6016E07B6D43F400737B653B68013352
:104490003B600EE07B6D43F480737B653B680133CA
:1044A0003B6006E000BF04E000BF02E019390000F5
:1044B00000BF3B681B78253B532B00F2EE8201A224
:1044C00052F823F0834A00009B4A00009B4A0000F8
:1044D0009B4A00009B4A00009B4A00009B4A000048
:1044E0009B4A00009B4A00009B4A00009B4A000038
:1044F0009B4A00009B4A00009B4A00009B4A000028
:104500009B4A00009B4A00009B4A00009B4A000017
:104510009B4A00009B4A00009B4A00009B4A000007
:104520009B4A00009B4A00009B4A00009B4A0000F7
:104530009B4A00009B4A00009B4A00009B4A0000E7
:104540009B4A00009B4A0000A14800009B4A0000D3
:104550009B4A00009B4A00009B4A00009B4A0000C7
:104560009B4A00009B4A00009B4A00009B4A0000B7
:104570009B4A00009B4A00009B4A00009B4A0000A7
:104580009B4A00009B4A00009B4A00009B4A000097
:10459000154600009B4A00009B4A00009B4A000011
:1045A0009B4A00009B4A00009B4A00009B4A000077
:1045B0009B4A00009B4A000015460000DD480000B1
:1045C000154600009B4A0000A14800009B4A0000DD
:1045D0009B4A0000154600009B4A00009B4A0000D1
:1045E0009B4A00009B4A00009B4A000015460000C1
:1045F0003B4A00009B4A00009B4A000065490000BE
:104600009B4A0000154600009B4A00009B4A0000A0
:10461000154600003B681B78782B03D03B681B785D
:10462000582B02D110233B6413E03B681B786F2B9F
:1046300002D108233B640CE03B681B78622B02D15B
:1046400002233B6405E00A233B647B6D23F01003E7
:104650007B653B681B78582B03D17B6D43F02003AF
:104660007B653B681B78692B07D03B681B78642B04
:1046700003D07B6D23F00C037B657B6D03F48063BB
:10468000002B03D07B6D23F001037B653B681B7817
:10469000692B04D03B681B78642B40F08D807B6DC8
:1046A00003F40073002B2ED0BB6E073323F00703F7
:1046B00003F10802BA66D3E90034C7E90434D7E944
:1046C0000434002B74F1000202DA5B4264EB440410
:1046D000194622467B69DB0FD8B23B6C4FF00004D1
:1046E0007D6D08953D6D0795FD6C0695CDE904340B
:1046F0000290CDE900127B687A6CB968F868FFF720
:10470000F1FA7864C8E07B6D03F48073002B1ED04F
:10471000BB6E1A1DBA661B68FB61FB69002BB8BF34
:104720005B421946FB69DB0FDBB27A6D05923A6D8D
:104730000492FA6C03923A6C0292019300917B68A6
:104740007A6CB968F868FFF765FA7864A4E07B6D65
:1047500003F04003002B05D0BB6E1A1DBA661B6820
:10476000DBB20EE07B6D03F08003002B05D0BB6E47
:104770001A1DBA661B681BB203E0BB6E1A1DBA662F
:104780001B683B623B6A002BB8BF5B4219463B6A21
:10479000DB0FDBB27A6D05923A6D0492FA6C0392EC
:1047A0003A6C0292019300917B687A6CB968F86860
:1047B000FFF730FA78646FE07B6D03F40073002B31
:1047C00020D0BB6E073323F0070303F10802BA665B
:1047D000D3E900343A6C11464FF00002786D08902E
:1047E000386D0790F86C0690CDE904120022029211
:1047F000CDE900347B687A6CB968F868FFF772FA23
:10480000786449E07B6D03F48073002B16D0BB6E97
:104810001A1DBA661B687A6D05923A6D0492FA6C9D
:1048200003923A6C02920022019200937B687A6CA8
:10483000B968F868FFF7EEF978642DE07B6D03F056
:104840004003002B05D0BB6E1A1DBA661B68DBB295
:104850000EE07B6D03F08003002B05D0BB6E1A1DAC
:10486000BA661B689BB203E0BB6E1A1DBA661B6872
:104870007B627B6D05933B6D0493FB6C03933B6CF8
:104880000293002301937B6A00937B687A6CB9687A
:10489000F868FFF7BFF978643B6801333B6009E1D2
:1048A000BB6E073323F0070303F10802BA6693EDEA
:1048B000007B7B6D02933B6D0193FB6C0093B0EE2C
:1048C000470AF0EE670A7B687A6CB968F868FFF708
:1048D00079FA78643B6801333B60EBE00123FB63CA
:1048E0007B6D03F00203002B13D1FB6B5A1CFA63A0
:1048F0003A6D9A428CBF01230023DBB2002B08D013
:104900007A6C531C7B64FC687B68B9682020A047E4
:10491000EBE7BB6E1A1DBA661B68D8B27A6C531CE3
:104920007B64FC687B68B968A0477B6D03F0020379
:10493000002B13D0FB6B5A1CFA633A6D9A428CBF62
:1049400001230023DBB2002B08D07A6C531C7B645C
:10495000FC687B68B9682020A047EBE73B6801331F
:104960003B60A7E0BB6E1A1DBA661B68BB63B86BE1
:10497000FEF7E0FF78637B6D03F48063002B07D0C4
:104980007A6BFB6C9A4201D27B6B00E0FB6C7B6321
:104990007B6D03F00203002B13D17B6B5A1C7A63EF
:1049A0003A6D9A428CBF01230023DBB2002B08D062
:1049B0007A6C531C7B64FC687B68B9682020A04734
:1049C000EBE7BB6B1B78002B0BD07B6D03F4806394
:1049D000002B04D0FB6C5A1EFA64002B01D001237B
:1049E00000E00023002B0BD0BB6B5A1CBA63187875
:1049F0007A6C531C7B64FC687B68B968A047E0E76D
:104A00007B6D03F00203002B13D07B6B5A1C7A637F
:104A10003A6D9A428CBF01230023DBB2002B08D0F1
:104A20007A6C531C7B64FC687B68B9682020A047C3
:104A3000EBE73B6801333B603CE008233B657B6D63
:104A400043F021037B65002387F82B30BB6E1A1DD2
:104A5000BA661B681A467B6D05933B6D0493FB6C2D
:104A60000393102302930023019300927B687A6CD6
:104A7000B968F868FFF7CEF878643B6801333B60AB
:104A800018E07A6C531C7B64FC687B68B96825204D
:104A9000A0473B6801333B600CE03B6818787A6CB8
:104AA000531C7B64FC687B68B968A0473B68013392
:104AB0003B6000BFFFF7B6BB7A6C7B689A4202D3BB
:104AC0007B685A1E00E07A6CFC687B68B96800203D
:104AD000A0477B6C18465837BD46B0BD0FB480B5B3
:104AE000C4B002AF07F58A73C7F800313946D7F86A
:104AF00000310093D7F810314FF0FF320748FFF72D
:104B000083FBC7F80401D7F80431184607F584770A
:104B1000BD46BDE8804004B0704700BFA938000022
:104B200080B400AF00BFBD465DF8047B704780B520
:104B300082B000AF786039603968786800F006F8B4
:104B4000034618460837BD4680BDFFFFB0B58CB0A0
:104B500000AF786039602D4B1B6803F00103002B18
:104B60000CBF01230023DBB2002B01D03B6849E0DE
:104B7000274B1B68002B1DD1264BBB600423FB6019
:104B800003233B610123BB6207F108037B62BC6A1C
:104B90007D6A20462946ABBE04463C623B6AFB6206
:104BA000FB6AB3F1FF3F02D14FF0FF332AE0184A0E
:104BB000FB6A1360164B1B68BB607B68FB603B683D
:104BC0003B610523FB6107F10803BB61FC69BD691B
:104BD00020462946ABBE04467C617B69FB62FB6ACA
:104BE000B3F1FF3F02D14FF0FF330BE03B681A46B1
:104BF000FB6A934202D14FF0FF3303E03B681A4651
:104C0000FB6AD31A18463037BD46B0BDF0ED00E060
:104C1000B4030010A88C000080B483B000AF7860AB
:104C20007B6803F01F0207497B685B09012000FADB
:104C300002F241F8232000BF0C37BD465DF8047B2B
:104C4000704700BF00E100E080B483B000AF78603F
:104C50007B6803F01F0207497B685B09012000FAAB
:104C600002F2203341F8232000BF0C37BD465DF827
:104C7000047B704700E100E080B483B000AF78604F
:104C800039607B68002B0BDA3B68DAB20D497B6830
:104C900003F00F03043B5201D2B20B441A760AE030
:104CA0003B68DBB2084A796808465B01D9B2131841
:104CB0000A4683F8002300BF0C37BD465DF8047B2D
:104CC000704700BF00ED00E000E100E080B483B079
:104CD00000AF78600C4B1B68DA680B4B1B6842F026
:104CE0008072DA60094B1B6800225A60074B1B6810
:104CF0001A68064B1B6842F001021A6000BF0C37AD
:104D0000BD465DF8047B70476C0000106800001021
:104D100080B483B000AF7860044B1B685B681846B2
:104D20000C37BD465DF8047B704700BF680000107B
:104D300080B400AFDFF81C00016841F4700101602D
:104D4000BFF34F8FBFF36F8F00BFBD465DF8047B8D
:104D50007047000088ED00E080B584B000AFC7E97F
:104D60000001D7E9000101F0EFFE024607F10C0354
:104D700000EE102A1846FBF759FBFB68184610375F
:104D8000BD4680BD80B586B000AF7860786800F021
:104D900007F8F0EE407AB0EE670A1837BD4680BDDE
:104DA00080B485B000AFF86039723A713B70FB682F
:104DB0001B6807EE903AB0EE670A1437BD465DF8FF
:104DC000047B704780B52DED028B82B000AF786018
:104DD00039607B6893ED008A3B681846FFF7D2FF85
:104DE000F0EE407AB4EEE78AF1EE10FA94BF0123B8
:104DF0000023DBB218460837BD46BDEC028B80BDF0
:104E000080B483B000AF7860044A7B68136000BF51
:104E10000C37BD465DF8047B704700BF00000010F2
:104E200080B483B000AF78607B68103318460C37CD
:104E3000BD465DF8047B704780B582B000AF7860F6
:104E40007868FFF7EDFF03469B00034A13441846BA
:104E50000837BD4680BD00BF2C01001080B582B070
:104E600000AF094B1B685B68DBB27B60074A7B685D
:104E70001360074A7B6852F823303B603B689847D1
:104E800000BF0837BD4680BD70000010480000100C
:104E90002C01001084B090B585B000AF786007F1A8
:104EA000240080E80E007B6AFB60BC6AF868FFF7AC
:104EB000C3FF03461C6097F82C30002B05D0FB681D
:104EC000002B02DBF868FFF7A7FE3B6B002B04DB2F
:104ED0003B6B1946F868FFF7CFFE00BF1437BD469D
:104EE000BDE8904004B0704780B582B000AF7860F4
:104EF00039603868FFF7A8FE3868FFF79DFF024663
:104F0000024B136000BF0837BD4680BD9D1B0000EB
:104F100080B582B000AF78607B68184600F004F876
:104F200078680837BD4680BD80B582B000AF786034
:104F30000349786800F006F878680837BD4680BDF8
:104F40002092000090B482B000AF786039603B6876
:104F5000D3E900347A68C2E900347B681846083720
:104F6000BD4690BC704780B582B000AF78603960B4
:104F70007B683968184600F011F878680837BD4634
:104F800080BD90B482B000AF78607B68D3E9003414
:104F9000184621460837BD4690BC7047F0B585B02D
:104FA00000AF786039603868FFF7EBFF05460E46C2
:104FB0002B4634464FF000014FF00002620142EAF6
:104FC000D36259010B4614465B1B64EB06044FF099
:104FD00000014FF00002A20042EA937299000B46D2
:104FE00014465B1944EB06044FF000014FF0000239
:104FF000E20042EA5372D9000B461446C7E9023474
:1050000007F1080319467868FBF70CFB786814373A
:10501000BD46F0BD90B585B000AF7860396007F14E
:10502000080339681846FFF79EFF07F10803184682
:10503000FCF718FE03460C467A68C2E900347B6828
:1050400018461437BD4690BD80B584B000AF07F157
:1050500008031846FFF75CFF07F108023B461146BC
:105060001846FFF7D7FF3B461946074800F0D4F92A
:10507000064B1B68002B02D0044B1B68984700BFEF
:105080001037BD4680BD00BFC0030010B80300103C
:1050900090B482B000AF78607A68054BD3E90034F1
:1050A000C2E9003478680837BD4690BC704700BF3D
:1050B000C003001080B483B000AF786000BF0C372D
:1050C000BD465DF8047B704780B483B000AF786064
:1050D0003960044A3B68136000BF0C37BD465DF879
:1050E000047B7047B8030010F0B58BB002AF786056
:1050F0000423FB611F4B1B685B68002B14BF01235B
:105100000023DBB2002B30D01A4B1B6800229A60C0
:10511000184B1B681A68174B1B6842F002021A6092
:10512000144B1B681A68134B1B6842F001021A608B
:10513000104B1B681A680F4B1B6842F004021A6080
:105140007B689E687B689B681B681D680A4B07F13B
:105150000C040FCB84E80F00BB69009307F10C032C
:105160000ECB3046A8470023FB61FB691846243765
:10517000BD46F0BD74000010348E000080B584B0D0
:1051800000AF786039607B681846FBF74DFDB0EEE4
:10519000407A3B6807EE903AF8EEE77A77EE677A66
:1051A00007F10C03B0EE670A1846FBF778FDFB68C1
:1051B00018461037BD4680BD80B582B000AF78601C
:1051C0007868FCF7A3FF034618460837BD4680BD44
:1051D00090B589B000AF786039604FF001004FF0B2
:1051E0000001FFF7B9FD0346FB6007F10C023B46E7
:1051F00011461846FFF7E6FD0346002B02D04FF09C
:10520000FF3341E07B685A687B685B681B680C333E
:105210001B68104698470346BB603A4607F10803EF
:1052200011461846FCF732FB03467B6107F1140375
:1052300001211846FFF7A2FF03463B6107F1100367
:105240001846FFF7B9FFF86107F108031846FCF7A5
:1052500019F804463B461846FCF714F80346B4FB1D
:10526000F3F203FB02F3E31ABB61FB69B3F1807F46
:1052700005D36FF07F43FB616FF07F43BB61044B4D
:105280001B68FA695A60BB6918462437BD4690BD51
:105290007400001080B582B000AF786039603A6861
:1052A00079680448FCF7D2F93B6818460837BD46D0
:1052B00080BD00BFCC03001090B587B002AF78600E
:1052C000396007F108031846FCF74CFED7E90234B1
:1052D000CDE900343A6879680348FCF709FA3B687D
:1052E00018461437BD4690BDCC03001080B500AF02
:1052F0000248FFF70DFD0346184680BDC8030010A5
:1053000090B58BB002AF114B3C460FCB84E80F0039
:10531000FB6800933B460ECB0D48FFF7BBFD0D4BE2
:1053200007F110040FCB84E80F00FB69009307F12D
:1053300010030ECB0648FFF7ADFD07490748FFF7FE
:10534000C3FE00BF2437BD4690BD00BF30910000B2
:105350008800001040910000795700007C00001088
:1053600080B582B000AFFFF7E3FC1E4B19681E4802
:10537000FBF7A2FAFF233B703B46012219461A486D
:10538000FBF7E8FA4FF416411848FCF7B9F818484B
:1053900001F0D0F8174801F0DDF8174B19681748ED
:1053A000FFF716FF1548FFF79FFE78607B68002B1C
:1053B0000DD0D623124A13491348FFF78FFB134829
:1053C000FEF748FA00210120FBF7DAF8FEE7104863
:1053D000FFF77CFC0F48FFF713FD00BF0837BD4601
:1053E00080BD00BF2892000078000010CC030010A0
:1053F00095520000B95200002C9200007C00001071
:105400008C9200005892000050910000E48E000041
:10541000C803001091500000F0B583B000AF786071
:1054200039603868FCF71EFC0A4601467B68D3E900
:1054300000566B1846EB02047A68C2E900347B68B8
:1054400018460C37BD46F0BD80B582B000AF78601D
:1054500039607B68012B55D13B684FF6FF72934250
:1054600050D12A4B1B6803F00103002B06D1274BB8
:1054700001221A60264B1846FCF7BAFB254B1B6825
:1054800003F00103002B05D1224B01221A60224AAE
:10549000224B1A60224B1B6803F00103002B05D13D
:1054A0001F4B01221A601F4A1F4B1A601F4B1B68BB
:1054B00003F00103002B05D11C4B01221A601C4A8A
:1054C0001C4B1A601C4B1B6803F00103002B05D119
:1054D000194B01221A60194A194B1A60194B1B68A3
:1054E00003F00103002B05D1164B01221A60164A66
:1054F000164B1A60FBF7A6FD03461A4614491548D9
:10550000FBF7E4FF00BF0837BD4680BD90020010E6
:105510002C0100107C02001000C00F40240100107C
:105520007802001000C0024020010010800200102C
:10553000008009400C0000108402001000C00940E7
:10554000200000108802001000400A4034000010C3
:1055500044920000CC03001080B500AF4FF6FF71FD
:105560000120FFF771FF80BD80B485B000AFF86007
:10557000B9607A60FB68043BFB60FB684FF08072A7
:105580001A60FB68043BFB60BB6823F00102FB6808
:105590001A60FB68043BFB600C4AFB681A60FB68FE
:1055A000143BFB607A68FB681A60FB68043BFB6095
:1055B000FB686FF002021A60FB68203BFB60FB682F
:1055C00018461437BD465DF8047B7047D15500007E
:1055D00080B483B000AF00233B604FF0280383F317
:1055E0001188BFF36F8FBFF34F8F7B6000BF3B68A5
:1055F000002BFCD000BF0C37BD465DF8047B704724
:10560000074B19680868B0E8F04F80F30988BFF3CA
:105610006F8F4FF0000080F311887047AFF3008068
:10562000A802001000BF00BF08480068006880F3AF
:1056300008884FF0000080F3148862B661B6BFF3AB
:105640004F8FBFF36F8F00DF00BF00BF08ED00E09A
:1056500080B500AF104B1B680F4A43F4780313600A
:105660000D4B1B680C4A43F078431360FFF748FE6C
:105670000A4B00221A6000F09FF8094B1B68084A89
:1056800043F040431360FFF7CFFFFDF77DFDFFF7C9
:105690009FFF0023184680BD20ED00E08C00001025
:1056A00034EF00E080B483B000AF4FF0280383F301
:1056B0001188BFF36F8FBFF34F8F7B60054B1B6863
:1056C0000133044A136000BF0C37BD465DF8047B0C
:1056D000704700BF8C00001080B483B000AF0A4B4D
:1056E0001B68013B084A1360074B1B68002B04D161
:1056F00000237B607B6883F3118800BF0C37BD46B5
:105700005DF8047B704700BF8C000010FFFFFFFFB7
:10571000EFF30980BFF36F8F154B1A681EF0100F5F
:1057200008BF20ED108A20E9F04F10602DE9090034
:105730004FF0280080F31188BFF34F8FBFF36F8FB6
:10574000FDF722FD4FF0000080F3118809BC1968B5
:105750000868B0E8F04F1EF0100F08BFB0EC108AD8
:1057600080F30988BFF36F8F704700BFAFF30080ED
:10577000A802001000BF00BF80B582B000AF4FF09C
:10578000280383F31188BFF36F8FBFF34F8F7B60C4
:10579000FDF74EFC0346002B03D0064B4FF0805222
:1057A0001A6000233B603B6883F3118800BF083711
:1057B000BD4680BD04ED00E0DFF80C00016841F457
:1057C00070010160704700BF88ED00E080B483B0D5
:1057D00000AF7860502318460C37BD465DF8047B57
:1057E0007047FFFF80B584B000AFF860B9607A60A1
:1057F000FB68074A1A60BB68064A1A600548FFF74B
:10580000E5FF02467B681A6000BF1037BD4680BDC9
:10581000D80300103804001080B483B000AF786063
:105820004FF4007318460C37BD465DF8047B704793
:1058300080B584B000AFF860B9607A60FB68074A51
:105840001A60BB68064A1A600548FFF7E5FF024682
:105850007B681A6000BF1037BD4680BD7805001018
:10586000D805001080B588B004AF0023FB6000F0BD
:105870005BFA154B1B68002B20D00023BB60002374
:105880007B603A46391D07F108031846FFF7D0FF41
:1058900039687B68BA68029201930423009300235D
:1058A0000A460A490A48FDF73FF90246094B1A60C1
:1058B000084B1B68002B01D00123FB60FB681846D6
:1058C0001037BD4680BD00BF080E0010AC9200002E
:1058D000BD5900000C0E001080B588B000AFF86014
:1058E000B9607A603B600023FB611A4B1B68002B98
:1058F0002AD0BB683B617B687B61FB68BB61BB688E
:10590000052B18DCFDF74AFE0346022B09D1114B8B
:10591000186807F110010023BA6A00F0E1FAF86193
:1059200012E00C4B186807F110010023002200F070
:10593000D7FAF86108E0074B186807F11001002357
:105940003A6800F077FBF861FB6918462037BD46DE
:1059500080BD00BF080E001080B586B002AF786031
:105960003960154B1B68DB68DB68FB60FB68043340
:105970001846FDF7AFF8FB68DB69012B14D1FB6813
:105980009A697B68D1187B683A68F86800F0BAF8C1
:105990000346002B08D00023009300237A680021DF
:1059A000F868FFF799FFB860FB685B6AF86898478A
:1059B00000BF1037BD4680BD000E001080B584B01A
:1059C00000AF786007F10803184600F057F8F86058
:1059D000BB681946F86800F003F800F0D5F8F1E765
:1059E00080B584B000AF78603960FDF775FA07F1D3
:1059F0000803184600F066F8F860BB68002B30D149
:105A00003B68002B0AD17A68FB689A4206D8FDF7FA
:105A100071FAF9687868FFF79FFF24E03B68002B74
:105A200008D0134B1B681B68002B0CBF01230023FD
:105A3000DBB23B600F4B18687A68FB68D31A3A6890
:105A4000194600F02BFDFDF755FA0346002B0AD14D
:105A5000094B4FF080521A60BFF34F8FBFF36F8F27
:105A600001E0FDF747FA00BF1037BD4680BD00BF1B
:105A7000040E0010080E001004ED00E080B485B0A4
:105A800000AF78600E4B1B681B68002B0CBF012316
:105A90000023DBB21A467B681A607B681B68002B08
:105AA00005D1074B1B68DB681B68FB6001E0002326
:105AB000FB60FB6818461437BD465DF8047B7047F1
:105AC000000E001080B584B000AF7860FDF7A0FA3A
:105AD000F8600B4B1B68FA689A4205D200F0D0F8C8
